:100000000C9476030C9493030C9493030C94930335
:100010000C9493030C9493030C9493030C94930308
:100020000C9493030C9493030C9493030C949303F8
:100030000C9493030C9493030C9493030C949303E8
:100040000C9493030C9493030C9493030C949303D8
:100050000C9493030C9493030C9493030C949303C8
:100060000C9493030C9493030C9493030C949303B8
:10007000084AD73B3BCE016E84BCBFFDC12F3D6C0F
:1000800074319ABD56833DDA3D00C77F11BED9E475
:10009000BB4C3E916BAAAABE000000803F0000004E
:1000A00000005C00000C000C007C287C2858DC68F8
:1000B000002410480028542840000C0000007884D8
:1000C000008478000054385400107C1000804000F8
:1000D00000101010000040000060100C0038543870
:1000E00000487C40004864580044542C001C107C9C
:1000F000005C5424003854240064140C0068542C10
:10010000004854380000480000804800001028448F
:100110000028282800442810000454080038445CB3
:1001200000781478007C542800384428007C443837
:10013000007C5444007C140400384474007C107C1F
:1001400000447C440020403C007C106C007C40401B
:10015000007C187C0078103C00384438007C14087F
:10016000003844B8007C14680048542400047C041F
:10017000007C407C003C603C007C307C006C106C5F
:10018000000C700C0064544C00007C44000C1060A7
:1001900000447C00000804080080808000000408FF
:1001A00000304878007C4830003048480030487CB7
:1001B00000306850001078140090A878007C087017
:1001C0000050744000808074007C106800447C40C3
:1001D00000781078007808700030483000F8281057
:1001E000003048F8007810080050582800083C48B3
:1001F000003840780038403800782078004830488F
:100200000098A078004868580010788400007C00AE
:1002100000847810000804080400000000000000BA
:100220005F00000007000700147F147F14242A7F5A
:100230002A12231308646236495522500005030030
:1002400000001C2241000041221C00082A1C2A0830
:1002500008083E0808005030000008080808080098
:100260006060000020100804023E5149453E0042F3
:100270007F400042615149462141454B31181412DB
:100280007F1027454545393C4A49493001710905E8
:10029000033649494936064949291E0036360000C9
:1002A000005636000000081422411414141414419E
:1002B000221408000201510906324979413E7E119B
:1002C00011117E7F494949363E414141227F4141DA
:1002D000221C7F494949417F090901013E414151A1
:1002E000327F0808087F00417F41002040413F01E4
:1002F0007F081422417F404040407F0204027F7FFC
:100300000408107F3E4141413E7F090909063E41F4
:1003100051215E7F09192946464949493101017F2A
:1003200001013F4040403F1F2040201F7F201820F8
:100330007F6314081463030478040361514945433F
:1003400000007F4141020408102041417F00000469
:1003500002010204404040404000010204002054D9
:100360005454787F48444438384444442038444402
:10037000487F3854545418087E0901020814545414
:100380003C7F0804047800447D40002040443D0048
:10039000007F10284400417F40007C041804787CD2
:1003A0000804047838444444387C141414080814AD
:1003B00014187C7C080404084854545420043F4416
:1003C00040203C4040207C1C2040201C3C403040D1
:1003D0003C44281028440C5050503C4464544C4435
:1003E000000836410000007F00000041360800028E
:1003F00001030201000000000000000000065F5F32
:10040000060000000007070007070000147F7F14A4
:100410007F7F1400242E6B6B3A1200004666301862
:100420000C666200307A4F5D377A4800040703009B
:1004300000000000001C3E63410000000041633EDC
:100440001C000000082A3E1C1C3E2A0808083E3EEC
:100450000808000000A0E06000000000080808088C
:100460000808000000006060000000006030180C08
:10047000060301003E7F594D7F3E000042427F7FD0
:1004800040400000627359496F6600002263494989
:100490007F360000181C16137F7F10002767454524
:1004A0007D3900003C7E4B497930000003637119AF
:1004B0000F070000367F49497F360000064F496923
:1004C0003F1E000000006C6C0000000000A0EC6CFF
:1004D00000000000081C36634100000014141414CE
:1004E00014140000004163361C0800000203515937
:1004F0000F0600003E7F415D5D1F1E007C7E1313D2
:100500007E7C0000417F7F49497F36001C3E63416D
:1005100041632200417F7F41637F1C00417F7F490F
:100520005D416300417F7F491D0103001C3E634123
:10053000517372007F7F08087F7F000000417F7F3A
:1005400041000000307040417F3F0100417F7F0843
:100550001C776300417F7F41406070007F7F060C05
:10056000067F7F007F7F060C187F7F001C3E634163
:10057000633E1C00417F7F49090F06001E3F217129
:100580007F5E0000417F7F19396F460026674D5915
:100590007B32000003417F7F410300007F7F4040AA
:1005A0007F7F00001F3F60603F1F00007F7F30188B
:1005B000307F7F0063771C081C776300074F7878D3
:1005C0004F0700006773594D47637100007F7F41FB
:1005D000410000000103060C183060000041417F1B
:1005E0007F000000080C0603060C08008080808055
:1005F00080808080000003070400000020745454B1
:100600003C784000413F7F44447C3800387C44447F
:100610006C280000307848493F7F4000387C5454B3
:100620005C180000487E7F490302000098BCA4A427
:10063000F87C0400417F7F08047C780000447D7DC5
:100640004000000040C484FD7D000000417F7F1019
:10065000386C440000417F7F400000007C7C0C1817
:100660000C7C78007C7C04047C780000387C44445A
:100670007C38000084FCF8A4243C1800183C24A416
:10068000F8FC8400447C78441C180000485C5454F6
:100690007424000000043E7F442400003C7C404061
:1006A0003C7C40001C3C60603C1C00003C7C60309A
:1006B000607C3C00446C3810386C44009CBCA0A0AA
:1006C000FC7C00004C64745C4C64000008083E77BD
:1006D0004141000000000077770000004141773E73
:1006E00008080000020301030203010011241FBED9
:1006F000CFEFD4E0DEBFCDBF13E0A0E0B1E0EAE28F
:10070000F8E202C005900D92A43EB107D9F713E0BC
:10071000A4EEB3E001C01D92A93FB107E1F70E942A
:10072000DF030C9413140C940000EF92FF920F93CC
:100730001F93CF93DF93E7EEF3E080818093E6038E
:10074000A8EEB3E08C918083E9EEF3E080818C9396
:10075000CAEED3E0888180830E94C6058883C0E00A
:10076000D0E00F2EFDE2EF2EF1E0FF2EF02D8E01F6
:100770000A511C4FF80180811F928F93DF93CF9312
:10078000FF92EF920E940610F80190812196FE01DF
:10079000EA51FC4F80810F900F900F900F900F90B7
:1007A0000F90891728F4C430D10509F70E949D0BDA
:1007B000DF91CF911F910F91FF90EF9008958FEFF0
:1007C00087BB8FE190E00E943F046AE474E086E416
:1007D00094E00E94BB0F85B7806885BF80B78062B8
:1007E00080BF88B38C6F88BB0E940A060E94B40742
:1007F00080E00E94890A0E94EF080F2EF3E4EF2E9A
:10080000F1E0FF2EF02D0F2EF3E5CF2EF1E0DF2EDD
:10081000F02D0EE511E0C2E7D1E08AE00E94370B2F
:10082000FF92EF920E9406100E9495030E944406D8
:100830000F900F901816190644F40E94D70ADF9201
:10084000CF920E9406100F900F900E94170B1F93DB
:100850000F930E9406100E94D1051F928F93DF9381
:10086000CF930E94061084E299E70197F1F7000008
:100870000F900F900F900F900F900F90CECF90BDD4
:1008800089B988E18AB98EE880BD08955D9BFECF65
:100890008CB908955F9903C08CB190E008958CB134
:1008A00090E008958093001486E692E00197F1F7B6
:1008B000000080910014089585360CF084E68C3990
:1008C0000CF48CE9089586E08093001486E692E0AB
:1008D0000197F1F700008091EB039091EC03609198
:1008E000001470E0681B790B882777FD8095982F9E
:1008F0000E94B90D23E333E343EA5FE30E941E0D38
:100900000E94860D862F0E945C04089587E08093E4
:10091000001486E692E00197F1F700008091ED0364
:100920009091EE036091001470E0681B790B8827AA
:1009300077FD8095982F0E94B90D23E333E343EAB6
:100940005FE30E941E0D0E94860D862F0E945C04AC
:100950000895CF92DF92EF92FF92CF930E946304AB
:10096000F82E0E948604C82FFF2031F16F2D7727C3
:1009700067FD7095872F972F0E94B90D6B017C0141
:100980006C2F772767FD7095872F972F0E94B90DE1
:10099000A70196010E94C70C20E030E044E353E435
:1009A0000E94990E28ED3FE049E450E40E941E0D9C
:1009B0000E94860DCB010CC088232CF0181634F051
:1009C00080E090E005C086EA9FEF02C08AE590E0F3
:1009D000CF91FF90EF90DF90CF900895CF930E943A
:1009E0006304C82F0E9486048802C0011124BC0140
:1009F000CC02600D711D1124882777FD8095982FFA
:100A00000E94B90D0E94000F0E94860D862FCF9183
:100A10000895CF93DF930E9463040E9486040E948E
:100A2000EE04C82F0E94A904C333B8F0AC014D52A4
:100A300051094A35510598F0AC0149575F4F4E3086
:100A400021E0520770F44A35510568F09C01235D9E
:100A50003F4F2A35310548F009C0D0E007C0D3E048
:100A600005C0D1E003C0D4E001C0D2E08D2FDF91FA
:100A7000CF910895CF93DF9387E08093001486E6AB
:100A800092E00197F1F70000E0E0F4E1808196E068
:100A90009083E6E6F2E03197F1F700001F928F9322
:100AA000809100141F928F9383E891E09F938F931E
:100AB0000E9406100E946304C82F0E948604D82F4B
:100AC0000E94A9049F938F932D2F332727FD3095E4
:100AD0003F93DF932C2F332727FD30953F93CF9300
:100AE00084E991E09F938F930E9406100E94EE0488
:100AF0001F928F9385EB91E09F938F930E94061036
:100B00000E9409051F928F938EEB91E09F938F9324
:100B10000E9406108DB79EB746960FB6F8949EBFFA
:100B20000FBE8DBFDF91CF910895CF93DF9385E006
:100B30008093001486E692E00197F1F70000C0E090
:100B4000D4E188811F928F938EEC91E09F938F93D5
:100B50000E94061084E0888386E692E00197F1F710
:100B60000000809100141F928F938EED91E09F936F
:100B70008F930E9406108DB79EB708960FB6F89413
:100B80009EBF0FBE8DBFDF91CF91089585E080930A
:100B9000001486E692E00197F1F7000080910014BE
:100BA000089584E08093001486E692E00197F1F7BF
:100BB000000080910014089524E180E090E0E0E0DE
:100BC000F4E146E04083A6E6B2E01197F1F70000B9
:100BD0003081830F911D2150A9F764E170E00E94DC
:100BE000900C862F089524E180E090E0E0E0F4E1AD
:100BF00047E04083A6E6B2E01197F1F700003081AC
:100C0000830F911D2150A9F764E170E00E94900CC0
:100C1000862F08950E94DC0590E09093EC0380936A
:100C2000EB030E94F30590E09093EE038093ED03B5
:100C30002091ED033091EE038091EB039091EC0352
:100C40003F932F939F938F938EEE91E09F938F937B
:100C50000E9406100F900F900F900F900F900F9022
:100C60000895813039F018F0823041F00CC086B31D
:100C70008170089586B386958170089586B382FB4E
:100C8000882780F908950895E6B376B366B34E2FAA
:100C9000417050E071FB882780F990E0840F951F28
:100CA00062FB222720F930E02F5F3F4F02C0880F00
:100CB000991F2A95E2F7880F880F0895863089F4E6
:100CC0008093001486E692E00197F1F7000080918E
:100CD000EB039091EC036091001470E0681B790BBA
:100CE0001DC0873089F48093001486E692E0019756
:100CF000F1F700008091ED039091EE0360910014F4
:100D000070E0681B790B0AC088E092E09F938F9394
:100D10000E9406100F900F9060E070E0882777FD2A
:100D20008095982F0E94B90D23E333E343EA5FE3F4
:100D30000E941E0D0E94860D862F0E945C0408955D
:100D4000FF920F931F93CF93DF93F82E062F662306
:100D500089F010E0C0E0D0E08F2D0E945E06C80F41
:100D6000D11D87FDDA9584EA8A95F1F71F5F10138C
:100D7000F3CF02C0C0E0D0E0602F70E0CE010E944F
:100D8000900C862FDF91CF911F910F91FF900895C6
:100D900080930010089580930012089528E0820245
:100DA000C00111248C509D4F40E0A0E0B2E1FC0155
:100DB000259134912C934F5F01964830C1F70895E7
:100DC000CF93DF93EC018881882331F021960E9434
:100DD000CE0689918111FBCFDF91CF9108952F929B
:100DE0003F924F925F926F927F928F929F92AF92BB
:100DF000BF92CF92DF92EF92FF920F931F93CF9308
:100E0000DF938C01462E512C612C712C22242394CB
:100E1000312CCCE7D0E042C00E94CE06C301B20123
:100E20000E94B70D4B015C0120E030E14BE954E436
:100E30000E94990E6B017C0120E030E040E85FE306
:100E40000E941A0D88232CF120E03FEF4FE757E472
:100E5000C701B6010E948E0E1816B4F420E030E0EF
:100E600040E251E4C501B4010E94990E0E948B0D2D
:100E70006115710599F0CE010197F1F76150710983
:100E800061157105C1F70AC0C701B6010E948B0D3B
:100E900002C0622D732DCB010197F1F7F80181910A
:100EA0008F018111B9CFDF91CF911F910F91FF90E9
:100EB000EF90DF90CF90BF90AF909F908F907F90FA
:100EC0006F905F904F903F902F90089528E082029E
:100ED000C00111248C509D4F40E0A0E0B2E1FC0124
:100EE0002591349120952C934F5F01964830B9F7A6
:100EF0000895E0E0F0E190E2908380830895E0E0DF
:100F0000F0E192E29083808387E080830895E0E0BF
:100F1000F0E191E2908380838FE780830895CF93FF
:100F2000C62F0E947F078C2F0E948707CF910895BC
:100F300060E080E00E948F0708950E94980780E09B
:100F400094E0E0E0F2E12FEF208301970097E1F7D2
:100F500008950E94980780E094E0E0E0F2E11082BA
:100F600001970097E1F70895E0E0F0E18EEA8083D1
:100F700081EA80838AED808382E1808388EC8083AC
:100F800088EA80838FE3808385ED808380E8808397
:100F900081E8808380E5808389ED808381E280839E
:100FA00080E2808310828BED808380E380838DEAF2
:100FB0008083108284EA808386EA80838FEA80833C
:100FC0000E94A90708950E94A90760E080E00E949E
:100FD0008F0781E292E00E94E00660E082E00E94DA
:100FE0008F0782E392E00E94E00660E083E00E94C7
:100FF0008F078DE392E00E94E00660E084E00E94AB
:101000008F0780E592E00E94E00660E085E00E94A4
:101010008F0787E592E00E94E00660E086E00E948C
:101020008F0786E692E00E94E00660E082E00E9480
:101030008F0781E30E946607089582E00E943106CF
:10104000882319F00E940905089585E00895FF920C
:101050000F931F93CF93DF930E94A90760E080E076
:101060000E948F078DE692E00E94E00660E082E039
:101070000E948F078EE792E00E94E00660E083E026
:101080000E948F0710E10F2EF0EDFF2EF02D07E0EC
:10109000CCE7D0E08EEF92E00E94E0068F2D902FFB
:1010A000FE013197F1F701970097D1F7115091F7B1
:1010B000DF91CF911F910F91FF9008950E94A90792
:1010C000FFCF1F93CF93DF930E94A90760E080E0DA
:1010D0000E948F078FE392E00E94E00660E081E0CB
:1010E0000E948F07C0E0D1E013E060E0812F0E94F2
:1010F0008F078EE2810F0E94CE0680E20E94CE060C
:10110000899199910E94E0061F5F183071F7DF9175
:10111000CF911F910895CF93DF930E946108C5E797
:10112000D0E303C0CE010197F1F70E941D088111A1
:10113000F9CF65E083E00E943909C82F0E94A90712
:1011400061E081E00E948F0786E892E00E94E0065D
:1011500060E082E00E948F0783E992E00E94E0064F
:1011600060E084E00E948F07EC2FF0E0EE0FFF1F9D
:10117000E050FF4F808191810E94E00680E395E777
:101180002CE730E0F9013197F1F701970097D1F79B
:101190000E94CD08DF91CF9108950E94E30765E09A
:1011A00082E00E943909823089F028F4882341F0D6
:1011B000813049F00895833061F0843069F00895FA
:1011C0000E94980908950E948B0808950E9427089C
:1011D00008950E94D80908950E94A907FFCFCF93D0
:1011E000DF930E94A90768E180E00E948F0762E315
:1011F00083EA92E00E94EF0668E381E00E948F0795
:1012000064EF8BEA92E00E94EF0664E183E00E94C3
:101210008F0768EC8EEA92E00E94EF0660E087E0BC
:101220000E948F0788E99AE32CE730E0F9013197B3
:10123000F1F701970097D1F78AEB92E00E94E00660
:10124000C5E7D0E303C0CE010197F1F70E941D0866
:101250008823C9F3C5E7D0E303C0CE010197F1F7B6
:101260000E941D088111F9CF0E94CD08DF91CF9116
:101270000895EF92FF920F931F93CF93DF93082F60
:10128000F62EC1E0D0E0EE24EA94E60E11E001C0B3
:10129000C12F0E941D088823D9F3CC23D1F38330BA
:1012A00019F128F48130C9F18230D1F1F2CF8430C4
:1012B00019F08530A9F1EDCF60E08D2F800F0E94ED
:1012C0008F0781E38D0F0E94CE06DF5FDF1101C023
:1012D000D0E060E08D2F800F0E948F0781E38D0F9B
:1012E0000E946607C0E0D5CF60E08D2F800F0E947E
:1012F0008F0781E38D0F0E94CE06D11102C0DE2D33
:1013000001C0D15060E08D2F800F0E948F0781E3D4
:101310008D0F0E946607C0E0BCCF0E94CD08B9CFF8
:101320008D2FDF91CF911F910F91FF90EF90089536
:101330000E94A90760E080E00E948F0789EC92E09C
:101340000E94E00660E082E00E948F0786ED92E056
:101350000E94E00668E682E00E948F0780910A0101
:10136000805D0E94CE060E941D088330B9F018F4FB
:10137000813029F0EFCF843039F0853059F70E9461
:10138000CD0880910A01089580910A01823010F3FE
:1013900080910A01815080930A01DCCF80910A017B
:1013A0008930C0F680910A018F5F80930A01D2CF05
:1013B0000E94A90760E080E00E948F0789E592E023
:1013C0000E94E00660E082E00E948F0784EE92E0D7
:1013D0000E94E00660E083E00E948F0780EF92E0C9
:1013E0000E94E0060E941D088130E1F70E94CD08AE
:1013F000F9CF87B3806B87BBBE9881E58DB9C49A5E
:1014000008950E94F90908958FB9779BFECF08953A
:1014100080E487BB8DB908958FEF8FB9779BFECF9E
:101420008FB10895CF93C82FC49883E00E94040A17
:101430008C2F0E94040A0E940C0AC49ACF9108952E
:10144000CF93DF93D82FC62FC49882E00E94040A5E
:101450008D2F0E94040A8C2F0E94040AC49ADF91E7
:10146000CF910895C4980E94040AC49A08951F93C6
:10147000CF93DF93182FD62FC42FC49885E00E94F6
:10148000040A812F0E94040A8D2F0E94040A8C2FC7
:101490000E94040ADF91CF911F910895C49880ECB7
:1014A0000E94040AC49A0895CF93DF93EC010E942E
:1014B000F9090E944E0A6C2F8FE00E94200A84EAEC
:1014C0008A95F1F78EE00E94120A807E282F30E084
:1014D0002C173D0751F08FE193E09F938F930E946B
:1014E00006100F900F9081E009C08FE493E09F9366
:1014F0008F930E9406100F900F9080E0DF91CF91A4
:101500000895C49880EA0E94040A0E940C0AC49AB2
:1015100008950E94540A089580E30E94120A80E30D
:101520000E94120A80E0089580E00E94120A91E071
:10153000811190E0892F08950F931F93CF938C0111
:101540000E94940A882379F1F8016081718176956F
:101550006795769567957695679581E30E94200A51
:10156000F80160816295660F607E82E30E94200A26
:10157000F80162816F7085E30E94200AF801828180
:10158000882371F0C0E0F801EC0FF11D638186E360
:101590008C0F0E94200ACF5FF8018281C81798F350
:1015A00081E80E94320ACF911F910F910895CF9345
:1015B000DF93CDB7DEB72B970FB6F894DEBF0FBE23
:1015C000CDBF84E690E09A83898381E08B830E947B
:1015D00044068C83CE0101960E949C0A2B960FB67E
:1015E000F894DEBF0FBECDBFDF91CF910895CF93AA
:1015F000DF93CDB7DEB72B970FB6F894DEBF0FBEE3
:10160000CDBF85E690E09A83898381E08B830E9439
:10161000C6058C83CE0101960E949C0A2B960FB6BC
:10162000F894DEBF0FBECDBFDF91CF910895CF9369
:10163000DF93CDB7DEB72B970FB6F894DEBF0FBEA2
:10164000CDBF86E690E09A83898381E08B830E94F8
:10165000D1058C83CE0101960E949C0A2B960FB671
:10166000F894DEBF0FBECDBFDF91CF910895CF9329
:10167000DF93CDB7DEB72B970FB6F894DEBF0FBE62
:10168000CDBF27E630E03A83298391E09B83682F22
:1016900086E00E94A00680588C83CE0101960E94AD
:1016A0009C0A2B960FB6F894DEBF0FBECDBFDF911C
:1016B000CF910895CF93DF93CDB7DEB72B970FB6B9
:1016C000F894DEBF0FBECDBF28E630E03A83298311
:1016D00091E09B83682F87E00E94A00680588C834E
:1016E000CE0101960E949C0A2B960FB6F894DEBF9D
:1016F0000FBECDBFDF91CF910895CF93DF93CDB7CC
:10170000DEB72B970FB6F894DEBF0FBECDBF89E6CC
:1017100090E09A83898381E08B830E94EE048C831E
:10172000CE0101960E949C0A2B960FB6F894DEBF5C
:101730000FBECDBFDF91CF910895CF93DF93CDB78B
:10174000DEB72B970FB6F894DEBF0FBECDBF8AE091
:1017500090E09A83898381E08B831C82CE0101967D
:101760000E949C0A2B960FB6F894DEBF0FBECDBF29
:10177000DF91CF9108950F931F93CF93DF93EC01E7
:101780000B8110E089818F9388818F938DE593E0A1
:101790009F938F930E9406108881998184569109A6
:1017A0000F900F900F900F908730910510F5880FD4
:1017B000991FFC01E75EFE4F81818F9380818F939B
:1017C00085E793E09F938F930E940610E881F9814B
:1017D000EE0FFF1FED5BFF4F808191819695982F53
:1017E000882797958795081B190B0F900F900F90DE
:1017F0000F90888199818A36910511F4000F111F8D
:101800001F930F938A811F928F9388E793E09F9392
:101810008F930E9406100F900F900F900F900F90D3
:101820000F90DF91CF911F910F9108950F931F9308
:10183000CF93DF938C0161E08BE20E94200A8CE25F
:101840000E94120AD82F80FF3AC081E60E94120A35
:10185000C82F82E60E94120A282F30E0359527957E
:101860003595279535952795359527953595279560
:10187000C90148E0C49F800D911D1124F801918396
:10188000808385E60E94120A8F70F8018283882384
:1018900071F0C0E086E68C0F0E94120AF801EC0F8E
:1018A000F11D8383CF5FF8019281C91798F3C801B6
:1018B0000E94BB0B6FEF6D0F8CE20E94200ADF913C
:1018C000CF911F910F910895CF93DF93CDB7DEB7DE
:1018D0002B970FB6F894DEBF0FBECDBF0E94A904B0
:1018E0002AE630E03A83298321E02B839C01992367
:1018F00014F42F5F3F4F3595279520582C83CE0148
:1019000001960E949C0ACE0101960E94BB0B2B9669
:101910000FB6F894DEBF0FBECDBFDF91CF91089513
:1019200097FB072E16F4009407D077FD09D00E948C
:10193000A40C07FC05D03EF4909581959F4F089527
:10194000709561957F4F0895AA1BBB1B51E107C09D
:10195000AA1FBB1FA617B70710F0A61BB70B881F3F
:10196000991F5A95A9F780959095BC01CD010895CE
:101970008DD158F080E891E009F49EEF8ED128F0E7
:1019800040E851E059F45EEF09C058C1C0C1E92FE9
:10199000E0789BD168F3092E052AC1F32617370793
:1019A0004807590738F00E2E07F8E02569F0E025C2
:1019B000E0640AC0EF6307F8009407FADB01B9019D
:1019C0009D01DC01CA01AD01EF9347D06DD10AD072
:1019D0005F91552331F02BED3FE049E450FD49EC98
:1019E00051C20895DF93DD27B92FBF7740E85FE349
:1019F0001616170648075B0710F4D92F93D19F934B
:101A00008F937F936F933AD2E0E7F0E01AD14CD1F5
:101A10002F913F914F915F9198D1DD2349F09058DC
:101A2000A2EA2AED3FE049EC5FE3D0785D273BD2A4
:101A3000DF913AC1D9D008F481E008950CD034C1C7
:101A40002CD140F023D130F021F45F3F19F0F0C0E9
:101A500051115EC1F3C039D198F39923C9F35523CD
:101A6000B1F3951B550BBB27AA2762177307840791
:101A700038F09F5F5F4F220F331F441FAA1FA9F347
:101A800033D00E2E3AF0E0E830D091505040E69539
:101A9000001CCAF729D0FE2F27D0660F771F881F9A
:101AA000BB1F261737074807AB07B0E809F0BB0B89
:101AB000802DBF01FF2793585F4F2AF09E3F5105AD
:101AC00068F0B6C025C15F3FECF3983EDCF3869525
:101AD00077956795B795F7959F5FC9F7880F911D23
:101AE0009695879597F90895E1E0660F771F881F0F
:101AF000BB1F621773078407BA0720F0621B730BC2
:101B0000840BBA0BEE1F88F7E095089504D0689413
:101B1000B111FEC00895E1D088F09F5790F0B92F21
:101B20009927B751A0F0D1F0660F771F881F991F32
:101B30001AF0BA95C9F712C0B13081F0E8D0B1E01F
:101B40000895E5C0672F782F8827B85F39F0B93F2F
:101B5000CCF3869577956795B395D9F73EF4909534
:101B60008095709561957F4F8F4F9F4F0895E894B2
:101B700009C097FB3EF490958095709561957F4FD5
:101B80008F4F9F4F9923A9F0F92F96E9BB27939583
:101B9000F695879577956795B795F111F8CFFAF493
:101BA000BB0F11F460FF1BC06F5F7F4F8F4F9F4FC4
:101BB00016C0882311F096E911C0772321F09EE822
:101BC000872F762F05C0662371F096E8862F70E088
:101BD00060E02AF09A95660F771F881FDAF7880F62
:101BE0009695879597F90895990F0008550FAA0BB8
:101BF000E0E8FEEF16161706E807F907C0F0121620
:101C00001306E407F50798F0621B730B840B950B22
:101C100039F40A2661F0232B242B252B21F4089577
:101C20000A2609F4A140A6958FEF811D811D089514
:101C300097F99F6780E870E060E008959FEF80EC7F
:101C40000895DF93CF931F930F93FF92EF92DF924C
:101C50007B018C01689405C0DA2EEF0176D0FE017D
:101C6000E894A5912591359145915591AEF3EF01F9
:101C70001AD1FE019701A801DA9479F7DF90EF906D
:101C8000FF900F911F91CF91DF91089500240A9446
:101C90001616170618060906089500240A94121647
:101CA0001306140605060895092E0394000C11F47A
:101CB000882352F0BB0F40F4BF2B11F460FF04C027
:101CC0006F5F7F4F8F4F9F4F089557FD9058440F80
:101CD000551F59F05F3F71F04795880F97FB991F8B
:101CE00061F09F3F79F08795089512161306140648
:101CF000551FF2CF4695F1DF08C0161617061806D5
:101D0000991FF1CF86957105610508940895E894AF
:101D1000BB2766277727CB0197F9089565DF08F47D
:101D20008FEF08959B01AC0160E070E080E89FE3D5
:101D300085CE0BD0B9CFAADF28F0AFDF18F09523FE
:101D400009F076CF7BCF1124E3CFBFDFA0F3959FBF
:101D5000D1F3950F50E0551F629FF001729FBB2792
:101D6000F00DB11D639FAA27F00DB11DAA1F649F3E
:101D70006627B00DA11D661F829F2227B00DA11DF1
:101D8000621F739FB00DA11D621F839FA00D611D77
:101D9000221F749F3327A00D611D231F849F600D98
:101DA000211D822F762F6A2F11249F5750408AF0D1
:101DB000E1F088234AF0EE0FFF1FBB1F661F771F5D
:101DC000881F91505040A9F79E3F510570F030CFC9
:101DD0009FCF5F3FECF3983EDCF386957795679550
:101DE000B795F795E7959F5FC1F7FE2B880F911D7B
:101DF0009695879597F9089511F40EF41FCFA6C014
:101E00006CDFD0F39923D9F3CEF39F57550B87FF9F
:101E1000ABD00024A0E640EA9001805856959795F3
:101E200028F4805C660F771F881F20F0261737077D
:101E3000480730F4621B730B840B202931294A2B8D
:101E4000A69517940794202531254A2758F7660F41
:101E5000771F881F20F026173707480730F4620BDA
:101E6000730B840B200D311D411DA09581F7B90125
:101E7000842F9158880F9695879508959B01AC0102
:101E800058CF5058BB27AA270ED00ECFFFDE30F018
:101E900004DF20F031F49F3F11F41EF4CFCE0EF496
:101EA000E095E7FBC5CEE92F10DF80F3BA17620794
:101EB00073078407950718F071F49EF528CF0EF488
:101EC000E0950B2EBA2FA02D0B01B90190010C014A
:101ED000CA01A0011124FF27591B99F0593F50F462
:101EE000503E68F11A16F040A22F232F342F4427BA
:101EF000585FF3CF469537952795A795F0405395B2
:101F0000C9F77EF41F16BA0B620B730B840BBAF081
:101F10009150A1F0FF0FBB1F661F771F881FC2F7EC
:101F20000EC0BA0F621F731F841F48F48795779500
:101F30006795B795F7959E3F08F0B3CF9395880FB7
:101F400008F09927EE0F9795879508959F3F31F0F8
:101F5000915020F4879577956795B795880F911DD7
:101F60009695879597F9089591505040660F771F81
:101F7000881FD2F708950F931F93CF93DF93EC013F
:101F80008B01009731F46115710519F480E090E040
:101F900038C06EE070E081E090E00E94EC11FC013E
:101FA0000097A1F380E883830115110571F0138771
:101FB000028781E883838091EF039091F003892B5E
:101FC00021F4F093F003E093EF032097C9F0D18759
:101FD000C0878381826083838091F1039091F203B3
:101FE000892B71F4F093F203E093F1038091F303F2
:101FF0009091F403892B21F4F093F403E093F3031D
:10200000CF01DF91CF911F910F910895A0E0B0E033
:10201000ECE0F0E10C94EC13FE01359661917191C6
:10202000AF018091F1039091F2030E941A10E2E057
:102030000C940814ACE0B0E0E0E2F0E10C94DC13A6
:102040007C016B018A01FC0117821682838181FF6A
:10205000BDC1CE0101964C01F7019381F60193FDBC
:10206000859193FF81916F01882309F4ABC185327B
:1020700039F493FD859193FF81916F01853229F4A5
:10208000B70190E00E944C13E7CF512C312C20E097
:102090002032A0F48B3269F030F4803259F0833270
:1020A00069F420612CC08D3239F0803339F421601D
:1020B00026C02260246023C0286021C027FD27C0DD
:1020C00030ED380F3A3078F426FF06C0FAE05F9E14
:1020D000300D1124532E13C08AE0389E300D112488
:1020E000332E20620CC08E3221F426FD6BC1206499
:1020F00006C08C3611F4206802C0883641F4F6011F
:1021000093FD859193FF81916F018111C1CF982F2C
:102110009F7D9554933028F40C5F1F4FFFE3F983A4
:102120000DC0833631F0833771F0833509F05BC021
:1021300022C0F801808189830E5F1F4F442443949D
:10214000512C540115C03801F2E06F0E711CF801DA
:10215000A080B18026FF03C0652D70E002C06FEF44
:102160007FEFC5012C870E9441132C0183012C8530
:102170002F77222E17C03801F2E06F0E711CF80184
:10218000A080B18026FF03C0652D70E002C06FEF14
:102190007FEFC5012C870E942F132C012C8520680E
:1021A000222E830123FC1BC0832D90E04816590684
:1021B000B0F4B70180E290E00E944C133A94F4CF5F
:1021C000F50127FC859127FE81915F01B70190E021
:1021D0000E944C1331103A94F1E04F1A5108411407
:1021E000510471F7E5C0843611F0893639F5F801EC
:1021F00027FF07C060817181828193810C5F1F4F2F
:1022000008C060817181882777FD8095982F0E5FC7
:102210001F4F2F76B22E97FF09C09095809570952D
:1022200061957F4F8F4F9F4F2068B22E2AE030E09C
:10223000A4010E947E13A82EA81844C0853729F453
:102240002F7EB22E2AE030E025C0F22FF97FBF2E7C
:102250008F36C1F018F4883579F0B4C0803719F0A2
:10226000883721F0AFC02F2F2061B22EB4FE0DC0F1
:102270008B2D8460B82E09C024FF0AC09F2F966062
:10228000B92E06C028E030E005C020E130E002C0F1
:1022900020E132E0F801B7FE07C0608171818281E0
:1022A00093810C5F1F4F06C06081718180E090E0D8
:1022B0000E5F1F4FA4010E947E13A82EA818FB2DAD
:1022C000FF77BF2EB6FE0BC02B2D2E7FA51450F42A
:1022D000B4FE0AC0B2FC08C02B2D2E7E05C07A2C9D
:1022E0002B2D03C07A2C01C0752C24FF0DC0FE01DC
:1022F000EA0DF11D8081803311F4297E09C022FF8F
:1023000006C07394739404C0822F867809F0739486
:1023100023FD13C020FF06C05A2C731418F4530C6D
:102320005718732C731468F4B70180E290E02C877F
:102330000E944C1373942C85F5CF731410F4371846
:1023400001C0312C24FF12C0B70180E390E02C873C
:102350000E944C132C8522FF17C021FF03C088E583
:1023600090E002C088E790E0B7010CC0822F867829
:1023700059F021FD02C080E201C08BE227FD8DE211
:10238000B70190E00E944C13A51438F4B70180E324
:1023900090E00E944C135A94F7CFAA94F401EA0DEE
:1023A000F11D8081B70190E00E944C13A110F5CF80
:1023B000332009F451CEB70180E290E00E944C1323
:1023C0003A94F6CFF7018681978102C08FEF9FEF95
:1023D0002C96E2E10C94F8130F931F93CF93DF93A5
:1023E000869F8001879F100D969F100D1124C801B4
:1023F0000E940812EC01009729F0A80160E070E04B
:102400000E943A13CE01DF91CF911F910F91089551
:10241000CF93DF938230910510F482E090E0E09159
:10242000F703F091F80320E030E0A0E0B0E030974F
:1024300039F14081518148175907B8F048175907B9
:1024400071F482819381109729F013969C938E9357
:1024500012972CC09093F8038093F70327C021159F
:10246000310531F04217530718F0A901DB0101C013
:10247000EF019A01BD01DF010280F381E02DD7CF8A
:1024800021153105F9F0281B390B2430310580F472
:102490008A819B816115710521F0FB019383828301
:1024A00004C09093F8038093F703FE01329644C072
:1024B000FE01E20FF31F819391932250310939837A
:1024C00028833AC02091F5033091F603232B41F481
:1024D0002091290130912A013093F6032093F503CE
:1024E00020912701309128012115310541F42DB7A4
:1024F0003EB740912B0150912C01241B350BE091EC
:10250000F503F091F603E217F307A0F42E1B3F0B3F
:102510002817390778F0AC014E5F5F4F2417350755
:1025200048F04E0F5F1F5093F6034093F5038193DD
:10253000919302C0E0E0F0E0CF01DF91CF910895E8
:10254000CF93DF93009709F487C0FC013297138281
:102550001282C091F703D091F803209781F4208173
:102560003181280F391F8091F5039091F60382176E
:10257000930779F5F093F603E093F5036DC0DE0160
:1025800020E030E0AE17BF0750F412964D915C91F9
:1025900013979D014115510509F1DA01F3CFB3837A
:1025A000A28340815181840F951F8A179B0771F484
:1025B0008D919C911197840F951F02969183808332
:1025C00012968D919C9113979383828321153105E7
:1025D00029F4F093F803E093F7033EC0D901139672
:1025E000FC93EE9312974D915D91A40FB51FEA17DE
:1025F000FB0779F480819181840F951F0296D901A0
:1026000011969C938E938281938113969C938E93C3
:102610001297E0E0F0E08A819B81009719F0FE01BB
:10262000EC01F9CFCE01029628813981820F931FE8
:102630002091F5033091F6032817390769F4309794
:1026400029F41092F8031092F70302C01382128249
:10265000D093F603C093F503DF91CF910895FC0169
:102660000590615070400110D8F7809590958E0FBD
:102670009F1F0895DC0101C06D9341505040E0F769
:102680000895FC016150704001900110D8F78095C9
:1026900090958E0F9F1F08950F931F93CF93DF93F5
:1026A000182F092FEB018B8181FD03C08FEF9FEF66
:1026B00020C082FF10C04E815F812C813D81421776
:1026C00053077CF4E881F9819F012F5F3F4F3983E5
:1026D0002883108306C0E885F985812F0995892B09
:1026E00029F72E813F812F5F3F4F3F832E83812F1C
:1026F000902FDF91CF911F910F910895FA01AA2792
:10270000283051F1203181F1E8946F936E7F6E5F34
:102710007F4F8F4F9F4FAF4FB1E03ED0B4E03CD0E2
:10272000670F781F891F9A1FA11D680F791F8A1FC5
:10273000911DA11D6A0F711D811D911DA11D20D02C
:1027400009F468943F912AE0269F11243019305DE6
:102750003193DEF6CF010895462F4770405D4193D7
:10276000B3E00FD0C9F7F6CF462F4F70405D4A3324
:1027700018F0495D31FD4052419302D0A9F7EACFEC
:10278000B4E0A6959795879577956795BA95C9F71B
:1027900000976105710508959B01AC010A2E06940E
:1027A0005795479537952795BA95C9F7620F731FC7
:1027B000841F951FA01D08952F923F924F925F9204
:1027C0006F927F928F929F92AF92BF92CF92DF9241
:1027D000EF92FF920F931F93CF93DF93CDB7DEB7A6
:1027E000CA1BDB0B0FB6F894DEBF0FBECDBF09943A
:1027F0002A88398848885F846E847D848C849B8491
:10280000AA84B984C884DF80EE80FD800C811B819E
:10281000AA81B981CE0FD11D0FB6F894DEBF0FBECD
:0A282000CDBFED010895F894FFCF3D
:10282A00000306030C031203180301000000000052
:10283A000001000100000001008F0393039F03AC15
:10284A0003B703C203D5030000F903200009627528
:10285A0066666572202564656E642067616D652011
:10286A00256400785F4A6F797469636B2073656EBB
:10287A0074090062746E732073656E74090072695C
:10288A0067687420736C696465722073656E740A74
:10289A000D0076616C75652073656E74203A20258B
:1028AA0064090059203A2025753B2058203A2025F2
:1028BA0064092000583A2025642025252C20593AFD
:1028CA00202564202525202C20616E676C653A201E
:1028DA0025642009004D41473A20256409004449EE
:1028EA0052454354494F4E3A2025640A0D00736CF1
:1028FA0069646572204C203A202564200900736CB3
:10290A00696465722052203A2025642009006F66A6
:10291A006673657473203A20782C79203A202564EE
:10292A00203B2025640A0A006572726F722C20759A
:10293A006E6B6E6F776E20646972656374696F6E11
:10294A00002050494E472D504F4E47204D656E7519
:10295A002000312053657474696E67730032204316
:10296A00686F6F7365206368617261637465720072
:10297A003320506C61790034204C656164657220A3
:10298A00426F6172640035205175697400205049A4
:10299A004E472D504F4E472067616D6520004C6FA2
:1029AA006164696E6700476F6F642063686F69636B
:1029BA00653A00596F7520686176652063686F73A0
:1029CA00656E0057656C636F6D6500546F00504902
:1029DA004E47202D20504F4E4700546F7563682094
:1029EA004A6F79737469636B0053657474696E67AF
:1029FA00207061676500646966666963756C7479DD
:102A0A00203F20003120415A45525459203C33007E
:102A1A003220537475642E206173736973742E00A7
:102A2A004D6172696F005065616368004C75696732
:102A3A007900696E616B6900636C61697265004D4A
:102A4A00435032353135206973204E4F5420696E18
:102A5A00207468652063686F73656E206D6F6465A6
:102A6A002061667465722072657365740A0D004789
:102A7A006F6F6420636F6E6669670A0D004D657338
:102A8A00736167652072656365697665643A206972
:102A9A0064202564002573004C656E6774683A20CB
:102AAA00256409206D73673A2025640A0D200042C7
:102ABA00544E006C6566745F736C6964657200726B
:102ACA00696768745F736C69646572006A6F7973A9
:102ADA007469636B5F58006A6F79737469636B5FBB
:102AEA0059006A6F79737469636B5F6D61676E69A8
:102AFA0074756465006A6F79737469636B5F616E7C
:042B0A00676C65008F
:00000001FF
