:100000000C9476030C9493030C9493030C94930335
:100010000C9493030C9493030C9493030C94930308
:100020000C9493030C9493030C9493030C949303F8
:100030000C9493030C9493030C9493030C949303E8
:100040000C9493030C9493030C9493030C949303D8
:100050000C9493030C9493030C9493030C949303C8
:100060000C9493030C9493030C9493030C949303B8
:10007000084AD73B3BCE016E84BCBFFDC12F3D6C0F
:1000800074319ABD56833DDA3D00C77F11BED9E475
:10009000BB4C3E916BAAAABE000000803F0000004E
:1000A00000005C00000C000C007C287C2858DC68F8
:1000B000002410480028542840000C0000007884D8
:1000C000008478000054385400107C1000804000F8
:1000D00000101010000040000060100C0038543870
:1000E00000487C40004864580044542C001C107C9C
:1000F000005C5424003854240064140C0068542C10
:10010000004854380000480000804800001028448F
:100110000028282800442810000454080038445CB3
:1001200000781478007C542800384428007C443837
:10013000007C5444007C140400384474007C107C1F
:1001400000447C440020403C007C106C007C40401B
:10015000007C187C0078103C00384438007C14087F
:10016000003844B8007C14680048542400047C041F
:10017000007C407C003C603C007C307C006C106C5F
:10018000000C700C0064544C00007C44000C1060A7
:1001900000447C00000804080080808000000408FF
:1001A00000304878007C4830003048480030487CB7
:1001B00000306850001078140090A878007C087017
:1001C0000050744000808074007C106800447C40C3
:1001D00000781078007808700030483000F8281057
:1001E000003048F8007810080050582800083C48B3
:1001F000003840780038403800782078004830488F
:100200000098A078004868580010788400007C00AE
:1002100000847810000804080400000000000000BA
:100220005F00000007000700147F147F14242A7F5A
:100230002A12231308646236495522500005030030
:1002400000001C2241000041221C00082A1C2A0830
:1002500008083E0808005030000008080808080098
:100260006060000020100804023E5149453E0042F3
:100270007F400042615149462141454B31181412DB
:100280007F1027454545393C4A49493001710905E8
:10029000033649494936064949291E0036360000C9
:1002A000005636000000081422411414141414419E
:1002B000221408000201510906324979413E7E119B
:1002C00011117E7F494949363E414141227F4141DA
:1002D000221C7F494949417F090901013E414151A1
:1002E000327F0808087F00417F41002040413F01E4
:1002F0007F081422417F404040407F0204027F7FFC
:100300000408107F3E4141413E7F090909063E41F4
:1003100051215E7F09192946464949493101017F2A
:1003200001013F4040403F1F2040201F7F201820F8
:100330007F6314081463030478040361514945433F
:1003400000007F4141020408102041417F00000469
:1003500002010204404040404000010204002054D9
:100360005454787F48444438384444442038444402
:10037000487F3854545418087E0901020814545414
:100380003C7F0804047800447D40002040443D0048
:10039000007F10284400417F40007C041804787CD2
:1003A0000804047838444444387C141414080814AD
:1003B00014187C7C080404084854545420043F4416
:1003C00040203C4040207C1C2040201C3C403040D1
:1003D0003C44281028440C5050503C4464544C4435
:1003E000000836410000007F00000041360800028E
:1003F00001030201000000000000000000065F5F32
:10040000060000000007070007070000147F7F14A4
:100410007F7F1400242E6B6B3A1200004666301862
:100420000C666200307A4F5D377A4800040703009B
:1004300000000000001C3E63410000000041633EDC
:100440001C000000082A3E1C1C3E2A0808083E3EEC
:100450000808000000A0E06000000000080808088C
:100460000808000000006060000000006030180C08
:10047000060301003E7F594D7F3E000042427F7FD0
:1004800040400000627359496F6600002263494989
:100490007F360000181C16137F7F10002767454524
:1004A0007D3900003C7E4B497930000003637119AF
:1004B0000F070000367F49497F360000064F496923
:1004C0003F1E000000006C6C0000000000A0EC6CFF
:1004D00000000000081C36634100000014141414CE
:1004E00014140000004163361C0800000203515937
:1004F0000F0600003E7F415D5D1F1E007C7E1313D2
:100500007E7C0000417F7F49497F36001C3E63416D
:1005100041632200417F7F41637F1C00417F7F490F
:100520005D416300417F7F491D0103001C3E634123
:10053000517372007F7F08087F7F000000417F7F3A
:1005400041000000307040417F3F0100417F7F0843
:100550001C776300417F7F41406070007F7F060C05
:10056000067F7F007F7F060C187F7F001C3E634163
:10057000633E1C00417F7F49090F06001E3F217129
:100580007F5E0000417F7F19396F460026674D5915
:100590007B32000003417F7F410300007F7F4040AA
:1005A0007F7F00001F3F60603F1F00007F7F30188B
:1005B000307F7F0063771C081C776300074F7878D3
:1005C0004F0700006773594D47637100007F7F41FB
:1005D000410000000103060C183060000041417F1B
:1005E0007F000000080C0603060C08008080808055
:1005F00080808080000003070400000020745454B1
:100600003C784000413F7F44447C3800387C44447F
:100610006C280000307848493F7F4000387C5454B3
:100620005C180000487E7F490302000098BCA4A427
:10063000F87C0400417F7F08047C780000447D7DC5
:100640004000000040C484FD7D000000417F7F1019
:10065000386C440000417F7F400000007C7C0C1817
:100660000C7C78007C7C04047C780000387C44445A
:100670007C38000084FCF8A4243C1800183C24A416
:10068000F8FC8400447C78441C180000485C5454F6
:100690007424000000043E7F442400003C7C404061
:1006A0003C7C40001C3C60603C1C00003C7C60309A
:1006B000607C3C00446C3810386C44009CBCA0A0AA
:1006C000FC7C00004C64745C4C64000008083E77BD
:1006D0004141000000000077770000004141773E73
:1006E00008080000020301030203010011241FBED9
:1006F000CFEFD4E0DEBFCDBF13E0A0E0B1E0ECE08F
:10070000F8E202C005900D92A43DB107D9F713E0BD
:10071000A4EDB3E001C01D92A93EB107E1F70E942C
:10072000DF030C9404140C940000EF92FF920F93DB
:100730001F93CF93DF93E7EDF3E080818093D6039F
:10074000A8EDB3E08C918083E9EDF3E080818C9398
:10075000CAEDD3E0888180830E94B1058883C0E020
:10076000D0E00F2EF6E2EF2EF1E0FF2EF02D8E01FD
:100770000A521C4FF80180811F928F93DF93CF9311
:10078000FF92EF920E94F70FF80190812196FE01EF
:10079000EA52FC4F80810F900F900F900F900F90B6
:1007A0000F90891728F4C430D10509F70E94490C2D
:1007B000DF91CF911F910F91FF90EF90089588B333
:1007C0008C6F88BB8FE190E00E942A0465E374E09F
:1007D00081E394E00E94AC0F85B7806885BF80B745
:1007E000806280BF0E94F5050E949E0780E00E9403
:1007F000920A0E94D9080CE311E00F2EFCE4EF2EC0
:10080000F1E0FF2EF02DC7E5D1E08AE00E94BF0B9A
:100810001F930F930E94F70F0E9495030E942F06CB
:100820000F900F90882341F00E94650BFF92EF928A
:100830000E94F70F0F900F900E94A10BDF93CF93B0
:100840000E94F70F84E299E70197F1F700000F90FB
:100850000F90DBCF90BD89B988E18AB98EE880BD61
:1008600008955D9BFECF8CB908955F9903C08CB14C
:1008700090E008958CB190E008958093001486E68E
:1008800092E00197F1F700008091001408958536F9
:100890000CF084E68C390CF48CE9089586E08093A2
:1008A000001486E692E00197F1F700008091DB03E7
:1008B0009091DC036091001470E0681B790B88272D
:1008C00077FD8095982F0E94AA0D23E333E343EA36
:1008D0005FE30E940F0D0E94770D862F0E94470450
:1008E000089587E08093001486E692E00197F1F77F
:1008F00000008091DD039091DE036091001470E0B0
:10090000681B790B882777FD8095982F0E94AA0D88
:1009100023E333E343EA5FE30E940F0D0E94770D68
:10092000862F0E9447040895CF92DF92EF92FF92A4
:10093000CF930E944E04F82E0E947104C82FFF200E
:1009400031F16F2D772767FD7095872F972F0E94C4
:10095000AA0D6B017C016C2F772767FD7095872F9F
:10096000972F0E94AA0DA70196010E94B80C20E0C3
:1009700030E044E353E40E948A0E28ED3FE049E46E
:1009800050E40E940F0D0E94770DCB010CC088230C
:100990002CF0181634F080E090E005C086EA9FEF56
:1009A00002C08AE590E0CF91FF90EF90DF90CF906A
:1009B0000895CF930E944E04C82F0E9471048802AC
:1009C000C0011124BC01CC02600D711D11248827C7
:1009D00077FD8095982F0E94AA0D0E94F10E0E942B
:1009E000770D862FCF910895CF93DF930E944E0409
:1009F0000E9471040E94D904C82F0E949404C3333A
:100A0000B8F0AC014D5251094A35510598F0AC018E
:100A100049575F4F4E3021E0520770F44A35510577
:100A200068F09C01235D3F4F2A35310548F009C02D
:100A3000D0E007C0D3E005C0D1E003C0D4E001C0DE
:100A4000D2E08D2FDF91CF910895CF93DF9387E090
:100A50008093001486E692E00197F1F70000E0E051
:100A6000F4E1808196E09083E6E6F2E03197F1F7D9
:100A700000001F928F93809100141F928F938BE63A
:100A800091E09F938F930E94F70F0E944E04C82F0E
:100A90000E947104D82F0E9494049F938F932D2F4E
:100AA000332727FD30953F93DF932C2F332727FDE6
:100AB00030953F93CF938CE791E09F938F930E9463
:100AC000F70F0E94D9041F928F938DE991E09F93B5
:100AD0008F930E94F70F0E94F4041F928F9386EA6F
:100AE00091E09F938F930E94F70F8DB79EB7469624
:100AF0000FB6F8949EBF0FBE8DBFDF91CF910895C2
:100B0000CF93DF9385E08093001486E692E001970F
:100B1000F1F70000C0E0D4E188811F928F9386EB4B
:100B200091E09F938F930E94F70F84E0888386E67D
:100B300092E00197F1F70000809100141F928F93CB
:100B400086EC91E09F938F930E94F70F8DB79EB72D
:100B500008960FB6F8949EBF0FBE8DBFDF91CF9160
:100B6000089585E08093001486E692E00197F1F7FE
:100B7000000080910014089584E08093001486E6BC
:100B800092E00197F1F7000080910014089524E1AC
:100B900080E090E0E0E0F4E146E04083A6E6B2E0E9
:100BA0001197F1F700003081830F911D2150A9F7B3
:100BB00064E170E00E94810C862F089524E180E0BA
:100BC00090E0E0E0F4E147E04083A6E6B2E0119770
:100BD000F1F700003081830F911D2150A9F764E1E6
:100BE00070E00E94810C862F08950E94C70590E056
:100BF0009093DC038093DB030E94DE0590E09093EA
:100C0000DE038093DD032091DD033091DE038091CC
:100C1000DB039091DC033F932F939F938F9386ED9B
:100C200091E09F938F930E94F70F0F900F900F907A
:100C30000F900F900F900895813039F018F08230A6
:100C400041F00CC086B38170089586B3869581709B
:100C5000089586B382FB882780F908950895E6B346
:100C600076B366B34E2F417050E071FB882780F950
:100C700090E0840F951F62FB222720F930E02F5F60
:100C80003F4F02C0880F991F2A95E2F7880F880FFF
:100C90000895863089F48093001486E692E00197E7
:100CA000F1F700008091DB039091DC036091001468
:100CB00070E0681B790B1DC0873089F480930014A5
:100CC00086E692E00197F1F700008091DD039091B4
:100CD000DE036091001470E0681B790B0AC080EF9E
:100CE00091E09F938F930E94F70F0F900F9060E019
:100CF00070E0882777FD8095982F0E94AA0D23E346
:100D000033E343EA5FE30E940F0D0E94770D862FC5
:100D10000E9447040895FF920F931F93CF93DF9390
:100D2000F82E062F662389F010E0C0E0D0E08F2D6A
:100D30000E944906C80FD11D87FDDA9584EA8A957D
:100D4000F1F71F5F1013F3CF02C0C0E0D0E0602FB7
:100D500070E0CE010E94810C862FDF91CF911F9110
:100D60000F91FF90089580930010089580930012D2
:100D7000089528E08202C00111248C509D4F40E06C
:100D8000A0E0B2E1FC01259134912C934F5F0196D4
:100D90004830C1F70895CF93DF93EC018881882311
:100DA00031F021960E94B90689918111FBCFDF9124
:100DB000CF9108952F923F924F925F926F927F92C0
:100DC0008F929F92AF92BF92CF92DF92EF92FF925B
:100DD0000F931F93CF93DF938C012B01612C712C08
:100DE00022242394312CCCE7D0E042C00E94B906E3
:100DF000C301B2010E94A80D4B015C0120E030E16B
:100E00004BE954E40E948A0E6B017C0120E030E043
:100E100040E85FE30E940B0D88232CF120E03FEFB8
:100E20004FE757E4C701B6010E947F0E1816B4F4CD
:100E300020E030E040E251E4C501B4010E948A0E96
:100E40000E947C0D6115710599F0CE010197F1F7B3
:100E50006150710961157105C1F70AC0C701B6017A
:100E60000E947C0D02C0622D732DCB010197F1F71A
:100E7000F80181918F018111B9CFDF91CF911F913D
:100E80000F91FF90EF90DF90CF90BF90AF909F9029
:100E90008F907F906F905F904F903F902F9008952C
:100EA00028E08202C00111248C509D4F40E0A0E058
:100EB000B2E1FC012591349120952C934F5F01966E
:100EC0004830B9F70895E0E0F0E190E29083808344
:100ED0000895E0E0F0E192E29083808387E08083F0
:100EE0000895E0E0F0E191E2908380838FE78083D2
:100EF0000895CF93C62F0E9469078C2F0E94710717
:100F0000CF91089560E080E00E94790708950E94E3
:100F1000820780E094E0E0E0F2E12FEF2083019788
:100F20000097E1F708950E94820780E094E0E0E0F6
:100F3000F2E1108201970097E1F70895E0E0F0E117
:100F40008EEA808381EA80838AED808382E18083D8
:100F500088EC808388EA80838FE3808385ED8083BB
:100F600080E8808381E8808380E5808389ED8083C9
:100F700081E2808380E2808310828BED808380E336
:100F800080838DEA8083108284EA808386EA80836E
:100F90008FEA80830E94930708950E94930760E080
:100FA00080E00E94790789E092E00E94CB0660E031
:100FB00082E00E9479078AE192E00E94CB0660E01D
:100FC00083E00E94790785E292E00E94CB0660E010
:100FD00084E00E94790788E392E00E94CB0660E0FB
:100FE00085E00E9479078FE392E00E94CB0660E0E3
:100FF00086E00E9479078EE492E00E94CB0660E0D2
:1010000082E00E94790781E30E945007089582E000
:101010000E941C06882319F00E94F404089585E0BC
:101020000895FF920F931F93CF93DF930E9493072E
:1010300060E080E00E94790785E592E00E94CB069F
:1010400060E082E00E94790786E692E00E94CB068B
:1010500060E083E00E94790710E10F2EF0EDFF2E93
:10106000F02D07E0CCE7D0E086EE92E00E94CB06C0
:101070008F2D902FFE013197F1F701970097D1F74F
:10108000115091F7DF91CF911F910F91FF9008952B
:101090000E949307FFCF1F93CF93DF930E94930784
:1010A00060E080E00E94790787E292E00E94CB0630
:1010B00060E081E00E947907C0E0D1E013E060E0E9
:1010C000812F0E9479078EE2810F0E94B90680E28B
:1010D0000E94B906899199910E94CB061F5F183032
:1010E00071F7DF91CF911F910895CF93DF930E9405
:1010F0004B08C5E7D0E303C0CE010197F1F70E948A
:1011000007088111F9CF65E083E00E942609C82F06
:101110000E94930761E081E00E9479078EE692E0E9
:101120000E94CB0660E082E00E9479078BE792E0A4
:101130000E94CB0660E084E00E947907EC2FF0E08B
:10114000EE0FFF1FE050FF4F808191810E94CB0680
:1011500080E395E72CE730E0F9013197F1F701974B
:101160000097D1F70E94B708DF91CF9108950E94B0
:10117000CD0765E082E00E942609823089F028F4DC
:10118000882341F0813049F00895833061F0843044
:1011900069F008950E94860908950E9475080895CF
:1011A0000E94110808950E94DC0908950E94930787
:1011B000FFCFCF93DF930E94930768E180E00E9406
:1011C000790762E370E08BE892E00E94DA0668E358
:1011D00081E00E94790764EF71E083E992E00E9468
:1011E000DA0664E183E00E94790768EC70E086E942
:1011F00092E00E94DA0660E087E00E94790788E9C1
:101200009AE32CE730E0F9013197F1F70197009765
:10121000D1F782EA92E00E94CB06C5E7D0E303C093
:10122000CE010197F1F70E9407088823C9F3C5E7AB
:10123000D0E303C0CE010197F1F70E9407088111A6
:10124000F9CF0E94B708DF91CF910895EF92FF92F6
:101250000F931F93CF93DF93082FF62EC1E0D0E0BA
:10126000EE24EA94E60E11E001C0C12F0E940708A7
:101270008823D9F3CC23D1F3833019F128F48130BA
:10128000C9F18230D9F1F2CF843019F08530B1F153
:10129000EDCF60E08D2F800F0E94790781E38D0FE5
:1012A0000E94B906DF5FDF1101C0D0E060E08D2F42
:1012B000800F0E94790781E38D0F0E945007C0E0E4
:1012C000D5CF60E08D2F800F0E94790781E38D0FCD
:1012D0000E94B906D11102C0DE2D01C0D15060E0DC
:1012E0008D2F800F0E94790781E38D0F0E94500798
:1012F000C0E0BCCF0E94B708C0E0B8CF8D2FDF910F
:10130000CF911F910F91FF90EF9008951F93CF936E
:10131000DF930E94930760E080E00E94790781EBF1
:1013200092E00E94CB0660E082E00E9479078EEB9B
:1013300092E00E94CB06C0E011E0D0E005C0CD2FC6
:1013400003C0C12F01C0C12F68E682E00E94790767
:1013500080910A01805D0E94B9060E9407088330CF
:10136000D1F018F4813029F0EACF843039F085309B
:1013700031F70E94B70880910A011AC0C111E4CF69
:1013800080910A018230E8F280910A0181508093B5
:101390000A01C12FD9CFC111D7CF80910A0189305D
:1013A00090F680910A018F5F80930A01C12FCCCF04
:1013B000DF91CF911F910895CF93DF930E94930700
:1013C00060E080E00E94790781E492E00E94CB0611
:1013D00060E082E00E9479078CEC92E00E94CB06EC
:1013E00060E083E00E94790788ED92E00E94CB06DE
:1013F000C5E7D0E303C0CE010197F1F70E940708CB
:101400008130C9F70E94B708DF91CF91089587B363
:10141000806B87BBBE9881E58DB9C49A08950E9400
:10142000070A08958FB9779BFECF089580E487BBA4
:101430008DB908958FEF8FB9779BFECF8FB1089547
:10144000CF93C82FC49883E00E94120A8C2F0E9469
:10145000120A0E941A0AC49ACF910895CF93DF937B
:10146000D82FC62FC49882E00E94120A8D2F0E94A6
:10147000120A8C2F0E94120AC49ADF91CF9108950C
:10148000C4980E94120AC49A08951F93CF93DF93C1
:10149000182FD62FC42FC49885E00E94120A812FDE
:1014A0000E94120A8D2F0E94120A8C2F0E94120A8B
:1014B000DF91CF911F910895C49880EC0E94120A89
:1014C000C49A0895CF93C82F0E94070A0E945C0A0D
:1014D0006C2F8FE00E942E0A84EA8A95F1F78EE045
:1014E0000E94200A807EC81751F087E093E09F9306
:1014F0008F930E94F70F0F900F9081E009C087E350
:1015000093E09F938F930E94F70F0F900F9080E0CE
:10151000CF910895C49880EA0E94120A0E941A0A84
:10152000C49A08950E94620A089580E30E94200AE6
:1015300080E30E94200A80E0089580E00E94200A53
:1015400091E0811190E0892F08951F93CF93DF934D
:10155000EC010E949D0A882339F1688166956695A1
:10156000669581E30E942E0A688180E2689FB0013F
:10157000112482E30E942E0A69816F7085E30E9424
:101580002E0A8981882369F010E0FE01E10FF11D28
:10159000628186E3810F0E942E0A1F5F89811817DE
:1015A000A0F381E80E94400ADF91CF911F91089536
:1015B0000F931F93CF93DF93EC0161E08BE20E94C6
:1015C0002E0A8CE20E94200A082F80FF28C081E6A4
:1015D0000E94200A182F82E60E94200A8295869592
:1015E0008770110F110F110F180F188385E60E94D5
:1015F000200A8F708983882369F010E086E6810FC6
:101600000E94200AFE01E10FF11D82831F5F998174
:101610001917A0F36FEF600F8CE20E942E0ADF9182
:10162000CF911F910F9108950F931F93CF93DF9345
:10163000EC010A8110E088811F928F938DE493E082
:101640009F938F930E94F70FE8818CE98E0F0F9084
:101650000F900F900F908730E8F4F0E0EE0FFF1F2F
:10166000E65BFF4F81818F9380818F9385E693E0C6
:101670009F938F930E94F70FE881F0E0E955FF4FA9
:10168000808190E8899F0019110911240F900F9013
:101690000F900F9088818A3611F4000F111F1F934D
:1016A0000F9389811F928F9388E693E09F938F9386
:1016B0000E94F70F0F900F900F900F900F900F90C8
:1016C000DF91CF911F910F910895CF93DF93CDB705
:1016D000DEB72A970FB6F894DEBF0FBECDBF84E603
:1016E000898381E08A830E942F068B83CE01019635
:1016F0000E94A50A2A960FB6F894DEBF0FBECDBF92
:10170000DF91CF910895CF93DF93CDB7DEB72A97BE
:101710000FB6F894DEBF0FBECDBF85E6898381E0AA
:101720008A830E94B1058B83CE0101960E94A50A8F
:101730002A960FB6F894DEBF0FBECDBFDF91CF91D2
:101740000895CF93DF93CDB7DEB72A970FB6F894FD
:10175000DEBF0FBECDBF86E6898381E08A830E940B
:10176000BC058B83CE0101960E94A50A2A960FB66E
:10177000F894DEBF0FBECDBFDF91CF910895CF9318
:10178000DF93CDB7DEB72A970FB6F894DEBF0FBE52
:10179000CDBF97E6998391E09A83682F86E00E94F7
:1017A0008B0680588B83CE0101960E94A50A2A964B
:1017B0000FB6F894DEBF0FBECDBFDF91CF91089575
:1017C000CF93DF93CDB7DEB72A970FB6F894DEBF7D
:1017D0000FBECDBF98E6998391E09A83682F87E08A
:1017E0000E948B0680588B83CE0101960E94A50A29
:1017F0002A960FB6F894DEBF0FBECDBFDF91CF9112
:101800000895CF93DF93CDB7DEB72A970FB6F8943C
:10181000DEBF0FBECDBF89E6898381E08A830E9447
:10182000D9048B83CE0101960E94A50A2A960FB691
:10183000F894DEBF0FBECDBFDF91CF910895CF9357
:10184000DF93CDB7DEB72A970FB6F894DEBF0FBE91
:10185000CDBF0E9494042AE6298321E02A839C01BB
:10186000992314F42F5F3F4F3595279520582B83EC
:10187000CE0101960E94A50ACE0101960E94140B8A
:101880002A960FB6F894DEBF0FBECDBFDF91CF9181
:101890000895CF93DF93CDB7DEB72A970FB6F894AC
:1018A000DEBF0FBECDBF8AE0898381E08A831B82C1
:1018B000CE0101960E94A50A2A960FB6F894DEBFC3
:1018C0000FBECDBFDF91CF910895CF93DF93CDB7FA
:1018D000DEB72A970FB6F894DEBF0FBECDBF99E0F2
:1018E000998391E09A838B83CE0101960E94A50A89
:1018F0002A960FB6F894DEBF0FBECDBFDF91CF9111
:10190000089597FB072E16F4009407D077FD09D0B1
:101910000E94950C07FC05D03EF4909581959F4F51
:101920000895709561957F4F0895AA1BBB1B51E1E7
:1019300007C0AA1FBB1FA617B70710F0A61BB70B3F
:10194000881F991F5A95A9F780959095BC01CD01E4
:1019500008958DD158F080E891E009F49EEF8ED182
:1019600028F040E851E059F45EEF09C058C1C0C109
:10197000E92FE0789BD168F3092E052AC1F32617D9
:1019800037074807590738F00E2E07F8E02569F0A9
:10199000E025E0640AC0EF6307F8009407FADB0172
:1019A000B9019D01DC01CA01AD01EF9347D06DD1B2
:1019B0000AD05F91552331F02BED3FE049E450FD13
:1019C00049EC51C20895DF93DD27B92FBF7740E876
:1019D0005FE31616170648075B0710F4D92F93D15B
:1019E0009F938F937F936F933AD2E0E7F0E01AD101
:1019F0004CD12F913F914F915F9198D1DD2349F0C8
:101A00009058A2EA2AED3FE049EC5FE3D0785D27E9
:101A10003BD2DF913AC1D9D008F481E008950CD0CF
:101A200034C12CD140F023D130F021F45F3F19F0C4
:101A3000F0C051115EC1F3C039D198F39923C9F3B5
:101A40005523B1F3951B550BBB27AA2762177307C4
:101A5000840738F09F5F5F4F220F331F441FAA1F78
:101A6000A9F333D00E2E3AF0E0E830D09150504038
:101A7000E695001CCAF729D0FE2F27D0660F771FE6
:101A8000881FBB1F261737074807AB07B0E809F0C8
:101A9000BB0B802DBF01FF2793585F4F2AF09E3F5D
:101AA000510568F0B6C025C15F3FECF3983EDCF30A
:101AB000869577956795B795F7959F5FC9F7880FD6
:101AC000911D9695879597F90895E1E0660F771F28
:101AD000881FBB1F621773078407BA0720F0621BB9
:101AE000730B840BBA0BEE1F88F7E095089504D0B2
:101AF0006894B111FEC00895E1D088F09F5790F02E
:101B0000B92F9927B751A0F0D1F0660F771F881F22
:101B1000991F1AF0BA95C9F712C0B13081F0E8D018
:101B2000B1E00895E5C0672F782F8827B85F39F0B6
:101B3000B93FCCF3869577956795B395D9F73EF481
:101B400090958095709561957F4F8F4F9F4F089529
:101B5000E89409C097FB3EF4909580957095619547
:101B60007F4F8F4F9F4F9923A9F0F92F96E9BB27FD
:101B70009395F695879577956795B795F111F8CF79
:101B8000FAF4BB0F11F460FF1BC06F5F7F4F8F4FE4
:101B90009F4F16C0882311F096E911C0772321F0DA
:101BA0009EE8872F762F05C0662371F096E8862F72
:101BB00070E060E02AF09A95660F771F881FDAF7C9
:101BC000880F9695879597F90895990F0008550FF6
:101BD000AA0BE0E8FEEF16161706E807F907C0F0B3
:101BE00012161306E407F50798F0621B730B840BBB
:101BF000950B39F40A2661F0232B242B252B21F495
:101C000008950A2609F4A140A6958FEF811D811D34
:101C1000089597F99F6780E870E060E008959FEF6E
:101C200080EC0895DF93CF931F930F93FF92EF9271
:101C3000DF927B018C01689405C0DA2EEF0176D02B
:101C4000FE01E894A5912591359145915591AEF30A
:101C5000EF011AD1FE019701A801DA9479F7DF901C
:101C6000EF90FF900F911F91CF91DF910895002485
:101C70000A941616170618060906089500240A94F1
:101C800012161306140605060895092E0394000C77
:101C900011F4882352F0BB0F40F4BF2B11F460FF06
:101CA00004C06F5F7F4F8F4F9F4F089557FD90582F
:101CB000440F551F59F05F3F71F04795880F97FB10
:101CC000991F61F09F3F79F08795089512161306CA
:101CD0001406551FF2CF4695F1DF08C016161706F9
:101CE0001806991FF1CF869571056105089408952E
:101CF000E894BB2766277727CB0197F9089565DF1E
:101D000008F48FEF08959B01AC0160E070E080E87B
:101D10009FE385CE0BD0B9CFAADF28F0AFDF18F054
:101D2000952309F076CF7BCF1124E3CFBFDFA0F35B
:101D3000959FD1F3950F50E0551F629FF001729F60
:101D4000BB27F00DB11D639FAA27F00DB11DAA1F7F
:101D5000649F6627B00DA11D661F829F2227B00DCC
:101D6000A11D621F739FB00DA11D621F839FA00D57
:101D7000611D221F749F3327A00D611D231F849FA7
:101D8000600D211D822F762F6A2F11249F575040FE
:101D90008AF0E1F088234AF0EE0FFF1FBB1F661F99
:101DA000771F881F91505040A9F79E3F510570F052
:101DB00030CF9FCF5F3FECF3983EDCF3869577956D
:101DC0006795B795F795E7959F5FC1F7FE2B880F4D
:101DD000911D9695879597F9089511F40EF41FCFEC
:101DE000A6C06CDFD0F39923D9F3CEF39F57550BE0
:101DF00087FFABD00024A0E640EA900180585695BA
:101E0000979528F4805C660F771F881F20F02617AF
:101E10003707480730F4621B730B840B20293129E4
:101E20004A2BA69517940794202531254A2758F761
:101E3000660F771F881F20F026173707480730F4F2
:101E4000620B730B840B200D311D411DA09581F792
:101E5000B901842F9158880F9695879508959B0115
:101E6000AC0158CF5058BB27AA270ED00ECFFFDEAB
:101E700030F004DF20F031F49F3F11F41EF4CFCE98
:101E80000EF4E095E7FBC5CEE92F10DF80F3BA171B
:101E9000620773078407950718F071F49EF528CF41
:101EA0000EF4E0950B2EBA2FA02D0B01B901900175
:101EB0000C01CA01A0011124FF27591B99F0593FB9
:101EC00050F4503E68F11A16F040A22F232F342F01
:101ED0004427585FF3CF469537952795A795F0404F
:101EE0005395C9F77EF41F16BA0B620B730B840B64
:101EF000BAF09150A1F0FF0FBB1F661F771F881F1C
:101F0000C2F70EC0BA0F621F731F841F48F4879573
:101F100077956795B795F7959E3F08F0B3CF939562
:101F2000880F08F09927EE0F9795879508959F3FA2
:101F300031F0915020F4879577956795B795880F84
:101F4000911D9695879597F9089591505040660F89
:101F5000771F881FD2F708950F931F93CF93DF93B6
:101F6000EC018B01009731F46115710519F480E0E3
:101F700090E038C06EE070E081E090E00E94DD11FA
:101F8000FC010097A1F380E883830115110571F02E
:101F90001387028781E883838091DF039091E003B8
:101FA000892B21F4F093E003E093DF032097C9F03D
:101FB000D187C0878381826083838091E103909180
:101FC000E203892B71F4F093E203E093E103809143
:101FD000E3039091E403892B21F4F093E403E0936D
:101FE000E303CF01DF91CF911F910F910895A0E0FE
:101FF000B0E0EDEFFFE00C94DD13FE01359661914A
:102000007191AF018091E1039091E2030E940B1066
:10201000E2E00C94F913ACE0B0E0E1E1F0E10C9403
:10202000CD137C016B018A01FC011782168283812A
:1020300081FFBDC1CE0101964C01F7019381F601EC
:1020400093FD859193FF81916F01882309F4ABC1C2
:10205000853239F493FD859193FF81916F0185322B
:1020600029F4B70190E00E943D13E7CF512C312CA9
:1020700020E02032A0F48B3269F030F4803259F045
:10208000833269F420612CC08D3239F0803339F409
:10209000216026C02260246023C0286021C027FD63
:1020A00027C030ED380F3A3078F426FF06C0FAE04A
:1020B0005F9E300D1124532E13C08AE0389E300DE0
:1020C0001124332E20620CC08E3221F426FD6BC108
:1020D000206406C08C3611F4206802C0883641F4B2
:1020E000F60193FD859193FF81916F018111C1CF1D
:1020F000982F9F7D9554933028F40C5F1F4FFFE37A
:10210000F9830DC0833631F0833771F0833509F0E0
:102110005BC022C0F801808189830E5F1F4F442479
:102120004394512C540115C03801F2E06F0E711C1C
:10213000F801A080B18026FF03C0652D70E002C0C9
:102140006FEF7FEFC5012C870E9432132C018301B2
:102150002C852F77222E17C03801F2E06F0E711CEC
:10216000F801A080B18026FF03C0652D70E002C099
:102170006FEF7FEFC5012C870E9420132C012C8567
:102180002068222E830123FC1BC0832D90E048167B
:102190005906B0F4B70180E290E00E943D133A94F2
:1021A000F4CFF50127FC859127FE81915F01B701EE
:1021B00090E00E943D1331103A94F1E04F1A51081B
:1021C0004114510471F7E5C0843611F0893639F5B0
:1021D000F80127FF07C060817181828193810C5FC4
:1021E0001F4F08C060817181882777FD8095982FE7
:1021F0000E5F1F4F2F76B22E97FF09C090958095E6
:10220000709561957F4F8F4F9F4F2068B22E2AE0C7
:1022100030E0A4010E946F13A82EA81844C085378F
:1022200029F42F7EB22E2AE030E025C0F22FF97F6C
:10223000BF2E8F36C1F018F4883579F0B4C08037DE
:1022400019F0883721F0AFC02F2F2061B22EB4FED5
:102250000DC08B2D8460B82E09C024FF0AC09F2FAB
:102260009660B92E06C028E030E005C020E130E0DD
:1022700002C020E132E0F801B7FE07C06081718141
:10228000828193810C5F1F4F06C06081718180E065
:1022900090E00E5F1F4FA4010E946F13A82EA81894
:1022A000FB2DFF77BF2EB6FE0BC02B2D2E7FA51466
:1022B00050F4B4FE0AC0B2FC08C02B2D2E7E05C01F
:1022C0007A2C2B2D03C07A2C01C0752C24FF0DC055
:1022D000FE01EA0DF11D8081803311F4297E09C0D1
:1022E00022FF06C07394739404C0822F867809F08D
:1022F000739423FD13C020FF06C05A2C731418F4E6
:10230000530C5718732C731468F4B70180E290E0F3
:102310002C870E943D1373942C85F5CF731410F411
:10232000371801C0312C24FF12C0B70180E390E0C0
:102330002C870E943D132C8522FF17C021FF03C06C
:1023400088E590E002C088E790E0B7010CC0822FDA
:10235000867859F021FD02C080E201C08BE227FDA2
:102360008DE2B70190E00E943D13A51438F4B70147
:1023700080E390E00E943D135A94F7CFAA94F401B1
:10238000EA0DF11D8081B70190E00E943D13A1107C
:10239000F5CF332009F451CEB70180E290E00E94DE
:1023A0003D133A94F6CFF7018681978102C08FEFF3
:1023B0009FEF2C96E2E10C94E9130F931F93CF93B8
:1023C000DF93869F8001879F100D969F100D11242B
:1023D000C8010E94F911EC01009729F0A80160E002
:1023E00070E00E942B13CE01DF91CF911F910F91CE
:1023F0000895CF93DF938230910510F482E090E04E
:10240000E091E703F091E80320E030E0A0E0B0E0E5
:10241000309739F14081518148175907B8F0481772
:10242000590771F482819381109729F013969C9338
:102430008E9312972CC09093E8038093E70327C0F4
:102440002115310531F04217530718F0A901DB01BE
:1024500001C0EF019A01BD01DF010280F381E02D8F
:10246000D7CF21153105F9F0281B390B2430310560
:1024700080F48A819B816115710521F0FB019383B2
:10248000828304C09093E8038093E703FE013296B1
:1024900044C0FE01E20FF31F819391932250310952
:1024A000398328833AC02091E5033091E603232B3A
:1024B00041F420912201309123013093E6032093CF
:1024C000E50320912001309121012115310541F4CE
:1024D0002DB73EB74091240150912501241B350BA7
:1024E000E091E503F091E603E217F307A0F42E1B59
:1024F0003F0B2817390778F0AC014E5F5F4F241768
:10250000350748F04E0F5F1F5093E6034093E503F5
:102510008193919302C0E0E0F0E0CF01DF91CF9191
:102520000895CF93DF93009709F487C0FC01329799
:1025300013821282C091E703D091E803209781F4BF
:1025400020813181280F391F8091E5039091E603A6
:102550008217930779F5F093E603E093E5036DC0E6
:10256000DE0120E030E0AE17BF0750F412964D9127
:102570005C9113979D014115510509F1DA01F3CFE3
:10258000B383A28340815181840F951F8A179B07D3
:1025900071F48D919C911197840F951F02969183F0
:1025A000808312968D919C9113979383828321153A
:1025B000310529F4F093E803E093E7033EC0D90125
:1025C0001396FC93EE9312974D915D91A40FB51F56
:1025D000EA17FB0779F480819181840F951F029699
:1025E000D90111969C938E938281938113969C932B
:1025F0008E931297E0E0F0E08A819B81009719F0BA
:10260000FE01EC01F9CFCE01029628813981820FBB
:10261000931F2091E5033091E6032817390769F4E9
:10262000309729F41092E8031092E70302C0138256
:102630001282D093E603C093E503DF91CF91089512
:10264000FC010590615070400110D8F7809590957D
:102650008E0F9F1F0895DC0101C06D9341505040C3
:10266000E0F70895FC016150704001900110D8F727
:10267000809590958E0F9F1F08950F931F93CF9372
:10268000DF93182F092FEB018B8181FD03C08FEFA2
:102690009FEF20C082FF10C04E815F812C813D8161
:1026A000421753077CF4E881F9819F012F5F3F4F68
:1026B00039832883108306C0E885F985812F099521
:1026C000892B29F72E813F812F5F3F4F3F832E8338
:1026D000812F902FDF91CF911F910F910895FA01D3
:1026E000AA27283051F1203181F1E8946F936E7F51
:1026F0006E5F7F4F8F4F9F4FAF4FB1E03ED0B4E042
:102700003CD0670F781F891F9A1FA11D680F791F82
:102710008A1F911DA11D6A0F711D811D911DA11D93
:1027200020D009F468943F912AE0269F11243019A3
:10273000305D3193DEF6CF010895462F4770405D3E
:102740004193B3E00FD0C9F7F6CF462F4F70405DED
:102750004A3318F0495D31FD4052419302D0A9F748
:10276000EACFB4E0A6959795879577956795BA9542
:10277000C9F700976105710508959B01AC010A2E08
:1027800006945795479537952795BA95C9F7620FDF
:10279000731F841F951FA01D08952F923F924F9283
:1027A0005F926F927F928F929F92AF92BF92CF92E1
:1027B000DF92EF92FF920F931F93CF93DF93CDB7EA
:1027C000DEB7CA1BDB0B0FB6F894DEBF0FBECDBF62
:1027D00009942A88398848885F846E847D848C8433
:1027E0009B84AA84B984C884DF80EE80FD800C813C
:1027F0001B81AA81B981CE0FD11D0FB6F894DEBF1F
:0C2800000FBECDBFED010895F894FFCF8E
:10280C00E802EE02F402FA020003010000000101EA
:10281C0000017F0383038F039C03A703B203C5034B
:10282C000000E90320000962756666657220256464
:10283C00656E642067616D6520256400785F4A6F62
:10284C00797469636B2073656E74090062746E73BE
:10285C002073656E740900726967687420736C6903
:10286C006465722073656E740A0D0059203A202538
:10287C00753B2058203A202564092000583A202521
:10288C00642025252C20593A202564202525202C30
:10289C0020616E676C653A2025642009004D414724
:1028AC003A2025640900444952454354494F4E3A55
:1028BC002025640A0D00736C69646572204C203A03
:1028CC00202564200900736C696465722052203ADB
:1028DC002025642009006F666673657473203A20A6
:1028EC00782C79203A202564203B2025640A0A00A4
:1028FC006572726F722C20756E6B6E6F776E2064C2
:10290C006972656374696F6E002050494E472D5093
:10291C004F4E47204D656E75200031205365747401
:10292C00696E677300322043686F6F73652063684C
:10293C0061726163746572003320506C617900348C
:10294C00204C656164657220426F617264003520B1
:10295C0051756974002050494E472D504F4E4720F9
:10296C0067616D6520004C6F6164696E6700476F2D
:10297C006F642063686F6963653A00596F752068EE
:10298C006176652063686F73656E0057656C636F65
:10299C006D6500546F0050494E47202D20504F4E0E
:1029AC004700546F756368204A6F79737469636B61
:1029BC000053657474696E672070616765006469A3
:1029CC0066666963756C7479203F20003120415A2A
:1029DC0045525459203C33003220537475642E20D8
:1029EC006173736973742E004D6172696F00506569
:1029FC00616368004C7569677900696E616B690089
:102A0C00636C61697265004D435032353135206914
:102A1C0073204E4F5420696E207468652063686F74
:102A2C0073656E206D6F64652061667465722072CB
:102A3C00657365740A0D004D43502077656C6C20EE
:102A4C00636F6E666967757265640A0D004D657318
:102A5C00736167652072656365697665643A2069A0
:102A6C0064202564002573004C656E6774683A20F9
:102A7C00256409206D73673A2025640A0D200042F5
:102A8C00544E006C6566745F736C69646572007299
:102A9C00696768745F736C69646572006A6F7973D7
:102AAC007469636B5F58006A6F79737469636B5FE9
:102ABC0059006A6F79737469636B5F6D61676E69D6
:102ACC0074756465006A6F79737469636B5F616EAA
:042ADC00676C6500BE
:00000001FF
