:100000000C9477030C9494030C9494030C94940331
:100010000C9494030C9494030C9494030C94940304
:100020000C9494030C9494030C9494030C949403F4
:100030000C9494030C9494030C9494030C949403E4
:100040000C9494030C9494030C9494030C949403D4
:100050000C9494030C9494030C9494030C949403C4
:100060000C9494030C9494030C9494030C949403B4
:10007000084AD73B3BCE016E84BCBFFDC12F3D6C0F
:1000800074319ABD56833DDA3D00C77F11BED9E475
:10009000BB4C3E916BAAAABE000000803F0000004E
:1000A0000000005C00000C000C007C287C2858DC60
:1000B00068002410480028542840000C00000078F4
:1000C00084008478000054385400107C1000804074
:1000D0000000101010000040000060100C003854A8
:1000E0003800487C40004864580044542C001C10E0
:1000F0007C005C5424003854240064140C006854C0
:100100002C004854380000480000804800001028A7
:1001100044002828280044281000045408003844CB
:100120005C00781478007C542800384428007C4413
:1001300038007C5444007C140400384474007C1063
:100140007C00447C440020403C007C106C007C40DF
:1001500040007C187C0078103C00384438007C1447
:1001600008003844B8007C14680048542400047C1B
:1001700004007C407C003C603C007C307C006C10C7
:100180006C000C700C0064544C00007C44000C109B
:100190006000447C000008040800808080000004A7
:1001A0000800304878007C4830003048480030482B
:1001B0007C00306850001078140090A878007C080B
:1001C000700050744000808074007C106800447C93
:1001D0004000781078007808700030483000F82827
:1001E00010003048F8007810080050582800083CEB
:1001F000480038407800384038007820780048308F
:10020000480098A078004868580010788400007C66
:1002100000008478100008040804000000000000BA
:10022000005F00000007000700147F147F14242AD9
:100230007F2A1223130864623649552250000503B1
:100240000000001C2241000041221C00082A1C2A38
:100250000808083E08080050300000080808080890
:10026000006060000020100804023E5149453E0035
:10027000427F400042615149462141454B311814AB
:10028000127F1027454545393C4A494930017109DB
:1002900005033649494936064949291E00363600C4
:1002A00000005636000000081422411414141414DF
:1002B00041221408000201510906324979413E7E6B
:1002C0001111117E7F494949363E414141227F410A
:1002D00041221C7F494949417F090901013E4141B1
:1002E00051327F0808087F00417F41002040413F94
:1002F000017F081422417F404040407F0204027F7A
:100300007F0408107F3E4141413E7F090909063EB6
:100310004151215E7F091929464649494931010168
:100320007F01013F4040403F1F2040201F7F201899
:10033000207F631408146303047804036151494562
:100340004300007F4141020408102041417F00002A
:100350000402010204404040404000010204002029
:10036000545454787F4844443838444444203844F2
:1003700044487F3854545418087E09010208145424
:10038000543C7F0804047800447D40002040443DF4
:1003900000007F10284400417F40007C041804784E
:1003A0007C0804047838444444387C141414080845
:1003B0001414187C7C080404084854545420043F46
:1003C0004440203C4040207C1C2040201C3C4030CD
:1003D000403C44281028440C5050503C4464544C39
:1003E00044000836410000007F000000413608004C
:1003F0000201030201000000000000000000065F8F
:100400005F060000000007070007070000147F7F59
:10041000147F7F1400242E6B6B3A12000046663066
:10042000180C666200307A4F5D377A480004070383
:100430000000000000001C3E63410000000041631A
:100440003E1C000000082A3E1C1C3E2A0808083EEC
:100450003E0808000000A0E0600000000008080856
:10046000080808000000006060000000006030180C
:100470000C060301003E7F594D7F3E000042427F43
:100480007F40400000627359496F66000022634953
:10049000497F360000181C16137F7F100027674520
:1004A000457D3900003C7E4B497930000003637183
:1004B000190F070000367F49497F360000064F4973
:1004C000693F1E000000006C6C0000000000A0EC02
:1004D0006C00000000081C36634100000014141476
:1004E0001414140000004163361C0800000203517C
:1004F000590F0600003E7F415D5D1F1E007C7E138C
:10050000137E7C0000417F7F49497F36001C3E639B
:100510004141632200417F7F41637F1C00417F7F17
:10052000495D416300417F7F491D0103001C3E631B
:1005300041517372007F7F08087F7F000000417F78
:100540007F41000000307040417F3F0100417F7FCC
:10055000081C776300417F7F41406070007F7F0609
:100560000C067F7F007F7F060C187F7F001C3E6398
:1005700041633E1C00417F7F49090F06001E3F2159
:10058000717F5E0000417F7F19396F460026674DFD
:10059000597B32000003417F7F410300007F7F4091
:1005A000407F7F00001F3F60603F1F00007F7F3063
:1005B00018307F7F0063771C081C776300074F7833
:1005C000784F0700006773594D47637100007F7FC4
:1005D00041410000000103060C1830600000414159
:1005E0007F7F000000080C0603060C080080808056
:1005F0008080808080000003070400000020745485
:10060000543C784000413F7F44447C3800387C446F
:10061000446C280000307848493F7F4000387C54C3
:10062000545C180000487E7F490302000098BCA477
:10063000A4F87C0400417F7F08047C780000447D9E
:100640007D4000000040C484FD7D000000417F7FAC
:1006500010386C440000417F7F400000007C7C0C1F
:10066000180C7C78007C7C04047C780000387C4486
:10067000447C38000084FCF8A4243C1800183C2476
:10068000A4F8FC8400447C78441C180000485C54A6
:10069000547424000000043E7F442400003C7C404D
:1006A000403C7C40001C3C60603C1C00003C7C608A
:1006B00030607C3C00446C3810386C44009CBCA01A
:1006C000A0FC7C00004C64745C4C64000008083E94
:1006D000774141000000000077770000004141773A
:1006E0003E08080000020301030203010000112478
:1006F0001FBECFEFD4E0DEBFCDBF14E0A0E0B1E07D
:10070000ECEDF7E202C005900D92A636B107D9F7DD
:1007100024E0A6E6B4E001C01D92A637B207E1F7D7
:100720000E941F040C94EC130C940000AF92BF9233
:10073000CF92DF92EF92FF920F931F93CF93DF93AD
:100740000E940C0F5C010E94110F1AE0C0E0D0E083
:10075000E12CF12C0F2EF5E1CF2EF1E0DF2EF02D64
:10076000FE01F85E108380818117A9F01F921F930C
:100770001F928F93DF93CF93DF92CF920E94670FE8
:100780009FEFE91AF90A8DB79EB708960FB6F8944D
:100790009EBF0FBE8DBF21961F5FC11598E0D90780
:1007A000F9F6C5010E94110FC0E0D0E0C12CD12C98
:1007B0000EE411E09C2F965FFE01F85E80818917A0
:1007C000A9F01F929F931F928F93DF93CF931F9354
:1007D0000F930E94670F9FEFC91AD90A8DB79EB772
:1007E00008960FB6F8949EBF0FBE8DBF2196C11517
:1007F00098E0D907F9F6DF92CF92FF92EF928BE85B
:1008000091E09F938F930E94670F2FE884E29FE00F
:10081000215080409040E1F700C000000F900F9001
:100820000F900F900F900F90DF91CF911F910F912C
:10083000FF90EF90DF90CF90BF90AF900895CF934F
:10084000DF93CDB7DEB72B970FB6F894DEBF0FBEA0
:10085000CDBFF8948FEF87BB8FE190E00E949A04A0
:1008600065EA74E081EA94E00E941C0F80E390E066
:100870000E947D0F85B7806885BF80B7806280BF8A
:1008800088B38C6F88BB0E94750680E090E00E9460
:100890008E0A0F2EF5E08F2E912CF02D7724739475
:1008A0005E0124E0A20EB11C0F2EF5EECF2EF1E07A
:1008B000DF2EF02D0F2EF7EFEF2EF1E0FF2EF02DB3
:1008C0000CE012E00E9406059A8289827B829C01DC
:1008D000992314F42F5F3F4F359527952C83CE0134
:1008E00001960E94A20ABF92AF92DF92CF920E941D
:1008F000670F8CE20E94170A1F928F93FF92EF926C
:100900000E94670F8DE20E94170A1F928F931F9318
:100910000F930E94670F8FE894E22FE08150904080
:100920002040E1F700C000000FB6F894DEBF0FBE14
:10093000CDBFC8CF90BD89B988E18AB98EE880BDA6
:1009400008955D9BFECF8CB908955F9903C08CB16B
:1009500090E008958CB190E00895E0E0F4E18083A8
:1009600086EA8A95F1F700C08081089591E3980F97
:10097000933608F480E085360CF084E68C390CF46C
:100980008CE90895E0E0F4E186E0808386EA8A95C8
:10099000F1F700C08091680490916904608170E073
:1009A000681B790B072E000C880B990B0E94A30C77
:1009B00023E333E343EA5FE30E94F90B0E946B0CED
:1009C000862F0E94B6040895E0E0F4E187E080837A
:1009D00086EA8A95F1F700C080916A0490916B04D1
:1009E000608170E0681B790B072E000C880B990B57
:1009F0000E94A30C23E333E343EA5FE30E94F90B75
:100A00000E946B0C862F0E94B6040895CF92DF924D
:100A1000EF92FF92CF93DF930E94C204D82F0E94DF
:100A2000E404C82FDD2321F16D2FDD0F770B880B38
:100A3000990B0E94A30C6B017C016C2FCC0F770BE0
:100A4000880B990B0E94A30CA70196010E94950B9D
:100A500020E030E044E353E40E94870D28ED3FE0BE
:100A600049E450E40E94F90B0E946B0CCB010CC0CE
:100A700088232CF0181634F48AE590E005C086EA45
:100A80009FEF02C080E090E0DF91CF91FF90EF9068
:100A9000DF90CF900895CF92DF92EF92FF92CF93A5
:100AA0000E94C204C82F0E94E4048802C0011124DD
:100AB0006C01CC02C00CD11C11240D2C000CEE08D2
:100AC000FF08C701B6010E94A30C0E94FA0D0E9404
:100AD0006B0C862FCF91FF90EF90DF90CF90089511
:100AE000CF93DF930E94C2040E94E4040E944B054E
:100AF000C82F0E940605CC23A9F09C012D52310974
:100B00002A35310588F02C543F4F2E3041E0340710
:100B100068F42A35310560F08D968A35910548F4E0
:100B2000D2E007C0D0E005C0D3E003C0D1E001C0EF
:100B3000D4E08D2FDF91CF910895CF93DF93E0E044
:100B4000F4E187E0808386EA8A95F1F700C080812E
:100B500096E0908396EA9A95F1F700C01F928F93E2
:100B600080811F928F938FE192E09F938F930E94D9
:100B7000670F0E94C204C82F0E94E404D82F0E946D
:100B800006059F938F938D2F0D2E000C990B9F932D
:100B9000DF938C2F0C2E000C990B9F93CF9380E347
:100BA00092E09F938F930E94670F0E944B051F92C4
:100BB0008F9381E592E09F938F930E94670F0E942D
:100BC00070051F928F938AE592E09F938F930E9406
:100BD000670F87EA91E60197F1F700C000008DB733
:100BE0009EB746960FB6F8949EBF0FBE8DBFDF919D
:100BF000CF910895CF93DF93C0E0D4E185E088835F
:100C000086EA8A95F1F700C088811F928F938AE661
:100C100092E09F938F930E94670F84E0888396EA07
:100C20009A95F1F700C088811F928F938AE792E02E
:100C30009F938F930E94670F8DB79EB708960FB64C
:100C4000F8949EBF0FBE8DBFDF91CF91089596B3EC
:100C500086B326B322FB222720F91F922F9391708F
:100C60001F929F93869581701F928F938AE892E0DE
:100C70009F938F930E94670F8DB79EB708960FB60C
:100C8000F8949EBF0FBE8DBF089524E130E080E050
:100C900090E0E0E0F4E156E0508346EA4A95F1F74F
:100CA00000C04081840F911D21503109A9F764E1F2
:100CB00070E00E945A0BCB01089524E130E080E0FF
:100CC00090E0E0E0F4E157E0508346EA4A95F1F71E
:100CD00000C04081840F911D21503109A9F764E1C2
:100CE00070E00E945A0BCB0108950E944506909334
:100CF0006904809368040E945D0690936B0480935E
:100D00006A0420916A0430916B0480916804909188
:100D100069043F932F939F938F9385EC92E09F9369
:100D20008F930E94670F0F900F900F900F900F906E
:100D30000F900895813039F018F0823041F00CC0E6
:100D400086B38170089586B386958170089586B3C1
:100D500082FB882780F908950895863071F4E0E0D9
:100D6000F4E1808386EA8A95F1F700C080916804F7
:100D7000909169046081681B19C0873071F4E0E0CC
:100D8000F4E1808386EA8A95F1F700C080916A04D5
:100D900090916B046081681B09C08FED92E09F9376
:100DA0008F930E94670F0F900F9060E070E080E0DB
:100DB00090E00E94A30C23E333E343EA5FE30E9445
:100DC000F90B0E94720C862F0E94B604089580933E
:100DD0000010089580930012089528E08202C00157
:100DE00011248B509D4F20E0A0E0B2E1FC01459121
:100DF00054914C932F5F01962830C1F70895CF93FB
:100E0000DF93EC018881882331F021960E94ED0662
:100E100089918111FBCFDF91CF9108952F923F925D
:100E20004F925F926F927F928F929F92AF92BF92FA
:100E3000CF92DF92EF92FF920F931F93CF93DF93A6
:100E4000EC01462E512C612C712C33243394212C2F
:100E50000CE710E040C00E94ED06C301B2010E9401
:100E6000A10C4B015C0120E030E14BE954E40E940D
:100E7000870D6B017C0120E030E040E85FE30E94D9
:100E8000F40B88231CF120E03FEF4FE757E4C70144
:100E9000B6010E947A0D1816A4F420E030E040E27A
:100EA00051E4C501B4010E94870D0E94720C6115C6
:100EB000710589F0C8010197F1F761507109D1F707
:100EC0000AC0C701B6010E94720C02C0632D722DC8
:100ED000CB010197F1F789918111BDCFDF91CF91BE
:100EE0001F910F91FF90EF90DF90CF90BF90AF9048
:100EF0009F908F907F906F905F904F903F902F903A
:100F0000089528E08202C00111248B509D4F40E0DB
:100F1000A0E0B2E1FC012591349120952C934F5F24
:100F200001964830B9F70895E0E0F0E190E290834F
:100F300080830895E0E0F0E192E29083808387E08F
:100F400080830895E0E0F0E191E2908380838FE771
:100F500080830895CF93C62F0E949A078C2F0E94FA
:100F6000A207CF91089560E080E00E94AA0708954B
:100F70000E94B30780E094E0E0E0F2E12FEF2083ED
:100F80000197E9F708950E94B30780E094E0E0E05C
:100F9000F2E110820197E9F70895E0E0F0E18EEACE
:100FA000808381EA80838AED808382E1808388EC7C
:100FB000808388EA80838FE3808385ED808380E867
:100FC000808381E8808380E5808389ED808381E26E
:100FD000808380E2808310828BED808380E3808336
:100FE0008DEA8083108284EA808386EA80838FEA98
:100FF00080830E94C30708950E94C30760E080E0D9
:101000000E94AA0788EF92E00E94FF0660E082E05B
:101010000E94AA0789E093E00E94FF0660E083E057
:101020000E94AA0784E193E00E94FF0660E084E04A
:101030000E94AA0787E293E00E94FF0660E085E035
:101040000E94AA078EE293E00E94FF0660E086E01D
:101050000E94AA078DE393E00E94FF0660E082E011
:101060000E94AA0781E30E948107089582E00E94FE
:101070009A06882319F00E947005089585E0089566
:10108000EF92FF920F931F93CF93DF93082FF62ECB
:10109000D1E0C0E0EE24EA94E60E11E001C0D12FC9
:1010A0000E9436088823D9F3DD23D1F3833009F178
:1010B00018F48230B9F1F4CF843019F0853091F111
:1010C000EFCF60E08C2F800F0E94AA0781E38C0F86
:1010D0000E94ED06CF5FCF1101C0C0E060E08C2F11
:1010E000800F0E94AA0781E38C0F0E948107D0E045
:1010F000D7CF60E08C2F800F0E94AA0781E38C0F6E
:101100000E94ED06C11102C0CE2D01C0C15060E0A9
:101110008C2F800F0E94AA0781E38C0F0E94810709
:10112000D0E0BECF8C2FDF91CF911F910F91FF9018
:10113000EF9008950E94C307FFCF0F931F93CF93A3
:101140000E94C30760E080E00E94AA0786E193E066
:101150000E94FF0660E081E00E94AA0700E011E023
:10116000C3E060E08C2F0E94AA078EE28C0F0E94E1
:10117000ED0680E20E94ED06F801819191918F01C8
:101180000E94FF06CF5FC83061F7CF911F910F918A
:101190000895CF93DF930E949D08C5E7D0E303C075
:1011A000CE010197F1F70E9436088111F9CF65E071
:1011B00083E00E944008C82F0E94C30761E081E0DD
:1011C0000E94AA0784E493E00E94FF0660E082E0A8
:1011D0000E94AA0781E593E00E94FF0660E084E098
:1011E0000E94AA07EC2FF0E0EE0FFF1FE050FF4F28
:1011F000808191810E94FF0680E395E72CE730E033
:10120000F9013197F1F70197D9F70E940A09DF91A7
:10121000CF9108950E94FC0765E082E00E9440089B
:10122000823089F028F4882341F0813049F0089514
:10123000833061F0843069F008950E946B0908954D
:101240000E94C90808950E94AB0908950E94DD0913
:1012500008950E94C307FFCFCF93DF930E94C30777
:1012600068E180E00E94AA0762E381E693E00E94C1
:101270000E0768E381E00E94AA0764EF89E693E025
:101280000E940E0764E183E00E94AA0768EC8CE6E6
:1012900093E00E940E0760E087E00E94AA0788E9B9
:1012A0009AE32CE730E0F9013197F1F70197D9F78C
:1012B00088E793E00E94FF06C5E7D0E303C0CE01B4
:1012C0000197F1F70E9436088823C9F30E940A09A2
:1012D000DF91CF9108950E94C30760E080E00E94F3
:1012E000AA0787E893E00E94FF0660E082E00E9480
:1012F000AA0784E993E00E94FF0668E682E00E9464
:10130000AA0780910A01805D0E94ED060E943608BE
:101310008330B9F018F4813029F0EFCF843039F000
:10132000853059F70E940A0980910A010895809139
:101330000A01823010F380910A01815080930A01E2
:10134000DCCF80910A018930C0F680910A018F5F5D
:1013500080930A01D2CF0E94C30760E080E00E9420
:10136000AA0782EA93E00E94FF0660E082E00E9402
:10137000AA0783EB93E00E94FF0660E083E00E94EF
:10138000AA0710E10F2EF0EDFF2EF02D07E0CCE7BD
:10139000D0E085ED93E00E94FF068F2D902FFE0197
:1013A0003197F1F70197D9F7115099F70E94360854
:1013B0008130E1F70E940A09F9CF0E94C30760E07B
:1013C00080E00E94AA0780E393E00E94FF0660E0AD
:1013D00082E00E94AA078BEB93E00E94FF0660E088
:1013E00083E00E94AA0787EC93E00E94FF060E9418
:1013F00036088130E1F70E940A09F9CF87B3806B84
:1014000087BBBE9881E58DB9C49A08950E94FE09F4
:1014100008958FB9779BFECF089580E487BB8DB97F
:1014200008958FEF8FB9779BFECF8FB10895CF933B
:10143000C82FC49883E00E94090A8C2F0E94090AD1
:101440000E94110AC49ACF910895CF93DF93D82FA9
:10145000C62FC49882E00E94090A8D2F0E94090AB3
:101460008C2F0E94090AC49ADF91CF910895C498E5
:101470000E94090AC49A08951F93CF93DF93182FEF
:10148000D62FC42FC49885E00E94090A812F0E949C
:10149000090A8D2F0E94090A8C2F0E94090ADF91E8
:1014A000CF911F910895C49880EC0E94090AC49AB4
:1014B0000895CF93DF93EC010E94FE090E94530A26
:1014C0006C2F8FE00E94250A84EA8A95F1F78EE05E
:1014D0000E94170A807E282F30E02C173D0751F01C
:1014E00087EF93E09F938F930E94670F0F900F9069
:1014F00081E009C087E294E09F938F930E94670F79
:101500000F900F9080E0DF91CF910895C49880EA0A
:101510000E94090A0E94110AC49A08950E94590A59
:10152000089580E30E94170A80E30E94170A80E072
:1015300090E0089580E00E94170A91E0811190E008
:10154000892F08950F931F93CF938C010E949A0ABD
:10155000882379F1F8016081718176956795769598
:1015600067957695679581E30E94250AF801608169
:101570006295660F607E82E30E94250AF80162810F
:101580006F7085E30E94250AF8018281882371F03B
:10159000C0E0F801EC0FF11D638186E38C0F0E941F
:1015A000250ACF5FF8018281C81798F381E80E946D
:1015B000370ACF911F910F910895AF92BF92CF92AA
:1015C000DF92EF92FF920F931F93CF93DF93EC0183
:1015D00061E08BE20E94250A8CE20E94170A082F24
:1015E00080FF5DC081E60E94170A182F82E60E94E4
:1015F000170A282F30E0359527953595279535958D
:1016000027953595279535952795C90148E0149F6D
:10161000800D911D11249983888385E60E94170A05
:101620008F708A838823D9F110E00F2EF5E3AF2E57
:10163000F4E0BF2EF02D6E0183E0C80ED11C0F2EFA
:10164000FFE4EF2EF4E0FF2EF02D015086E6810F2F
:101650000E94170AFE01E10FF11D838389818F9398
:1016600088818F93BF92AF920E94670FDF92CF92D3
:101670008A811F928F93FF92EF920E94670F602FD3
:101680008CE20E94250A1F5F8DB79EB70A960FB69F
:10169000F8949EBF0FBE8DBF8A811817B8F2DF91F4
:1016A000CF911F910F91FF90EF90DF90CF90BF905F
:1016B000AF90089597FB072E16F4009407D077FD9E
:1016C00009D00E946E0B07FC05D03EF490958195E1
:1016D0009F4F0895709561957F4F0895AA1BBB1B7E
:1016E00051E107C0AA1FBB1FA617B70710F0A61B22
:1016F000B70B881F991F5A95A9F780959095BC0143
:10170000CD0108950E94320D60F080E891E009F467
:101710009EEF0E94390D28F040E851E071F45EEF31
:101720000CC00C94080D0C94730DE92FE0780E9406
:10173000510D40F3092E052AB1F326173707480744
:10174000590738F00E2E07F8E02569F0E025E0642F
:101750000AC0EF6307F8009407FADB01B9019D01A5
:10176000DC01CA01AD01EF930E94100C0E94400DF4
:101770000E94C50B5F91552339F02BED3FE049E402
:1017800050FD49EC0C943F0E0895DF93DD27B92FEF
:10179000BF7740E85FE31616170648075B0718F4A3
:1017A000D92F0E947F0D9F938F937F936F930E94F9
:1017B0003A0EE0E7F0E00E940B0D0E94400D2F91E1
:1017C0003F914F915F910E949A0DDD2351F0905807
:1017D000A2EA2AED3FE049EC5FE3D0785D270E9462
:1017E000560EDF910C94400D0E94DE0C08F481E04F
:1017F00008950E940D0C0C94400D0E94390D58F074
:101800000E94320D40F029F45F3F29F00C94020D44
:1018100051110C94740D0C94080D0E94510D68F335
:101820009923B1F3552391F3951B550BBB27AA2799
:1018300062177307840738F09F5F5F4F220F331FD3
:10184000441FAA1FA9F335D00E2E3AF0E0E832D09B
:1018500091505040E695001CCAF72BD0FE2F29D09E
:10186000660F771F881FBB1F261737074807AB0770
:10187000B0E809F0BB0B802DBF01FF2793585F4FE5
:101880003AF09E3F510578F00C94020D0C94740DC3
:101890005F3FE4F3983ED4F3869577956795B795C7
:1018A000F7959F5FC9F7880F911D9695879597F9D2
:1018B0000895E1E0660F771F881FBB1F621773074B
:1018C0008407BA0720F0621B730B840BBA0BEE1F60
:1018D00088F7E09508950E94720C6894B1110C94F9
:1018E000740D08950E94590D88F09F5798F0B92FF4
:1018F0009927B751B0F0E1F0660F771F881F991F45
:101900001AF0BA95C9F714C0B13091F00E94730D66
:10191000B1E008950C94730D672F782F8827B85F76
:1019200039F0B93FCCF3869577956795B395D9F79C
:101930003EF490958095709561957F4F8F4F9F4FA6
:101940000895E89409C097FB3EF4909580957095B2
:1019500061957F4F8F4F9F4F9923A9F0F92F96E9FB
:10196000BB279395F695879577956795B795F11170
:10197000F8CFFAF4BB0F11F460FF1BC06F5F7F4F0D
:101980008F4F9F4F16C0882311F096E911C077231F
:1019900021F09EE8872F762F05C0662371F096E828
:1019A000862F70E060E02AF09A95660F771F881FF7
:1019B000DAF7880F9695879597F90895990F00089B
:1019C000550FAA0BE0E8FEEF16161706E807F90711
:1019D000C0F012161306E407F50798F0621B730BAC
:1019E000840B950B39F40A2661F0232B242B252B2D
:1019F00021F408950A2609F4A140A6958FEF811DD0
:101A0000811D089597F99F6780E870E060E0089570
:101A10009FEF80EC0895DF93CF931F930F93FF9276
:101A2000EF92DF927B018C01689406C0DA2EEF0101
:101A30000E949A0DFE01E894A5912591359145915A
:101A40005591A6F3EF010E94560EFE019701A801E1
:101A5000DA9469F7DF90EF90FF900F911F91CF918B
:101A6000DF91089500240A94161617061806090631
:101A7000089500240A941216130614060506089504
:101A8000092E0394000C11F4882352F0BB0F40F48C
:101A9000BF2B11F460FF04C06F5F7F4F8F4F9F4FCC
:101AA000089557FD9058440F551F59F05F3F71F04E
:101AB0004795880F97FB991F61F09F3F79F08795B5
:101AC0000895121613061406551FF2CF4695F1DF3E
:101AD00008C0161617061806991FF1CF86957105CE
:101AE000610508940895E894BB2766277727CB0102
:101AF00097F908950E94DE0C08F48FEF08959B017A
:101B0000AC0160E070E080E89FE30C94F90B0E9468
:101B10009A0D0C94400D0E94320D38F00E94390D40
:101B200020F0952311F00C94020D0C94080D112453
:101B30000C94740D0E94510D70F3959FC1F3950F95
:101B400050E0551F629FF001729FBB27F00DB11D41
:101B5000639FAA27F00DB11DAA1F649F6627B00DD1
:101B6000A11D661F829F2227B00DA11D621F739FBA
:101B7000B00DA11D621F839FA00D611D221F749FC8
:101B80003327A00D611D231F849F600D211D822F0F
:101B9000762F6A2F11249F5750409AF0F1F0882336
:101BA0004AF0EE0FFF1FBB1F661F771F881F915063
:101BB0005040A9F79E3F510580F00C94020D0C9403
:101BC000740D5F3FE4F3983ED4F38695779567955F
:101BD000B795F795E7959F5FC1F7FE2B880F911D8D
:101BE0009695879597F9089519F416F40C94080DB5
:101BF0000C94AB0E0E94590DB8F39923C9F3B6F3B8
:101C00009F57550B87FF0E94B90E0024A0E640EABB
:101C1000900180585695979528F4805C660F771F41
:101C2000881F20F026173707480730F4621B730B14
:101C3000840B202931294A2BA69517940794202537
:101C400031254A2758F7660F771F881F20F026177F
:101C50003707480730F4620B730B840B200D311DDE
:101C6000411DA09581F7B901842F9158880F969551
:101C7000879508959B01AC010C94870D5058BB27A4
:101C8000AA270E94560E0C94400D0E94320D38F087
:101C90000E94390D20F039F49F3F19F426F40C947A
:101CA000080D0EF4E095E7FB0C94020DE92F0E945D
:101CB000510D58F3BA17620773078407950720F090
:101CC00079F4A6F50C94730D0EF4E0950B2EBA2F53
:101CD000A02D0B01B90190010C01CA01A001112432
:101CE000FF27591B99F0593F50F4503E68F11A16DE
:101CF000F040A22F232F342F4427585FF3CF46956F
:101D000037952795A795F0405395C9F77EF41F1690
:101D1000BA0B620B730B840BBAF09150A1F0FF0F5A
:101D2000BB1F661F771F881FC2F70EC0BA0F621F46
:101D3000731F841F48F4879577956795B795F79536
:101D40009E3F08F0B0CF9395880F08F09927EE0FCB
:101D50009795879508959F3F31F0915020F487958E
:101D600077956795B795880F911D9695879597F903
:101D7000089591505040660F771F881FD2F708953D
:101D80008F929F92AF92BF92CF92DF92EF92FF928B
:101D9000CF93DF93EC01688179818A819B81611502
:101DA00071058105910521F464E279ED8BE597E0F9
:101DB0002DE133EF41E050E00E94521349015A01F6
:101DC0009B01AC01A7EAB1E40E9471136B017C0195
:101DD000ACEEB4EFA50194010E947F13DC01CB01AE
:101DE0008C0D9D1DAE1DBF1DB7FF03C00197A1093E
:101DF000B04888839983AA83BB839F77DF91CF9173
:101E0000FF90EF90DF90CF90BF90AF909F908F901A
:101E100008950E94C00E08958BE091E00E94C00ECC
:101E20000895A0E0B0E080930B0190930C01A09383
:101E30000D01B0930E0108950F931F93CF93DF937D
:101E4000009731F46115710519F480E090E03AC013
:101E50008B01EC016EE070E081E090E00E94561191
:101E6000FC01892B91F380E883830115110571F042
:101E70001387028781E8838380916C0490916D04BD
:101E8000892B21F4F0936D04E0936C042097C9F042
:101E9000D187C08783818260838380916E04909113
:101EA0006F04892B71F4F0936F04E0936E048091BA
:101EB000700490917104892B21F4F0937104E093E4
:101EC0007004CF01DF91CF911F910F910895A0E091
:101ED000B0E0EDE6FFE00C949413AE014B5F5F4F72
:101EE000FA0161917191AF0180916E0490916F043C
:101EF0000E94840FE2E00C94B01360916E04709124
:101F00006F040E94BC120895ACE0B0E0EAE8FFE084
:101F10000C9484137C016B018A01FC0117821682E8
:101F2000838181FFBDC1CE0101964C01F7019381F0
:101F3000F60193FD859193FF81916F01882309F448
:101F4000ABC1853239F493FD859193FF81916F0187
:101F5000853229F4B70190E00E94BC12E7CF512CE2
:101F6000312C20E02032A0F48B3269F030F4803242
:101F700059F0833269F420612CC08D3239F08033FE
:101F800039F4216026C02260246023C0286021C06B
:101F900027FD27C030ED380F3A3078F426FF06C011
:101FA000FAE05F9E300D1124532E13C08AE0389E54
:101FB000300D1124332E20620CC08E3221F426FD08
:101FC0006BC1206406C08C3611F4206802C08836CC
:101FD00041F4F60193FD859193FF81916F01811189
:101FE000C1CF982F9F7D9554933028F40C5F1F4FDD
:101FF000FFE3F9830DC0833631F0833771F0833509
:1020000009F05BC022C0F801808189830E5F1F4FF9
:1020100044244394512C540115C03801F2E06F0E52
:10202000711CF801A080B18026FF03C0652D70E00F
:1020300002C06FEF7FEFC5012C870E94B1122C0107
:1020400083012C852F77222E17C03801F2E06F0E06
:10205000711CF801A080B18026FF03C0652D70E0DF
:1020600002C06FEF7FEFC5012C870E949F122C01E9
:102070002C852068222E830123FC1BC0832D90E039
:1020800048165906B0F4B70180E290E00E94BC12F5
:102090003A94F4CFF50127FC859127FE81915F01E9
:1020A000B70190E00E94BC1231103A94F1E04F1A4F
:1020B00051084114510471F7E5C0843611F0893696
:1020C00039F5F80127FF07C0608171818281938112
:1020D0000C5F1F4F08C060817181072E000C880BB8
:1020E000990B0E5F1F4F2F76722E97FF09C09095A8
:1020F0008095709561957F4F8F4F9F4F2068722E0E
:102100002AE030E0A4010E94F412A82EA81844C0CE
:10211000853729F42F7EB22E2AE030E025C0F22F39
:10212000F97FBF2E8F36C1F018F4883579F0B4C02E
:10213000803719F0883721F0AFC02F2F2061B22EE1
:10214000B4FE0DC08B2D8460B82E09C024FF0AC0D8
:102150009F2F9660B92E06C028E030E005C020E130
:1021600030E002C020E132E0F801B7FE07C0608134
:102170007181828193810C5F1F4F06C060817181E4
:1021800080E090E00E5F1F4FA4010E94F412A82E81
:10219000A818FB2DFF777F2E76FE0BC0372D3E7FD4
:1021A000A51450F474FE0AC072FC08C0372D3E7EA0
:1021B00005C0BA2C372D03C0BA2C01C0B52C34FF92
:1021C0000DC0FE01EA0DF11D8081803311F4397ECE
:1021D00009C032FF06C0B394B39404C0832F86783D
:1021E00009F0B39433FD13C030FF06C05A2CB3146A
:1021F00018F4530C5B18B32CB31468F4B70180E2E5
:1022000090E03C870E94BC12B3943C85F5CFB31498
:1022100010F43B1801C0312C34FF12C0B70180E329
:1022200090E03C870E94BC123C8532FF17C031FD14
:1022300003C088E790E002C088E590E0B7010CC0D9
:10224000832F867859F031FF02C08BE201C080E213
:1022500037FD8DE2B70190E00E94BC12A51438F45E
:10226000B70180E390E00E94BC125A94F7CFAA9481
:10227000F401EA0DF11D8081B70190E00E94BC12CB
:10228000A110F5CF332009F451CEB70180E290E0E0
:102290000E94BC123A94F6CFF7018681978102C062
:1022A0008FEF9FEF2C96E2E10C94A0130F931F93F6
:1022B000CF93DF93869F8001879F100D969F100D0F
:1022C0001124C8010E947211EC01009729F0A801A5
:1022D00060E070E00E94AA12CE01DF91CF911F91C1
:1022E0000F910895CF93DF938230910510F482E02F
:1022F00090E0E0917404F091750420E030E0C0E0DB
:10230000D0E0309711F14081518148175907C0F052
:102310004817590761F482819381209719F09B83B4
:102320008A832BC0909375048093740426C0211572
:10233000310519F04217530718F49A01BE01DF0165
:10234000EF010280F381E02DDCCF2115310509F189
:10235000281B390B2430310590F412968D919C91F5
:1023600013976115710521F0FB019383828304C0EB
:102370009093750480937404FD01329644C0FD016E
:10238000E20FF31F81939193225031092D933C93D7
:102390003AC02091720430917304232B41F42091B0
:1023A0001101309112013093730420937204209133
:1023B0000F01309110012115310541F42DB73EB7C1
:1023C0004091130150911401241B350BE0917204CC
:1023D000F0917304E217F307A0F42E1B3F0B2817AC
:1023E000390778F0AC014E5F5F4F2417350748F08E
:1023F0004E0F5F1F50937304409372048193919327
:1024000002C0E0E0F0E0CF01DF91CF9108950F939B
:102410001F93CF93DF93009709F48CC0FC01329790
:102420001382128200917404109175040115110534
:1024300081F420813181820F931F209172043091A9
:1024400073042817390779F5F0937304E093720445
:1024500071C0D80140E050E0AE17BF0750F41296AB
:102460002D913C911397AD012115310509F1D90149
:10247000F3CF9D01DA013383228360817181860F5E
:10248000971F8217930769F4EC0128813981260F81
:10249000371F2E5F3F4F318320838A819B81938337
:1024A0008283452B29F4F0937504E093740442C0B1
:1024B0001396FC93EE931297ED01499159919E0169
:1024C000240F351FE217F30771F480819181840F87
:1024D000951F029611969C938E93828193811396F9
:1024E0009C938E931297E0E0F0E0D80112968D91C4
:1024F0009C911397009719F0F8018C01F6CF8D91FC
:102500009C9198012E5F3F4F820F931F2091720480
:10251000309173042817390769F4309729F4109221
:1025200075041092740402C0138212821093730413
:1025300000937204DF91CF911F910F910895FC01D8
:102540000590615070400110D8F7809590958E0FDE
:102550009F1F0895DC0101C06D9341505040E0F78A
:102560000895FC016150704001900110D8F78095EA
:1025700090958E0F9F1F08950F931F93CF93DF9316
:10258000FB01238121FD03C08FEF9FEF28C022FFB5
:1025900016C046815781248135814217530744F480
:1025A000A081B1819D012F5F3F4F318320838C93A8
:1025B000268137812F5F3F4F3783268310C0EB0181
:1025C000092F182F0084F185E02D0995892BE1F65C
:1025D0008E819F8101969F838E83812F902FDF9123
:1025E000CF911F910F910895FA01AA27283051F138
:1025F000203181F1E8946F936E7F6E5F7F4F8F4F34
:102600009F4FAF4FB1E03ED0B4E03CD0670F781F92
:10261000891F9A1FA11D680F791F8A1F911DA11D77
:102620006A0F711D811D911DA11D20D009F46894B0
:102630003F912AE0269F11243019305D3193DEF658
:10264000CF010895462F4770405D4193B3E00FD00E
:10265000C9F7F6CF462F4F70405D4A3318F0495DF9
:1026600031FD4052419302D0A9F7EACFB4E0A695DC
:102670009795879577956795BA95C9F700976105FE
:10268000710508959B01AC010A2E06945795479554
:1026900037952795BA95C9F7620F731F841F951F49
:1026A000A01D0895052E97FB1EF400940E94691347
:1026B00057FD07D00E94BB1307FC03D04EF40C94C7
:1026C000691350954095309521953F4F4F4F5F4F7F
:1026D000089590958095709561957F4F8F4F9F4F8E
:1026E00008950E94DD13A59F900DB49F900DA49FA7
:1026F000800D911D11240895B7FF0C9471130E9451
:102700007113821B930B08952F923F924F925F9209
:102710006F927F928F929F92AF92BF92CF92DF92F1
:10272000EF92FF920F931F93CF93DF93CDB7DEB756
:10273000CA1BDB0B0FB6F894DEBF0FBECDBF0994EA
:102740002A88398848885F846E847D848C849B8441
:10275000AA84B984C884DF80EE80FD800C811B814F
:10276000AA81B981CE0FD11D0FB6F894DEBF0FBE7E
:10277000CDBFED010895A1E21A2EAA1BBB1BFD01DE
:102780000DC0AA1FBB1FEE1FFF1FA217B307E40750
:10279000F50720F0A21BB30BE40BF50B661F771FA8
:1027A000881F991F1A9469F7609570958095909588
:1027B0009B01AC01BD01CF010895A29FB001B39F61
:1027C000C001A39F700D811D1124911DB29F700D3A
:0C27D000811D1124911D0895F894FFCF85
:1027DC00D703DD03E303E903F1030101000000006B
:1027EC000076042000577269746520706861736507
:1027FC00206572726F723A206578745F72616D5BDE
:10280C002534645D203D2025303258202873686FB4
:10281C00756C642062652025303258290A00526597
:10282C007472696576616C2070686173652065727D
:10283C00726F723A206578745F72616D5B253464D7
:10284C005D203D2025303258202873686F756C64EC
:10285C002062652025303258290A005352414D2000
:10286C007465737420636F6D706C65746564207728
:10287C00697468200A09253464206572726F72735A
:10288C0020696E20777269746520706861736520A9
:10289C00616E64200A253464206572726F72732035
:1028AC00696E2072657472696576616C20706861FE
:1028BC0073650A0A006D6573736167652073656ED5
:1028CC00743A202573090043414E494E54462072F8
:1028DC00656769737465723A2578090045464C47FB
:1028EC002072656769737465723A25780A0D005910
:1028FC00203A2025753B2058203A202564092000D9
:10290C00583A2025642025252C20593A202564206E
:10291C002525202C20616E676C653A2025642009E2
:10292C00004D41473A20256409004449524543541F
:10293C00494F4E3A2025640A0D00736C6964657228
:10294C00204C203A202564200900736C6964657260
:10295C002052203A202564200900427574746F6E51
:10296C00206C6566743A202564092C206275747499
:10297C006F6E2072696768743A202564092062754D
:10298C0074746F6E206A6F79737469636B3A202567
:10299C0064200A0D006F666673657473203A2078A4
:1029AC002C79203A202564203B2025640A0A0065F6
:1029BC0072726F722C20756E6B6E6F776E206469FD
:1029CC0072656374696F6E002050494E472D504FED
:1029DC004E47204D656E7520003120536574746927
:1029EC006E677300322043686F6F73652063686194
:1029FC00726163746572003320506C61790034200D
:102A0C004C656164657220426F61726400352051BF
:102A1C0075697400476F6F642063686F6963653A0A
:102A2C0000596F7520686176652063686F73656EF9
:102A3C000057656C636F6D6500546F0050494E47CD
:102A4C00202D20504F4E4700546F756368204A6FFD
:102A5C0079737469636B0053657474696E67207065
:102A6C0061676500646966666963756C7479203F9B
:102A7C0020002050494E472D504F4E472067616D26
:102A8C006520004C6F6164696E67003120415A45C6
:102A9C00525459203C33003220537475642E2061FB
:102AAC0073736973742E004D6172696F00506561A8
:102ABC006368004C756967790042726F7773657251
:102ACC0000696E616B69004D4350323531352069B8
:102ADC0073204E4F5420696E207468652063686FB4
:102AEC0073656E206D6F646520616674657220720B
:102AFC00657365740A0D00476F6F6420636F6E66B3
:102B0C0069670A0D004D65737361676520726563B3
:102B1C0065697665643A2069643A20256409006C1D
:102B2C00656E6774683A20256409206D73673A20D6
:062B3C0025730A0D2000C4
:00000001FF
