:100000000C9477030C9494030C9494030C94940331
:100010000C9494030C9494030C9494030C94940304
:100020000C9494030C9494030C9494030C949403F4
:100030000C9494030C9494030C9494030C949403E4
:100040000C9494030C9494030C9494030C949403D4
:100050000C9494030C9494030C9494030C949403C4
:100060000C9494030C9494030C9494030C949403B4
:10007000084AD73B3BCE016E84BCBFFDC12F3D6C0F
:1000800074319ABD56833DDA3D00C77F11BED9E475
:10009000BB4C3E916BAAAABE000000803F0000004E
:1000A0000000005C00000C000C007C287C2858DC60
:1000B00068002410480028542840000C00000078F4
:1000C00084008478000054385400107C1000804074
:1000D0000000101010000040000060100C003854A8
:1000E0003800487C40004864580044542C001C10E0
:1000F0007C005C5424003854240064140C006854C0
:100100002C004854380000480000804800001028A7
:1001100044002828280044281000045408003844CB
:100120005C00781478007C542800384428007C4413
:1001300038007C5444007C140400384474007C1063
:100140007C00447C440020403C007C106C007C40DF
:1001500040007C187C0078103C00384438007C1447
:1001600008003844B8007C14680048542400047C1B
:1001700004007C407C003C603C007C307C006C10C7
:100180006C000C700C0064544C00007C44000C109B
:100190006000447C000008040800808080000004A7
:1001A0000800304878007C4830003048480030482B
:1001B0007C00306850001078140090A878007C080B
:1001C000700050744000808074007C106800447C93
:1001D0004000781078007808700030483000F82827
:1001E00010003048F8007810080050582800083CEB
:1001F000480038407800384038007820780048308F
:10020000480098A078004868580010788400007C66
:1002100000008478100008040804000000000000BA
:10022000005F00000007000700147F147F14242AD9
:100230007F2A1223130864623649552250000503B1
:100240000000001C2241000041221C00082A1C2A38
:100250000808083E08080050300000080808080890
:10026000006060000020100804023E5149453E0035
:10027000427F400042615149462141454B311814AB
:10028000127F1027454545393C4A494930017109DB
:1002900005033649494936064949291E00363600C4
:1002A00000005636000000081422411414141414DF
:1002B00041221408000201510906324979413E7E6B
:1002C0001111117E7F494949363E414141227F410A
:1002D00041221C7F494949417F090901013E4141B1
:1002E00051327F0808087F00417F41002040413F94
:1002F000017F081422417F404040407F0204027F7A
:100300007F0408107F3E4141413E7F090909063EB6
:100310004151215E7F091929464649494931010168
:100320007F01013F4040403F1F2040201F7F201899
:10033000207F631408146303047804036151494562
:100340004300007F4141020408102041417F00002A
:100350000402010204404040404000010204002029
:10036000545454787F4844443838444444203844F2
:1003700044487F3854545418087E09010208145424
:10038000543C7F0804047800447D40002040443DF4
:1003900000007F10284400417F40007C041804784E
:1003A0007C0804047838444444387C141414080845
:1003B0001414187C7C080404084854545420043F46
:1003C0004440203C4040207C1C2040201C3C4030CD
:1003D000403C44281028440C5050503C4464544C39
:1003E00044000836410000007F000000413608004C
:1003F0000201030201000000000000000000065F8F
:100400005F060000000007070007070000147F7F59
:10041000147F7F1400242E6B6B3A12000046663066
:10042000180C666200307A4F5D377A480004070383
:100430000000000000001C3E63410000000041631A
:100440003E1C000000082A3E1C1C3E2A0808083EEC
:100450003E0808000000A0E0600000000008080856
:10046000080808000000006060000000006030180C
:100470000C060301003E7F594D7F3E000042427F43
:100480007F40400000627359496F66000022634953
:10049000497F360000181C16137F7F100027674520
:1004A000457D3900003C7E4B497930000003637183
:1004B000190F070000367F49497F360000064F4973
:1004C000693F1E000000006C6C0000000000A0EC02
:1004D0006C00000000081C36634100000014141476
:1004E0001414140000004163361C0800000203517C
:1004F000590F0600003E7F415D5D1F1E007C7E138C
:10050000137E7C0000417F7F49497F36001C3E639B
:100510004141632200417F7F41637F1C00417F7F17
:10052000495D416300417F7F491D0103001C3E631B
:1005300041517372007F7F08087F7F000000417F78
:100540007F41000000307040417F3F0100417F7FCC
:10055000081C776300417F7F41406070007F7F0609
:100560000C067F7F007F7F060C187F7F001C3E6398
:1005700041633E1C00417F7F49090F06001E3F2159
:10058000717F5E0000417F7F19396F460026674DFD
:10059000597B32000003417F7F410300007F7F4091
:1005A000407F7F00001F3F60603F1F00007F7F3063
:1005B00018307F7F0063771C081C776300074F7833
:1005C000784F0700006773594D47637100007F7FC4
:1005D00041410000000103060C1830600000414159
:1005E0007F7F000000080C0603060C080080808056
:1005F0008080808080000003070400000020745485
:10060000543C784000413F7F44447C3800387C446F
:10061000446C280000307848493F7F4000387C54C3
:10062000545C180000487E7F490302000098BCA477
:10063000A4F87C0400417F7F08047C780000447D9E
:100640007D4000000040C484FD7D000000417F7FAC
:1006500010386C440000417F7F400000007C7C0C1F
:10066000180C7C78007C7C04047C780000387C4486
:10067000447C38000084FCF8A4243C1800183C2476
:10068000A4F8FC8400447C78441C180000485C54A6
:10069000547424000000043E7F442400003C7C404D
:1006A000403C7C40001C3C60603C1C00003C7C608A
:1006B00030607C3C00446C3810386C44009CBCA01A
:1006C000A0FC7C00004C64745C4C64000008083E94
:1006D000774141000000000077770000004141773A
:1006E0003E08080000020301030203010000112478
:1006F0001FBECFEFD4E0DEBFCDBF13E0A0E0B1E07E
:10070000E0EEF8E202C005900D92A83FB107D9F7DC
:1007100024E0A8EFB3E001C01D92AD30B207E1F7CD
:100720000E94D9030C946E140C940000EF92FF9277
:100730000F931F93CF93DF93CAEFD3E08981888310
:100740008A8189838B818A838C818B830E94DB05DC
:100750008C83C0E0D0E00F2EFDE2EF2EF1E0FF2E03
:10076000F02D8E0106501C4FF80180811F928F934F
:10077000DF93CF93FF92EF920E945310F801908184
:100780002196FE01E650FC4F80810F900F900F9054
:100790000F900F900F90891728F4C430D10509F7F6
:1007A0000E94AF0BDF91CF911F910F91FF90EF90BF
:1007B00008958FEF87BB8FE190E00E9442046DE4C3
:1007C00074E089E494E00E94081083E491E09F9330
:1007D0008F930E94531085B7806885BF80B7806271
:1007E00080BF88B38C6F88BB0E941F060E94C7071A
:1007F00080E090E00E949B0A0E9402090F900F90F7
:100800000F2EF9E4EF2EF1E0FF2EF02D0F2EF9E57B
:10081000CF2EF1E0DF2EF02D04E611E0C8E7D1E0A5
:100820008AE00E94490BFF92EF920E9453100E94AF
:1008300096030E9457060F900F901816190644F45D
:100840000E94E90ADF92CF920E9453100F900F90FE
:100850000E94290B1F930F930E9453100E94E505DD
:100860001F928F93DF93CF930E94531084E299E7F6
:100870000197F1F700000F900F900F900F900F90DD
:100880000F90CECF90BD89B988E18AB98EE880BD3E
:1008900008955D9BFECF8CB908955F9903C08CB11C
:1008A00090E008958CB190E00895E0E0F4E1808359
:1008B00086EA8A95F1F700C08081089585360CF0AC
:1008C00084E68C390CF48CE90895E0E0F4E186E0EC
:1008D000808386EA8A95F1F700C08091FF039091AA
:1008E0000004608170E0681B790B072E000C880BF8
:1008F000990B0E94EB0D23E333E343EA5FE30E948D
:10090000410D0E94B30D862F0E945E040895E0E021
:10091000F4E187E0808386EA8A95F1F700C0809150
:10092000010490910204608170E0681B790B072E2E
:10093000000C880B990B0E94EB0D23E333E343EA91
:100940005FE30E94410D0E94B30D862F0E945E045A
:100950000895CF92DF92EF92FF92CF93DF930E94A0
:100960006504D82F0E948704C82FDD2321F16D2F45
:10097000DD0F770B880B990B0E94EB0D6B017C014F
:100980006C2FCC0F770B880B990B0E94EB0DA701F6
:1009900096010E94DD0C20E030E044E353E40E9425
:1009A000CF0E28ED3FE049E450E40E94410D0E9443
:1009B000B30DCB010CC088232CF0181634F48AE553
:1009C00090E005C086EA9FEF02C080E090E0DF91F2
:1009D000CF91FF90EF90DF90CF900895CF92DF926C
:1009E000EF92FF92CF930E946504C82F0E94870464
:1009F0008802C00111246C01CC02C00CD11C11244E
:100A00000D2C000CEE08FF08C701B6010E94EB0D8B
:100A10000E94420F0E94B30D862FCF91FF90EF905E
:100A2000DF90CF900895CF93DF930E946504C82F85
:100A30000E9487041F928F931F92CF9329E831E081
:100A40003F932F930E9453100E94EE04C82F0E94E0
:100A5000A9040F900F900F900F900F900F90C33339
:100A6000A8F09C012D5231092A35310588F02C540B
:100A70003F4F2E3041E0340768F42A35310560F0ED
:100A80008D968A35910548F4D2E007C0D0E005C0C4
:100A9000D3E003C0D1E001C0D4E08D2FDF91CF912E
:100AA0000895CF93DF93E0E0F4E187E0808386EA66
:100AB0008A95F1F700C0808196E0908396EA9A9536
:100AC000F1F700C01F928F9380811F928F9386E968
:100AD00091E09F938F930E9453100E946504C82F4A
:100AE0000E948704D82F0E94A9049F938F938D2F73
:100AF0000D2E000C990B9F93DF938C2F0C2E000C66
:100B0000990B9F93CF9387EA91E09F938F930E94D5
:100B100053100E94EE041F928F9388EC91E09F93F4
:100B20008F930E9453100E9413051F928F9381EDA3
:100B300091E09F938F930E94531087EA91E601976B
:100B4000F1F700C000008DB79EB746960FB6F89437
:100B50009EBF0FBE8DBFDF91CF910895CF93DF93DE
:100B6000C0E0D4E185E0888386EA8A95F1F700C089
:100B700088811F928F9381EE91E09F938F930E94C3
:100B8000531084E0888396EA9A95F1F700C0888133
:100B90001F928F9381EF91E09F938F930E94531048
:100BA0008DB79EB708960FB6F8949EBF0FBE8DBF47
:100BB000DF91CF910895E0E0F4E185E0808386EA5B
:100BC0008A95F1F700C080810895E0E0F4E184E0C7
:100BD000808386EA8A95F1F700C08081089524E138
:100BE00030E080E090E0E0E0F4E156E0508346EA57
:100BF0004A95F1F700C04081840F911D21503109C1
:100C0000A9F764E170E00E94A20CCB01089524E1F1
:100C100030E080E090E0E0E0F4E157E0508346EA25
:100C20004A95F1F700C04081840F911D2150310990
:100C3000A9F764E170E00E94A20CCB0108950E9424
:100C4000EF05909300048093FF030E9407069093A2
:100C500002048093010420910104309102048091E8
:100C6000FF03909100043F932F939F938F9381E014
:100C700092E09F938F930E9453100F900F900F90CC
:100C80000F900F900F900895813039F018F0823056
:100C900041F00CC086B38170089586B3869581704B
:100CA000089586B382FB882780F908950895E6B3F6
:100CB00076B366B34E2F417050E071FB882780F900
:100CC00090E0840F951F62FB222720F930E02F5F10
:100CD0003F4F02C0880F991F2A95E2F7880F880FAF
:100CE0000895863081F4E0E0F4E1808386EA8A9515
:100CF000F1F700C08091FF0390910004608170E0E3
:100D0000681B790B1CC0873081F4E0E0F4E180833C
:100D100086EA8A95F1F700C080910104909102045F
:100D2000608170E0681B790B0AC08BE192E09F93B1
:100D30008F930E9453100F900F9060E070E0072E89
:100D4000000C880B990B0E94EB0D23E333E343EA7D
:100D50005FE30E94410D0E94B30D862F0E945E0446
:100D60000895DF92EF92FF920F931F93CF93DF933B
:100D7000E62EF12C1E141F04ACF4D82EC0E0D0E0F7
:100D800000E010E08D2D0E947106080F111D87FDF7
:100D90001A9581E28A95F1F700002196CE15DF05BC
:100DA00089F702C000E010E0C801B7010E94A20C60
:100DB000862FDF91CF911F910F91FF90EF90DF90E1
:100DC000089580930010089580930012089528E0FC
:100DD0008202C00111248B509D4F20E0A0E0B2E1BF
:100DE000FC01459154914C932F5F01962830C1F737
:100DF0000895CF93DF93EC018881882331F0219609
:100E00000E94E70689918111FBCFDF91CF91089570
:100E10002F923F924F925F926F927F928F929F920A
:100E2000AF92BF92CF92DF92EF92FF920F931F93F8
:100E3000CF93DF93EC01462E512C612C712C33247F
:100E40003394212C0CE710E040C00E94E706C30158
:100E5000B2010E94E90D4B015C0120E030E14BE959
:100E600054E40E94CF0E6B017C0120E030E040E8AA
:100E70005FE30E943C0D88231CF120E03FEF4FE729
:100E800057E4C701B6010E94C20E1816A4F420E070
:100E900030E040E251E4C501B4010E94CF0E0E944F
:100EA000BA0D6115710589F0C8010197F1F761501C
:100EB0007109D1F70AC0C701B6010E94BA0D02C07C
:100EC000632D722DCB010197F1F789918111BDCF6F
:100ED000DF91CF911F910F91FF90EF90DF90CF9016
:100EE000BF90AF909F908F907F906F905F904F904A
:100EF0003F902F90089528E08202C00111248B506A
:100F00009D4F40E0A0E0B2E1FC0125913491209595
:100F10002C934F5F01964830B9F70895E0E0F0E177
:100F200090E2908380830895E0E0F0E192E2908384
:100F3000808387E080830895E0E0F0E191E2908390
:100F400080838FE780830895CF93C62F0E949407F4
:100F50008C2F0E949C07CF91089560E080E00E9452
:100F6000A40708950E94AD0780E094E0E0E0F2E17C
:100F70002FEF20830197E9F708950E94AD0780E0E5
:100F800094E0E0E0F2E110820197E9F70895E0E0F3
:100F9000F0E18EEA808381EA80838AED808382E1BA
:100FA000808388EC808388EA80838FE3808385ED6B
:100FB000808380E8808381E8808380E5808389ED79
:100FC000808381E2808380E2808310828BED808346
:100FD00080E380838DEA8083108284EA808386EABE
:100FE00080838FEA80830E94BD0708950E94BD0719
:100FF00060E080E00E94A40784E392E00E94F9068A
:1010000060E082E00E94A40785E492E00E94F90675
:1010100060E083E00E94A40780E592E00E94F90668
:1010200060E084E00E94A40783E692E00E94F90653
:1010300060E085E00E94A4078AE692E00E94F9063B
:1010400060E086E00E94A40789E792E00E94F9062A
:1010500060E082E00E94A40781E30E947B0708957C
:1010600082E00E944406882319F00E941305089527
:1010700085E00895FF920F931F93CF93DF930E9413
:10108000BD0760E080E00E94A40780E892E00E9433
:10109000F90660E082E00E94A40781E992E00E94E4
:1010A000F90660E083E00E94A40710E10F2EF0ED46
:1010B000FF2EF02D07E0CCE7D0E081E193E00E9425
:1010C000F9068F2D902FFE013197F1F70197D9F78F
:1010D000115099F7DF91CF911F910F91FF900895D3
:1010E0000E94BD07FFCF0F931F93CF930E94BD07B0
:1010F00060E080E00E94A40782E592E00E94F90689
:1011000060E081E00E94A40700E011E0C3E060E03D
:101110008C2F0E94A4078EE28C0F0E94E70680E2CB
:101120000E94E706F801819191918F010E94F906D2
:10113000CF5FC83061F7CF911F910F910895CF9382
:10114000DF930E947308C5E7D0E303C0CE01019787
:10115000F1F70E9430088111F9CF65E083E00E9429
:101160004B09C82F0E94BD0761E081E00E94A407DF
:1011700089E992E00E94F90660E082E00E94A407FB
:1011800086EA92E00E94F90660E084E00E94A407EB
:10119000EC2FF0E0EE0FFF1FE050FF4F80819181B8
:1011A0000E94F90680E395E72CE730E0F9013197DA
:1011B000F1F70197D9F70E94E008DF91CF910895E8
:1011C0000E94F60765E082E00E944B09823089F0B8
:1011D00028F4882341F0813049F00895833061F08C
:1011E000843069F008950E94AA0908950E949F081A
:1011F00008950E943A0808950E94EA0908950E94FD
:10120000BD07FFCFCF93DF930E94BD0768E180E069
:101210000E94A40762E386EB92E00E94080768E35D
:1012200081E00E94A40764EF8EEB92E00E94080721
:1012300064E183E00E94A40768EC81EC92E00E94E4
:10124000080760E087E00E94A40788E99AE32CE79A
:1012500030E0F9013197F1F70197D9F78DEC92E081
:101260000E94F906C5E7D0E303C0CE010197F1F76C
:101270000E9430088823C9F3C5E7D0E303C0CE013C
:101280000197F1F70E9430088111F9CF0E94E00820
:10129000DF91CF910895EF92FF920F931F93CF9319
:1012A000DF93082FF62EC1E0D0E0EE24EA94E60E9C
:1012B00011E001C0C12F0E9430088823D9F3CC234C
:1012C000D1F3833019F128F48130C9F18230D1F1A2
:1012D000F2CF843019F08530A9F1EDCF60E08D2F89
:1012E000800F0E94A40781E38D0F0E94E706DF5F55
:1012F000DF1101C0D0E060E08D2F800F0E94A407B5
:1013000081E38D0F0E947B07C0E0D5CF60E08D2F79
:10131000800F0E94A40781E38D0F0E94E706D11180
:1013200002C0DE2D01C0D15060E08D2F800F0E94E1
:10133000A40781E38D0F0E947B07C0E0BCCF0E9411
:10134000E008B9CF8D2FDF91CF911F910F91FF90C2
:10135000EF9008950E94BD0760E080E00E94A4071E
:101360008CED92E00E94F90660E082E00E94A40702
:1013700089EE92E00E94F90668E682E00E94A407E6
:1013800080910A01805D0E94E7060E943008833048
:10139000B9F018F4813029F0EFCF843039F085307E
:1013A00059F70E94E00880910A01089580910A018E
:1013B000823010F380910A01815080930A01DCCFC2
:1013C00080910A018930C0F680910A018F5F809375
:1013D0000A01D2CF0E94BD0760E080E00E94A4070E
:1013E0008CE692E00E94F90660E082E00E94A40789
:1013F00087EF92E00E94F90660E083E00E94A40774
:1014000083E093E00E94F9060E9430088130E1F702
:101410000E94E008F9CF87B3806B87BBBE9881E557
:101420008DB9C49A08950E940B0A08958FB9779BCD
:10143000FECF089580E487BB8DB908958FEF8FB9F3
:10144000779BFECF8FB10895CF93C82FC49883E0C8
:101450000E94160A8C2F0E94160A0E941E0AC49A25
:10146000CF910895CF93DF93D82FC62FC49882E0F1
:101470000E94160A8D2F0E94160A8C2F0E94160AAF
:10148000C49ADF91CF910895C4980E94160AC49A15
:1014900008951F93CF93DF93182FD62FC42FC4988E
:1014A00085E00E94160A812F0E94160A8D2F0E9445
:1014B000160A8C2F0E94160ADF91CF911F91089572
:1014C000C49880EC0E94160AC49A0895CF93DF93C3
:1014D000EC010E940B0A0E94600A6C2F8FE00E94B0
:1014E000320A84EA8A95F1F78EE00E94240A807E0F
:1014F000282F30E02C173D0751F082E393E09F93B3
:101500008F930E9453100F900F9081E009C082E6E4
:1015100093E09F938F930E9453100F900F9080E061
:10152000DF91CF910895C49880EA0E94160A0E9424
:101530001E0AC49A08950E94660A089580E30E94D4
:10154000240A80E30E94240A80E0089580E00E943B
:10155000240A91E0811190E0892F08950F931F9341
:10156000CF938C010E94A60A882379F1F80160814B
:10157000718176956795769567957695679581E300
:101580000E94320AF80160816295660F607E82E3F4
:101590000E94320AF80162816F7085E30E94320A6C
:1015A000F8018281882371F0C0E0F801EC0FF11D91
:1015B000638186E38C0F0E94320ACF5FF80182813B
:1015C000C81798F381E80E94440ACF911F910F91A8
:1015D0000895CF93DF93CDB7DEB72B970FB6F8946E
:1015E000DEBF0FBECDBF84E690E09A83898381E0A1
:1015F0008B830E9457068C83CE0101960E94AE0A0F
:101600002B960FB6F894DEBF0FBECDBFDF91CF9102
:101610000895CF93DF93CDB7DEB72B970FB6F8942D
:10162000DEBF0FBECDBF85E690E09A83898381E05F
:101630008B830E94DB058C83CE0101960E94AE0A4B
:101640002B960FB6F894DEBF0FBECDBFDF91CF91C2
:101650000895CF93DF93CDB7DEB72B970FB6F894ED
:10166000DEBF0FBECDBF86E690E09A83898381E01E
:101670008B830E94E5058C83CE0101960E94AE0A01
:101680002B960FB6F894DEBF0FBECDBFDF91CF9182
:101690000895CF93DF93CDB7DEB72B970FB6F894AD
:1016A000DEBF0FBECDBF27E630E03A83298391E04D
:1016B0009B83682F86E00E94B10680588C83CE0100
:1016C00001960E94AE0A2B960FB6F894DEBF0FBEAD
:1016D000CDBFDF91CF910895CF93DF93CDB7DEB724
:1016E0002B970FB6F894DEBF0FBECDBF28E630E0D3
:1016F0003A83298391E09B83682F87E00E94B1069B
:1017000080588C83CE0101960E94AE0A2B960FB6AC
:10171000F894DEBF0FBECDBFDF91CF910895CF9378
:10172000DF93CDB7DEB72B970FB6F894DEBF0FBEB1
:10173000CDBF89E690E09A83898381E08B830E9404
:10174000EE048C83CE0101960E94AE0A2B960FB652
:10175000F894DEBF0FBECDBFDF91CF910895CF9338
:10176000DF93CDB7DEB72B970FB6F894DEBF0FBE71
:10177000CDBF8AE090E09A83898381E08B831C82CD
:10178000CE0101960E94AE0A2B960FB6F894DEBFEA
:101790000FBECDBFDF91CF9108950F931F93CF93CD
:1017A000DF93EC010B8110E089818F9388818F9307
:1017B00080E793E09F938F930E94531088819981D3
:1017C000845691090F900F900F900F9087309105DC
:1017D00010F5880F991FFC01E75EFE4F81818F9302
:1017E00080818F9388E893E09F938F930E9453109A
:1017F000E881F981EE0FFF1FED5BFF4F8081918142
:101800009695982F882797958795081B190B0F9009
:101810000F900F900F90888199818A36910511F46D
:10182000000F111F1F930F938A811F928F938BE8D4
:1018300093E09F938F930E9453100F900F900F90FF
:101840000F900F900F90DF91CF911F910F910895FE
:101850000F931F93CF93DF938C0161E08BE20E9483
:10186000320A8CE20E94240AD82F80FF3AC081E617
:101870000E94240AC82F82E60E94240A282F30E002
:101880003595279535952795359527953595279540
:1018900035952795C90148E0C49F800D911D1124FD
:1018A000F8019183808385E60E94240A8F70F801F5
:1018B0008283882371F0C0E086E68C0F0E94240AA0
:1018C000F801EC0FF11D8383CF5FF8019281C917F6
:1018D00098F3C8010E94CD0B6FEF6D0F8CE20E9450
:1018E000320ADF91CF911F910F910895CF93DF932B
:1018F000CDB7DEB72B970FB6F894DEBF0FBECDBFC6
:101900000E94A9042AE630E03A83298321E02B8350
:101910009C01992314F42F5F3F4F3595279520584C
:101920002C83CE0101960E94AE0ACE0101960E9440
:10193000CD0B2B960FB6F894DEBF0FBECDBFDF9157
:10194000CF91089597FB072E16F4009407D077FDEA
:1019500009D00E94B60C07FC05D03EF49095819505
:101960009F4F0895709561957F4F0895AA1BBB1BEB
:1019700051E107C0AA1FBB1FA617B70710F0A61B8F
:10198000B70B881F991F5A95A9F780959095BC01B0
:10199000CD0108950E947A0E60F080E891E009F48C
:1019A0009EEF0E94810E28F040E851E071F45EEF56
:1019B0000CC00C94500E0C94BB0EE92FE0780E94E2
:1019C000990E40F3092E052AB1F326173707480769
:1019D000590738F00E2E07F8E02569F0E025E0649D
:1019E0000AC0EF6307F8009407FADB01B9019D0113
:1019F000DC01CA01AD01EF930E94580D0E94880ED0
:101A00000E940D0D5F91552339F02BED3FE049E425
:101A100050FD49EC0C94870F0895DF93DD27B92F13
:101A2000BF7740E85FE31616170648075B0718F410
:101A3000D92F0E94C70E9F938F937F936F930E941D
:101A4000820FE0E7F0E00E94530E0E94880E2F9173
:101A50003F914F915F910E94E20EDD2351F090582B
:101A6000A2EA2AED3FE049EC5FE3D0785D270E94CF
:101A70009E0FDF910C94880E0E94260E08F481E0E0
:101A800008950E94550D0C94880E0E94810E58F006
:101A90000E947A0E40F029F45F3F29F00C944A0E20
:101AA00051110C94BC0E0C94500E0E94990E68F3C8
:101AB0009923B1F3552391F3951B550BBB27AA2707
:101AC00062177307840738F09F5F5F4F220F331F41
:101AD000441FAA1FA9F335D00E2E3AF0E0E832D009
:101AE00091505040E695001CCAF72BD0FE2F29D00C
:101AF000660F771F881FBB1F261737074807AB07DE
:101B0000B0E809F0BB0B802DBF01FF2793585F4F52
:101B10003AF09E3F510578F00C944A0E0C94BC0E9E
:101B20005F3FE4F3983ED4F3869577956795B79534
:101B3000F7959F5FC9F7880F911D9695879597F93F
:101B40000895E1E0660F771F881FBB1F62177307B8
:101B50008407BA0720F0621B730B840BBA0BEE1FCD
:101B600088F7E09508950E94BA0D6894B1110C941D
:101B7000BC0E08950E94A10E88F09F5798F0B92FCF
:101B80009927B751B0F0E1F0660F771F881F991FB2
:101B90001AF0BA95C9F714C0B13091F00E94BB0E8B
:101BA000B1E008950C94BB0E672F782F8827B85F9B
:101BB00039F0B93FCCF3869577956795B395D9F70A
:101BC0003EF490958095709561957F4F8F4F9F4F14
:101BD0000895E89409C097FB3EF490958095709520
:101BE00061957F4F8F4F9F4F9923A9F0F92F96E969
:101BF000BB279395F695879577956795B795F111DE
:101C0000F8CFFAF4BB0F11F460FF1BC06F5F7F4F7A
:101C10008F4F9F4F16C0882311F096E911C077238C
:101C200021F09EE8872F762F05C0662371F096E895
:101C3000862F70E060E02AF09A95660F771F881F64
:101C4000DAF7880F9695879597F90895990F000808
:101C5000550FAA0BE0E8FEEF16161706E807F9077E
:101C6000C0F012161306E407F50798F0621B730B19
:101C7000840B950B39F40A2661F0232B242B252B9A
:101C800021F408950A2609F4A140A6958FEF811D3D
:101C9000811D089597F99F6780E870E060E00895DE
:101CA0009FEF80EC0895DF93CF931F930F93FF92E4
:101CB000EF92DF927B018C01689406C0DA2EEF016F
:101CC0000E94E20EFE01E894A5912591359145917F
:101CD0005591A6F3EF010E949E0FFE019701A80106
:101CE000DA9469F7DF90EF90FF900F911F91CF91F9
:101CF000DF91089500240A9416161706180609069F
:101D0000089500240A941216130614060506089571
:101D1000092E0394000C11F4882352F0BB0F40F4F9
:101D2000BF2B11F460FF04C06F5F7F4F8F4F9F4F39
:101D3000089557FD9058440F551F59F05F3F71F0BB
:101D40004795880F97FB991F61F09F3F79F0879522
:101D50000895121613061406551FF2CF4695F1DFAB
:101D600008C0161617061806991FF1CF869571053B
:101D7000610508940895E894BB2766277727CB016F
:101D800097F908950E94260E08F48FEF08959B019D
:101D9000AC0160E070E080E89FE30C94410D0E948C
:101DA000E20E0C94880E0E947A0E38F00E94810E8A
:101DB00020F0952311F00C944A0E0C94500E11242F
:101DC0000C94BC0E0E94990E70F3959FC1F3950F71
:101DD00050E0551F629FF001729FBB27F00DB11DAF
:101DE000639FAA27F00DB11DAA1F649F6627B00D3F
:101DF000A11D661F829F2227B00DA11D621F739F28
:101E0000B00DA11D621F839FA00D611D221F749F35
:101E10003327A00D611D231F849F600D211D822F7C
:101E2000762F6A2F11249F5750409AF0F1F08823A3
:101E30004AF0EE0FFF1FBB1F661F771F881F9150D0
:101E40005040A9F79E3F510580F00C944A0E0C9427
:101E5000BC0E5F3FE4F3983ED4F386957795679583
:101E6000B795F795E7959F5FC1F7FE2B880F911DFA
:101E70009695879597F9089519F416F40C94500ED9
:101E80000C94F30F0E94A10EB8F39923C9F3B6F393
:101E90009F57550B87FF0E9401100024A0E640EADF
:101EA000900180585695979528F4805C660F771FAF
:101EB000881F20F026173707480730F4621B730B82
:101EC000840B202931294A2BA695179407942025A5
:101ED00031254A2758F7660F771F881F20F02617ED
:101EE0003707480730F4620B730B840B200D311D4C
:101EF000411DA09581F7B901842F9158880F9695BF
:101F0000879508959B01AC010C94CF0E5058BB27C8
:101F1000AA270E949E0F0C94880E0E947A0E38F019
:101F20000E94810E20F039F49F3F19F426F40C949E
:101F3000500E0EF4E095E7FB0C944A0EE92F0E9438
:101F4000990E58F3BA17620773078407950720F0B4
:101F500079F4A6F50C94BB0E0EF4E0950B2EBA2F77
:101F6000A02D0B01B90190010C01CA01A00111249F
:101F7000FF27591B99F0593F50F4503E68F11A164B
:101F8000F040A22F232F342F4427585FF3CF4695DC
:101F900037952795A795F0405395C9F77EF41F16FE
:101FA000BA0B620B730B840BBAF09150A1F0FF0FC8
:101FB000BB1F661F771F881FC2F70EC0BA0F621FB4
:101FC000731F841F48F4879577956795B795F795A4
:101FD0009E3F08F0B0CF9395880F08F09927EE0F39
:101FE0009795879508959F3F31F0915020F48795FC
:101FF00077956795B795880F911D9695879597F971
:10200000089591505040660F771F881FD2F70895AA
:102010000F931F93CF93DF93009731F461157105F0
:1020200019F480E090E03AC08B01EC016EE070E0C2
:1020300081E090E00E943B12FC01892B91F380E843
:1020400083830115110571F01387028781E883836B
:102050008091030490910404892B21F4F0930404EB
:10206000E09303042097C9F0D187C0878381826001
:1020700083838091050490910604892B71F4F09379
:102080000604E09305048091070490910804892BCD
:1020900021F4F0930804E0930704CF01DF91CF917E
:1020A0001F910F910895A0E0B0E0E9E5F0E10C94F4
:1020B0004714AE014B5F5F4FFA0161917191AF011F
:1020C00080910504909106040E946910E2E00C944E
:1020D0006314ACE0B0E0EFE6F0E10C9437147C015F
:1020E0006B018A01FC0117821682838181FFBDC1C9
:1020F000CE0101964C01F7019381F60193FD859184
:1021000093FF81916F01882309F4ABC1853239F4C3
:1021100093FD859193FF81916F01853229F4B70179
:1021200090E00E94A113E7CF512C312C20E0203207
:10213000A0F48B3269F030F4803259F0833269F4C4
:1021400020612CC08D3239F0803339F4216026C0F3
:102150002260246023C0286021C027FD27C030ED05
:10216000380F3A3078F426FF06C0FAE05F9E300D53
:102170001124532E13C08AE0389E300D1124332EC3
:1021800020620CC08E3221F426FD6BC1206406C093
:102190008C3611F4206802C0883641F4F60193FDB4
:1021A000859193FF81916F018111C1CF982F9F7D00
:1021B0009554933028F40C5F1F4FFFE3F9830DC053
:1021C000833631F0833771F0833509F05BC022C06C
:1021D000F801808189830E5F1F4F44244394512C62
:1021E000540115C03801F2E06F0E711CF801A08097
:1021F000B18026FF03C0652D70E002C06FEF7FEF56
:10220000C5012C870E9496132C0183012C852F7702
:10221000222E17C03801F2E06F0E711CF801A08069
:10222000B18026FF03C0652D70E002C06FEF7FEF25
:10223000C5012C870E9484132C012C852068222E36
:10224000830123FC1BC0832D90E048165906B0F48F
:10225000B70180E290E00E94A1133A94F4CFF50117
:1022600027FC859127FE81915F01B70190E00E94D4
:10227000A11331103A94F1E04F1A5108411451045E
:1022800071F7E5C0843611F0893639F5F80127FF7A
:1022900007C060817181828193810C5F1F4F08C0EC
:1022A00060817181072E000C880B990B0E5F1F4F08
:1022B0002F76722E97FF09C0909580957095619545
:1022C0007F4F8F4F9F4F2068722E2AE030E0A4018D
:1022D0000E94D913A82EA81844C0853729F42F7E50
:1022E000B22E2AE030E025C0F22FF97FBF2E8F36C4
:1022F000C1F018F4883579F0B4C0803719F0883708
:1023000021F0AFC02F2F2061B22EB4FE0DC08B2D57
:102310008460B82E09C024FF0AC09F2F9660B92E92
:1023200006C028E030E005C020E130E002C020E136
:1023300032E0F801B7FE07C060817181828193812C
:102340000C5F1F4F06C06081718180E090E00E5FDE
:102350001F4FA4010E94D913A82EA818FB2DFF77A8
:102360007F2E76FE0BC0372D3E7FA51450F474FEF1
:102370000AC072FC08C0372D3E7E05C0BA2C372D2E
:1023800003C0BA2C01C0B52C34FF0DC0FE01EA0D0C
:10239000F11D8081803311F4397E09C032FF06C0FF
:1023A000B394B39404C0832F867809F0B39433FDBB
:1023B00013C030FF06C05A2CB31418F4530C5B182A
:1023C000B32CB31468F4B70180E290E03C870E941C
:1023D000A113B3943C85F5CFB31410F43B1801C09E
:1023E000312C34FF12C0B70180E390E03C870E949B
:1023F000A1133C8532FF17C031FD03C088E790E090
:1024000002C088E590E0B7010CC0832F867859F0B0
:1024100031FF02C08BE201C080E237FD8DE2B701DF
:1024200090E00E94A113A51438F4B70180E390E076
:102430000E94A1135A94F7CFAA94F401EA0DF11D5A
:102440008081B70190E00E94A113A110F5CF332045
:1024500009F451CEB70180E290E00E94A1133A94B2
:10246000F6CFF7018681978102C08FEF9FEF2C9600
:10247000E2E10C9453140F931F93CF93DF93869F45
:102480008001879F100D969F100D1124C8010E9496
:102490005712EC01009729F0A80160E070E00E945B
:1024A0008F13CE01DF91CF911F910F910895CF939C
:1024B000DF938230910510F482E090E0E0910B040C
:1024C000F0910C0420E030E0C0E0D0E0309711F152
:1024D0004081518148175907C0F04817590761F4E6
:1024E00082819381209719F09B838A832BC09093DC
:1024F0000C0480930B0426C02115310519F04217F6
:10250000530718F49A01BE01DF01EF010280F38145
:10251000E02DDCCF2115310509F1281B390B2430C2
:10252000310590F412968D919C9113976115710568
:1025300021F0FB019383828304C090930C04809369
:102540000B04FD01329644C0FD01E20FF31F81939D
:102550009193225031092D933C933AC02091090464
:1025600030910A04232B41F42091290130912A0152
:1025700030930A0420930904209127013091280107
:102580002115310541F42DB73EB740912B015091F3
:102590002C01241B350BE0910904F0910A04E21789
:1025A000F307A0F42E1B3F0B2817390778F0AC0176
:1025B0004E5F5F4F2417350748F04E0F5F1F509353
:1025C0000A04409309048193919302C0E0E0F0E093
:1025D000CF01DF91CF9108950F931F93CF93DF9396
:1025E000009709F48CC0FC0132971382128200918B
:1025F0000B0410910C040115110581F42081318127
:10260000820F931F2091090430910A04281739077B
:1026100079F5F0930A04E093090471C0D80140E011
:1026200050E0AE17BF0750F412962D913C911397CE
:10263000AD012115310509F1D901F3CF9D01DA0171
:102640003383228360817181860F971F82179307DE
:1026500069F4EC0128813981260F371F2E5F3F4F27
:10266000318320838A819B8193838283452B29F444
:10267000F0930C04E0930B0442C01396FC93EE938A
:102680001297ED01499159919E01240F351FE217D0
:10269000F30771F480819181840F951F0296119642
:1026A0009C938E938281938113969C938E93129721
:1026B000E0E0F0E0D80112968D919C91139700977D
:1026C00019F0F8018C01F6CF8D919C9198012E5F45
:1026D0003F4F820F931F2091090430910A0428175D
:1026E000390769F4309729F410920C0410920B0406
:1026F00002C01382128210930A0400930904DF912E
:10270000CF911F910F910895FC0105906150704089
:102710000110D8F7809590958E0F9F1F0895DC01CA
:1027200001C06D9341505040E0F70895FC016150A5
:10273000704001900110D8F7809590958E0F9F1FE3
:1027400008950F931F93CF93DF93FB01238121FD06
:1027500003C08FEF9FEF28C022FF16C0468157812C
:10276000248135814217530744F4A081B1819D0132
:102770002F5F3F4F318320838C93268137812F5FDA
:102780003F4F3783268310C0EB01092F182F008499
:10279000F185E02D0995892BE1F68E819F810196C7
:1027A0009F838E83812F902FDF91CF911F910F9167
:1027B0000895FA01AA27283051F1203181F1E894D7
:1027C0006F936E7F6E5F7F4F8F4F9F4FAF4FB1E024
:1027D0003ED0B4E03CD0670F781F891F9A1FA11D1F
:1027E000680F791F8A1F911DA11D6A0F711D811D20
:1027F000911DA11D20D009F468943F912AE0269FE5
:1028000011243019305D3193DEF6CF010895462F43
:102810004770405D4193B3E00FD0C9F7F6CF462F24
:102820004F70405D4A3318F0495D31FD405241938D
:1028300002D0A9F7EACFB4E0A6959795879577954A
:102840006795BA95C9F700976105710508959B01D1
:10285000AC010A2E06945795479537952795BA955A
:10286000C9F7620F731F841F951FA01D08952F9233
:102870003F924F925F926F927F928F929F92AF9210
:10288000BF92CF92DF92EF92FF920F931F93CF935D
:10289000DF93CDB7DEB7CA1BDB0B0FB6F894DEBFF4
:1028A0000FBECDBF09942A88398848885F846E841A
:1028B0007D848C849B84AA84B984C884DF80EE8064
:1028C000FD800C811B81AA81B981CE0FD11D0FB66D
:1028D000F894DEBF0FBECDBFED010895F894FFCF91
:1028E000130319031F0325032B030100000000003D
:1028F000000100010000000100A203A603B203BF13
:1029000003CA03D503E80300000D04200009627523
:1029100066666572202564656E642067616D65205A
:102920002564006865690A0D00785F4A6F797469EB
:10293000636B2073656E74090062746E7320736537
:102940006E740900726967687420736C69646572DB
:102950002073656E740A0D0076616C756520736571
:102960006E74203A20256409000A0D782025752C04
:1029700020792025750059203A2025753B205820C4
:102980003A202564092000583A2025642025252C6A
:1029900020593A202564202525202C20616E676C63
:1029A000653A2025642009004D41473A20256409F5
:1029B00000444952454354494F4E3A2025640A0D7C
:1029C00000736C69646572204C203A2025642009EC
:1029D00000736C696465722052203A2025642009D6
:1029E000006F666673657473203A20782C79203AFC
:1029F000202564203B2025640A0A006572726F72EC
:102A00002C20756E6B6E6F776E20646972656374CF
:102A1000696F6E002050494E472D504F4E47204D54
:102A2000656E752000312053657474696E6773009C
:102A3000322043686F6F73652063686172616374ED
:102A40006572003320506C61790034204C656164FC
:102A5000657220426F61726400352051756974009F
:102A60002050494E472D504F4E472067616D6520DD
:102A7000004C6F6164696E6700476F6F6420636824
:102A80006F6963653A00596F7520686176652063E8
:102A9000686F73656E0057656C636F6D6500546F8A
:102AA0000050494E47202D20504F4E4700546F751F
:102AB0006368204A6F79737469636B00536574743B
:102AC000696E672070616765006469666669637531
:102AD0006C7479203F20003120415A4552545920CE
:102AE0003C33003220537475642E20617373697314
:102AF000742E004D6172696F005065616368004C0F
:102B00007569677900696E616B6900636C616972F0
:102B100065004D435032353135206973204E4F5496
:102B200020696E207468652063686F73656E206D20
:102B30006F64652061667465722072657365740ADE
:102B40000D00476F6F6420636F6E6669670A0D0042
:102B50004D65737361676520726563656976656449
:102B60003A206964202564002573004C656E677403
:102B7000683A20256409206D73673A2025640A0DA0
:102B8000200042544E006C6566745F736C69646526
:102B9000720072696768745F736C69646572006A59
:102BA0006F79737469636B5F58006A6F79737469C6
:102BB000636B5F59006A6F79737469636B5F6D61F2
:102BC000676E6974756465006A6F79737469636BA5
:082BD0005F616E676C65000097
:00000001FF
