:100000000C9477030C9494030C9494030C94940331
:100010000C9494030C9494030C9494030C94940304
:100020000C9494030C9494030C9494030C949403F4
:100030000C9494030C9494030C9494030C949403E4
:100040000C9494030C9494030C9494030C949403D4
:100050000C9494030C9494030C9494030C949403C4
:100060000C9494030C9494030C9494030C949403B4
:10007000084AD73B3BCE016E84BCBFFDC12F3D6C0F
:1000800074319ABD56833DDA3D00C77F11BED9E475
:10009000BB4C3E916BAAAABE000000803F0000004E
:1000A0000000005C00000C000C007C287C2858DC60
:1000B00068002410480028542840000C00000078F4
:1000C00084008478000054385400107C1000804074
:1000D0000000101010000040000060100C003854A8
:1000E0003800487C40004864580044542C001C10E0
:1000F0007C005C5424003854240064140C006854C0
:100100002C004854380000480000804800001028A7
:1001100044002828280044281000045408003844CB
:100120005C00781478007C542800384428007C4413
:1001300038007C5444007C140400384474007C1063
:100140007C00447C440020403C007C106C007C40DF
:1001500040007C187C0078103C00384438007C1447
:1001600008003844B8007C14680048542400047C1B
:1001700004007C407C003C603C007C307C006C10C7
:100180006C000C700C0064544C00007C44000C109B
:100190006000447C000008040800808080000004A7
:1001A0000800304878007C4830003048480030482B
:1001B0007C00306850001078140090A878007C080B
:1001C000700050744000808074007C106800447C93
:1001D0004000781078007808700030483000F82827
:1001E00010003048F8007810080050582800083CEB
:1001F000480038407800384038007820780048308F
:10020000480098A078004868580010788400007C66
:1002100000008478100008040804000000000000BA
:10022000005F00000007000700147F147F14242AD9
:100230007F2A1223130864623649552250000503B1
:100240000000001C2241000041221C00082A1C2A38
:100250000808083E08080050300000080808080890
:10026000006060000020100804023E5149453E0035
:10027000427F400042615149462141454B311814AB
:10028000127F1027454545393C4A494930017109DB
:1002900005033649494936064949291E00363600C4
:1002A00000005636000000081422411414141414DF
:1002B00041221408000201510906324979413E7E6B
:1002C0001111117E7F494949363E414141227F410A
:1002D00041221C7F494949417F090901013E4141B1
:1002E00051327F0808087F00417F41002040413F94
:1002F000017F081422417F404040407F0204027F7A
:100300007F0408107F3E4141413E7F090909063EB6
:100310004151215E7F091929464649494931010168
:100320007F01013F4040403F1F2040201F7F201899
:10033000207F631408146303047804036151494562
:100340004300007F4141020408102041417F00002A
:100350000402010204404040404000010204002029
:10036000545454787F4844443838444444203844F2
:1003700044487F3854545418087E09010208145424
:10038000543C7F0804047800447D40002040443DF4
:1003900000007F10284400417F40007C041804784E
:1003A0007C0804047838444444387C141414080845
:1003B0001414187C7C080404084854545420043F46
:1003C0004440203C4040207C1C2040201C3C4030CD
:1003D000403C44281028440C5050503C4464544C39
:1003E00044000836410000007F000000413608004C
:1003F0000201030201000000000000000000065F8F
:100400005F060000000007070007070000147F7F59
:10041000147F7F1400242E6B6B3A12000046663066
:10042000180C666200307A4F5D377A480004070383
:100430000000000000001C3E63410000000041631A
:100440003E1C000000082A3E1C1C3E2A0808083EEC
:100450003E0808000000A0E0600000000008080856
:10046000080808000000006060000000006030180C
:100470000C060301003E7F594D7F3E000042427F43
:100480007F40400000627359496F66000022634953
:10049000497F360000181C16137F7F100027674520
:1004A000457D3900003C7E4B497930000003637183
:1004B000190F070000367F49497F360000064F4973
:1004C000693F1E000000006C6C0000000000A0EC02
:1004D0006C00000000081C36634100000014141476
:1004E0001414140000004163361C0800000203517C
:1004F000590F0600003E7F415D5D1F1E007C7E138C
:10050000137E7C0000417F7F49497F36001C3E639B
:100510004141632200417F7F41637F1C00417F7F17
:10052000495D416300417F7F491D0103001C3E631B
:1005300041517372007F7F08087F7F000000417F78
:100540007F41000000307040417F3F0100417F7FCC
:10055000081C776300417F7F41406070007F7F0609
:100560000C067F7F007F7F060C187F7F001C3E6398
:1005700041633E1C00417F7F49090F06001E3F2159
:10058000717F5E0000417F7F19396F460026674DFD
:10059000597B32000003417F7F410300007F7F4091
:1005A000407F7F00001F3F60603F1F00007F7F3063
:1005B00018307F7F0063771C081C776300074F7833
:1005C000784F0700006773594D47637100007F7FC4
:1005D00041410000000103060C1830600000414159
:1005E0007F7F000000080C0603060C080080808056
:1005F0008080808080000003070400000020745485
:10060000543C784000413F7F44447C3800387C446F
:10061000446C280000307848493F7F4000387C54C3
:10062000545C180000487E7F490302000098BCA477
:10063000A4F87C0400417F7F08047C780000447D9E
:100640007D4000000040C484FD7D000000417F7FAC
:1006500010386C440000417F7F400000007C7C0C1F
:10066000180C7C78007C7C04047C780000387C4486
:10067000447C38000084FCF8A4243C1800183C2476
:10068000A4F8FC8400447C78441C180000485C54A6
:10069000547424000000043E7F442400003C7C404D
:1006A000403C7C40001C3C60603C1C00003C7C608A
:1006B00030607C3C00446C3810386C44009CBCA01A
:1006C000A0FC7C00004C64745C4C64000008083E94
:1006D000774141000000000077770000004141773A
:1006E0003E08080000020301030203010000112478
:1006F0001FBECFEFD4E0DEBFCDBF14E0A0E0B1E07D
:10070000E2E7F7E202C005900D92A430B107D9F7F5
:1007100024E0A4E0B4E001C01D92A431B207E1F7E7
:100720000E9496030C94B7130C9400008FEF87BBC4
:100730008FE190E00E94E1036CEE73E088EE93E0BD
:100740000E94510F8DE291E09F938F930E949C0F26
:1007500085B7806885BF80B7806280BF88B38C6FA3
:1007600088BB0E94CB0580E090E00E94EA090F90D0
:100770000F900F2EF3E3EF2EF1E0FF2EF02D03E4A8
:1007800011E0C3E5D1E089E89EE00197F1F70000B0
:100790000E94B20AFF92EF920E949C0F0E94D40A1C
:1007A0001F930F930E949C0F0E94920ADF93CF9396
:1007B0000E949C0F0F900F900F900F900F900F9032
:1007C000E2CF90BD89B988E18AB98EE880BD0895ED
:1007D0005D9BFECF8CB908955F9903C08CB190E00A
:1007E00008958CB190E00895E0E0F4E1808386EA1A
:1007F0008A95F1F700C08081089585360CF084E673
:100800008C390CF48CE90895E0E0F4E186E0808313
:1008100086EA8A95F1F700C080910604909107045A
:10082000608170E0681B790B072E000C880B990B18
:100830000E94340D23E333E343EA5FE30E948A0C12
:100840000E94FC0C862F0E94FD030895E0E0F4E175
:1008500087E0808386EA8A95F1F700C080910804DA
:1008600090910904608170E0681B790B072E000CE1
:10087000880B990B0E94340D23E333E343EA5FE3D3
:100880000E948A0C0E94FC0C862F0E94FD03089592
:10089000CF92DF92EF92FF92CF93DF930E940404F6
:1008A000D82F0E942604C82FDD2321F16D2FDD0FE4
:1008B000770B880B990B0E94340D6B017C016C2F18
:1008C000CC0F770B880B990B0E94340DA701960172
:1008D0000E94260C20E030E044E353E40E94180E0E
:1008E00028ED3FE049E450E40E948A0C0E94FC0C91
:1008F000CB010CC088232CF0181634F48AE590E064
:1009000005C086EA9FEF02C080E090E0DF91CF91C2
:10091000FF90EF90DF90CF900895CF92DF92EF920B
:10092000FF92CF930E940404C82F0E9426048802DD
:10093000C00111246C01CC02C00CD11C11240D2C5F
:10094000000CEE08FF08C701B6010E94340D0E949A
:100950008B0E0E94FC0C862FCF91FF90EF90DF90C2
:10096000CF900895CF93DF930E9404040E94260441
:100970000E948D04C82F0E944804CC23A9F09C013A
:100980002D5231092A35310588F02C543F4F2E3035
:1009900041E0340768F42A35310560F08D968A35D8
:1009A000910548F4D2E007C0D0E005C0D3E003C011
:1009B000D1E001C0D4E08D2FDF91CF910895CF9386
:1009C000DF93E0E0F4E187E0808386EA8A95F1F73F
:1009D00000C0808196E0908396EA9A95F1F700C076
:1009E0001F928F9380811F928F9387E691E09F9350
:1009F0008F930E949C0F0E940404C82F0E9426041B
:100A0000D82F0E9448049F938F938D2F0D2E000C9A
:100A1000990B9F93DF938C2F0C2E000C990B9F93B7
:100A2000CF9388E791E09F938F930E949C0F0E9441
:100A30008D041F928F9389E991E09F938F930E9479
:100A40009C0F0E94B2041F928F9382EA91E09F93C1
:100A50008F930E949C0F87EA91E60197F1F700C0FF
:100A600000008DB79EB746960FB6F8949EBF0FBE96
:100A70008DBFDF91CF910895CF93DF93C0E0D4E194
:100A800085E0888386EA8A95F1F700C088811F9205
:100A90008F9382EB91E09F938F930E949C0F84E051
:100AA000888396EA9A95F1F700C088811F928F9308
:100AB00082EC91E09F938F930E949C0F8DB79EB71D
:100AC00008960FB6F8949EBF0FBE8DBFDF91CF91F1
:100AD0000895E0E0F4E185E0808386EA8A95F1F705
:100AE00000C080810895E0E0F4E184E0808386EA3C
:100AF0008A95F1F700C08081089596B386B326B336
:100B000022FB222720F91F922F9391701F929F930F
:100B1000869581701F928F9382ED91E09F938F93C2
:100B20000E949C0F8DB79EB708960FB6F8949EBF93
:100B30000FBE8DBF089524E130E080E090E0E0E05A
:100B4000F4E156E0508346EA4A95F1F700C040814F
:100B5000840F911D21503109A9F764E170E00E94D2
:100B6000EB0BCB01089524E130E080E090E0E0E081
:100B7000F4E157E0508346EA4A95F1F700C040811E
:100B8000840F911D21503109A9F764E170E00E94A2
:100B9000EB0BCB0108950E949B0590930704809373
:100BA00006040E94B30590930904809308042091E1
:100BB00008043091090480910604909107043F9342
:100BC0002F939F938F938DE092E09F938F930E943A
:100BD0009C0F0F900F900F900F900F900F90089513
:100BE000813039F018F0823041F00CC086B381704A
:100BF000089586B386958170089586B382FB882711
:100C000080F908950895863081F4E0E0F4E180836E
:100C100086EA8A95F1F700C0809106049091070456
:100C2000608170E0681B790B1CC0873081F4E0E0C4
:100C3000F4E1808386EA8A95F1F700C08091080488
:100C400090910904608170E0681B790B0AC087E20B
:100C500092E09F938F930E949C0F0F900F9060E003
:100C600070E0072E000C880B990B0E94340D23E3D3
:100C700033E343EA5FE30E948A0C0E94FC0C862F58
:100C80000E94FD0308958093001008958093001240
:100C9000089528E08202C00111248B509D4F20E06E
:100CA000A0E0B2E1FC01459154914C932F5F019675
:100CB0002830C1F70895CF93DF93EC018881882312
:100CC00031F021960E94490689918111FBCFDF9175
:100CD000CF9108952F923F924F925F926F927F92A1
:100CE0008F929F92AF92BF92CF92DF92EF92FF923C
:100CF0000F931F93CF93DF93EC01462E512C612C61
:100D0000712C33243394212C0CE710E040C00E9456
:100D10004906C301B2010E94320D4B015C0120E083
:100D200030E14BE954E40E94180E6B017C0120E095
:100D300030E040E85FE30E94850C88231CF120E04E
:100D40003FEF4FE757E4C701B6010E940B0E18169C
:100D5000A4F420E030E040E251E4C501B4010E9477
:100D6000180E0E94030D6115710589F0C8010197E5
:100D7000F1F761507109D1F70AC0C701B6010E94AD
:100D8000030D02C0632D722DCB010197F1F78991FC
:100D90008111BDCFDF91CF911F910F91FF90EF9007
:100DA000DF90CF90BF90AF909F908F907F906F908B
:100DB0005F904F903F902F90089528E08202C001ED
:100DC00011248B509D4F40E0A0E0B2E1FC01259141
:100DD000349120952C934F5F01964830B9F70895D0
:100DE000E0E0F0E190E2908380830895E0E0F0E1BC
:100DF00092E29083808387E080830895E0E0F0E1D1
:100E000091E2908380838FE780830895CF93C62FEC
:100E10000E94F6068C2F0E94FE06CF91089560E096
:100E200080E00E94060708950E940F0780E094E08A
:100E3000E0E0F2E12FEF20830197E9F708950E94A7
:100E40000F0780E094E0E0E0F2E110820197E9F71B
:100E50000895E0E0F0E18EEA808381EA80838AED04
:100E6000808382E1808388EC808388EA80838FE3BB
:100E7000808385ED808380E8808381E8808380E5BE
:100E8000808389ED808381E2808380E28083108289
:100E90008BED808380E380838DEA8083108284EAF7
:100EA000808386EA80838FEA80830E941F070895EB
:100EB0000E941F0760E080E00E94060780E492E045
:100EC0000E945B0660E082E00E94060781E592E0F6
:100ED0000E945B0660E083E00E9406078CE592E0DA
:100EE0000E945B0660E084E00E9406078FE692E0C5
:100EF0000E945B0660E085E00E94060786E792E0BC
:100F00000E945B0660E086E00E94060785E892E0AA
:100F10000E945B0660E082E00E94060781E30E9477
:100F2000DD06089582E00E94F005882319F00E94F2
:100F3000B204089585E00895EF92FF920F931F93F6
:100F4000CF93DF93082FF62ED1E0C0E0EE24EA9491
:100F5000E60E11E001C0D12F0E9492078823D9F339
:100F6000DD23D1F3833009F118F48230B9F1F4CFE5
:100F7000843019F0853091F1EFCF60E08C2F800F35
:100F80000E94060781E38C0F0E944906CF5FCF11B4
:100F900001C0C0E060E08C2F800F0E94060781E353
:100FA0008C0F0E94DD06D0E0D7CF60E08C2F800F41
:100FB0000E94060781E38C0F0E944906C11102C0FE
:100FC000CE2D01C0C15060E08C2F800F0E9406071B
:100FD00081E38C0F0E94DD06D0E0BECF8C2FDF9125
:100FE000CF911F910F91FF90EF9008950E941F07DE
:100FF000FFCF0F931F93CF930E941F0760E080E005
:101000000E9406078EE592E00E945B0660E081E0A8
:101010000E94060700E011E0C3E060E08C2F0E9410
:1010200006078EE28C0F0E94490680E20E94490664
:10103000F801819191918F010E945B06CF5FC830CA
:1010400061F7CF911F910F910895CF93DF930E9485
:10105000F907C5E7D0E303C0CE010197F1F70E947D
:1010600092078111F9CF65E083E00E949C07C82FA9
:101070000E941F0761E081E00E9406078CE892E071
:101080000E945B0660E082E00E94060789E992E028
:101090000E945B0660E084E00E940607EC2FF0E00F
:1010A000EE0FFF1FE050FF4F808191810E945B0691
:1010B00080E395E72CE730E0F9013197F1F70197EC
:1010C000D9F70E946608DF91CF9108950E945807D2
:1010D00065E082E00E949C07823089F028F4882332
:1010E00041F0813049F00895833061F0843069F037
:1010F00008950E94C70808950E94250808950E9437
:10110000070908950E94390908950E941F07FFCF1B
:10111000CF93DF930E941F0768E180E00E940607DB
:1011200062E389EA92E00E946A0668E381E00E9435
:10113000060764EF81EB92E00E946A0664E183E0B7
:101140000E94060768EC84EB92E00E946A0660E069
:1011500087E00E94060788E99AE32CE730E0F9016E
:101160003197F1F70197D9F780EC92E00E945B0686
:10117000C5E7D0E303C0CE010197F1F70E949207C3
:101180008823C9F30E946608DF91CF9108950E94D9
:101190001F0760E080E00E9406078FEC92E00E944B
:1011A0005B0660E082E00E9406078CED92E00E9400
:1011B0005B0668E682E00E94060780910A01805D76
:1011C0000E9449060E9492078330B9F018F48130DA
:1011D00029F0EFCF843039F0853059F70E94660846
:1011E00080910A01089580910A01823010F3809164
:1011F0000A01815080930A01DCCF80910A01893075
:10120000C0F680910A018F5F80930A01D2CF0E94BD
:101210001F0760E080E00E9406078AEE92E00E94CD
:101220005B0660E082E00E9406078BEF92E00E947E
:101230005B0660E083E00E94060710E10F2EF0EDF0
:10124000FF2EF02D07E0CCE7D0E08DE193E00E9487
:101250005B068F2D902FFE013197F1F70197D9F79B
:10126000115099F70E9492078130E1F70E946608B9
:10127000F9CF0E941F0760E080E00E94060788E720
:1012800092E00E945B0660E082E00E94060783E035
:1012900093E00E945B0660E083E00E9406078FE017
:1012A00093E00E945B060E9492078130E1F70E9462
:1012B0006608F9CF87B3806B87BBBE9881E58DB98F
:1012C000C49A08950E945A0908958FB9779BFECF5A
:1012D000089580E487BB8DB908958FEF8FB9779B10
:1012E000FECF8FB10895CF93C82FC49883E00E949A
:1012F00065098C2F0E9465090E946D09C49ACF91DF
:101300000895CF93DF93D82FC62FC49882E00E9410
:1013100065098D2F0E9465098C2F0E946509C49A6A
:10132000DF91CF910895C4980E946509C49A0895E9
:101330001F93CF93DF93182FD62FC42FC49885E027
:101340000E946509812F0E9465098D2F0E94650901
:101350008C2F0E946509DF91CF911F910895C49849
:1013600080EC0E946509C49A0895CF93DF93EC0145
:101370000E945A090E94AF096C2F8FE00E948109D8
:1013800084EA8A95F1F78EE00E947309807E282F07
:1013900030E02C173D0751F08FE393E09F938F933C
:1013A0000E949C0F0F900F9081E009C08FE693E0A0
:1013B0009F938F930E949C0F0F900F9080E0DF917E
:1013C000CF910895C49880EA0E9465090E946D0932
:1013D000C49A08950E94B509089580E30E94730994
:1013E00080E30E94730980E0089580E00E94730901
:1013F00091E0811190E0892F08950F931F93CF936F
:101400008C010E94F509882379F1F80160817181CE
:1014100076956795769567957695679581E30E94B1
:101420008109F80160816295660F607E82E30E9407
:101430008109F80162816F7085E30E948109F801DA
:101440008281882371F0C0E0F801EC0FF11D638107
:1014500086E38C0F0E948109CF5FF8018281C81753
:1014600098F381E80E949309CF911F910F910895FD
:10147000FF920F931F93CF93DF93CDB7DEB72B97D8
:101480000FB6F894DEBF0FBECDBF84E690E09A831E
:10149000898381E08B8380E00E94F005F82E81E053
:1014A0000E94F005082F10E00F0D111D82E00E9430
:1014B000F0058F5F02C0000F111F8A95E2F7000F41
:1014C000000F0C83CE0101960E94FD092B960FB6EA
:1014D000F894DEBF0FBECDBFDF91CF911F910F916A
:1014E000FF900895CF93DF93CDB7DEB72B970FB65C
:1014F000F894DEBF0FBECDBF85E690E09A83898366
:1015000081E08B830E9469058C83CE0101960E9445
:10151000FD092B960FB6F894DEBF0FBECDBFDF914D
:10152000CF910895CF93DF93CDB7DEB72B970FB64A
:10153000F894DEBF0FBECDBF86E690E09A83898324
:1015400081E08B830E9473058C83CE0101960E94FB
:10155000FD092B960FB6F894DEBF0FBECDBFDF910D
:10156000CF910895CF93DF93CDB7DEB72B970FB60A
:10157000F894DEBF0FBECDBF87E690E09A838983E3
:1015800081E08B8386E00E94030680588C83CE0125
:1015900001960E94FD092B960FB6F894DEBF0FBE90
:1015A000CDBFDF91CF910895CF93DF93CDB7DEB755
:1015B0002B970FB6F894DEBF0FBECDBF88E690E044
:1015C0009A83898381E08B8387E00E940306805899
:1015D0008C83CE0101960E94FD092B960FB6F894DC
:1015E000DEBF0FBECDBFDF91CF910895CF93DF93C4
:1015F000CDB7DEB72B970FB6F894DEBF0FBECDBFC9
:1016000089E690E09A83898381E08B830E948D0430
:101610008C83CE0101960E94FD092B960FB6F8949B
:10162000DEBF0FBECDBFDF91CF9108950F931F9303
:10163000CF93DF93EC010B8110E089818F93888138
:101640008F938DE793E09F938F930E949C0F8881E7
:101650009981845691090F900F900F900F908730C9
:10166000910510F5880F991FFC01E75EFE4F8181FF
:101670008F9380818F9385E993E09F938F930E944E
:101680009C0FE881F981EE0FFF1FED5BFF4F80811A
:1016900091819695982F882797958795081B190B08
:1016A0000F900F900F900F90888199818A36910545
:1016B00011F4000F111F1F930F938A811F928F93B4
:1016C00088E993E09F938F930E949C0F0F900F9057
:1016D0000F900F900F900F90DF91CF911F910F916E
:1016E00008950F931F93CF93DF938C0161E08BE2FA
:1016F0000E9481098CE20E947309D82F80FF3AC0B2
:1017000081E60E947309C82F82E60E947309282F80
:1017100030E035952795359527953595279535955D
:10172000279535952795C90148E0C49F800D911DE7
:101730001124F8019183808385E60E9473098F70DC
:10174000F8018283882371F0C0E086E68C0F0E9446
:101750007309F801EC0FF11D8383CF5FF8019281CB
:10176000C91798F3C8010E94160B6FEF6D0F8CE23A
:101770000E948109DF91CF911F910F910895CF931E
:10178000DF93CDB7DEB72B970FB6F894DEBF0FBE51
:10179000CDBF0E9448042AE630E03A83298321E045
:1017A0002B839C01992314F42F5F3F4F3595279588
:1017B00020582C83CE0101960E94FD09CE0101968E
:1017C0000E94160B2B960FB6F894DEBF0FBECDBF4E
:1017D000DF91CF91089597FB072E16F4009407D060
:1017E00077FD09D00E94FF0B07FC05D03EF49095D1
:1017F00081959F4F0895709561957F4F0895AA1B1D
:10180000BB1B51E107C0AA1FBB1FA617B70710F0EB
:10181000A61BB70B881F991F5A95A9F7809590951D
:10182000BC01CD0108950E94C30D60F080E891E0F5
:1018300009F49EEF0E94CA0D28F040E851E071F4CF
:101840005EEF0CC00C94990D0C94040EE92FE07817
:101850000E94E20D40F3092E052AB1F3261737073F
:101860004807590738F00E2E07F8E02569F0E02503
:10187000E0640AC0EF6307F8009407FADB01B901DE
:101880009D01DC01CA01AD01EF930E94A10C0E94F1
:10189000D10D0E94560C5F91552339F02BED3FE09E
:1018A00049E450FD49EC0C94D00E0895DF93DD27F8
:1018B000B92FBF7740E85FE31616170648075B07A6
:1018C00018F4D92F0E94100E9F938F937F936F93DC
:1018D0000E94CB0EE0E7F0E00E949C0D0E94D10D2B
:1018E0002F913F914F915F910E942B0EDD2351F07C
:1018F0009058A2EA2AED3FE049EC5FE3D0785D27FB
:101900000E94E70EDF910C94D10D0E946F0D08F438
:1019100081E008950E949E0C0C94D10D0E94CA0D86
:1019200058F00E94C30D40F029F45F3F29F00C9459
:10193000930D51110C94050E0C94990D0E94E20D1B
:1019400068F39923B1F3552391F3951B550BBB27EE
:10195000AA2762177307840738F09F5F5F4F220F33
:10196000331F441FAA1FA9F335D00E2E3AF0E0E82A
:1019700032D091505040E695001CCAF72BD0FE2F74
:1019800029D0660F771F881FBB1F26173707480708
:10199000AB07B0E809F0BB0B802DBF01FF279358C0
:1019A0005F4F3AF09E3F510578F00C94930D0C94E4
:1019B000050E5F3FE4F3983ED4F3869577956795DF
:1019C000B795F7959F5FC9F7880F911D96958795F5
:1019D00097F90895E1E0660F771F881FBB1F621714
:1019E00073078407BA0720F0621B730B840BBA0BD2
:1019F000EE1F88F7E09508950E94030D6894B111D9
:101A00000C94050E08950E94EA0D88F09F5798F0F7
:101A1000B92F9927B751B0F0E1F0660F771F881FF3
:101A2000991F1AF0BA95C9F714C0B13091F00E940D
:101A3000040EB1E008950C94040E672F782F8827C8
:101A4000B85F39F0B93FCCF3869577956795B39534
:101A5000D9F73EF490958095709561957F4F8F4FA3
:101A60009F4F0895E89409C097FB3EF490958095A8
:101A7000709561957F4F8F4F9F4F9923A9F0F92F54
:101A800096E9BB279395F695879577956795B795D2
:101A9000F111F8CFFAF4BB0F11F460FF1BC06F5FB8
:101AA0007F4F8F4F9F4F16C0882311F096E911C0CA
:101AB000772321F09EE8872F762F05C0662371F0EB
:101AC00096E8862F70E060E02AF09A95660F771FFF
:101AD000881FDAF7880F9695879597F90895990FDB
:101AE0000008550FAA0BE0E8FEEF16161706E807E8
:101AF000F907C0F012161306E407F50798F0621B09
:101B0000730B840B950B39F40A2661F0232B242BDD
:101B1000252B21F408950A2609F4A140A6958FEFFC
:101B2000811D811D089597F99F6780E870E060E04E
:101B300008959FEF80EC0895DF93CF931F930F9349
:101B4000FF92EF92DF927B018C01689406C0DA2E3F
:101B5000EF010E942B0EFE01E894A591259135918D
:101B600045915591A6F3EF010E94E70EFE01970102
:101B7000A801DA9469F7DF90EF90FF900F911F9121
:101B8000CF91DF91089500240A94161617061806BF
:101B90000906089500240A94121613061406050671
:101BA0000895092E0394000C11F4882352F0BB0F02
:101BB00040F4BF2B11F460FF04C06F5F7F4F8F4F65
:101BC0009F4F089557FD9058440F551F59F05F3FA0
:101BD00071F04795880F97FB991F61F09F3F79F04F
:101BE00087950895121613061406551FF2CF4695D1
:101BF000F1DF08C0161617061806991FF1CF869553
:101C00007105610508940895E894BB276627772736
:101C1000CB0197F908950E946F0D08F48FEF089596
:101C20009B01AC0160E070E080E89FE30C948A0CBB
:101C30000E942B0E0C94D10D0E94C30D38F00E940F
:101C4000CA0D20F0952311F00C94930D0C94990D6E
:101C500011240C94050E0E94E20D70F3959FC1F3C0
:101C6000950F50E0551F629FF001729FBB27F00D4A
:101C7000B11D639FAA27F00DB11DAA1F649F66279F
:101C8000B00DA11D661F829F2227B00DA11D621FEE
:101C9000739FB00DA11D621F839FA00D611D221FA8
:101CA000749F3327A00D611D231F849F600D211D8C
:101CB000822F762F6A2F11249F5750409AF0F1F00F
:101CC00088234AF0EE0FFF1FBB1F661F771F881F78
:101CD00091505040A9F79E3F510580F00C94930D10
:101CE0000C94050E5F3FE4F3983ED4F38695779508
:101CF0006795B795F795E7959F5FC1F7FE2B880F1E
:101D0000911D9695879597F9089519F416F40C94FA
:101D1000990D0C943C0F0E94EA0DB8F39923C9F376
:101D2000B6F39F57550B87FF0E944A0F0024A0E689
:101D300040EA900180585695979528F4805C660F8C
:101D4000771F881F20F026173707480730F4621BDB
:101D5000730B840B202931294A2BA69517940794DD
:101D6000202531254A2758F7660F771F881F20F056
:101D700026173707480730F4620B730B840B200DCE
:101D8000311D411DA09581F7B901842F9158880F0D
:101D90009695879508959B01AC010C94180E5058A8
:101DA000BB27AA270E94E70E0C94D10D0E94C30DF9
:101DB00038F00E94CA0D20F039F49F3F19F426F440
:101DC0000C94990D0EF4E095E7FB0C94930DE92F1C
:101DD0000E94E20D58F3BA1762077307840795074C
:101DE00020F079F4A6F50C94040E0EF4E0950B2E79
:101DF000BA2FA02D0B01B90190010C01CA01A0015D
:101E00001124FF27591B99F0593F50F4503E68F1B7
:101E10001A16F040A22F232F342F4427585FF3CFF8
:101E2000469537952795A795F0405395C9F77EF4C9
:101E30001F16BA0B620B730B840BBAF09150A1F012
:101E4000FF0FBB1F661F771F881FC2F70EC0BA0F98
:101E5000621F731F841F48F4879577956795B79520
:101E6000F7959E3F08F0B0CF9395880F08F099271B
:101E7000EE0F9795879508959F3F31F0915020F48C
:101E8000879577956795B795880F911D9695879556
:101E900097F9089591505040660F771F881FD2F729
:101EA00008950F931F93CF93DF93009731F461153B
:101EB000710519F480E090E03AC08B01EC016EE00E
:101EC00070E081E090E00E948411FC01892B91F385
:101ED00080E883830115110571F01387028781E87B
:101EE000838380910A0490910B04892B21F4F09351
:101EF0000B04E0930A042097C9F0D187C08783813F
:101F00008260838380910C0490910D04892B71F47D
:101F1000F0930D04E0930C0480910E0490910F0453
:101F2000892B21F4F0930F04E0930E04CF01DF918D
:101F3000CF911F910F910895A0E0B0E0E2EAFFE099
:101F40000C949013AE014B5F5F4FFA016191719158
:101F5000AF0180910C0490910D040E94B20FE2E059
:101F60000C94AC13ACE0B0E0E8EBFFE00C94801311
:101F70007C016B018A01FC0117821682838181FF3B
:101F8000BDC1CE0101964C01F7019381F60193FD8D
:101F9000859193FF81916F01882309F4ABC185324C
:101FA00039F493FD859193FF81916F01853229F476
:101FB000B70190E00E94EA12E7CF512C312C20E0CB
:101FC0002032A0F48B3269F030F4803259F0833241
:101FD00069F420612CC08D3239F0803339F42160EE
:101FE00026C02260246023C0286021C027FD27C0AE
:101FF00030ED380F3A3078F426FF06C0FAE05F9EE5
:10200000300D1124532E13C08AE0389E300D112458
:10201000332E20620CC08E3221F426FD6BC1206469
:1020200006C08C3611F4206802C0883641F4F601EF
:1020300093FD859193FF81916F018111C1CF982FFD
:102040009F7D9554933028F40C5F1F4FFFE3F98375
:102050000DC0833631F0833771F0833509F05BC0F2
:1020600022C0F801808189830E5F1F4F442443946E
:10207000512C540115C03801F2E06F0E711CF801AB
:10208000A080B18026FF03C0652D70E002C06FEF15
:102090007FEFC5012C870E94DF122C0183012C8564
:1020A0002F77222E17C03801F2E06F0E711CF80155
:1020B000A080B18026FF03C0652D70E002C06FEFE5
:1020C0007FEFC5012C870E94CD122C012C85206842
:1020D000222E830123FC1BC0832D90E04816590655
:1020E000B0F4B70180E290E00E94EA123A94F4CF93
:1020F000F50127FC859127FE81915F01B70190E0F2
:102100000E94EA1231103A94F1E04F1A510841143A
:10211000510471F7E5C0843611F0893639F5F801BC
:1021200027FF07C060817181828193810C5F1F4FFF
:1021300008C060817181072E000C880B990B0E5F1F
:102140001F4F2F76722E97FF09C09095809570953E
:1021500061957F4F8F4F9F4F2068722E2AE030E0AD
:10216000A4010E942213A82EA81844C0853729F480
:102170002F7EB22E2AE030E025C0F22FF97FBF2E4D
:102180008F36C1F018F4883579F0B4C0803719F073
:10219000883721F0AFC02F2F2061B22EB4FE0DC0C2
:1021A0008B2D8460B82E09C024FF0AC09F2F966033
:1021B000B92E06C028E030E005C020E130E002C0C2
:1021C00020E132E0F801B7FE07C0608171818281B1
:1021D00093810C5F1F4F06C06081718180E090E0A9
:1021E0000E5F1F4FA4010E942213A82EA818FB2DDA
:1021F000FF777F2E76FE0BC0372D3E7FA51450F45F
:1022000074FE0AC072FC08C0372D3E7E05C0BA2C91
:10221000372D03C0BA2C01C0B52C34FF0DC0FE0110
:10222000EA0DF11D8081803311F4397E09C032FF3F
:1022300006C0B394B39404C0832F867809F0B39496
:1022400033FD13C030FF06C05A2CB31418F4530CDE
:102250005B18B32CB31468F4B70180E290E03C87BC
:102260000E94EA12B3943C85F5CFB31410F43B18E6
:1022700001C0312C34FF12C0B70180E390E03C87ED
:102280000E94EA123C8532FF17C031FD03C088E787
:1022900090E002C088E590E0B7010CC0832F8678FB
:1022A00059F031FF02C08BE201C080E237FD8DE2C0
:1022B000B70190E00E94EA12A51438F4B70180E358
:1022C00090E00E94EA125A94F7CFAA94F401EA0D22
:1022D000F11D8081B70190E00E94EA12A110F5CFB4
:1022E000332009F451CEB70180E290E00E94EA1257
:1022F0003A94F6CFF7018681978102C08FEF9FEF66
:102300002C96E2E10C949C130F931F93CF93DF93D1
:10231000869F8001879F100D969F100D1124C80184
:102320000E94A011EC01009729F0A80160E070E084
:102330000E94D812CE01DF91CF911F910F91089585
:10234000CF93DF938230910510F482E090E0E0912A
:102350001204F091130420E030E0C0E0D0E03097A8
:1023600011F14081518148175907C0F048175907AA
:1023700061F482819381209719F09B838A832BC01B
:10238000909313048093120426C02115310519F08F
:102390004217530718F49A01BE01DF01EF010280D2
:1023A000F381E02DDCCF2115310509F1281B390B14
:1023B0002430310590F412968D919C9113976115FC
:1023C000710521F0FB019383828304C09093130471
:1023D00080931204FD01329644C0FD01E20FF31F09
:1023E00081939193225031092D933C933AC02091CF
:1023F000100430911104232B41F4209129013091D4
:102400002A01309311042093100420912701309168
:1024100028012115310541F42DB73EB740912B011C
:1024200050912C01241B350BE0911004F091110404
:10243000E217F307A0F42E1B3F0B2817390778F09B
:10244000AC014E5F5F4F2417350748F04E0F5F1FFA
:1024500050931104409310048193919302C0E0E0E3
:10246000F0E0CF01DF91CF9108950F931F93CF93A9
:10247000DF93009709F48CC0FC013297138212821B
:1024800000911204109113040115110581F42081AB
:102490003181820F931F209110043091110428176D
:1024A000390779F5F0931104E093100471C0D80155
:1024B00040E050E0AE17BF0750F412962D913C91CA
:1024C0001397AD012115310509F1D901F3CF9D0114
:1024D000DA013383228360817181860F971F82170F
:1024E000930769F4EC0128813981260F371F2E5F8D
:1024F0003F4F318320838A819B8193838283452B45
:1025000029F4F0931304E093120442C01396FC9351
:10251000EE931297ED01499159919E01240F351FB9
:10252000E217F30771F480819181840F951F029661
:1025300011969C938E938281938113969C938E9394
:102540001297E0E0F0E0D80112968D919C911397DC
:10255000009719F0F8018C01F6CF8D919C919801AC
:102560002E5F3F4F820F931F209110043091110472
:102570002817390769F4309729F410921304109240
:10258000120402C0138212821093110400931004EB
:10259000DF91CF911F910F910895FC01059061503B
:1025A00070400110D8F7809590958E0F9F1F089569
:1025B000DC0101C06D9341505040E0F70895FC01EB
:1025C0006150704001900110D8F7809590958E0F62
:1025D0009F1F08950F931F93CF93DF93FB012381D8
:1025E00021FD03C08FEF9FEF28C022FF16C0468158
:1025F0005781248135814217530744F4A081B1816A
:102600009D012F5F3F4F318320838C93268137813B
:102610002F5F3F4F3783268310C0EB01092F182F00
:102620000084F185E02D0995892BE1F68E819F814B
:1026300001969F838E83812F902FDF91CF911F91E1
:102640000F910895FA01AA27283051F1203181F124
:10265000E8946F936E7F6E5F7F4F8F4F9F4FAF4FAA
:10266000B1E03ED0B4E03CD0670F781F891F9A1FBD
:10267000A11D680F791F8A1F911DA11D6A0F711D71
:10268000811D911DA11D20D009F468943F912AE07D
:10269000269F11243019305D3193DEF6CF01089565
:1026A000462F4770405D4193B3E00FD0C9F7F6CF96
:1026B000462F4F70405D4A3318F0495D31FD40525E
:1026C000419302D0A9F7EACFB4E0A69597958795F4
:1026D00077956795BA95C9F70097610571050895D3
:1026E0009B01AC010A2E069457954795379527957F
:1026F000BA95C9F7620F731F841F951FA01D089517
:102700002F923F924F925F926F927F928F929F9201
:10271000AF92BF92CF92DF92EF92FF920F931F93EF
:10272000CF93DF93CDB7DEB7CA1BDB0B0FB6F894A0
:10273000DEBF0FBECDBF09942A88398848885F84E0
:102740006E847D848C849B84AA84B984C884DF8051
:10275000EE80FD800C811B81AA81B981CE0FD11D35
:102760000FB6F894DEBF0FBECDBFED010895F8940B
:02277000FFCF99
:102772001F0325032B03310339030100000000006E
:10278200000100010000000100AF03B303BF03CC4E
:1027920003D703E203F5030000140420006865690F
:1027A2000A0D00785F4A6F797469636B2073656EF6
:1027B200740900795F4A6F797469636B2073656E7F
:1027C200740900726967687420736C6964657220A9
:1027D20073656E740A0D0059203A2025753B205806
:1027E200203A202564092000583A20256420252516
:1027F2002C20593A202564202525202C20616E6743
:102802006C653A2025642009004D41473A20256431
:102812000900444952454354494F4E3A2025640A1F
:102822000D00736C69646572204C203A2025642087
:102832000900736C696465722052203A2025642075
:102842000900427574746F6E206C6566743A2025B7
:1028520064092C20627574746F6E207269676874E3
:102862003A2025640920627574746F6E206A6F794C
:10287200737469636B3A202564200A0D006F6666E3
:1028820073657473203A20782C79203A20256420CD
:102892003B2025640A0A006572726F722C20756EE5
:1028A2006B6E6F776E20646972656374696F6E0018
:1028B2002050494E472D504F4E47204D656E752092
:1028C20000312053657474696E6773003220436867
:1028D2006F6F736520636861726163746572003340
:1028E20020506C61790034204C656164657220422D
:1028F2006F6172640035205175697400476F6F64AF
:102902002063686F6963653A00596F752068617664
:10291200652063686F73656E0057656C636F6D65E4
:1029220000546F0050494E47202D20504F4E470013
:10293200546F756368204A6F79737469636B0053CF
:10294200657474696E6720706167650064696666A4
:102952006963756C7479203F20002050494E472DE1
:10296200504F4E472067616D6520004C6F6164696E
:102972006E67003120415A45525459203C3300328F
:1029820020537475642E206173736973742E004D25
:102992006172696F005065616368004C756967799F
:1029A2000042726F7773657200696E616B69004DE8
:1029B200435032353135206973204E4F5420696EB1
:1029C200207468652063686F73656E206D6F64653F
:1029D2002061667465722072657365740A0D004722
:1029E2006F6F6420636F6E6669670A0D004D6573D1
:1029F200736167652072656365697665643A20690B
:102A020064202564002573004C656E6774683A2063
:102A1200256409206D73673A2025640A0D2000425F
:102A2200544E006C6566745F736C69646572007203
:102A3200696768745F736C69646572006A6F797341
:102A42007469636B5F58006A6F79737469636B5F53
:102A520059006A6F79737469636B5F6D61676E6940
:102A620074756465006A6F79737469636B5F616E14
:042A7200676C650028
:00000001FF
