:100000000C944F000C946C000C946C000C946C00DD
:100010000C946C000C946C000C946C000C946C00B0
:100020000C946C000C946C000C946C000C946C00A0
:100030000C946C000C946C000C946C000C946C0090
:100040000C946C000C946C000C946C000C946C0080
:100050000C946C000C946C000C946C000C946C0070
:100060000C946C000C946C000C946C000C946C0060
:10007000084AD73B3BCE016E84BCBFFDC12F3D6C0F
:1000800074319ABD56833DDA3D00C77F11BED9E475
:10009000BB4C3E916BAAAABE000000803F00112419
:1000A0001FBECFEFD4E0DEBFCDBF12E0A0E0B1E0D5
:1000B000EEE1F6E102C005900D92AE30B107D9F73E
:1000C00022E0AEE0B2E001C01D92A831B207E1F734
:1000D0000E94B7000C940D0B0C9400000F931F931B
:1000E000CF93DF938AE091E00E9475060E94FD05A0
:1000F0008C010E940206E0E0F8E1C0E0D0E0E0837D
:1001000090819E1321963196E11520E2F207B9F70E
:10011000C8010E940206E0E0F8E120E030E08081C2
:100120008E1711F02F5F3F4F3196E11580E2F807EF
:10013000B1F73F932F93DF93CF9380E291E09F93AA
:100140008F930E9458068FE99DE627E981509040E1
:100150002040E1F700C000000F900F900F900F902B
:100160000F900F90DF91CF911F910F9108958FEF16
:1001700087BB8FE190E00E94E0006BEE70E087EEBD
:1001800090E00E940D0680E390E00E946E0685B725
:10019000806885BF80B7806280BF88B38C6F88BB62
:1001A0000E948B020E94A7010E945C022FE884E259
:1001B0009FE0215080409040E1F700C00000F0CF68
:1001C00090BD89B988E18AB98EE880BD08955D9BAC
:1001D000FECF8CB908955F9903C08CB190E008956B
:1001E0008CB190E00895E0E0F4E1808386E692E04F
:1001F0000197F1F70000808108959C012C5F3F4F2B
:100200002930310510F480E090E08536910514F036
:1002100084E690E08C392FEF920714F48CE99FEF7D
:100220000895CF92DF92EF92FF92CF93DF930097E2
:1002300021F1EB01BC01072E000C880B990B0E94E9
:100240002A046B017C01BE01DD0F880B990B0E9413
:100250002A04A70196010E94210320E030E044E334
:1002600053E40E94E50428ED3FE049E450E40E9495
:1002700080030E94F203CB010DC0772334F01616E1
:10028000170634F48AE590E005C086EA9FEF02C0C5
:1002900080E090E0DF91CF91FF90EF90DF90CF90E2
:1002A0000895CF92DF92EF92FF929C01229FC001AE
:1002B000239F900D900D1124669F9001679F300D34
:1002C000300D11246C01C20ED31E0D2C000CEE0853
:1002D000FF08C701B6010E942A040E9458050E9427
:1002E000F203CB01FF90EF90DF90CF900895CF9372
:1002F000DF930E9411019C012E52310929353105ED
:10030000B8F02A55310929353105A8F0225F3E4F52
:100310002935310598F02A5531092C32310588F0FC
:100320002D5231092C32310570F4C2E0D0E00BC0FF
:10033000C3E0D0E008C0C1E0D0E005C0C4E0D0E038
:1003400002C0C2E0D0E0CE01DF91CF9108958F923C
:100350009F92AF92BF92CF92DF92EF92FF920F9354
:100360001F93CF93DF93C0E0D4E117E0188386E6B4
:1003700092E00197F1F70000988106E00883E6E635
:10038000F2E03197F1F7000088811F929F931F924E
:100390008F9389E791E09F938F930E94580608837B
:1003A00086E692E00197F1F70000688170E06F57F0
:1003B0007109072E000C880B990B0E942A0423E375
:1003C00033E343EA5FE30E9480030E94F2036B0180
:1003D0007C011883E6E6F2E03197F1F700006881CE
:1003E00070E080E090E00E942A0420E030E04FEFCF
:1003F00052E40E94A1020E94F203072E000C880B17
:10040000990B0E942A0423E333E343EA5FE30E944B
:1004100080030E94F2034B015C01C6010E94FD00B3
:10042000D82FC92FC4010E94FD00082F192F682F53
:10043000792F8D2F9C2F0E941101F82EE92E602F0D
:10044000712F8D2F9C2F0E9451019F938F932BE82A
:1004500031E03F932F930E945806EF92FF921F9333
:100460000F93CF93DF9384E991E09F938F930E9442
:100470005806602F712F8D2F9C2F0E9477019F931C
:100480008F9386EB91E09F938F930E9458068DB7D0
:100490009EB746960FB6F8949EBF0FBE8DBFDF91F4
:1004A000CF911F910F91FF90EF90DF90CF90BF9071
:1004B000AF909F908F900895CF93DF93C0E0D4E1E9
:1004C00085E0888386E692E00197F1F70000888155
:1004D0001F928F9386EC91E09F938F930E94580612
:1004E00084E0888386E692E00197F1F70000888136
:1004F0001F928F9387ED91E09F938F930E945806F0
:100500008DB79EB708960FB6F8949EBF0FBE8DBFED
:10051000DF91CF91089596B386B391701F929F9308
:10052000869581701F928F9388EE91E09F938F93B1
:100530000E9458060F900F900F900F900F900F9001
:1005400008955058BB27AA270E94B9020C94A3040F
:100550000E94950438F00E949C0420F039F49F3FDB
:1005600019F426F40C946B040EF4E095E7FB0C945C
:100570006504E92F0E94B40458F3BA1762077307A1
:100580008407950720F079F4A6F50C94D6040EF4B0
:10059000E0950B2EBA2FA02D0B01B90190010C0193
:1005A000CA01A0011124FF27591B99F0593F50F4AB
:1005B000503E68F11A16F040A22F232F342F442703
:1005C000585FF3CF469537952795A795F0405395FB
:1005D000C9F77EF41F16BA0B620B730B840BBAF0CB
:1005E0009150A1F0FF0FBB1F661F771F881FC2F736
:1005F0000EC0BA0F621F731F841F48F4879577954A
:100600006795B795F7959E3F08F0B0CF9395880F03
:1006100008F09927EE0F9795879508950E94950405
:1006200060F080E891E009F49EEF0E949C0428F0BD
:1006300040E851E071F45EEF0CC00C946B040C9434
:10064000D604E92FE0780E94B40440F3092E052A6D
:10065000B1F3261737074807590738F00E2E07F869
:10066000E02569F0E025E0640AC0EF6307F8009434
:1006700007FADB01B9019D01DC01CA01AD01EF936D
:100680000E9497030E94A3040E9451035F91552387
:1006900039F02BED3FE049E450FD49EC0C94A20207
:1006A0000895DF93DD27B92FBF7740E85FE3161683
:1006B000170648075B0718F4D92F0E94DD049F93A3
:1006C0008F937F936F930E949805E0E7F0E00E947C
:1006D0006E040E94A3042F913F914F915F910E945D
:1006E000F804DD2351F09058A2EA2AED3FE049ECEE
:1006F0005FE3D0785D270E94B902DF910C94A304D8
:100700000E9494030C94A3040E949C0458F00E943D
:10071000950440F029F45F3F29F00C9465045111D1
:100720000C94D7040C946B040E94B40468F39923CE
:10073000B1F3552391F3951B550BBB27AA276217DD
:100740007307840738F09F5F5F4F220F331F441FEA
:10075000AA1FA9F335D00E2E3AF0E0E832D091501E
:100760005040E695001CCAF72BD0FE2F29D0660F0B
:10077000771F881FBB1F261737074807AB07B0E84E
:1007800009F0BB0B802DBF01FF2793585F4F3AF054
:100790009E3F510578F00C9465040C94D7045F3F9C
:1007A000E4F3983ED4F3869577956795B795F795DA
:1007B0009F5FC9F7880F911D9695879597F90895C2
:1007C000E1E0660F771F881FBB1F6217730784075E
:1007D000BA0720F0621B730B840BBA0BEE1F88F76D
:1007E000E09508950E94F9036894B1110C94D70420
:1007F00008950E94BC0488F09F5798F0B92F99275C
:10080000B751B0F0E1F0660F771F881F991F1AF0FB
:10081000BA95C9F714C0B13091F00E94D604B1E086
:1008200008950C94D604672F782F8827B85F39F085
:10083000B93FCCF3869577956795B395D9F73EF494
:1008400090958095709561957F4F8F4F9F4F08953C
:10085000E89409C097FB3EF490958095709561955A
:100860007F4F8F4F9F4F9923A9F0F92F96E9BB2710
:100870009395F695879577956795B795F111F8CF8C
:10088000FAF4BB0F11F460FF1BC06F5F7F4F8F4FF7
:100890009F4F16C0882311F096E911C0772321F0ED
:1008A0009EE8872F762F05C0662371F096E8862F85
:1008B00070E060E02AF09A95660F771F881FDAF7DC
:1008C000880F9695879597F9089597F99F6780E81F
:1008D00070E060E008959FEF80EC0895DF93CF9380
:1008E0001F930F93FF92EF92DF927B018C0168942C
:1008F00006C0DA2EEF010E94F804FE01E894A591EB
:100900002591359145915591A6F3EF010E94B902C9
:10091000FE019701A801DA9469F7DF90EF90FF904C
:100920000F911F91CF91DF91089500240A9416161C
:10093000170618060906089500240A9412161306CD
:10094000140605060895092E0394000C11F488235B
:1009500052F0BB0F40F4BF2B11F460FF04C06F5F77
:100960007F4F8F4F9F4F089557FD9058440F551F4D
:1009700059F05F3F71F04795880F97FB991F61F021
:100980009F3F79F087950895121613061406551F98
:10099000F2CF4695F1DF08C0161617061806991F04
:1009A000F1CF86957105610508940895E894BB27F9
:1009B00066277727CB0197F908959B01AC0160E08A
:1009C00070E080E89FE30C9480030E94F8040C948C
:1009D000A3040E94950438F00E949C0420F0952303
:1009E00011F00C9465040C946B0411240C94D7043E
:1009F0000E94B40470F3959FC1F3950F50E0551F0A
:100A0000629FF001729FBB27F00DB11D639FAA2763
:100A1000F00DB11DAA1F649F6627B00DA11D661FB2
:100A2000829F2227B00DA11D621F739FB00DA11DD3
:100A3000621F839FA00D611D221F749F3327A00D8D
:100A4000611D231F849F600D211D822F762F6A2F29
:100A500011249F5750409AF0F1F088234AF0EE0F8E
:100A6000FF1FBB1F661F771F881F91505040A9F7BB
:100A70009E3F510580F00C9465040C94D7045F3FB1
:100A8000E4F3983ED4F3869577956795B795F795F7
:100A9000E7959F5FC1F7FE2B880F911D969587956F
:100AA00097F9089519F416F40C946B040C949C05B2
:100AB0000E94BC04B8F39923C9F3B6F39F57550BB2
:100AC00087FF0E94AA050024A0E640EA9001805812
:100AD0005695979528F4805C660F771F881F20F045
:100AE00026173707480730F4621B730B840B202945
:100AF00031294A2BA69517940794202531254A279A
:100B000058F7660F771F881F20F02617370748070A
:100B100030F4620B730B840B200D311D411DA09529
:100B200081F7B901842F9158880F9695879508957C
:100B30009B01AC010C94E5049F3F31F0915020F4EF
:100B4000879577956795B795880F911D96958795A9
:100B500097F9089591505040660F771F881FD2F77C
:100B600008958F929F92AF92BF92CF92DF92EF92B1
:100B7000FF92CF93DF93EC01688179818A819B8119
:100B8000611571058105910521F464E279ED8BE52C
:100B900097E02DE133EF41E050E00E94730A4901F4
:100BA0005A019B01AC01A7EAB1E40E94920A6B01D1
:100BB0007C01ACEEB4EFA50194010E94A00ADC0117
:100BC000CB018C0D9D1DAE1DBF1DB7FF03C001974E
:100BD000A109B04888839983AA83BB839F77DF915B
:100BE000CF91FF90EF90DF90CF90BF90AF909F900C
:100BF0008F9008950E94B105089580E091E00E94D1
:100C0000B1050895A0E0B0E0809300019093010148
:100C1000A0930201B093030108950F931F93CF9304
:100C2000DF93009731F46115710519F480E090E0CD
:100C30003AC08B01EC016EE070E081E090E00E9430
:100C40007708FC01892B91F380E883830115110556
:100C500071F01387028781E8838380910E0290915F
:100C60000F02892B21F4F0930F02E0930E022097DC
:100C7000C9F0D187C087838182608383809110020D
:100C800090911102892B71F4F0931102E0931002FC
:100C90008091120290911302892B21F4F093130298
:100CA000E0931202CF01DF91CF911F910F91089530
:100CB000A0E0B0E0EEE5F6E00C94B50AAE014B5FC3
:100CC0005F4FFA0161917191AF0180911002909193
:100CD00011020E94A506E2E00C94D10A6091100274
:100CE000709111020E94DD0908950F931F93CF9315
:100CF000DF93E0911002F0911102238121FF1BC0CC
:100D00008C01D0E0C0E0F80181918F016091100268
:100D100070911102DB011896ED91FC9119978823CF
:100D200031F00995892B79F3DFEFCFEFECCF8AE033
:100D30000995892B19F08FEF9FEF02C08D2F9C2F03
:100D4000DF91CF911F910F910895ACE0B0E0EBEAF5
:100D5000F6E00C94A50A7C016B018A01FC01178264
:100D60001682838181FFBDC1CE0101964C01F7013E
:100D70009381F60193FD859193FF81916F01882303
:100D800009F4ABC1853239F493FD859193FF8191CC
:100D90006F01853229F4B70190E00E94DD09E7CFA9
:100DA000512C312C20E02032A0F48B3269F030F449
:100DB000803259F0833269F420612CC08D3239F0D1
:100DC000803339F4216026C02260246023C028606B
:100DD00021C027FD27C030ED380F3A3078F426FFC8
:100DE00006C0FAE05F9E300D1124532E13C08AE036
:100DF000389E300D1124332E20620CC08E3221F427
:100E000026FD6BC1206406C08C3611F4206802C038
:100E1000883641F4F60193FD859193FF81916F012E
:100E20008111C1CF982F9F7D9554933028F40C5F8A
:100E30001F4FFFE3F9830DC0833631F0833771F024
:100E4000833509F05BC022C0F801808189830E5F81
:100E50001F4F44244394512C540115C03801F2E033
:100E60006F0E711CF801A080B18026FF03C0652DB4
:100E700070E002C06FEF7FEFC5012C870E94D2099E
:100E80002C0183012C852F77222E17C03801F2E028
:100E90006F0E711CF801A080B18026FF03C0652D84
:100EA00070E002C06FEF7FEFC5012C870E94C00980
:100EB0002C012C852068222E830123FC1BC0832D4E
:100EC00090E048165906B0F4B70180E290E00E9425
:100ED000DD093A94F4CFF50127FC859127FE819135
:100EE0005F01B70190E00E94DD0931103A94F1E012
:100EF0004F1A51084114510471F7E5C0843611F0BE
:100F0000893639F5F80127FF07C060817181828138
:100F100093810C5F1F4F08C060817181072E000C08
:100F2000880B990B0E5F1F4F2F76722E97FF09C00B
:100F300090958095709561957F4F8F4F9F4F20685A
:100F4000722E2AE030E0A4010E94150AA82EA818EB
:100F500044C0853729F42F7EB22E2AE030E025C028
:100F6000F22FF97FBF2E8F36C1F018F4883579F053
:100F7000B4C0803719F0883721F0AFC02F2F20611F
:100F8000B22EB4FE0DC08B2D8460B82E09C024FF94
:100F90000AC09F2F9660B92E06C028E030E005C039
:100FA00020E130E002C020E132E0F801B7FE07C0E6
:100FB00060817181828193810C5F1F4F06C06081C7
:100FC000718180E090E00E5F1F4FA4010E94150A1E
:100FD000A82EA818FB2DFF777F2E76FE0BC0372D8D
:100FE0003E7FA51450F474FE0AC072FC08C0372D71
:100FF0003E7E05C0BA2C372D03C0BA2C01C0B52CDB
:1010000034FF0DC0FE01EA0DF11D8081803311F423
:10101000397E09C032FF06C0B394B39404C0832F55
:10102000867809F0B39433FD13C030FF06C05A2C04
:10103000B31418F4530C5B18B32CB31468F4B70151
:1010400080E290E03C870E94DD09B3943C85F5CFB7
:10105000B31410F43B1801C0312C34FF12C0B70197
:1010600080E390E03C870E94DD093C8532FF17C099
:1010700031FD03C088E790E002C088E590E0B70149
:101080000CC0832F867859F031FF02C08BE201C07B
:1010900080E237FD8DE2B70190E00E94DD09A514E2
:1010A00038F4B70180E390E00E94DD095A94F7CF4D
:1010B000AA94F401EA0DF11D8081B70190E00E942D
:1010C000DD09A110F5CF332009F451CEB70180E23C
:1010D00090E00E94DD093A94F6CFF701868197816E
:1010E00002C08FEF9FEF2C96E2E10C94C10A0F93A0
:1010F0001F93CF93DF93869F8001879F100D969F4C
:10110000100D1124C8010E949308EC01009729F0EA
:10111000A80160E070E00E94CB09CE01DF91CF9181
:101120001F910F910895CF93DF938230910510F4B2
:1011300082E090E0E0911602F091170220E030E0AA
:10114000C0E0D0E0309711F1408151814817590734
:10115000C0F04817590761F482819381209719F0F4
:101160009B838A832BC0909317028093160226C01C
:101170002115310519F04217530718F49A01BE01E1
:10118000DF01EF010280F381E02DDCCF2115310575
:1011900009F1281B390B2430310590F412968D91FA
:1011A0009C9113976115710521F0FB019383828354
:1011B00004C09093170280931602FD01329644C03A
:1011C000FD01E20FF31F81939193225031092D937A
:1011D0003C933AC02091140230911502232B41F424
:1011E00020910601309107013093150220931402DB
:1011F00020910401309105012115310541F42DB7ED
:101200003EB74091080150910901241B350BE09134
:101210001402F0911502E217F307A0F42E1B3F0B06
:101220002817390778F0AC014E5F5F4F2417350758
:1012300048F04E0F5F1F50931502409314028193A4
:10124000919302C0E0E0F0E0CF01DF91CF910895EB
:101250000F931F93CF93DF93009709F48CC0FC0189
:101260003297138212820091160210911702011513
:10127000110581F420813181820F931F2091140286
:10128000309115022817390779F5F0931502E0938C
:10129000140271C0D80140E050E0AE17BF0750F40F
:1012A00012962D913C911397AD012115310509F14D
:1012B000D901F3CF9D01DA013383228360817181EB
:1012C000860F971F8217930769F4EC0128813981F3
:1012D000260F371F2E5F3F4F318320838A819B81EA
:1012E00093838283452B29F4F0931702E09316022F
:1012F00042C01396FC93EE931297ED0149915991D8
:101300009E01240F351FE217F30771F4808191814C
:10131000840F951F029611969C938E9382819381E0
:1013200013969C938E931297E0E0F0E0D80112960A
:101330008D919C911397009719F0F8018C01F6CFCD
:101340008D919C9198012E5F3F4F820F931F2091AA
:101350001402309115022817390769F4309729F4DF
:10136000109217021092160202C01382128210937A
:10137000150200931402DF91CF911F910F910895F0
:10138000FC010590615070400110D8F78095909550
:101390008E0F9F1F0895DC0101C06D934150504096
:1013A000E0F70895FC016150704001900110D8F7FA
:1013B000809590958E0F9F1F08950F931F93CF9345
:1013C000DF93FB01238121FD03C08FEF9FEF28C036
:1013D00022FF16C046815781248135814217530769
:1013E00044F4A081B1819D012F5F3F4F3183208361
:1013F0008C93268137812F5F3F4F3783268310C020
:10140000EB01092F182F0084F185E02D0995892B18
:10141000E1F68E819F8101969F838E83812F902F8D
:10142000DF91CF911F910F910895FA01AA272830DB
:1014300051F1203181F1E8946F936E7F6E5F7F4FA1
:101440008F4F9F4FAF4FB1E03ED0B4E03CD0670F1D
:10145000781F891F9A1FA11D680F791F8A1F911D70
:10146000A11D6A0F711D811D911DA11D20D009F4C0
:1014700068943F912AE0269F11243019305D319302
:10148000DEF6CF010895462F4770405D4193B3E0EB
:101490000FD0C9F7F6CF462F4F70405D4A3318F092
:1014A000495D31FD4052419302D0A9F7EACFB4E043
:1014B000A6959795879577956795BA95C9F70097FB
:1014C0006105710508959B01AC010A2E069457959C
:1014D000479537952795BA95C9F7620F731F841FF3
:1014E000951FA01D0895052E97FB1EF400940E94E1
:1014F0008A0A57FD07D00E94DC0A07FC03D04EF48D
:101500000C948A0A50954095309521953F4F4F4F46
:101510005F4F089590958095709561957F4F8F4F9F
:101520009F4F08950E94FE0AA59F900DB49F900DB5
:10153000A49F800D911D11240895B7FF0C94920A69
:101540000E94920A821B930B08952F923F924F9212
:101550005F926F927F928F929F92AF92BF92CF9243
:10156000DF92EF92FF920F931F93CF93DF93CDB74C
:10157000DEB7CA1BDB0B0FB6F894DEBF0FBECDBFC4
:1015800009942A88398848885F846E847D848C8495
:101590009B84AA84B984C884DF80EE80FD800C819E
:1015A0001B81AA81B981CE0FD11D0FB6F894DEBF81
:1015B0000FBECDBFED010895A1E21A2EAA1BBB1BE1
:1015C000FD010DC0AA1FBB1FEE1FFF1FA217B3070F
:1015D000E407F50720F0A21BB30BE40BF50B661F25
:1015E000771F881F991F1A9469F7609570958095E9
:1015F00090959B01AC01BD01CF010895A29FB00160
:10160000B39FC001A39F700D811D1124911DB29F36
:0E161000700D811D1124911D0895F894FFCFD7
:10161E00010000000000180220005374617274690A
:10162E006E67205352414D20746573742E2E2E001A
:10163E005352414D207465737420636F6D706C65E9
:10164E007465642077697468200A25346420657295
:10165E00726F727320696E2077726974652070687C
:10166E0061736520616E64200A2534642065727290
:10167E006F727320696E2072657472696576616C23
:10168E002070686173650A0A0059203A2025753B5F
:10169E002058203A2025640A0D20006D203D20257B
:1016AE0064200900583A2025642025252C20593A1B
:1016BE00202564202525202C20616E676C653A203C
:1016CE002564200A0D00444952454354494F4E3A71
:1016DE002025640A0D00736C69646572204C203AF3
:1016EE00202564200A0D00736C69646572205220F7
:1016FE003A202564200A0D00427574746F6E206CBA
:10170E006566743A2025642C20627574746F6E20A1
:0E171E0072696768743A202564200A0D000085
:00000001FF
