:100000000C9477030C9494030C9494030C94940331
:100010000C9494030C9494030C9494030C94940304
:100020000C9494030C9494030C9494030C949403F4
:100030000C9494030C9494030C9494030C949403E4
:100040000C9494030C9494030C9494030C949403D4
:100050000C9494030C9494030C9494030C949403C4
:100060000C9494030C9494030C9494030C949403B4
:10007000084AD73B3BCE016E84BCBFFDC12F3D6C0F
:1000800074319ABD56833DDA3D00C77F11BED9E475
:10009000BB4C3E916BAAAABE000000803F0000004E
:1000A0000000005C00000C000C007C287C2858DC60
:1000B00068002410480028542840000C00000078F4
:1000C00084008478000054385400107C1000804074
:1000D0000000101010000040000060100C003854A8
:1000E0003800487C40004864580044542C001C10E0
:1000F0007C005C5424003854240064140C006854C0
:100100002C004854380000480000804800001028A7
:1001100044002828280044281000045408003844CB
:100120005C00781478007C542800384428007C4413
:1001300038007C5444007C140400384474007C1063
:100140007C00447C440020403C007C106C007C40DF
:1001500040007C187C0078103C00384438007C1447
:1001600008003844B8007C14680048542400047C1B
:1001700004007C407C003C603C007C307C006C10C7
:100180006C000C700C0064544C00007C44000C109B
:100190006000447C000008040800808080000004A7
:1001A0000800304878007C4830003048480030482B
:1001B0007C00306850001078140090A878007C080B
:1001C000700050744000808074007C106800447C93
:1001D0004000781078007808700030483000F82827
:1001E00010003048F8007810080050582800083CEB
:1001F000480038407800384038007820780048308F
:10020000480098A078004868580010788400007C66
:1002100000008478100008040804000000000000BA
:10022000005F00000007000700147F147F14242AD9
:100230007F2A1223130864623649552250000503B1
:100240000000001C2241000041221C00082A1C2A38
:100250000808083E08080050300000080808080890
:10026000006060000020100804023E5149453E0035
:10027000427F400042615149462141454B311814AB
:10028000127F1027454545393C4A494930017109DB
:1002900005033649494936064949291E00363600C4
:1002A00000005636000000081422411414141414DF
:1002B00041221408000201510906324979413E7E6B
:1002C0001111117E7F494949363E414141227F410A
:1002D00041221C7F494949417F090901013E4141B1
:1002E00051327F0808087F00417F41002040413F94
:1002F000017F081422417F404040407F0204027F7A
:100300007F0408107F3E4141413E7F090909063EB6
:100310004151215E7F091929464649494931010168
:100320007F01013F4040403F1F2040201F7F201899
:10033000207F631408146303047804036151494562
:100340004300007F4141020408102041417F00002A
:100350000402010204404040404000010204002029
:10036000545454787F4844443838444444203844F2
:1003700044487F3854545418087E09010208145424
:10038000543C7F0804047800447D40002040443DF4
:1003900000007F10284400417F40007C041804784E
:1003A0007C0804047838444444387C141414080845
:1003B0001414187C7C080404084854545420043F46
:1003C0004440203C4040207C1C2040201C3C4030CD
:1003D000403C44281028440C5050503C4464544C39
:1003E00044000836410000007F000000413608004C
:1003F0000201030201000000000000000000065F8F
:100400005F060000000007070007070000147F7F59
:10041000147F7F1400242E6B6B3A12000046663066
:10042000180C666200307A4F5D377A480004070383
:100430000000000000001C3E63410000000041631A
:100440003E1C000000082A3E1C1C3E2A0808083EEC
:100450003E0808000000A0E0600000000008080856
:10046000080808000000006060000000006030180C
:100470000C060301003E7F594D7F3E000042427F43
:100480007F40400000627359496F66000022634953
:10049000497F360000181C16137F7F100027674520
:1004A000457D3900003C7E4B497930000003637183
:1004B000190F070000367F49497F360000064F4973
:1004C000693F1E000000006C6C0000000000A0EC02
:1004D0006C00000000081C36634100000014141476
:1004E0001414140000004163361C0800000203517C
:1004F000590F0600003E7F415D5D1F1E007C7E138C
:10050000137E7C0000417F7F49497F36001C3E639B
:100510004141632200417F7F41637F1C00417F7F17
:10052000495D416300417F7F491D0103001C3E631B
:1005300041517372007F7F08087F7F000000417F78
:100540007F41000000307040417F3F0100417F7FCC
:10055000081C776300417F7F41406070007F7F0609
:100560000C067F7F007F7F060C187F7F001C3E6398
:1005700041633E1C00417F7F49090F06001E3F2159
:10058000717F5E0000417F7F19396F460026674DFD
:10059000597B32000003417F7F410300007F7F4091
:1005A000407F7F00001F3F60603F1F00007F7F3063
:1005B00018307F7F0063771C081C776300074F7833
:1005C000784F0700006773594D47637100007F7FC4
:1005D00041410000000103060C1830600000414159
:1005E0007F7F000000080C0603060C080080808056
:1005F0008080808080000003070400000020745485
:10060000543C784000413F7F44447C3800387C446F
:10061000446C280000307848493F7F4000387C54C3
:10062000545C180000487E7F490302000098BCA477
:10063000A4F87C0400417F7F08047C780000447D9E
:100640007D4000000040C484FD7D000000417F7FAC
:1006500010386C440000417F7F400000007C7C0C1F
:10066000180C7C78007C7C04047C780000387C4486
:10067000447C38000084FCF8A4243C1800183C2476
:10068000A4F8FC8400447C78441C180000485C54A6
:10069000547424000000043E7F442400003C7C404D
:1006A000403C7C40001C3C60603C1C00003C7C608A
:1006B00030607C3C00446C3810386C44009CBCA01A
:1006C000A0FC7C00004C64745C4C64000008083E94
:1006D000774141000000000077770000004141773A
:1006E0003E08080000020301030203010000112478
:1006F0001FBECFEFD4E0DEBFCDBF13E0A0E0B1E07E
:10070000E0EEF3E202C005900D92AC3FB107D9F7DD
:1007100024E0ACEFB3E001C01D92AC30B207E1F7CA
:100720000E941F040C94EE110C940000AF92BF9233
:10073000CF92DF92EF92FF920F931F93CF93DF93AD
:100740000E94DE0C5C010E94E30C1AE0C0E0D0E0E5
:10075000E12CF12C0F2EFAE0CF2EF1E0DF2EF02D60
:10076000FE01F85E108380818117A9F01F921F930C
:100770001F928F93DF93CF93DF92CF920E94390D18
:100780009FEFE91AF90A8DB79EB708960FB6F8944D
:100790009EBF0FBE8DBF21961F5FC11598E0D90780
:1007A000F9F6C5010E94E30CC0E0D0E0C12CD12CC9
:1007B00003E411E09C2F965FFE01F85E80818917AB
:1007C000A9F01F929F931F928F93DF93CF931F9354
:1007D0000F930E94390D9FEFC91AD90A8DB79EB7A2
:1007E00008960FB6F8949EBF0FBE8DBF2196C11517
:1007F00098E0D907F9F6DF92CF92FF92EF9280E866
:1008000091E09F938F930E94390D2FE884E29FE03F
:10081000215080409040E1F700C000000F900F9001
:100820000F900F900F900F90DF91CF911F910F912C
:10083000FF90EF90DF90CF90BF90AF900895F89425
:100840008FEF87BB8FE190E00E943E0469E474E083
:1008500085E494E00E94EE0C80E390E00E944F0D4E
:1008600085B7806885BF80B7806280BF88B38C6F92
:1008700088BB80E490E00E942009FFCF90BD89B939
:1008800088E18AB98EE880BD08955D9BFECF8CB962
:1008900008955F9903C08CB190E008958CB190E009
:1008A0000895E0E0F4E1808386EA8A95F1F700C0DC
:1008B0008081089591E3980F933608F480E085369F
:1008C0000CF084E68C390CF48CE90895E0E0F4E156
:1008D00086E0808386EA8A95F1F700C08091FE0366
:1008E0009091FF03608170E0681B790B072E000C6C
:1008F000880B990B0E949E0A23E333E343EA5FE3EC
:100900000E94F4090E94660A862F0E945A040895E4
:10091000E0E0F4E187E0808386EA8A95F1F700C0A1
:100920008091000490910104608170E0681B790B54
:10093000072E000C880B990B0E949E0A23E333E3D9
:1009400043EA5FE30E94F4090E94660A862F0E9430
:100950005A040895CF92DF92EF92FF92CF93DF93E4
:100960000E946604D82F0E948804C82FDD2321F13D
:100970006D2FDD0F770B880B990B0E949E0A6B0180
:100980007C016C2FCC0F770B880B990B0E949E0A71
:10099000A70196010E94950920E030E044E353E46A
:1009A0000E94590B28ED3FE049E450E40E94F4090D
:1009B0000E94660ACB010CC088232CF0181634F470
:1009C0008AE590E005C086EA9FEF02C080E090E0F3
:1009D000DF91CF91FF90EF90DF90CF900895CF926D
:1009E000DF92EF92FF92CF930E946604C82F0E947D
:1009F00088048802C00111246C01CC02C00CD11CF7
:100A000011240D2C000CEE08FF08C701B6010E944E
:100A10009E0A0E94CC0B0E94660A862FCF91FF90FF
:100A2000EF90DF90CF900895CF93DF930E946604FC
:100A30000E9488040E94EF04C82F0E94AA04CC23BD
:100A4000A9F09C012D5231092A35310588F02C542A
:100A50003F4F2E3041E0340768F42A35310560F00D
:100A60008D968A35910548F4D2E007C0D0E005C0E4
:100A7000D3E003C0D1E001C0D4E08D2FDF91CF914E
:100A80000895CF93DF93E0E0F4E187E0808386EA86
:100A90008A95F1F700C0808196E0908396EA9A9556
:100AA000F1F700C01F928F9380811F928F938AED80
:100AB00091E09F938F930E94390D0E946604C82F86
:100AC0000E948804D82F0E94AA049F938F938D2F91
:100AD0000D2E000C990B9F93DF938C2F0C2E000C86
:100AE000990B9F93CF938BEE91E09F938F930E94EE
:100AF000390D0E94EF041F928F938CE092E09F9338
:100B00008F930E94390D0E9414051F928F9385E1E7
:100B100092E09F938F930E94390D87EA91E60197A7
:100B2000F1F700C000008DB79EB746960FB6F89457
:100B30009EBF0FBE8DBFDF91CF910895CF93DF93FE
:100B4000C0E0D4E185E0888386EA8A95F1F700C0A9
:100B500088811F928F9385E292E09F938F930E94EA
:100B6000390D84E0888396EA9A95F1F700C0888170
:100B70001F928F9385E392E09F938F930E94390D8C
:100B80008DB79EB708960FB6F8949EBF0FBE8DBF67
:100B9000DF91CF91089596B386B326B322FB222727
:100BA00020F91F922F9391701F929F9386958170C9
:100BB0001F928F9385E492E09F938F930E94390D4B
:100BC0008DB79EB708960FB6F8949EBF0FBE8DBF27
:100BD000089524E130E080E090E0E0E0F4E156E0C8
:100BE000508346EA4A95F1F700C04081840F911D79
:100BF00021503109A9F764E170E00E945A09CB0144
:100C0000089524E130E080E090E0E0E0F4E157E096
:100C1000508346EA4A95F1F700C04081840F911D48
:100C200021503109A9F764E170E00E945A09CB0113
:100C300008950E94E9059093FF038093FE030E94AC
:100C400001069093010480930004209100043091E8
:100C500001048091FE039091FF033F932F939F9394
:100C60008F9380E892E09F938F930E94390D0F90AD
:100C70000F900F900F900F900F900895813039F0E2
:100C800018F0823041F00CC086B38170089586B3AD
:100C900086958170089586B382FB882780F9089530
:100CA0000895863071F4E0E0F4E1808386EA8A9565
:100CB000F1F700C08091FE039091FF036081681BF3
:100CC00019C0873071F4E0E0F4E1808386EA8A9508
:100CD000F1F700C080910004909101046081681BCD
:100CE00009C08AE992E09F938F930E94390D0F907B
:100CF0000F9060E070E080E090E00E949E0A23E3A5
:100D000033E343EA5FE30E94F4090E946D0A862FF1
:100D10000E945A0408958093001008958093001251
:100D2000089528E08202C00111248B509D4F20E0DD
:100D3000A0E0B2E1FC01459154914C932F5F0196E4
:100D40002830C1F70895CF93DF93EC018881882381
:100D500031F021960E94910689918111FBCFDF919C
:100D6000CF91089528E08202C00111248B509D4F3D
:100D700040E0A0E0B2E1FC012591349120952C9354
:100D80004F5F01964830B9F70895E0E0F0E190E256
:100D9000908380830895E0E0F0E192E29083808385
:100DA00087E080830895E0E0F0E191E29083808322
:100DB0008FE780830895CF93C62F0E94CB068C2F98
:100DC0000E94D306CF91089560E080E00E94DB0688
:100DD00008950E94E40680E094E0E0E0F2E12FEF65
:100DE00020830197E9F708950E94E40680E094E0EB
:100DF000E0E0F2E110820197E9F70895E0E0F0E128
:100E00008EEA808381EA80838AED808382E1808319
:100E100088EC808388EA80838FE3808385ED8083FC
:100E200080E8808381E8808380E5808389ED80830A
:100E300081E2808380E2808310828BED808380E377
:100E400080838DEA8083108284EA808386EA8083AF
:100E50008FEA80830E94F40608950E94F40660E001
:100E600080E00E94DB0683EB92E00E94A30660E034
:100E700082E00E94DB0684EC92E00E94A30660E020
:100E800083E00E94DB068FEC92E00E94A30660E004
:100E900084E00E94DB0686ED92E00E94A30660E0FB
:100EA00085E00E94DB0685EE92E00E94A30660E0EA
:100EB00082E00E94DB0681E30E94B206089582E090
:100EC0000E943E06882319F00E941405089585E0CB
:100ED00008950E94F40660E080E00E94DB0688ED41
:100EE00092E00E94A30660E082E00E94DB068CEEA6
:100EF00092E00E94A30660E083E00E94DB0688EF98
:100F000092E00E94A3060E945F078130E1F70E94F1
:100F10002D070E948B07C1E010E00F2EFCE42F2E5E
:100F2000F3E03F2EF02D0F2EFAE54F2EF3E05F2E6B
:100F3000F02D0F2EF2E16F2EF3E07F2EF02D0F2E0D
:100F4000F2E28F2EF3E09F2EF02D0F2EF3E3AF2E63
:100F5000F3E0BF2EF02DCC24C39403C0CC2D01C0F0
:100F6000C0E00E945F078823C9F3A5C0833009F45D
:100F70005CC020F4823009F479C0F3CF843021F0D2
:100F8000853009F473C0EDCFA8E0B3E0BF93AF9311
:100F90000E94390D60E082E0810F0E94DB06C12FC4
:100FA000D0E01F921F937F926F920E94390D81E3D0
:100FB000810F0E94910621967E0193E0E92290E83C
:100FC000F9220F900F900F900F900F900F90FF202D
:100FD00054F4A1E0EA1AF108BCEFEB2AFF24FA94DA
:100FE0008FEFE81AF80A1E2DE701DD27DF93CF9374
:100FF0009F928F920E94390D60E082E08E0D0E94D8
:10100000DB06DF93CF93BF92AF920E94390D81E34D
:101010008E0D0E94B206ADB7BEB718960FB6F89403
:10102000BEBF0FBEADBFC0E09CCF60E082E0810FCD
:101030000E94DB06A4E4B3E0BF93AF930E94390D96
:1010400081E3810F0E9491060F900F90112311F000
:10105000115001C013E060E082E0810F0E94DB06C6
:1010600081E3810F0E94B206C0E07BCF1F928F9375
:101070003F922F920E94390D5F924F920E94390D3C
:101080000F900F900F900F900F900F90113051F024
:1010900028F0123059F0133059F062CF0E945E08E8
:1010A000C0E05FCF0E947808C0E05BCF0E94690774
:1010B0000E94F406FFCFC11159CF53CF0E94F4060E
:1010C00060E080E00E94DB0684E693E00E94A306D5
:1010D00060E082E00E94DB0681E793E00E94A306C5
:1010E0000E945F078130E1F70E942D070E948B0765
:1010F0000E94F40660E080E00E94DB0680E893E056
:101100000E94A30660E082E00E94DB0681E993E092
:101110000E94A30660E083E00E94DB06C0E186E057
:1011200093E00E94A3062FE487E093E021508040E3
:101130009040E1F700C00000C15089F70E945F07AE
:101140008130E1F70E942D070E948B070E94F40670
:10115000FFCF87B3806B87BBBE9881E58DB9C49AFA
:1011600008950E94A9080895CF93C82F89E993E0B4
:101170000E94560DCFB9779BFECF85EA93E00E947F
:10118000560DCF91089580E487BB8DB908958FEFF8
:101190008FB9779BFECF8FB10895CF93C82FC49896
:1011A00083E00E94B4088C2F0E94B4080E94C708F4
:1011B000C49ACF910895CF93DF93D82FC62FC498A8
:1011C00082E00E94B4088D2F0E94B4088C2F0E94E8
:1011D000B408C49ADF91CF910895C49887E80E941B
:1011E000B408C49A08951F93CF93DF93182FD62F76
:1011F000C42FC49885E00E94B408812F0E94B408CF
:101200008D2F0E94B4088C2F0E94B408DF91CF91DB
:101210001F91089589EA93E00E94560DC49889EBC6
:1012200093E00E94560D80EC0E94B4088FEA93E090
:101230000E94560DC49A87EB93E00E94560D0895C4
:10124000CF93DF93EC010E94A9082FEF8FEF9EE070
:10125000215080409040E1F700C000000E940A0940
:101260006C2F8FE00E94DB0824EA2A95F1F78EE0CC
:101270000E94CD08807E282F30E02C173D0731F0EA
:1012800082EC93E00E94560D81E009C080EF93E06C
:101290009F938F930E94390D0F900F9080E0DF9104
:1012A000CF910895C49880EA0E94B4080E94C708AC
:1012B000C49A089597FB072E16F4009407D077FD83
:1012C00009D00E946E0907FC05D03EF490958195E7
:1012D0009F4F0895709561957F4F0895AA1BBB1B82
:1012E00051E107C0AA1FBB1FA617B70710F0A61B26
:1012F000B70B881F991F5A95A9F780959095BC0147
:10130000CD0108950E94090B60F080E891E009F496
:101310009EEF0E94100B28F040E851E071F45EEF60
:101320000CC00C94DF0A0C944A0BE92FE0780E9461
:10133000280B40F3092E052AB1F326173707480773
:10134000590738F00E2E07F8E02569F0E025E06433
:101350000AC0EF6307F8009407FADB01B9019D01A9
:10136000DC01CA01AD01EF930E940B0A0E94170B2A
:101370000E94C5095F91552339F02BED3FE049E408
:1013800050FD49EC0C94110C0895DF93DD27B92F23
:10139000BF7740E85FE31616170648075B0718F4A7
:1013A000D92F0E94510B9F938F937F936F930E942D
:1013B0000C0CE0E7F0E00E94E20A0E94170B2F916C
:1013C0003F914F915F910E946C0BDD2351F090583B
:1013D000A2EA2AED3FE049EC5FE3D0785D270E9466
:1013E000280CDF910C94170B0E94080A0C94170B21
:1013F0000E94100B58F00E94090B40F029F45F3F47
:1014000029F00C94D90A51110C944B0B0C94DF0A5F
:101410000E94280B68F39923B1F3552391F3951B90
:10142000550BBB27AA2762177307840738F09F5F05
:101430005F4F220F331F441FAA1FA9F335D00E2E72
:101440003AF0E0E832D091505040E695001CCAF7DF
:101450002BD0FE2F29D0660F771F881FBB1F2617A2
:1014600037074807AB07B0E809F0BB0B802DBF0179
:10147000FF2793585F4F3AF09E3F510578F00C9448
:10148000D90A0C944B0B5F3FE4F3983ED4F3869556
:1014900077956795B795F7959F5FC9F7880F911D69
:1014A0009695879597F90895E1E0660F771F881F55
:1014B000BB1F621773078407BA0720F0621B730B08
:1014C000840BBA0BEE1F88F7E09508950E946D0A11
:1014D0006894B1110C944B0B08950E94300B88F066
:1014E0009F5798F0B92F9927B751B0F0E1F0660FE8
:1014F000771F881F991F1AF0BA95C9F714C0B13029
:1015000091F00E944A0BB1E008950C944A0B672FAA
:10151000782F8827B85F39F0B93FCCF38695779557
:101520006795B395D9F73EF4909580957095619540
:101530007F4F8F4F9F4F0895E89409C097FB3EF46B
:1015400090958095709561957F4F8F4F9F4F992310
:10155000A9F0F92F96E9BB279395F695879577958E
:101560006795B795F111F8CFFAF4BB0F11F460FF4E
:101570001BC06F5F7F4F8F4F9F4F16C0882311F0A6
:1015800096E911C0772321F09EE8872F762F05C0BA
:10159000662371F096E8862F70E060E02AF09A9555
:1015A000660F771F881FDAF7880F9695879597F94A
:1015B000089597F99F6780E870E060E008959FEFD5
:1015C00080EC0895DF93CF931F930F93FF92EF92D8
:1015D000DF927B018C01689406C0DA2EEF010E9435
:1015E0006C0BFE01E894A59125913591459155919B
:1015F000A6F3EF010E94280CFE019701A801DA94DE
:1016000069F7DF90EF90FF900F911F91CF91DF91DD
:10161000089500240A941616170618060906089558
:1016200000240A9412161306140605060895092EBE
:101630000394000C11F4882352F0BB0F40F4BF2B2D
:1016400011F460FF04C06F5F7F4F8F4F9F4F08956D
:1016500057FD9058440F551F59F05F3F71F0479563
:10166000880F97FB991F61F09F3F79F08795089548
:10167000121613061406551FF2CF4695F1DF08C067
:10168000161617061806991FF1CF86957105610584
:1016900008940895E894BB2766277727CB0197F92C
:1016A00008959B01AC0160E070E080E89FE30C943A
:1016B000F4090E946C0B0C94170B0E94090B38F074
:1016C0000E94100B20F0952311F00C94D90A0C9471
:1016D000DF0A11240C944B0B0E94280B70F3959F8A
:1016E000C1F3950F50E0551F629FF001729FBB2719
:1016F000F00DB11D639FAA27F00DB11DAA1F649FB5
:101700006627B00DA11D661F829F2227B00DA11D67
:10171000621F739FB00DA11D621F839FA00D611DED
:10172000221F749F3327A00D611D231F849F600D0E
:10173000211D822F762F6A2F11249F5750409AF037
:10174000F1F088234AF0EE0FFF1FBB1F661F771FC3
:10175000881F91505040A9F79E3F510580F00C948E
:10176000D90A0C944B0B5F3FE4F3983ED4F3869573
:1017700077956795B795F795E7959F5FC1F7FE2B2E
:10178000880F911D9695879597F9089519F416F489
:101790000C94DF0A0C947D0C0E94300BB8F3992353
:1017A000C9F3B6F39F57550B87FF0E948B0C00249B
:1017B000A0E640EA900180585695979528F4805C01
:1017C000660F771F881F20F026173707480730F469
:1017D000621B730B840B202931294A2BA695179481
:1017E0000794202531254A2758F7660F771F881F51
:1017F00020F026173707480730F4620B730B840B71
:10180000200D311D411DA09581F7B901842F9158FC
:10181000880F9695879508959B01AC010C94590B00
:101820005058BB27AA270E94280C0C94170B0E9423
:10183000090B38F00E94100B20F039F49F3F19F487
:1018400026F40C94DF0A0EF4E095E7FB0C94D90A19
:10185000E92F0E94280B58F3BA1762077307840711
:10186000950720F079F4A6F50C944A0B0EF4E09558
:101870000B2EBA2FA02D0B01B90190010C01CA014A
:10188000A0011124FF27591B99F0593F50F4503EF5
:1018900068F11A16F040A22F232F342F4427585FE7
:1018A000F3CF469537952795A795F0405395C9F7FF
:1018B0007EF41F16BA0B620B730B840BBAF09150B7
:1018C000A1F0FF0FBB1F661F771F881FC2F70EC056
:1018D000BA0F621F731F841F48F487957795679529
:1018E000B795F7959E3F08F0B0CF9395880F08F015
:1018F0009927EE0F9795879508959F3F31F0915066
:1019000020F4879577956795B795880F911D9695E3
:10191000879597F9089591505040660F771F881F5B
:10192000D2F708958F929F92AF92BF92CF92DF929B
:10193000EF92FF92CF93DF93EC01688179818A81E6
:101940009B81611571058105910521F464E279EDB2
:101950008BE597E02DE133EF41E050E00E94541118
:1019600049015A019B01AC01A7EAB1E40E9473113D
:101970006B017C01ACEEB4EFA50194010E948111D2
:10198000DC01CB018C0D9D1DAE1DBF1DB7FF03C03B
:101990000197A109B04888839983AA83BB839F7765
:1019A000DF91CF91FF90EF90DF90CF90BF90AF90FD
:1019B0009F908F9008950E94920C089580E091E08E
:1019C0000E94920C0895A0E0B0E0809300019093F3
:1019D0000101A0930201B093030108950F931F9397
:1019E000CF93DF93009731F46115710519F480E00E
:1019F00090E03AC08B01EC016EE070E081E090E095
:101A00000E94580FFC01892B91F380E88383011514
:101A1000110571F01387028781E8838380910204A6
:101A200090910304892B21F4F0930304E0930204C2
:101A30002097C9F0D187C08783818260838380919A
:101A4000040490910504892B71F4F0930504E0934C
:101A500004048091060490910704892B21F4F093EB
:101A60000704E0930604CF01DF91CF911F910F91FE
:101A70000895A0E0B0E0EFE3FDE00C949611AE0114
:101A80004B5F5F4FFA0161917191AF018091040446
:101A9000909105040E94860DE2E00C94B2116091D1
:101AA0000404709105040E94BE1008950F931F93C3
:101AB000CF93DF93E0910404F0910504238121FF8B
:101AC0001BC08C01D0E0C0E0F80181918F016091D2
:101AD000040470910504DB011896ED91FC911997AF
:101AE000882331F00995892B79F3DFEFCFEFECCF25
:101AF0008AE00995892B19F08FEF9FEF02C08D2F97
:101B00009C2FDF91CF911F910F910895ACE0B0E031
:101B1000ECE8FDE00C9486117C016B018A01FC016C
:101B200017821682838181FFBDC1CE0101964C01CF
:101B3000F7019381F60193FD859193FF81916F01E8
:101B4000882309F4ABC1853239F493FD859193FF65
:101B500081916F01853229F4B70190E00E94BE1097
:101B6000E7CF512C312C20E02032A0F48B3269F0E9
:101B700030F4803259F0833269F420612CC08D3208
:101B800039F0803339F4216026C02260246023C0FC
:101B9000286021C027FD27C030ED380F3A3078F497
:101BA00026FF06C0FAE05F9E300D1124532E13C0AD
:101BB0008AE0389E300D1124332E20620CC08E3204
:101BC00021F426FD6BC1206406C08C3611F4206818
:101BD00002C0883641F4F60193FD859193FF81910F
:101BE0006F018111C1CF982F9F7D9554933028F4B8
:101BF0000C5F1F4FFFE3F9830DC0833631F083374D
:101C000071F0833509F05BC022C0F80180818983BF
:101C10000E5F1F4F44244394512C540115C03801CA
:101C2000F2E06F0E711CF801A080B18026FF03C0A6
:101C3000652D70E002C06FEF7FEFC5012C870E9419
:101C4000B3102C0183012C852F77222E17C0380169
:101C5000F2E06F0E711CF801A080B18026FF03C076
:101C6000652D70E002C06FEF7FEFC5012C870E94E9
:101C7000A1102C012C852068222E830123FC1BC07F
:101C8000832D90E048165906B0F4B70180E290E049
:101C90000E94BE103A94F4CFF50127FC859127FEEF
:101CA00081915F01B70190E00E94BE1031103A941B
:101CB000F1E04F1A51084114510471F7E5C0843620
:101CC00011F0893639F5F80127FF07C0608171816D
:101CD000828193810C5F1F4F08C060817181072E44
:101CE000000C880B990B0E5F1F4F2F76722E97FFFB
:101CF00009C090958095709561957F4F8F4F9F4F4C
:101D00002068722E2AE030E0A4010E94F610A82E6E
:101D1000A81844C0853729F42F7EB22E2AE030E07F
:101D200025C0F22FF97FBF2E8F36C1F018F4883509
:101D300079F0B4C0803719F0883721F0AFC02F2F69
:101D40002061B22EB4FE0DC08B2D8460B82E09C068
:101D500024FF0AC09F2F9660B92E06C028E030E00D
:101D600005C020E130E002C020E132E0F801B7FE1A
:101D700007C060817181828193810C5F1F4F06C013
:101D80006081718180E090E00E5F1F4FA4010E948E
:101D9000F610A82EA818FB2DFF777F2E76FE0BC01D
:101DA000372D3E7FA51450F474FE0AC072FC08C0A3
:101DB000372D3E7E05C0BA2C372D03C0BA2C01C08A
:101DC000B52C34FF0DC0FE01EA0DF11D808180337A
:101DD00011F4397E09C032FF06C0B394B39404C035
:101DE000832F867809F0B39433FD13C030FF06C00B
:101DF0005A2CB31418F4530C5B18B32CB31468F4B6
:101E0000B70180E290E03C870E94BE10B3943C850D
:101E1000F5CFB31410F43B1801C0312C34FF12C0BD
:101E2000B70180E390E03C870E94BE103C8532FF02
:101E300017C031FD03C088E790E002C088E590E05C
:101E4000B7010CC0832F867859F031FF02C08BE2B6
:101E500001C080E237FD8DE2B70190E00E94BE1024
:101E6000A51438F4B70180E390E00E94BE105A94A4
:101E7000F7CFAA94F401EA0DF11D8081B70190E03B
:101E80000E94BE10A110F5CF332009F451CEB70146
:101E900080E290E00E94BE103A94F6CFF70186816E
:101EA000978102C08FEF9FEF2C96E2E10C94A21174
:101EB0000F931F93CF93DF93869F8001879F100D11
:101EC000969F100D1124C8010E94740FEC01009719
:101ED00029F0A80160E070E00E94AC10CE01DF9113
:101EE000CF911F910F910895CF93DF938230910589
:101EF00010F482E090E0E0910A04F0910B0420E0FD
:101F000030E0C0E0D0E0309711F1408151814817B6
:101F10005907C0F04817590761F4828193812097CF
:101F200019F09B838A832BC090930B0480930A043F
:101F300026C02115310519F04217530718F49A01EC
:101F4000BE01DF01EF010280F381E02DDCCF21151E
:101F5000310509F1281B390B2430310590F4129614
:101F60008D919C9113976115710521F0FB0193836D
:101F7000828304C090930B0480930A04FD0132967F
:101F800044C0FD01E20FF31F819391932250310968
:101F90002D933C933AC02091080430910904232BDF
:101FA00041F42091060130910701309309042093F8
:101FB000080420910401309105012115310541F4F7
:101FC0002DB73EB74091080150910901241B350BF4
:101FD000E0910804F0910904E217F307A0F42E1B26
:101FE0003F0B2817390778F0AC014E5F5F4F24177D
:101FF000350748F04E0F5F1F5093090440930804C3
:102000008193919302C0E0E0F0E0CF01DF91CF91A6
:1020100008950F931F93CF93DF93009709F48CC01B
:10202000FC0132971382128200910A0410910B0472
:102030000115110581F420813181820F931F2091B8
:102040000804309109042817390779F5F093090439
:10205000E093080471C0D80140E050E0AE17BF071C
:1020600050F412962D913C911397AD012115310535
:1020700009F1D901F3CF9D01DA0133832283608115
:102080007181860F971F8217930769F4EC012881ED
:102090003981260F371F2E5F3F4F318320838A817E
:1020A0009B8193838283452B29F4F0930B04E09367
:1020B0000A0442C01396FC93EE931297ED014991E6
:1020C00059919E01240F351FE217F30771F48081A7
:1020D0009181840F951F029611969C938E93828115
:1020E000938113969C938E931297E0E0F0E0D801D1
:1020F00012968D919C911397009719F0F8018C011D
:10210000F6CF8D919C9198012E5F3F4F820F931FC8
:1021100020910804309109042817390769F4309791
:1021200029F410920B0410920A0402C01382128246
:102130001093090400930804DF91CF911F910F9130
:102140000895FC010590615070400110D8F780950A
:1021500090958E0F9F1F0895DC0101C06D93415033
:102160005040E0F70895FC0161507040019001106B
:10217000D8F7809590958E0F9F1F08950F931F930A
:10218000CF93DF93FB01238121FD03C08FEF9FEFEE
:1021900028C022FF16C0468157812481358142170D
:1021A000530744F4A081B1819D012F5F3F4F3183DC
:1021B00020838C93268137812F5F3F4F378326837F
:1021C00010C0EB01092F182F0084F185E02D09952F
:1021D000892BE1F68E819F8101969F838E83812FCB
:1021E000902FDF91CF911F910F910895FA01AA27A7
:1021F000283051F1203181F1E8946F936E7F6E5F4A
:102200007F4F8F4F9F4FAF4FB1E03ED0B4E03CD0F7
:10221000670F781F891F9A1FA11D680F791F8A1FDA
:10222000911DA11D6A0F711D811D911DA11D20D041
:1022300009F468943F912AE0269F11243019305DFB
:102240003193DEF6CF010895462F4770405D4193EC
:10225000B3E00FD0C9F7F6CF462F4F70405D4A3339
:1022600018F0495D31FD4052419302D0A9F7EACF01
:10227000B4E0A6959795879577956795BA95C9F730
:1022800000976105710508959B01AC010A2E069423
:102290005795479537952795BA95C9F7620F731FDC
:1022A000841F951FA01D0895052E97FB1EF4009412
:1022B0000E946B1157FD07D00E94BD1107FC03D08F
:1022C0004EF40C946B1150954095309521953F4FED
:1022D0004F4F5F4F089590958095709561957F4F12
:1022E0008F4F9F4F08950E94DF11A59F900DB49FBF
:1022F000900DA49F800D911D11240895B7FF0C949B
:1023000073110E947311821B930B08952F923F92B9
:102310004F925F926F927F928F929F92AF92BF92F5
:10232000CF92DF92EF92FF920F931F93CF93DF93A1
:10233000CDB7DEB7CA1BDB0B0FB6F894DEBF0FBEFE
:10234000CDBF09942A88398848885F846E847D844B
:102350008C849B84AA84B984C884DF80EE80FD804D
:102360000C811B81AA81B981CE0FD11D0FB6F894C3
:10237000DEBF0FBECDBFED010895A1E21A2EAA1B4C
:10238000BB1BFD010DC0AA1FBB1FEE1FFF1FA21725
:10239000B307E407F50720F0A21BB30BE40BF50B22
:1023A000661F771F881F991F1A9469F760957095AB
:1023B000809590959B01AC01BD01CF010895A29F2E
:1023C000B001B39FC001A39F700D811D1124911D09
:1023D000B29F700D811D1124911D0895F894FFCFB7
:1023E0000100000000000C04200057726974652091
:1023F0007068617365206572726F723A20657874D7
:102400005F72616D5B2534645D203D20253032585C
:10241000202873686F756C642062652025303258FF
:10242000290A0052657472696576616C2070686172
:102430007365206572726F723A206578745F72619D
:102440006D5B2534645D203D202530325820287393
:10245000686F756C642062652025303258290A0047
:102460005352414D207465737420636F6D706C65B9
:102470007465642077697468200A092534642065CE
:1024800072726F727320696E207772697465207042
:102490006861736520616E64200A2534642065726A
:1024A000726F727320696E207265747269657661ED
:1024B0006C2070686173650A0A0059203A202575FE
:1024C0003B2058203A202564092000583A202564F2
:1024D0002025252C20593A202564202525202C2034
:1024E000616E676C653A2025642009004D41473ACA
:1024F0002025640900444952454354494F4E3A202F
:1025000025640A0D00736C69646572204C203A20C2
:102510002564200900736C696465722052203A209A
:102520002564200900427574746F6E206C656674B2
:102530003A202564092C20627574746F6E207269CC
:102540006768743A2025640920627574746F6E2080
:102550006A6F79737469636B3A202564200A0D00F1
:102560006F666673657473203A20782C79203A2060
:102570002564203B2025640A0A006572726F722C64
:1025800020756E6B6E6F776E206469726563746917
:102590006F6E002050494E472D504F4E47204D65DD
:1025A0006E752000312053657474696E6773003254
:1025B00020506C61790033204C6561646572204263
:1025C0006F61726400342051756974003120415A82
:1025D00045525459203C33003220537475642E20E8
:1025E0006173736973742E006361736520444F5780
:1025F0004E006D656E755F706F73203D2025640A17
:102600000D006D656E755F706F7331203D20256420
:102610000A0D006D656E755F706F7332203D202569
:10262000640A0D006361736520555000616374692D
:102630006F6E203A2025640A0D0063617365205097
:102640005553480053657474696E672070616765FF
:1026500000646966666963756C7479203F20310097
:102660002050494E472D504F4E472067616D6520E1
:10267000004C6F6164696E6700656E7465722077E7
:10268000726974650066696E00656E7465720077C4
:1026900072697474656E00646573656C65637465F6
:1026A00064004D435032353135206973204E4F540C
:1026B00020696E207468652063686F73656E206D95
:1026C0006F6465206166746572207265736574005D
:0C26D000476F6F6420636F6E66696700DF
:00000001FF
