:100000000C944F000C946C000C946C000C946C00DD
:100010000C946C000C946C000C946C000C946C00B0
:100020000C946C000C946C000C946C000C946C00A0
:100030000C946C000C946C000C946C000C946C0090
:100040000C946C000C946C000C946C000C946C0080
:100050000C946C000C946C000C946C000C946C0070
:100060000C946C000C946C000C946C000C946C0060
:10007000084AD73B3BCE016E84BCBFFDC12F3D6C0F
:1000800074319ABD56833DDA3D00C77F11BED9E475
:10009000BB4C3E916BAAAABE000000803F00112419
:1000A0001FBECFEFD4E0DEBFCDBF12E0A0E0B1E0D5
:1000B000EAE5F8E102C005900D92AE3CB107D9F730
:1000C00022E0AEECB2E001C01D92AC3DB207E1F718
:1000D0000E94F7000C942B0C0C940000AF92BF927E
:1000E000CF92DF92EF92FF920F931F93CF93DF9304
:1000F0000E944B075C010E9450071AE0C0E0D0E06C
:10010000E12CF12C0F2EFAE0CF2EF1E0DF2EF02DB6
:10011000FE01F85E108380818117A9F01F921F9362
:100120001F928F93DF93CF93DF92CF920E94A60707
:100130009FEFE91AF90A8DB79EB708960FB6F894A3
:100140009EBF0FBE8DBF21961F5FC11598E0D907D6
:10015000F9F6C5010E945007C0E0D0E0C12CD12CB7
:1001600003E411E09C2F965FFE01F85E8081891701
:10017000A9F01F929F931F928F93DF93CF931F93AA
:100180000F930E94A6079FEFC91AD90A8DB79EB791
:1001900008960FB6F8949EBF0FBE8DBF2196C1156D
:1001A00098E0D907F9F6DF92CF92FF92EF9280E8BC
:1001B00091E09F938F930E94A6072FE884E29FE02F
:1001C000215080409040E1F700C000000F900F9058
:1001D0000F900F900F900F90DF91CF911F910F9183
:1001E000FF90EF90DF90CF90BF90AF900895F8947C
:1001F0008FEF87BB8FE190E00E9423016EE271E0F8
:100200008AE291E00E945B0780E390E00E94BC07D5
:1002100085B7806885BF80B7806280BF88B38C6FE8
:1002200088BB0E94CE010E943D032FE884E29FE03C
:10023000215080409040E1F700C0000086B386B3B3
:100240000E946403FBCF90BD89B988E18AB98EE82A
:1002500080BD08955D9BFECF8CB908955F9903C062
:100260008CB190E008958CB190E00895E0E0F4E165
:10027000808386EA8A95F1F700C0808108959C0109
:100280002C5F3F4F2930310510F480E090E0853637
:10029000910514F084E690E08C392FEF920714F466
:1002A0008CE99FEF0895CF93DF93C0E0D4E185E020
:1002B000888386EA8A95F1F700C088811F928F9320
:1002C0008AED91E09F938F930E94A60784E0888334
:1002D00096EA9A95F1F700C088811F928F938AEE73
:1002E00091E09F938F930E94A6078DB79EB70896C3
:1002F0000FB6F8949EBF0FBE8DBFDF91CF910895CA
:1003000096B386B326B322FB222720F91F922F93A0
:1003100091701F929F93869581701F928F938AEFA1
:1003200091E09F938F930E94A6078DB79EB7089682
:100330000FB6F8949EBF0FBE8DBF089524E130E044
:1003400080E090E0E0E0F4E156E0508346EA4A9530
:10035000F1F700C04081840F911D21503109A9F7A8
:1003600064E170E00E94C703CB01089524E130E00E
:1003700080E090E0E0E0F4E157E0508346EA4A95FF
:10038000F1F700C04081840F911D21503109A9F778
:1003900064E170E00E94C703CB0108950E949E01B2
:1003A0009093CF028093CE020E94B6019093D10227
:1003B0008093D0022091D0023091D1028091CE0260
:1003C0009091CF023F932F939F938F9385E392E079
:1003D0009F938F930E94A6070F900F900F900F90FE
:1003E0000F900F90089546B321E030E002C0220F35
:1003F000331F8A95E2F781E090E0411102C080E06E
:1004000090E02823392381E0232B09F480E008952C
:10041000863071F4E0E0F4E1808386EA8A95F1F7B2
:1004200000C08091CE029091CF026081681B19C0FC
:10043000873071F4E0E0F4E1808386EA8A95F1F791
:1004400000C08091D0029091D1026081681B09C0E8
:100450008FE492E09F938F930E94A6070F900F90D6
:1004600060E070E080E090E00E940B0523E333E35E
:1004700043EA5FE30E9461040E94DA04862F90E061
:100480000E943F010895CF92DF92EF92FF92CF93A7
:10049000DF9386E00E940802C82F87E00E940802CE
:1004A000D82FCC2311F16C2F70E080E090E00E94F7
:1004B00009056B017C016D2F70E080E090E00E94E7
:1004C0000905A70196010E94020420E030E044E300
:1004D00053E40E94C60528ED3FE049E450E40E9441
:1004E00061040E94D304CB0107C0882319F08AE578
:1004F00090E002C080E090E0DF91CF91FF90EF901C
:10050000DF90CF900895CF92DF92EF92FF9286E036
:100510000E940802F82E87E00E940802889FC0010E
:1005200011246C01FF9CC00CD11C11240D2C000C5B
:10053000EE08FF08C701B6010E940B050E943906AC
:100540000E94D304CB01FF90EF90DF90CF900895ED
:100550000F931F93CF93DF9386E00E94080287E0FA
:100560000E9408020E948302EC010E944302CD2BEC
:10057000B1F09C012D5231092A35310598F02C54E7
:100580003F4F2E3041E0340780F42A35310580F0AA
:100590008D968A35910570F402E010E00BC000E002
:1005A00010E008C003E010E005C001E010E002C068
:1005B00004E010E0C801DF91CF911F910F910895E1
:1005C0000F931F93CF93DF93E0E0F4E187E0808304
:1005D00086EA8A95F1F700C0808196E0908396EADA
:1005E0009A95F1F700C01F928F9380811F928F938D
:1005F00088E692E09F938F930E94A60786E00E9470
:100600000802C82F87E00E940802D82F0E944302E8
:10061000182F092F0E9483029F938F9329E732E0BE
:100620003F932F930E94A6070F931F931F92DF9370
:100630001F92CF9382E892E09F938F930E94A60728
:100640000E94A8029F938F9383EA92E09F938F93D7
:100650000E94A6078DB79EB746960FB6F8949EBF28
:100660000FBE8DBFDF91CF911F910F9108958093A1
:10067000001008958093001208958FEA809300106F
:1006800082EB92E09F938F930E94A6070F900F90AA
:1006900008958830910518F48055809300100895CE
:1006A0008038910580F49C01992314F4215F3F4F19
:1006B0003595279535952795359527953595279522
:1006C000205F209300100895CF92DF92EF92FF9267
:1006D0000F931F93CF93DF9300E010E0C12CD12C38
:1006E0000F2EE12CF2E1FF2EF02D17C0C8010E9461
:1006F0004903CE010E94500384E790E30197F1F78C
:1007000000C00000F70110822196C038D10571F7B2
:100710000F5F1F4F0830110519F0CC2DDD2DE6CFEE
:10072000DF91CF911F910F91FF90EF90DF90CF90CD
:10073000089528E030E050E840E005C00197F1F767
:100740002150310919F0852F942FF8CF1092001203
:10075000089581EC92E09F938F930E94A6070F90DB
:100760000F90089588231CF080E88093001008956E
:10077000883018F487E0809300100895CF93C62F37
:100780000E94B8038C2F0E94B203CF91089597FB6B
:10079000072E16F4009407D077FD09D00E94DB03E2
:1007A00007FC05D03EF4909581959F4F0895709574
:1007B00061957F4F0895AA1BBB1B51E107C0AA1F7B
:1007C000BB1FA617B70710F0A61BB70B881F991FF2
:1007D0005A95A9F780959095BC01CD0108950E9486
:1007E000760560F080E891E009F49EEF0E947D05B7
:1007F00028F040E851E071F45EEF0CC00C944C0519
:100800000C94B705E92FE0780E94950540F3092E76
:10081000052AB1F3261737074807590738F00E2E77
:1008200007F8E02569F0E025E0640AC0EF6307F807
:10083000009407FADB01B9019D01DC01CA01AD0199
:10084000EF930E9478040E9484050E9432045F9115
:10085000552339F02BED3FE049E450FD49EC0C9471
:100860007E060895DF93DD27B92FBF7740E85FE369
:100870001616170648075B0718F4D92F0E94BE0505
:100880009F938F937F936F930E947906E0E7F0E048
:100890000E944F050E9484052F913F914F915F91D7
:1008A0000E94D905DD2351F09058A2EA2AED3FE0DD
:1008B00049EC5FE3D0785D270E949506DF910C94A8
:1008C00084050E9475040C9484050E947D0558F0EF
:1008D0000E94760540F029F45F3F29F00C9446050C
:1008E00051110C94B8050C944C050E94950568F3C1
:1008F0009923B1F3552391F3951B550BBB27AA27D9
:1009000062177307840738F09F5F5F4F220F331F12
:10091000441FAA1FA9F335D00E2E3AF0E0E832D0DA
:1009200091505040E695001CCAF72BD0FE2F29D0DD
:10093000660F771F881FBB1F261737074807AB07AF
:10094000B0E809F0BB0B802DBF01FF2793585F4F24
:100950003AF09E3F510578F00C9446050C94B8058A
:100960005F3FE4F3983ED4F3869577956795B79506
:10097000F7959F5FC9F7880F911D9695879597F911
:100980000895E1E0660F771F881FBB1F621773078A
:100990008407BA0720F0621B730B840BBA0BEE1F9F
:1009A00088F7E09508950E94DA046894B1110C94D8
:1009B000B80508950E949D0588F09F5798F0B92FBB
:1009C0009927B751B0F0E1F0660F771F881F991F84
:1009D0001AF0BA95C9F714C0B13091F00E94B7056A
:1009E000B1E008950C94B705672F782F8827B85F7A
:1009F00039F0B93FCCF3869577956795B395D9F7DC
:100A00003EF490958095709561957F4F8F4F9F4FE5
:100A10000895E89409C097FB3EF4909580957095F1
:100A200061957F4F8F4F9F4F9923A9F0F92F96E93A
:100A3000BB279395F695879577956795B795F111AF
:100A4000F8CFFAF4BB0F11F460FF1BC06F5F7F4F4C
:100A50008F4F9F4F16C0882311F096E911C077235E
:100A600021F09EE8872F762F05C0662371F096E867
:100A7000862F70E060E02AF09A95660F771F881F36
:100A8000DAF7880F9695879597F9089597F99F67F4
:100A900080E870E060E008959FEF80EC0895DF93B8
:100AA000CF931F930F93FF92EF92DF927B018C0104
:100AB000689406C0DA2EEF010E94D905FE01E89481
:100AC000A5912591359145915591A6F3EF010E948D
:100AD0009506FE019701A801DA9469F7DF90EF907F
:100AE000FF900F911F91CF91DF91089500240A94F8
:100AF0001616170618060906089500240A941216F9
:100B00001306140605060895092E0394000C11F42B
:100B1000882352F0BB0F40F4BF2B11F460FF04C0D8
:100B20006F5F7F4F8F4F9F4F089557FD9058440F31
:100B3000551F59F05F3F71F04795880F97FB991F3C
:100B400061F09F3F79F087950895121613061406F9
:100B5000551FF2CF4695F1DF08C016161706180686
:100B6000991FF1CF86957105610508940895E89461
:100B7000BB2766277727CB0197F908959B01AC0126
:100B800060E070E080E89FE30C9461040E94D90566
:100B90000C9484050E94760538F00E947D0520F0B3
:100BA000952311F00C9446050C944C0511240C94DB
:100BB000B8050E94950570F3959FC1F3950F50E01D
:100BC000551F629FF001729FBB27F00DB11D639FFF
:100BD000AA27F00DB11DAA1F649F6627B00DA11DA5
:100BE000661F829F2227B00DA11D621F739FB00D4B
:100BF000A11D621F839FA00D611D221F749F3327BB
:100C0000A00D611D231F849F600D211D822F762F53
:100C10006A2F11249F5750409AF0F1F088234AF030
:100C2000EE0FFF1FBB1F661F771F881F915050409C
:100C3000A9F79E3F510580F00C9446050C94B80529
:100C40005F3FE4F3983ED4F3869577956795B79523
:100C5000F795E7959F5FC1F7FE2B880F911D96953D
:100C6000879597F9089519F416F40C944C050C9493
:100C7000EA060E949D05B8F39923C9F3B6F39F577E
:100C8000550B87FF0E94F8060024A0E640EA900179
:100C900080585695979528F4805C660F771F881FBB
:100CA00020F026173707480730F4621B730B840BBC
:100CB000202931294A2BA695179407942025312500
:100CC0004A2758F7660F771F881F20F02617370727
:100CD000480730F4620B730B840B200D311D411D4E
:100CE000A09581F7B901842F9158880F9695879523
:100CF00008959B01AC010C94C6055058BB27AA2748
:100D00000E9495060C9484050E94760538F00E9496
:100D10007D0520F039F49F3F19F426F40C944C051E
:100D20000EF4E095E7FB0C944605E92F0E9495052B
:100D300058F3BA17620773078407950720F079F410
:100D4000A6F50C94B7050EF4E0950B2EBA2FA02D46
:100D50000B01B90190010C01CA01A0011124FF2768
:100D6000591B99F0593F50F4503E68F11A16F04063
:100D7000A22F232F342F4427585FF3CF4695379562
:100D80002795A795F0405395C9F77EF41F16BA0B27
:100D9000620B730B840BBAF09150A1F0FF0FBB1FD5
:100DA000661F771F881FC2F70EC0BA0F621F731F1E
:100DB000841F48F4879577956795B795F7959E3F7B
:100DC00008F0B0CF9395880F08F09927EE0F97950C
:100DD000879508959F3F31F0915020F4879577953E
:100DE0006795B795880F911D9695879597F9089502
:100DF00091505040660F771F881FD2F708958F9249
:100E00009F92AF92BF92CF92DF92EF92FF92CF93D9
:100E1000DF93EC01688179818A819B81611571057D
:100E20008105910521F464E279ED8BE597E02DE1F0
:100E300033EF41E050E00E94910B49015A019B01C0
:100E4000AC01A7EAB1E40E94B00B6B017C01ACEEEF
:100E5000B4EFA50194010E94BE0BDC01CB018C0D07
:100E60009D1DAE1DBF1DB7FF03C00197A109B0486E
:100E700088839983AA83BB839F77DF91CF91FF906B
:100E8000EF90DF90CF90BF90AF909F908F9008959C
:100E90000E94FF06089580E091E00E94FF060895F9
:100EA000A0E0B0E08093000190930101A0930201C3
:100EB000B093030108950F931F93CF93DF9300978F
:100EC00031F46115710519F480E090E03AC08B01AE
:100ED000EC016EE070E081E090E00E949509FC0179
:100EE000892B91F380E883830115110571F0138735
:100EF000028781E883838091D2029091D302892B6B
:100F000021F4F093D302E093D2022097C9F0D18765
:100F1000C0878381826083838091D4029091D502BF
:100F2000892B71F4F093D502E093D4028091D6021C
:100F30009091D702892B21F4F093D702E093D60247
:100F4000CF01DF91CF911F910F910895A0E0B0E004
:100F5000ECEAF7E00C94D30BAE014B5F5F4FFA0164
:100F600061917191AF018091D4029091D5020E945C
:100F7000C307E2E00C94EF0B6091D4027091D502AC
:100F80000E94FB0A0895ACE0B0E0E9ECF7E00C94B5
:100F9000C30B7C016B018A01FC01178216828381DD
:100FA00081FFBDC1CE0101964C01F7019381F6018D
:100FB00093FD859193FF81916F01882309F4ABC163
:100FC000853239F493FD859193FF81916F018532CC
:100FD00029F4B70190E00E94FB0AE7CF512C312C95
:100FE00020E02032A0F48B3269F030F4803259F0E6
:100FF000833269F420612CC08D3239F0803339F4AA
:10100000216026C02260246023C0286021C027FD03
:1010100027C030ED380F3A3078F426FF06C0FAE0EA
:101020005F9E300D1124532E13C08AE0389E300D80
:101030001124332E20620CC08E3221F426FD6BC1A8
:10104000206406C08C3611F4206802C0883641F452
:10105000F60193FD859193FF81916F018111C1CFBD
:10106000982F9F7D9554933028F40C5F1F4FFFE31A
:10107000F9830DC0833631F0833771F0833509F081
:101080005BC022C0F801808189830E5F1F4F44241A
:101090004394512C540115C03801F2E06F0E711CBD
:1010A000F801A080B18026FF03C0652D70E002C06A
:1010B0006FEF7FEFC5012C870E94F00A2C0183019E
:1010C0002C852F77222E17C03801F2E06F0E711C8D
:1010D000F801A080B18026FF03C0652D70E002C03A
:1010E0006FEF7FEFC5012C870E94DE0A2C012C8553
:1010F0002068222E830123FC1BC0832D90E048161C
:101100005906B0F4B70180E290E00E94FB0A3A94DD
:10111000F4CFF50127FC859127FE81915F01B7018E
:1011200090E00E94FB0A31103A94F1E04F1A510806
:101130004114510471F7E5C0843611F0893639F550
:10114000F80127FF07C060817181828193810C5F64
:101150001F4F08C060817181072E000C880B990B0E
:101160000E5F1F4F2F76722E97FF09C090958095C6
:10117000709561957F4F8F4F9F4F2068722E2AE0A8
:1011800030E0A4010E94330BA82EA81844C0853774
:1011900029F42F7EB22E2AE030E025C0F22FF97F0D
:1011A000BF2E8F36C1F018F4883579F0B4C080377F
:1011B00019F0883721F0AFC02F2F2061B22EB4FE76
:1011C0000DC08B2D8460B82E09C024FF0AC09F2F4C
:1011D0009660B92E06C028E030E005C020E130E07E
:1011E00002C020E132E0F801B7FE07C060817181E2
:1011F000828193810C5F1F4F06C06081718180E006
:1012000090E00E5F1F4FA4010E94330BA82EA81878
:10121000FB2DFF777F2E76FE0BC0372D3E7FA5146A
:1012200050F474FE0AC072FC08C0372D3E7E05C023
:10123000BA2C372D03C0BA2C01C0B52C34FF0DC019
:10124000FE01EA0DF11D8081803311F4397E09C061
:1012500032FF06C0B394B39404C0832F867809F09C
:10126000B39433FD13C030FF06C05A2CB31418F4E6
:10127000530C5B18B32CB31468F4B70180E290E010
:101280003C870E94FB0AB3943C85F5CFB31410F45D
:101290003B1801C0312C34FF12C0B70180E390E04D
:1012A0003C870E94FB0A3C8532FF17C031FD03C01A
:1012B00088E790E002C088E590E0B7010CC0832F7A
:1012C000867859F031FF02C08BE201C080E237FD21
:1012D0008DE2B70190E00E94FB0AA51438F4B70133
:1012E00080E390E00E94FB0A5A94F7CFAA94F4019D
:1012F000EA0DF11D8081B70190E00E94FB0AA11068
:10130000F5CF332009F451CEB70180E290E00E947E
:10131000FB0A3A94F6CFF7018681978102C08FEFDE
:101320009FEF2C96E2E10C94DF0B0F931F93CF936A
:10133000DF93869F8001879F100D969F100D1124CB
:10134000C8010E94B109EC01009729F0A80160E0F2
:1013500070E00E94E90ACE01DF91CF911F910F91B9
:101360000895CF93DF938230910510F482E090E0EE
:10137000E091DA02F091DB0220E030E0C0E0D0E062
:10138000309711F14081518148175907C0F0481733
:10139000590761F482819381209719F09B838A8396
:1013A0002BC09093DB028093DA0226C02115310511
:1013B00019F04217530718F49A01BE01DF01EF013B
:1013C0000280F381E02DDCCF2115310509F1281BC6
:1013D000390B2430310590F412968D919C9113971E
:1013E0006115710521F0FB019383828304C0909302
:1013F000DB028093DA02FD01329644C0FD01E20F68
:10140000F31F81939193225031092D933C933AC05D
:101410002091D8023091D902232B41F4209106016A
:10142000309107013093D9022093D8022091040112
:10143000309105012115310541F42DB73EB740919A
:10144000080150910901241B350BE091D802F0915D
:10145000D902E217F307A0F42E1B3F0B2817390718
:1014600078F0AC014E5F5F4F2417350748F04E0F00
:101470005F1F5093D9024093D8028193919302C089
:10148000E0E0F0E0CF01DF91CF9108950F931F933B
:10149000CF93DF93009709F48CC0FC01329713823D
:1014A00012820091DA021091DB020115110581F41C
:1014B00020813181820F931F2091D8023091D9026F
:1014C0002817390779F5F093D902E093D80271C053
:1014D000D80140E050E0AE17BF0750F412962D91AE
:1014E0003C911397AD012115310509F1D901F3CFD5
:1014F0009D01DA013383228360817181860F971FFA
:101500008217930769F4EC0128813981260F371F70
:101510002E5F3F4F318320838A819B819383828317
:10152000452B29F4F093DB02E093DA0242C01396D4
:10153000FC93EE931297ED01499159919E01240F6E
:10154000351FE217F30771F480819181840F951F95
:10155000029611969C938E938281938113969C930D
:101560008E931297E0E0F0E0D80112968D919C9155
:101570001397009719F0F8018C01F6CF8D919C918B
:1015800098012E5F3F4F820F931F2091D802309118
:10159000D9022817390769F4309729F41092DB0231
:1015A0001092DA0202C0138212821093D9020093C1
:1015B000D802DF91CF911F910F910895FC01059002
:1015C000615070400110D8F7809590958E0F9F1F45
:1015D0000895DC0101C06D9341505040E0F708953B
:1015E000FC016150704001900110D8F780959095F2
:1015F0008E0F9F1F08950F931F93CF93DF93FB01CF
:10160000238121FD03C08FEF9FEF28C022FF16C06A
:1016100046815781248135814217530744F4A081C4
:10162000B1819D012F5F3F4F318320838C932681B1
:1016300037812F5F3F4F3783268310C0EB01092F7F
:10164000182F0084F185E02D0995892BE1F68E8114
:101650009F8101969F838E83812F902FDF91CF9161
:101660001F910F910895FA01AA27283051F12031D6
:1016700081F1E8946F936E7F6E5F7F4F8F4F9F4F26
:10168000AF4FB1E03ED0B4E03CD0670F781F891F68
:101690009A1FA11D680F791F8A1F911DA11D6A0F36
:1016A000711D811D911DA11D20D009F468943F91E9
:1016B0002AE0269F11243019305D3193DEF6CF01E8
:1016C0000895462F4770405D4193B3E00FD0C9F7AE
:1016D000F6CF462F4F70405D4A3318F0495D31FD1B
:1016E0004052419302D0A9F7EACFB4E0A69597956E
:1016F000879577956795BA95C9F700976105710544
:1017000008959B01AC010A2E06945795479537958D
:101710002795BA95C9F7620F731F841F951FA01DE7
:101720000895052E97FB1EF400940E94A80B57FD08
:1017300007D00E94FA0B07FC03D04EF40C94A80BC0
:1017400050954095309521953F4F4F4F5F4F0895ED
:1017500090958095709561957F4F8F4F9F4F08951D
:101760000E941C0CA59F900DB49F900DA49F800D0E
:10177000911D11240895B7FF0C94B00B0E94B00B7B
:10178000821B930B08952F923F924F925F926F921C
:101790007F928F929F92AF92BF92CF92DF92EF9201
:1017A000FF920F931F93CF93DF93CDB7DEB7CA1B82
:1017B000DB0B0FB6F894DEBF0FBECDBF09942A88AD
:1017C000398848885F846E847D848C849B84AA8455
:1017D000B984C884DF80EE80FD800C811B81AA81E2
:1017E000B981CE0FD11D0FB6F894DEBF0FBECDBFAD
:1017F000ED010895A1E21A2EAA1BBB1BFD010DC02D
:10180000AA1FBB1FEE1FFF1FA217B307E407F507B0
:1018100020F0A21BB30BE40BF50B661F771F881F8C
:10182000991F1A9469F760957095809590959B0122
:10183000AC01BD01CF010895A29FB001B39FC001CB
:10184000A39F700D811D1124911DB29F700D811DEC
:0A1850001124911D0895F894FFCFB4
:10185A00010000000000DC02200057726974652054
:10186A007068617365206572726F723A2065787468
:10187A005F72616D5B2534645D203D2025303258EE
:10188A00202873686F756C64206265202530325891
:10189A00290A0052657472696576616C2070686104
:1018AA007365206572726F723A206578745F72612F
:1018BA006D5B2534645D203D202530325820287325
:1018CA00686F756C642062652025303258290A00D9
:1018DA005352414D207465737420636F6D706C654B
:1018EA007465642077697468200A09253464206560
:1018FA0072726F727320696E2077726974652070D4
:10190A006861736520616E64200A253464206572FB
:10191A00726F727320696E2072657472696576617E
:10192A006C2070686173650A0A00736C6964657279
:10193A00204C203A202564200900736C6964657282
:10194A002052203A202564200900427574746F6E73
:10195A00206C6566743A202564092C2062757474BB
:10196A006F6E2072696768743A202564092062756F
:10197A0074746F6E206A6F79737469636B3A202589
:10198A0064200A0D006F666673657473203A2078C6
:10199A002C79203A202564203B2025640A0A006518
:1019AA0072726F722C20756E6B6E6F776E2064691F
:1019BA0072656374696F6E0059203A2025753B2061
:1019CA0058203A2025640920006D203D20256420F6
:1019DA000900583A2025642025252C20593A20252B
:1019EA0064202525202C20616E676C653A202564C9
:1019FA00200900444952454354494F4E3A20256430
:101A0A0009004F4C45445F696E697420646F6E65C6
:0E1A1A000073637265656E206F6E200A0D000A
:00000001FF
