:100000000C9476030C9493030C9493030C94930335
:100010000C9493030C9493030C9493030C94930308
:100020000C9493030C9493030C9493030C949303F8
:100030000C9493030C9493030C9493030C949303E8
:100040000C9493030C9493030C9493030C949303D8
:100050000C9493030C9493030C9493030C949303C8
:100060000C9493030C9493030C9493030C949303B8
:10007000084AD73B3BCE016E84BCBFFDC12F3D6C0F
:1000800074319ABD56833DDA3D00C77F11BED9E475
:10009000BB4C3E916BAAAABE000000803F0000004E
:1000A00000005C00000C000C007C287C2858DC68F8
:1000B000002410480028542840000C0000007884D8
:1000C000008478000054385400107C1000804000F8
:1000D00000101010000040000060100C0038543870
:1000E00000487C40004864580044542C001C107C9C
:1000F000005C5424003854240064140C0068542C10
:10010000004854380000480000804800001028448F
:100110000028282800442810000454080038445CB3
:1001200000781478007C542800384428007C443837
:10013000007C5444007C140400384474007C107C1F
:1001400000447C440020403C007C106C007C40401B
:10015000007C187C0078103C00384438007C14087F
:10016000003844B8007C14680048542400047C041F
:10017000007C407C003C603C007C307C006C106C5F
:10018000000C700C0064544C00007C44000C1060A7
:1001900000447C00000804080080808000000408FF
:1001A00000304878007C4830003048480030487CB7
:1001B00000306850001078140090A878007C087017
:1001C0000050744000808074007C106800447C40C3
:1001D00000781078007808700030483000F8281057
:1001E000003048F8007810080050582800083C48B3
:1001F000003840780038403800782078004830488F
:100200000098A078004868580010788400007C00AE
:1002100000847810000804080400000000000000BA
:100220005F00000007000700147F147F14242A7F5A
:100230002A12231308646236495522500005030030
:1002400000001C2241000041221C00082A1C2A0830
:1002500008083E0808005030000008080808080098
:100260006060000020100804023E5149453E0042F3
:100270007F400042615149462141454B31181412DB
:100280007F1027454545393C4A49493001710905E8
:10029000033649494936064949291E0036360000C9
:1002A000005636000000081422411414141414419E
:1002B000221408000201510906324979413E7E119B
:1002C00011117E7F494949363E414141227F4141DA
:1002D000221C7F494949417F090901013E414151A1
:1002E000327F0808087F00417F41002040413F01E4
:1002F0007F081422417F404040407F0204027F7FFC
:100300000408107F3E4141413E7F090909063E41F4
:1003100051215E7F09192946464949493101017F2A
:1003200001013F4040403F1F2040201F7F201820F8
:100330007F6314081463030478040361514945433F
:1003400000007F4141020408102041417F00000469
:1003500002010204404040404000010204002054D9
:100360005454787F48444438384444442038444402
:10037000487F3854545418087E0901020814545414
:100380003C7F0804047800447D40002040443D0048
:10039000007F10284400417F40007C041804787CD2
:1003A0000804047838444444387C141414080814AD
:1003B00014187C7C080404084854545420043F4416
:1003C00040203C4040207C1C2040201C3C403040D1
:1003D0003C44281028440C5050503C4464544C4435
:1003E000000836410000007F00000041360800028E
:1003F00001030201000000000000000000065F5F32
:10040000060000000007070007070000147F7F14A4
:100410007F7F1400242E6B6B3A1200004666301862
:100420000C666200307A4F5D377A4800040703009B
:1004300000000000001C3E63410000000041633EDC
:100440001C000000082A3E1C1C3E2A0808083E3EEC
:100450000808000000A0E06000000000080808088C
:100460000808000000006060000000006030180C08
:10047000060301003E7F594D7F3E000042427F7FD0
:1004800040400000627359496F6600002263494989
:100490007F360000181C16137F7F10002767454524
:1004A0007D3900003C7E4B497930000003637119AF
:1004B0000F070000367F49497F360000064F496923
:1004C0003F1E000000006C6C0000000000A0EC6CFF
:1004D00000000000081C36634100000014141414CE
:1004E00014140000004163361C0800000203515937
:1004F0000F0600003E7F415D5D1F1E007C7E1313D2
:100500007E7C0000417F7F49497F36001C3E63416D
:1005100041632200417F7F41637F1C00417F7F490F
:100520005D416300417F7F491D0103001C3E634123
:10053000517372007F7F08087F7F000000417F7F3A
:1005400041000000307040417F3F0100417F7F0843
:100550001C776300417F7F41406070007F7F060C05
:10056000067F7F007F7F060C187F7F001C3E634163
:10057000633E1C00417F7F49090F06001E3F217129
:100580007F5E0000417F7F19396F460026674D5915
:100590007B32000003417F7F410300007F7F4040AA
:1005A0007F7F00001F3F60603F1F00007F7F30188B
:1005B000307F7F0063771C081C776300074F7878D3
:1005C0004F0700006773594D47637100007F7F41FB
:1005D000410000000103060C183060000041417F1B
:1005E0007F000000080C0603060C08008080808055
:1005F00080808080000003070400000020745454B1
:100600003C784000413F7F44447C3800387C44447F
:100610006C280000307848493F7F4000387C5454B3
:100620005C180000487E7F490302000098BCA4A427
:10063000F87C0400417F7F08047C780000447D7DC5
:100640004000000040C484FD7D000000417F7F1019
:10065000386C440000417F7F400000007C7C0C1817
:100660000C7C78007C7C04047C780000387C44445A
:100670007C38000084FCF8A4243C1800183C24A416
:10068000F8FC8400447C78441C180000485C5454F6
:100690007424000000043E7F442400003C7C404061
:1006A0003C7C40001C3C60603C1C00003C7C60309A
:1006B000607C3C00446C3810386C44009CBCA0A0AA
:1006C000FC7C00004C64745C4C64000008083E77BD
:1006D0004141000000000077770000004141773E73
:1006E00008080000020301030203010011241FBED9
:1006F000CFEFD4E0DEBFCDBF13E0A0E0B1E0E2E099
:10070000F4E202C005900D92AE3BB107D9F713E0B9
:10071000AEEBB3E001C01D92AE3CB107E1F70E9421
:1007200022040C94FF110C940000BF92CF92DF9230
:10073000EF92FF920F931F93CF93DF930E942D0DA3
:100740006C010E94320D0F2EFAE0BF2EF02DC0E09A
:10075000D0E000E010E00F2EF5E1EF2EF1E0FF2EEB
:10076000F02DFE01F85EB08280818B15A1F01F9202
:10077000BF921F928F93DF93CF93FF92EF920E94CD
:10078000880D0F5F1F4F8DB79EB708960FB6F89470
:100790009EBF0FBE8DBF2196B394C11598E0D907B7
:1007A00001F7C6010E94320DC0E0D0E0E12CF12C2F
:1007B0000F2EFEE4CF2EF1E0DF2EF02D9C2F965F62
:1007C000FE01F85E80818917A9F01F929F931F9206
:1007D0008F93DF93CF93DF92CF920E94880D9FEF8C
:1007E000E91AF90A8DB79EB708960FB6F8949EBF1E
:1007F0000FBE8DBF2196C11598E0D907F9F6FF927B
:10080000EF921F930F938BE891E09F938F930E9439
:10081000880D2FE884E29FE0215080409040E1F76E
:1008200000C000000F900F900F900F900F900F904E
:10083000DF91CF911F910F91FF90EF90DF90CF90BC
:10084000BF900895F8948FEF87BB8FE190E00E94EE
:10085000490464E574E080E594E00E943D0D80E386
:1008600090E00E949C0D85B7806885BF80B780624C
:1008700080BF88B38C6F88BB0E9424060E948207C9
:100880000E9466070E9477070E9466070E94E008A0
:10089000FFCF90BD89B988E18AB98EE880BD0895FF
:1008A0005D9BFECF8CB908955F9903C08CB190E039
:1008B00008958CB190E00895E0E0F4E1808386EA49
:1008C0008A95F1F700C08081089591E3980F9336DF
:1008D00008F480E085360CF084E68C390CF48CE961
:1008E0000895E0E0F4E186E0808386EA8A95F1F7F6
:1008F00000C08091C0039091C103608170E0681BCB
:10090000790B072E000C880B990B0E94DD0A23E35C
:1009100033E343EA5FE30E94420A0E94AA0A862F59
:100920000E9465040895E0E0F4E187E0808386EAB0
:100930008A95F1F700C08091C2039091C303608152
:1009400070E0681B790B072E000C880B990B0E9436
:10095000DD0A23E333E343EA5FE30E94420A0E9495
:10096000AA0A862F0E9465040895CF92DF92EF9223
:10097000FF92CF93DF930E947104D82F0E949304BB
:10098000C82FDD2321F16D2FDD0F770B880B990B1D
:100990000E94DD0A6B017C016C2FCC0F770B880B5A
:1009A000990B0E94DD0AA70196010E94EB0920E045
:1009B00030E044E353E40E94BD0B28ED3FE049E4FE
:1009C00050E40E94420A0E94AA0ACB010CC088236C
:1009D0002CF0181634F48AE590E005C086EA9FEF03
:1009E00002C080E090E0DF91CF91FF90EF90DF9028
:1009F000CF900895CF92DF92EF92FF92CF930E9413
:100A00007104C82F0E9493048802C00111246C0154
:100A1000CC02C00CD11C11240D2C000CEE08FF08D8
:100A2000C701B6010E94DD0A0E94240C0E94AA0A96
:100A3000862FCF91FF90EF90DF90CF900895CF93C6
:100A4000DF930E9471040E9493040E94FA04C82F4D
:100A50000E94B504CC23A9F09C012D5231092A35FE
:100A6000310588F02C543F4F2E3041E0340768F4B4
:100A70002A35310560F08D968A35910548F4D2E02B
:100A800007C0D0E005C0D3E003C0D1E001C0D4E08E
:100A90008D2FDF91CF910895CF93DF93E0E0F4E1C4
:100AA00087E0808386EA8A95F1F700C0808196E02E
:100AB000908396EA9A95F1F700C01F928F938081F8
:100AC0001F928F9385EE91E09F938F930E94880DE4
:100AD0000E947104C82F0E949304D82F0E94B5046D
:100AE0009F938F938D2F0D2E000C990B9F93DF9367
:100AF0008C2F0C2E000C990B9F93CF9386EF91E0D7
:100B00009F938F930E94880D0E94FA041F928F93E7
:100B100087E192E09F938F930E94880D0E941F05AA
:100B20001F928F9380E292E09F938F930E94880D93
:100B300087EA91E60197F1F700C000008DB79EB7F4
:100B400046960FB6F8949EBF0FBE8DBFDF91CF9132
:100B50000895CF93DF93C0E0D4E185E0888386EAEF
:100B60008A95F1F700C088811F928F9380E392E00D
:100B70009F938F930E94880D84E0888396EA9A95CC
:100B8000F1F700C088811F928F9380E492E09F93D9
:100B90008F930E94880D8DB79EB708960FB6F89474
:100BA0009EBF0FBE8DBFDF91CF91089596B386B3E0
:100BB00026B322FB222720F91F922F9391701F92B8
:100BC0009F93869581701F928F9380E592E09F930B
:100BD0008F930E94880D8DB79EB708960FB6F89434
:100BE0009EBF0FBE8DBF089524E130E080E090E00D
:100BF000E0E0F4E156E0508346EA4A95F1F700C0A0
:100C00004081840F911D21503109A9F764E170E002
:100C10000E94B409CB01089524E130E080E090E027
:100C2000E0E0F4E157E0508346EA4A95F1F700C06E
:100C30004081840F911D21503109A9F764E170E0D2
:100C40000E94B409CB0108950E94F4059093C1035A
:100C50008093C0030E940C069093C3038093C20349
:100C60002091C2033091C3038091C0039091C103CE
:100C70003F932F939F938F938BE892E09F938F9353
:100C80000E94880D0F900F900F900F900F900F9073
:100C90000895813039F018F0823041F00CC086B3ED
:100CA0008170089586B386958170089586B382FB1E
:100CB000882780F908950895863071F4E0E0F4E122
:100CC000808386EA8A95F1F700C08091C0039091F5
:100CD000C1036081681B19C0873071F4E0E0F4E162
:100CE000808386EA8A95F1F700C08091C2039091D3
:100CF000C3036081681B09C085EA92E09F938F93CC
:100D00000E94880D0F900F9060E070E080E090E00E
:100D10000E94DD0A23E333E343EA5FE30E94420AD1
:100D20000E94AF0A862F0E946504089580930010E8
:100D3000089580930012089528E08202C0011124D2
:100D40008C509D4F40E0A0E0B2E1FC012591349130
:100D50002C934F5F01964830C1F70895CF93DF93EE
:100D6000EC018881882331F021960E949C068991AC
:100D70008111FBCFDF91CF9108952F923F924F9237
:100D80005F926F927F928F929F92AF92BF92CF921B
:100D9000DF92EF92FF920F931F93CF93DF938C011B
:100DA000462E512C612C712C22242394312CCCE71B
:100DB000D0E042C00E949C06C301B2010E94DB0A3F
:100DC0004B015C0120E030E14BE954E40E94BD0B93
:100DD0006B017C0120E030E040E85FE30E943E0AC6
:100DE00088232CF120E03FEF4FE757E4C701B6011D
:100DF0000E94B20B1816B4F420E030E040E251E457
:100E0000C501B4010E94BD0B0E94AF0A61157105B6
:100E100099F0CE010197F1F76150710961157105E3
:100E2000C1F70AC0C701B6010E94AF0A02C0622D15
:100E3000732DCB010197F1F7F80181918F01811199
:100E4000B9CFDF91CF911F910F91FF90EF90DF907D
:100E5000CF90BF90AF909F908F907F906F905F905A
:100E60004F903F902F90089528E08202C0011124F6
:100E70008C509D4F40E0A0E0B2E1FC0125913491FF
:100E800020952C934F5F01964830B9F70895E0E024
:100E9000F0E190E2908380830895E0E0F0E192E257
:100EA0009083808387E080830895E0E0F0E191E221
:100EB000908380838FE780830895CF93C62F0E940D
:100EC0004D078C2F0E945507CF91089560E080E078
:100ED0000E945D0708950E94660780E094E0E0E0CC
:100EE000F2E12FEF208301970097E1F708950E9428
:100EF000660780E094E0E0E0F2E11082019700975D
:100F0000E1F70895E0E0F0E18EEA808381EA8083F2
:100F10008AED808382E1808388EC808388EA808305
:100F20008FE3808385ED808380E8808381E8808300
:100F300080E5808389ED808381E2808380E2808305
:100F400010828BED808380E380838DEA8083108222
:100F500084EA808386EA80838FEA80830E94770711
:100F600008950E94770760E080E00E945D078EEBA5
:100F700092E00E94AE0660E082E00E945D078FEC86
:100F800092E00E94AE0660E083E00E945D078AED79
:100F900092E00E94AE0660E084E00E945D078DEE64
:100FA00092E00E94AE0660E085E00E945D0784EF5B
:100FB00092E00E94AE0660E086E00E945D0783E05A
:100FC00093E00E94AE0660E082E00E945D0781E34C
:100FD0000E943407089582E00E944906882319F090
:100FE0000E941F05089585E00895EF92FF920F93E8
:100FF0001F93CF93DF93082FF62ED1E0C0E0EE24AD
:10100000EA94E60E11E001C0D12F0E94EB0788237D
:10101000D9F3DD23D1F3833009F118F48230B9F12B
:10102000F4CF843019F0853091F1EFCF60E08C2F50
:10103000800F0E945D0781E38C0F0E949C06CF5FAA
:10104000CF1101C0C0E060E08C2F800F0E945D07CF
:1010500081E38C0F0E943407D0E0D7CF60E08C2F63
:10106000800F0E945D0781E38C0F0E949C06C111D6
:1010700002C0CE2D01C0C15060E08C2F800F0E94B5
:101080005D0781E38C0F0E943407D0E0BECF8C2F28
:10109000DF91CF911F910F91FF90EF9008950E94E3
:1010A0007707FFCF1F93CF93DF930E94770760E00E
:1010B00080E00E945D078CED92E00E94AE0660E049
:1010C00081E00E945D07C0E0D1E013E060E0812F85
:1010D0000E945D078EE2810F0E949C0680E20E94C2
:1010E0009C06899199910E94AE061F5F183071F796
:1010F000DF91CF911F910895CF93DF930E94520803
:10110000C5E7D0E303C0CE010197F1F70E94EB07DA
:101110008111F9CF65E083E00E94F507C82F0E9496
:10112000770761E081E00E945D078AE093E00E941A
:10113000AE0660E082E00E945D0787E193E00E94D6
:10114000AE0660E084E00E945D07EC2FF0E0EE0F59
:10115000FF1FE050FF4F808191810E94AE0680E327
:1011600095E72CE730E0F9013197F1F70197009707
:10117000D1F70E94BE08DF91CF9108950E94B10778
:1011800065E082E00E94F507823089F028F4882328
:1011900041F0813049F00895833061F0843069F086
:1011A00008950E94200908950E947C0808950E94D5
:1011B000600908950E94930908950E947707FFCF60
:1011C000CF93DF930E94770768E180E00E945D077C
:1011D00062E387E293E00E94BD0668E381E00E943B
:1011E0005D0764EF8FE293E00E94BD0664E183E057
:1011F0000E945D0768EC82E393E00E94BD0660E018
:1012000087E00E945D0788E99AE32CE730E0F90166
:101210003197F1F701970097D1F78EE393E00E94A1
:10122000AE06C5E7D0E303C0CE010197F1F70E94F7
:10123000EB078823C9F30E94BE08DF91CF91089580
:101240000E94770760E080E00E945D078DE493E0F4
:101250000E94AE0660E082E00E945D078AE593E0AE
:101260000E94AE0668E682E00E945D0780910A0156
:10127000805D0E949C060E94EB078330B9F018F451
:10128000813029F0EFCF843039F0853059F70E9452
:10129000BE0880910A01089580910A01823010F3FE
:1012A00080910A01815080930A01DCCF80910A016C
:1012B0008930C0F680910A018F5F80930A01D2CFF6
:1012C0000E94770760E080E00E945D0788E693E077
:1012D0000E94AE0660E082E00E945D0789E793E02D
:1012E0000E94AE0660E083E00E945D0710E10F2ED1
:1012F000F0EDFF2EF02D07E0CCE7D0E08BE993E096
:101300000E94AE068F2D902FFE013197F1F70197C5
:101310000097D1F7115091F70E94EB078130E1F768
:101320000E94BE08F9CF0E94770760E080E00E942B
:101330005D0786EF92E00E94AE0660E082E00E94C8
:101340005D0781E893E00E94AE0660E083E00E94C2
:101350005D078DE893E00E94AE060E94EB078130A6
:10136000E1F70E94BE08F9CF97FB072E16F4009410
:1013700007D077FD09D00E94C80907FC05D03EF4CC
:10138000909581959F4F0895709561957F4F089531
:10139000AA1BBB1B51E107C0AA1FBB1FA617B7079B
:1013A00010F0A61BB70B881F991F5A95A9F78095B7
:1013B0009095BC01CD0108958DD158F080E891E061
:1013C00009F49EEF8ED128F040E851E059F45EEF29
:1013D00009C058C1C0C1E92FE0789BD168F3092E3C
:1013E000052AC1F3261737074807590738F00E2E8C
:1013F00007F8E02569F0E025E0640AC0EF6307F82C
:10140000009407FADB01B9019D01DC01CA01AD01BD
:10141000EF9347D06DD10AD05F91552331F02BED7A
:101420003FE049E450FD49EC51C20895DF93DD27C8
:10143000B92FBF7740E85FE31616170648075B072A
:1014400010F4D92F93D19F938F937F936F933AD2B8
:10145000E0E7F0E01AD14CD12F913F914F915F918D
:1014600098D1DD2349F09058A2EA2AED3FE049ECFB
:101470005FE3D0785D273BD2DF913AC1D9D008F441
:1014800081E008950CD034C12CD140F023D130F04C
:1014900021F45F3F19F0F0C051115EC1F3C039D1A2
:1014A00098F39923C9F35523B1F3951B550BBB272B
:1014B000AA2762177307840738F09F5F5F4F220FD8
:1014C000331F441FAA1FA9F333D00E2E3AF0E0E8D1
:1014D00030D091505040E695001CCAF729D0FE2F1D
:1014E00027D0660F771F881FBB1F261737074807AF
:1014F000AB07B0E809F0BB0B802DBF01FF27935865
:101500005F4F2AF09E3F510568F0B6C025C15F3F8E
:10151000ECF3983EDCF3869577956795B795F7954C
:101520009F5FC9F7880F911D9695879597F9089544
:10153000E1E0660F771F881FBB1F621773078407E0
:10154000BA0720F0621B730B840BBA0BEE1F88F7EF
:10155000E095089504D06894B111FEC00895E1D0DB
:1015600088F09F5790F0B92F9927B751A0F0D1F08C
:10157000660F771F881F991F1AF0BA95C9F712C016
:10158000B13081F0E8D0B1E00895E5C0672F782F41
:101590008827B85F39F0B93FCCF386957795679582
:1015A000B395D9F73EF490958095709561957F4FEE
:1015B0008F4F9F4F0895E89409C097FB3EF4909594
:1015C0008095709561957F4F8F4F9F4F9923A9F01C
:1015D000F92F96E9BB279395F695879577956795AB
:1015E000B795F111F8CFFAF4BB0F11F460FF1BC0EF
:1015F0006F5F7F4F8F4F9F4F16C0882311F096E982
:1016000011C0772321F09EE8872F762F05C066232F
:1016100071F096E8862F70E060E02AF09A95660FE8
:10162000771F881FDAF7880F9695879597F90895A1
:10163000990F0008550FAA0BE0E8FEEF16161706E3
:10164000E807F907C0F012161306E407F50798F04B
:10165000621B730B840B950B39F40A2661F0232B64
:10166000242B252B21F408950A2609F4A140A695E0
:101670008FEF811D811D089597F99F6780E870E0C5
:1016800060E008959FEF80EC0895DF93CF931F9360
:101690000F93FF92EF92DF927B018C01689405C05B
:1016A000DA2EEF0176D0FE01E894A59125913591CF
:1016B00045915591AEF3EF011AD1FE019701A801B2
:1016C000DA9479F7DF90EF90FF900F911F91CF910F
:1016D000DF91089500240A941616170618060906C5
:1016E000089500240A941216130614060506089598
:1016F000092E0394000C11F4882352F0BB0F40F420
:10170000BF2B11F460FF04C06F5F7F4F8F4F9F4F5F
:10171000089557FD9058440F551F59F05F3F71F0E1
:101720004795880F97FB991F61F09F3F79F0879548
:101730000895121613061406551FF2CF4695F1DFD1
:1017400008C0161617061806991FF1CF8695710561
:10175000610508940895E894BB2766277727CB0195
:1017600097F9089565DF08F48FEF08959B01AC01A8
:1017700060E070E080E89FE385CE0BD0B9CFAADFB0
:1017800028F0AFDF18F0952309F076CF7BCF112436
:10179000E3CFBFDFA0F3959FD1F3950F50E0551F26
:1017A000629FF001729FBB27F00DB11D639FAA27B6
:1017B000F00DB11DAA1F649F6627B00DA11D661F05
:1017C000829F2227B00DA11D621F739FB00DA11D26
:1017D000621F839FA00D611D221F749F3327A00DE0
:1017E000611D231F849F600D211D822F762F6A2F7C
:1017F00011249F5750408AF0E1F088234AF0EE0F01
:10180000FF1FBB1F661F771F881F91505040A9F70D
:101810009E3F510570F030CF9FCF5F3FECF3983E75
:10182000DCF3869577956795B795F795E7959F5F74
:10183000C1F7FE2B880F911D9695879597F908950E
:1018400011F40EF41FCFA6C06CDFD0F39923D9F3A7
:10185000CEF39F57550B87FFABD00024A0E640EA9C
:10186000900180585695979528F4805C660F771FF5
:10187000881F20F026173707480730F4621B730BC8
:10188000840B202931294A2BA695179407942025EB
:1018900031254A2758F7660F771F881F20F0261733
:1018A0003707480730F4620B730B840B200D311D92
:1018B000411DA09581F7B901842F9158880F969505
:1018C000879508959B01AC0158CF5058BB27AA2794
:1018D0000ED00ECFFFDE30F004DF20F031F49F3F5A
:1018E00011F41EF4CFCE0EF4E095E7FBC5CEE92F40
:1018F00010DF80F3BA17620773078407950718F0A3
:1019000071F49EF528CF0EF4E0950B2EBA2FA02D82
:101910000B01B90190010C01CA01A0011124FF279C
:10192000591B99F0593F50F4503E68F11A16F04097
:10193000A22F232F342F4427585FF3CF4695379596
:101940002795A795F0405395C9F77EF41F16BA0B5B
:10195000620B730B840BBAF09150A1F0FF0FBB1F09
:10196000661F771F881FC2F70EC0BA0F621F731F52
:10197000841F48F4879577956795B795F7959E3FAF
:1019800008F0B3CF9395880F08F09927EE0F97953D
:10199000879508959F3F31F0915020F48795779572
:1019A0006795B795880F911D9695879597F9089536
:1019B00091505040660F771F881FD2F708958F927D
:1019C0009F92AF92BF92CF92DF92EF92FF92CF930E
:1019D000DF93EC01688179818A819B8161157105B2
:1019E0008105910521F464E279ED8BE597E02DE125
:1019F00033EF41E050E00E94781149015A019B0108
:101A0000AC01A7EAB1E40E9465116B017C01ACEE68
:101A1000B4EFA50194010E947311C60ED71EE81EF3
:101A2000F91EF7FE06C081E0C81AD108E10880E877
:101A3000F80AC882D982EA82FB82C6019F77DF91C9
:101A4000CF91FF90EF90DF90CF90BF90AF909F909D
:101A50008F9008950E94DF0C08958BE091E00E9422
:101A6000DF0C0895A0E0B0E080930B0190930C018F
:101A7000A0930D01B0930E0108950F931F93CF9380
:101A8000DF93EC018B01009731F46115710519F4B6
:101A900080E090E038C06EE070E081E090E00E946D
:101AA000750FFC010097A1F380E8838301151105F0
:101AB00071F01387028781E883838091C40390913A
:101AC000C503892B21F4F093C503E093C403209749
:101AD000C9F0D187C0878381826083838091C603E8
:101AE0009091C703892B71F4F093C703E093C60369
:101AF0008091C8039091C903892B21F4F093C90305
:101B0000E093C803CF01DF91CF911F910F9108950A
:101B1000A0E0B0E0EEE8FDE00C94A711FE013596E0
:101B200061917191AF018091C6039091C7030E94AA
:101B3000A30DE2E00C94C3116091C6037091C7033A
:101B40000E94D5100895ACE0B0E0E9EAFDE00C9405
:101B500097117C016B018A01FC0117821682838137
:101B600081FFBDC1CE0101964C01F7019381F601C1
:101B700093FD859193FF81916F01882309F4ABC197
:101B8000853239F493FD859193FF81916F01853200
:101B900029F4B70190E00E94D510E7CF512C312CE9
:101BA00020E02032A0F48B3269F030F4803259F01A
:101BB000833269F420612CC08D3239F0803339F4DE
:101BC000216026C02260246023C0286021C027FD38
:101BD00027C030ED380F3A3078F426FF06C0FAE01F
:101BE0005F9E300D1124532E13C08AE0389E300DB5
:101BF0001124332E20620CC08E3221F426FD6BC1DD
:101C0000206406C08C3611F4206802C0883641F486
:101C1000F60193FD859193FF81916F018111C1CFF1
:101C2000982F9F7D9554933028F40C5F1F4FFFE34E
:101C3000F9830DC0833631F0833771F0833509F0B5
:101C40005BC022C0F801808189830E5F1F4F44244E
:101C50004394512C540115C03801F2E06F0E711CF1
:101C6000F801A080B18026FF03C0652D70E002C09E
:101C70006FEF7FEFC5012C870E94CA102C018301F2
:101C80002C852F77222E17C03801F2E06F0E711CC1
:101C9000F801A080B18026FF03C0652D70E002C06E
:101CA0006FEF7FEFC5012C870E94B8102C012C85A7
:101CB0002068222E830123FC1BC0832D90E0481650
:101CC0005906B0F4B70180E290E00E94D5103A9432
:101CD000F4CFF50127FC859127FE81915F01B701C3
:101CE00090E00E94D51031103A94F1E04F1A51085B
:101CF0004114510471F7E5C0843611F0893639F585
:101D0000F80127FF07C060817181828193810C5F98
:101D10001F4F08C060817181882777FD8095982FBB
:101D20000E5F1F4F2F76B22E97FF09C090958095BA
:101D3000709561957F4F8F4F9F4F2068B22E2AE09C
:101D400030E0A4010E940711A82EA81844C08537CE
:101D500029F42F7EB22E2AE030E025C0F22FF97F41
:101D6000BF2E8F36C1F018F4883579F0B4C08037B3
:101D700019F0883721F0AFC02F2F2061B22EB4FEAA
:101D80000DC08B2D8460B82E09C024FF0AC09F2F80
:101D90009660B92E06C028E030E005C020E130E0B2
:101DA00002C020E132E0F801B7FE07C06081718116
:101DB000828193810C5F1F4F06C06081718180E03A
:101DC00090E00E5F1F4FA4010E940711A82EA818D3
:101DD000FB2DFF77BF2EB6FE0BC02B2D2E7FA5143B
:101DE00050F4B4FE0AC0B2FC08C02B2D2E7E05C0F4
:101DF0007A2C2B2D03C07A2C01C0752C24FF0DC02A
:101E0000FE01EA0DF11D8081803311F4297E09C0A5
:101E100022FF06C07394739404C0822F867809F061
:101E2000739423FD13C020FF06C05A2C731418F4BA
:101E3000530C5718732C731468F4B70180E290E0C8
:101E40002C870E94D51073942C85F5CF731410F451
:101E5000371801C0312C24FF12C0B70180E390E095
:101E60002C870E94D5102C8522FF17C021FF03C0AC
:101E700088E590E002C088E790E0B7010CC0822FAF
:101E8000867859F021FD02C080E201C08BE227FD77
:101E90008DE2B70190E00E94D510A51438F4B70187
:101EA00080E390E00E94D5105A94F7CFAA94F401F1
:101EB000EA0DF11D8081B70190E00E94D510A110BC
:101EC000F5CF332009F451CEB70180E290E00E94B3
:101ED000D5103A94F6CFF7018681978102C08FEF33
:101EE0009FEF2C96E2E10C94B3110F931F93CF93C5
:101EF000DF93869F8001879F100D969F100D112400
:101F0000C8010E94910FEC01009729F0A80160E040
:101F100070E00E94C310CE01DF91CF911F910F910D
:101F20000895CF93DF938230910510F482E090E022
:101F3000E091CC03F091CD0320E030E0A0E0B0E0F0
:101F4000309739F14081518148175907B8F0481747
:101F5000590771F482819381109729F013969C930D
:101F60008E9312972CC09093CD038093CC0327C0FF
:101F70002115310531F04217530718F0A901DB0193
:101F800001C0EF019A01BD01DF010280F381E02D64
:101F9000D7CF21153105F9F0281B390B2430310535
:101FA00080F48A819B816115710521F0FB01938387
:101FB000828304C09093CD038093CC03FE013296BC
:101FC00044C0FE01E20FF31F819391932250310927
:101FD000398328833AC02091CA033091CB03232B45
:101FE00041F420911101309112013093CB032093E1
:101FF000CA0320910F01309110012115310541F4E0
:102000002DB73EB74091130150911401241B350B9D
:10201000E091CA03F091CB03E217F307A0F42E1B63
:102020003F0B2817390778F0AC014E5F5F4F24173C
:10203000350748F04E0F5F1F5093CB034093CA0300
:102040008193919302C0E0E0F0E0CF01DF91CF9166
:102050000895CF93DF93009709F487C0FC0132976E
:1020600013821282C091CC03D091CD03209781F4CA
:1020700020813181280F391F8091CA039091CB03B1
:102080008217930779F5F093CB03E093CA036DC0F1
:10209000DE0120E030E0AE17BF0750F412964D91FC
:1020A0005C9113979D014115510509F1DA01F3CFB8
:1020B000B383A28340815181840F951F8A179B07A8
:1020C00071F48D919C911197840F951F02969183C5
:1020D000808312968D919C9113979383828321150F
:1020E000310529F4F093CD03E093CC033EC0D90130
:1020F0001396FC93EE9312974D915D91A40FB51F2B
:10210000EA17FB0779F480819181840F951F02966D
:10211000D90111969C938E938281938113969C93FF
:102120008E931297E0E0F0E08A819B81009719F08E
:10213000FE01EC01F9CFCE01029628813981820F90
:10214000931F2091CA033091CB032817390769F4F4
:10215000309729F41092CD031092CC0302C0138261
:102160001282D093CB03C093CA03DF91CF9108951D
:10217000FC010590615070400110D8F78095909552
:102180008E0F9F1F0895DC0101C06D934150504098
:10219000E0F70895FC016150704001900110D8F7FC
:1021A000809590958E0F9F1F08950F931F93CF9347
:1021B000DF93182F092FEB018B8181FD03C08FEF77
:1021C0009FEF20C082FF10C04E815F812C813D8136
:1021D000421753077CF4E881F9819F012F5F3F4F3D
:1021E00039832883108306C0E885F985812F0995F6
:1021F000892B29F72E813F812F5F3F4F3F832E830D
:10220000812F902FDF91CF911F910F910895FA01A7
:10221000AA27283051F1203181F1E8946F936E7F25
:102220006E5F7F4F8F4F9F4FAF4FB1E03ED0B4E016
:102230003CD0670F781F891F9A1FA11D680F791F57
:102240008A1F911DA11D6A0F711D811D911DA11D68
:1022500020D009F468943F912AE0269F1124301978
:10226000305D3193DEF6CF010895462F4770405D13
:102270004193B3E00FD0C9F7F6CF462F4F70405DC2
:102280004A3318F0495D31FD4052419302D0A9F71D
:10229000EACFB4E0A6959795879577956795BA9517
:1022A000C9F700976105710508959B01AC010A2EDD
:1022B00006945795479537952795BA95C9F7620FB4
:1022C000731F841F951FA01D08950E94CE11A59F06
:1022D000900DB49F900DA49F800D911D1124089521
:1022E000B7FF0C9465110E946511821B930B089532
:1022F000052E97FB1EF400940E948F1157FD07D006
:102300000E94DD1107FC03D04EF40C948F11509500
:102310004095309521953F4F4F4F5F4F08959095D1
:102320008095709561957F4F8F4F9F4F08952F92A5
:102330003F924F925F926F927F928F929F92AF9255
:10234000BF92CF92DF92EF92FF920F931F93CF93A2
:10235000DF93CDB7DEB7CA1BDB0B0FB6F894DEBF39
:102360000FBECDBF09942A88398848885F846E845F
:102370007D848C849B84AA84B984C884DF80EE80A9
:10238000FD800C811B81AA81B981CE0FD11D0FB6B2
:10239000F894DEBF0FBECDBFED010895A29FB0013E
:1023A000B39FC001A39F700D811D1124911DB29F89
:1023B000700D811D1124911D0895A1E21A2EAA1BF2
:1023C000BB1BFD010DC0AA1FBB1FEE1FFF1FA217E5
:1023D000B307E407F50720F0A21BB30BE40BF50BE2
:1023E000661F771F881F991F1A9469F7609570956B
:1023F000809590959B01AC01BD01CF010895F894A3
:02240000FFCF0C
:102402009D03A303A903AF03B7030101000000006A
:1024120000CE03200057726974652070686173658D
:10242200206572726F723A206578745F72616D5BBB
:102432002534645D203D2025303258202873686F92
:10244200756C642062652025303258290A00526575
:102452007472696576616C2070686173652065725B
:10246200726F723A206578745F72616D5B253464B5
:102472005D203D2025303258202873686F756C64CA
:102482002062652025303258290A005352414D20DE
:102492007465737420636F6D706C65746564207706
:1024A200697468200A09253464206572726F727338
:1024B20020696E2077726974652070686173652087
:1024C200616E64200A253464206572726F72732013
:1024D200696E2072657472696576616C20706861DC
:1024E20073650A0A0059203A2025753B2058203A84
:1024F200202564092000583A2025642025252C2017
:10250200593A202564202525202C20616E676C65B0
:102512003A2025642009004D41473A2025640900EC
:10252200444952454354494F4E3A2025640A0D000E
:10253200736C69646572204C203A2025642009007E
:10254200736C696465722052203A20256420090068
:10255200427574746F6E206C6566743A2025640946
:102562002C20627574746F6E2072696768743A20E9
:1025720025640920627574746F6E206A6F797374B2
:1025820069636B3A202564200A0D006F66667365E5
:102592007473203A20782C79203A202564203B203D
:1025A20025640A0A006572726F722C20756E6B6E5A
:1025B2006F776E20646972656374696F6E00205074
:1025C200494E472D504F4E47204D656E75200031C4
:1025D2002053657474696E677300322043686F6FAD
:1025E20073652063686172616374657200332050A1
:1025F2006C61790034204C656164657220426F61C0
:1026020072640035205175697400476F6F642063EE
:10261200686F6963653A00596F7520686176652055
:1026220063686F73656E0057656C636F6D65005408
:102632006F0050494E47202D20504F4E4700546F97
:10264200756368204A6F79737469636B00536574AC
:1026520074696E67207061676500646966666963A4
:10266200756C7479203F20002050494E472D504F01
:102672004E472067616D6520004C6F6164696E672B
:10268200003120415A45525459203C3300322053E4
:102692007475642E206173736973742E004D6172B8
:1026A200696F005065616368004C75696779004223
:0E26B200726F7773657200696E616B6900006C
:00000001FF
