:100000000C94D5000C94F6000C94F6000C94F600B9
:100010000C94F6000C94F6000C94F6000C94F60088
:100020000C94F6000C94F6000C94F6000C94F60078
:100030000C94F6000C94F6000C94F6000C94F60068
:100040000C94F6000C94F6000C94F6000C94F60058
:100050000C94F6000C94F6000C94F6000C94F60048
:100060000C94F6000C94F6000C94F6000C94F60038
:100070000C94F6000C94F6000C94F6000C94F60028
:100080000C94F6000C94F6000C94F6000C94F60018
:100090000C94F6000C94F6000C94F6000C948F046B
:1000A0000C94F6000C94F6000C94F6000C94F600F8
:1000B0000C94F6000C94F6000C94F6000C94F600E8
:1000C0000C94F6000C94F6000C94F6000C94F600D8
:1000D0000C94F6000C94F6000C94F6000C94F600C8
:1000E0000C94F600AE0400050005000500050005AF
:1000F00000050005AE04000500050005000500052B
:1001000000050005B0040005000500050005000518
:1001100000050005000500050005000500050005B7
:1001200000050005B00400050005000500050005F8
:100130000005000500050005000500050005000597
:1001400000050005FC04000500050005000500058C
:1001500000050005D904000500050005000500059F
:100160000005000500050005000500050005000567
:1001700000050005CD04000500050005000500058B
:1001800000050005EB040C94B0040C94D9040C9405
:10019000EB040C94E3010C94CD040C9400050C9436
:1001A000AE040C94EB010C94FC0411241FBECFEFA1
:1001B000D1E2DEBFCDBF00E00CBF13E0A0E0B2E0B3
:1001C000EEE3F6E100E00BBF02C007900D92AE39FE
:1001D000B107D9F723E0AEE9B3E001C01D92A03B1F
:1001E000B207E1F70E9414010C941D0B0C9400005F
:1001F000E2E0F1E080818FEF8083E0E0F1E0808356
:100200002FEF35EB95E3215030409040E1F700C0EF
:10021000000010822FEF35EB95E3215030409040E5
:10022000E1F700C00000EBCFCF93DF93CDB7DEB78F
:1002300067970FB6F894DEBF0FBECDBF8FEF84B9BE
:100240002E9A87E690E00E94D8016BEE71E083EE73
:1002500091E00E9497068DE192E09F938F930E9418
:10026000E20680E090E00E9490020E9496030E94C5
:1002700010040E9416050E9499059E012F5F3F4FB2
:1002800040E050E062E070E084E090E00E94AB0566
:100290000F900F900F2EF8E26F2EF02D0F2EF3E23D
:1002A0008F2EF2E09F2EF02D0F2EF4E4AF2EF2E011
:1002B000BF2EF02D0F2EF0E3CF2EF2E0DF2EF02D2B
:1002C0000F2EF0E6EF2EF2E0FF2EF02D7724739440
:1002D000CE0143960E94DB028B899C89863691056C
:1002E00061F08736910521F08436910539F514C007
:1002F0008E899F890E94CD0327C00E89069D8001AB
:1003000011241F930F939F928F920E94E2060F90E9
:100310000F900F900F9018C0DF92CF920E94E206CC
:100320002E982FEF81EE94E0215080409040E1F72D
:1003300000C000002E9A0F900F9006C0BF92AF929F
:100340000E94E2060F900F900E94F903843F9140B3
:10035000C0F480919E03811107C0809100028150FA
:100360008093000270929E03809100021F928F93EF
:10037000FF92EF920E94E2060F900F900F900F9065
:1003800002C010929E030E946B0566277727681BA8
:10039000790BAE014F5F5F4FC8010E94C1050E94FB
:1003A00041058FE39CE90197F1F700C0000090CF71
:1003B0009093C5008093C40088E18093C1008EE0D3
:1003C0008093C2000895E0ECF0E0908195FFFDCFAE
:1003D0008093C60008958091C000882324F0809106
:1003E000C60090E008958091C60090E0089584B121
:1003F000876884B9239881E58CBD08950E94F70130
:1004000008958EBD0DB407FC07C081E28A95F1F70F
:1004100000000DB407FEF9CF089588E084B980E4A8
:100420008CBD08958FEF8EBD0DB407FEFDCF8EB548
:100430000895CF93C82F2F9883E00E9401028C2F3C
:100440000E9401020E9412022F9ACF910895CF9329
:10045000DF93D82FC62F2F9882E00E9401028D2FA4
:100460000E9401028C2F0E9401022F9ADF91CF91EE
:1004700008952F980E9401022F9A08951F93CF93F9
:10048000DF93182FD62FC42F2F9885E00E940102EA
:10049000812F0E9401028D2F0E9401028C2F0E9449
:1004A0000102DF91CF911F9108952F9880EC0E9457
:1004B00001022F9A0895CF93DF93EC010E94F70178
:1004C0000E9455026C2F8FE00E94270284EA8A95D1
:1004D000F1F78EE00E941902807E282F30E02C1761
:1004E0003D0751F085E892E09F938F930E94E206CA
:1004F0000F900F9081E009C085EB92E09F938F935E
:100500000E94E2060F900F9080E0DF91CF91089556
:100510002F9880EA0E9401020E9412022F9A0895E9
:100520000E945B02089580E30E94190280E30E940A
:10053000190280E0089580E00E94190291E0811183
:1005400090E0892F08950F931F93CF938C010E9401
:100550009B02882361F1F80160817181769567952E
:10056000769567957695679581E30E942702F80155
:1005700060816295660F607E82E30E942702F80127
:1005800062816F7085E30E942702F80182818823CF
:1005900059F0C0E0F801638186E30E942702CF5F33
:1005A000F8018281C817B0F381E80E943902CF9127
:1005B0001F910F9108950F931F93CF93DF938C0199
:1005C00061E08BE20E9427028CE20E941902C82F90
:1005D00080FF2EC081E60E941902D82F82E60E9479
:1005E0001902282F30E035952795359527953595B3
:1005F00027953595279535952795C90148E0D49FCE
:10060000800D911D1124F8019183808385E60E945D
:1006100019028F70F801828386E60E94190290E029
:10062000F801948383836FEF6C0F8CE20E942702A2
:10063000C1FF2DC081E70E941902D82F82E70E94D6
:100640001902282F30E03595279535952795359552
:1006500027953595279535952795F8E0DF9F200D4F
:10066000311D1124F8013183208385E70E9419028E
:100670008F70F801828386E70E94190290E0F801EA
:10068000948383836EEF6C0F8CE20E942702DF91CC
:10069000CF911F910F910895CF93DF93EC01898142
:1006A0008F9388818F938BEC92E09F938F930E941E
:1006B000E20688819981845691090F900F900F90DE
:1006C0000F908730910508F5880F991FFC01E85FAE
:1006D000FD4F81818F9380818F938AED92E09F936C
:1006E0008F930E94E206E881F981E356FE4F208154
:1006F0008B819C8130E8239F8019910911249C8370
:100700008B830F900F900F900F908C818F938B8124
:100710008F938DED92E09F938F930E94E2060F904E
:100720000F900F900F90DF91CF910895E0E8F0E0E7
:1007300080818260808380818E7F8083A1E8B0E0A9
:100740008C9188618C938C918B7F8C938C9182603F
:100750008C938C918E7F8C93259A80818068808386
:1007600080818F7B80838CE98093870080E48093F5
:1007700086008CE393E00E94F6060895863408F420
:1007800086E4893C08F088EC24E1829FC0011124B2
:10079000909389008093880008959C012C593F4FC5
:1007A0004DE0429FC001439F900D112464E170E031
:1007B0000E94670686E4860F0E94BE03089508958E
:1007C00008950E94100408950F931F93CF93C4E0DF
:1007D00000E010E00E94F903080F191FC150D1F783
:1007E000C8019695879596958795CF911F910F9102
:1007F0000895ECE7F0E0808184608083EAE7F0E030
:1008000080818064808380818823E9F3209178004F
:100810008091790090E0982F8827820F911D08958C
:1008200010BAEAE7F0E08081806880838081876089
:100830008083ECE7F0E08081806480838081806841
:1008400080830E94F90308958CE08093B8008FEFB5
:100850008093BB0084E08093BC0008958091BC002D
:1008600081700895ECEBF0E0808180FDFDCF8091F8
:1008700016020895CF93DF93EC01ECEBF0E090814A
:1008800090FDFDCF6093A10398819093A20390FD0A
:1008900013C0623088F0FE013196A3EAB3E06250E3
:1008A000262F30E02E5F3F4FCE01820F931F219104
:1008B0002D93E817F907D9F710929F0388EF8093DB
:1008C000160285EA8093BC00DF91CF910895ECEB8E
:1008D000F0E0808180FDFDCF10929F0388EF809330
:1008E000160285EA8093BC000895ECEBF0E02081CD
:1008F00020FDFDCF20919F0320FF0DC0662359F0FE
:1009000022EA33E0A82FB92FF90181918D938E2F20
:10091000821B8617D0F380919F03817008951F92E8
:100920000F920FB60F9211240BB60F922F933F9395
:100930008F939F93AF93BF93EF93FF93E091B90091
:100940008E2F90E0FC013897E135F10508F058C092
:100950008827EE58FF4F8F4F0C947B061092A00310
:10096000E091A0038091A103E81770F481E08E0F5D
:100970008093A003F0E0EE55FC4F80818093BB0094
:1009800085E88093BC0043C080919F038160809381
:100990009F0384E98093BC003AC0E091A00381E00A
:1009A0008E0F8093A0038091BB00F0E0EE55FC4FCA
:1009B00080832091A00330E08091A10390E0019713
:1009C0002817390724F485EC8093BC0020C085E803
:1009D0008093BC001CC08091BB00E091A003F0E0BC
:1009E000EE55FC4F808380919F03816080939F032D
:1009F00084E98093BC000BC085EA8093BC0007C0EB
:100A00008091B9008093160284E08093BC00FF912E
:100A1000EF91BF91AF919F918F913F912F910F9047
:100A20000BBE0F900FBE0F901F9018950E942404CC
:100A300078948FEF8093010110920701E2E0F1E0DA
:100A40008081806180838081806480838FEE90E0EC
:100A50000197F1F700C0000080818F7B80838FEECB
:100A600090E00197F1F700C00000808180648083EE
:100A70008BE493E09F938F930E94E2060F900F9078
:100A80000895CF93DF9300D0CDB7DEB7882334F439
:100A9000E2E0F1E090819260908305C0E2E0F1E055
:100AA00090819D7F90839EE599831A82082E000C89
:100AB000990B99231CF4919581959109880F8B834B
:100AC00063E0CE0101960E943A040F900F900F90C0
:100AD000DF91CF910895E2E0F1E080818F7D808306
:100AE0008081877F80838AE68A95F1F700C0A6E03F
:100AF000B1E08C919081986090839AE69A95F1F795
:100B000000C02C91908190629083082E000C990B6C
:100B1000982F8827822B0895E2E0F1E080818F7B77
:100B200080838AE68A95F1F700C0808180648083A3
:100B300008958EEC0E9441052FEF87EA91E621503F
:100B400080409040E1F700C000000E948C0580E0EA
:100B50000E9441050895F9011282138214821582C0
:100B600011821082978386837187608753874287BB
:100B70008DE593E09F938F930E94E2060F900F9074
:100B80000895CF92DF92EF92FF92CF939B01DA010B
:100B9000FC01E61BF70B18968D919C911997E89F25
:100BA0006001E99FD00CF89FD00C11240D2C000C93
:100BB000EE08FF0812964D915D916D917C9115970D
:100BC000C40ED51EE61EF71E81E0C81684E1D806C5
:100BD000E104F1043CF00F2EC12CF4E1DF2EE12CF6
:100BE000F12CF02DC1149CEED9069FEFE906F90611
:100BF00044F40F2EC12CFCEEDF2EEE24EA94FE2CE2
:100C0000F02D1296CD92DD92ED92FC9215971696EC
:100C10008D919C911797E89FA001E99F500DF89F37
:100C2000500D1124052E000C660B770B4C0D5D1D2D
:100C30006E1D7F1DDB01CA01772324F481509E4F76
:100C4000AF4FBF4F072E79E0B595A795979587953C
:100C50007A95D1F7702DC82F803809F4C1E88C2F10
:100C60000C2E000C990B9F93CF93B701A601FF2088
:100C700024F441505E4F6F4F7F4F032E39E075953E
:100C80006795579547953A95D1F7302D5F934F93D8
:100C9000FF93EF933F932F938DE693E09F938F9372
:100CA0000E94E2068DB79EB70A960FB6F8949EBFD3
:100CB0000FBE8DBF8C2FCF91FF90EF90DF90CF9024
:100CC0000895FC011282138214821582089597FB05
:100CD000072E16F4009407D077FD09D00E948306F2
:100CE00007FC05D03EF4909581959F4F089570952F
:100CF00061957F4F0895EE0FFF1F881F8BBF0790F0
:100D0000F691E02D1994AA1BBB1B51E107C0AA1F45
:100D1000BB1FA617B70710F0A61BB70B881F991F9C
:100D20005A95A9F780959095BC01CD0108950F9330
:100D30001F93CF93DF93009731F46115710519F478
:100D400080E090E03AC08B01EC016EE070E081E061
:100D500090E00E942109FC01892B91F380E88383B4
:100D60000115110571F01387028781E88383809153
:100D7000A6039091A703892B21F4F093A703E09396
:100D8000A6032097C9F0D187C087838182608383BF
:100D90008091A8039091A903892B71F4F093A90382
:100DA000E093A8038091AA039091AB03892B21F4CF
:100DB000F093AB03E093AA03CF01DF91CF911F9192
:100DC0000F910895CF93DF93CDB7DEB7AE014A5FA1
:100DD0005F4FFA0161917191AF018091A8039091E9
:100DE000A9030E942607DF91CF9108950F931F93C7
:100DF000CF93DF93E091A803F091A903238121FF12
:100E00001BC08C01D0E0C0E0F80181918F0160919E
:100E1000A8037091A903DB011896ED91FC91199735
:100E2000882331F01995892B79F3DFEFCFEFECCFE1
:100E30008AE01995892B19F08FEF9FEF02C08D2F53
:100E40009C2FDF91CF911F910F9108952F923F9288
:100E50004F925F926F927F928F929F92AF92BF92CA
:100E6000CF92DF92EF92FF920F931F93CF93DF9376
:100E7000CDB7DEB72C970FB6F894DEBF0FBECDBF4F
:100E80007C016B018A01FC0117821682838181FF3C
:100E9000BDC1CE0101964C01F7019381F60193FD8E
:100EA000859193FF81916F01882309F4ABC185324D
:100EB00039F493FD859193FF81916F01853229F477
:100EC000B70190E00E94870AE7CF512C312C20E037
:100ED0002032A0F48B3269F030F4803259F0833242
:100EE00069F420612CC08D3239F0803339F42160EF
:100EF00026C02260246023C0286021C027FD27C0AF
:100F000030ED380F3A3078F426FF06C0FAE05F9EE5
:100F1000300D1124532E13C08AE0389E300D112459
:100F2000332E20620CC08E3221F426FD6BC120646A
:100F300006C08C3611F4206802C0883641F4F601F0
:100F400093FD859193FF81916F018111C1CF982FFE
:100F50009F7D9554933028F40C5F1F4FFFE3F98376
:100F60000DC0833631F0833771F0833509F05BC0F3
:100F700022C0F801808189830E5F1F4F442443946F
:100F8000512C540115C03801F2E06F0E711CF801AC
:100F9000A080B18026FF03C0652D70E002C06FEF16
:100FA0007FEFC5012C870E947C0A2C0183012C85D0
:100FB0002F77222E17C03801F2E06F0E711CF80156
:100FC000A080B18026FF03C0652D70E002C06FEFE6
:100FD0007FEFC5012C870E946A0A2C012C852068AE
:100FE000222E830123FC1BC0832D90E04816590656
:100FF000B0F4B70180E290E00E94870A3A94F4CFFF
:10100000F50127FC859127FE81915F01B70190E0F2
:101010000E94870A31103A94F1E04F1A51084114A6
:10102000510471F7E5C0843611F0893639F5F801BD
:1010300027FF07C060817181828193810C5F1F4F00
:1010400008C060817181072E000C880B990B0E5F20
:101050001F4F2F76722E97FF09C09095809570953F
:1010600061957F4F8F4F9F4F2068722E2AE030E0AE
:10107000A4010E94BF0AA82EA81844C0853729F4ED
:101080002F7EB22E2AE030E025C0F22FF97FBF2E4E
:101090008F36C1F018F4883579F0B4C0803719F074
:1010A000883721F0AFC02F2F2061B22EB4FE0DC0C3
:1010B0008B2D8460B82E09C024FF0AC09F2F966034
:1010C000B92E06C028E030E005C020E130E002C0C3
:1010D00020E132E0F801B7FE07C0608171818281B2
:1010E00093810C5F1F4F06C06081718180E090E0AA
:1010F0000E5F1F4FA4010E94BF0AA82EA818FB2D47
:10110000FF777F2E76FE0BC0372D3E7FA51450F45F
:1011100074FE0AC072FC08C0372D3E7E05C0BA2C92
:10112000372D03C0BA2C01C0B52C34FF0DC0FE0111
:10113000EA0DF11D8081803311F4397E09C032FF40
:1011400006C0B394B39404C0832F867809F0B39497
:1011500033FD13C030FF06C05A2CB31418F4530CDF
:101160005B18B32CB31468F4B70180E290E03C87BD
:101170000E94870AB3943C85F5CFB31410F43B1852
:1011800001C0312C34FF12C0B70180E390E03C87EE
:101190000E94870A3C8532FF17C031FD03C088E7F3
:1011A00090E002C088E590E0B7010CC0832F8678FC
:1011B00059F031FF02C08BE201C080E237FD8DE2C1
:1011C000B70190E00E94870AA51438F4B70180E3C4
:1011D00090E00E94870A5A94F7CFAA94F401EA0D8E
:1011E000F11D8081B70190E00E94870AA110F5CF20
:1011F000332009F451CEB70180E290E00E94870AC3
:101200003A94F6CFF7018681978102C08FEF9FEF66
:101210002C960FB6F894DEBF0FBECDBFDF91CF91F5
:101220001F910F91FF90EF90DF90CF90BF90AF9004
:101230009F908F907F906F905F904F903F902F90F6
:1012400008950F931F93CF93DF93869F8001879F0D
:10125000100D969F100D1124C8010E943D09EC014C
:10126000009729F0A80160E070E00E94750ACE01A5
:10127000DF91CF911F910F910895CF93DF9382302B
:10128000910510F482E090E0E091AE03F091AF039D
:1012900020E030E0C0E0D0E0309711F14081518192
:1012A00048175907C0F04817590761F482819381A4
:1012B000209719F09B838A832BC09093AF03809370
:1012C000AE0326C02115310519F04217530718F453
:1012D0009A01BE01DF01EF010280F381E02DDCCF36
:1012E0002115310509F1281B390B2430310590F403
:1012F00012968D919C9113976115710521F0FB0158
:101300009383828304C09093AF038093AE03FD0167
:10131000329644C0FD01E20FF31F81939193225056
:1013200031092D933C933AC02091AC033091AD0329
:10133000232B41F42091190230911A023093AD030E
:101340002093AC032091170230911802211531052A
:1013500041F42DB73EB740911B0250911C02241B53
:10136000350BE091AC03F091AD03E217F307A0F465
:101370002E1B3F0B2817390778F0AC014E5F5F4FEB
:101380002417350748F04E0F5F1F5093AD0340936D
:10139000AC038193919302C0E0E0F0E0CF01DF91D4
:1013A000CF9108950F931F93CF93DF93009709F484
:1013B0008CC0FC013297138212820091AE0310910F
:1013C000AF030115110581F420813181820F931F34
:1013D0002091AC033091AD032817390779F5F093CC
:1013E000AD03E093AC0371C0D80140E050E0AE170C
:1013F000BF0750F412962D913C911397AD01211522
:10140000310509F1D901F3CF9D01DA01338322833C
:1014100060817181860F971F8217930769F4EC0131
:1014200028813981260F371F2E5F3F4F318320835C
:101430008A819B8193838283452B29F4F093AF03A8
:10144000E093AE0342C01396FC93EE931297ED0126
:10145000499159919E01240F351FE217F30771F44A
:1014600080819181840F951F029611969C938E9393
:101470008281938113969C938E931297E0E0F0E023
:10148000D80112968D919C911397009719F0F8014D
:101490008C01F6CF8D919C9198012E5F3F4F820F6A
:1014A000931F2091AC033091AD032817390769F4DD
:1014B000309729F41092AF031092AE0302C013824A
:1014C00012821093AD030093AC03DF91CF911F9173
:1014D0000F910895FC010590615070400110D8F7FC
:1014E000809590958E0F9F1F0895DC0101C06D932C
:1014F00041505040E0F70895FC0161507040019068
:101500000110D8F7809590958E0F9F1F08950F9327
:101510001F93CF93DF93FB01238121FD03C08FEF46
:101520009FEF28C022FF16C0468157812481358154
:101530004217530744F4A081B1819D012F5F3F4FB3
:10154000318320838C93268137812F5F3F4F3783F0
:10155000268310C0EB01092F182F0084F185E02DA0
:101560001995892BE1F68E819F8101969F838E8349
:10157000812F902FDF91CF911F910F910895FA0144
:10158000AA27283051F1203181F1E8946F936E7FC2
:101590006E5F7F4F8F4F9F4FAF4FB1E03ED0B4E0B3
:1015A0003CD0670F781F891F9A1FA11D680F791FF4
:1015B0008A1F911DA11D6A0F711D811D911DA11D05
:1015C00020D009F468943F912AE0269F1124301915
:1015D000305D3193DEF6CF010895462F4770405DB0
:1015E0004193B3E00FD0C9F7F6CF462F4F70405D5F
:1015F0004A3318F0495D31FD4052419302D0A9F7BA
:10160000EACFB4E0A6959795879577956795BA95B3
:10161000C9F700976105710508959B01AC010A2E79
:1016200006945795479537952795BA95C9F7620F50
:0E163000731F841F951FA01D0895F894FFCF0F
:10163E00FA00000001010001E702EB02F7020403C9
:10164E000F031A032D03F80000B00320005354417A
:10165E00525400736C69646572203A202564090047
:10166E00746F6767656C696E6720736F6C656E6FFC
:10167E00696409006E6F20726563657074696F6EC0
:10168E00206F7220494420756E757365640A0D00D3
:10169E00596F75206C6F6F736520436C616972654D
:1016AE002C20796F752772652073636F72652069C0
:1016BE0073202564004D4350323531352069732037
:1016CE004E4F5420696E207468652063686F736591
:1016DE006E206D6F6465206166746572207265732D
:1016EE0065740A0D004D43502077656C6C20636F56
:1016FE006E666967757265640A0D004D6573736178
:10170E00676520696420256409002573006D736781
:10171E003A20256409200042544E006C6566745FC1
:10172E00736C696465720072696768745F736C6963
:10173E00646572006A6F79737469636B5F58006ACF
:10174E006F79737469636B5F59006A6F797374692B
:10175E00636B5F6D61676E6974756465006A6F793E
:10176E00737469636B5F616E676C650050574D20D3
:10177E00494E495420444F4E450D004D4F544F5243
:10178E0020494E495420444F4E450A0D000A0D5033
:10179E00494420494E495420444F4E45000A0D6598
:1017AE006E636F646572202564096572726F7220B4
:1017BE0025640973756D4572726F72202564096F09
:0E17CE00757075742050494420256409000090
:00000001FF
