:100000000C9476000C9497000C9497000C94970035
:100010000C9497000C9497000C9497000C94970004
:100020000C9497000C9497000C9497000C949700F4
:100030000C9497000C9497000C9497000C949700E4
:100040000C9497000C9497000C9497000C949700D4
:100050000C9497000C9497000C9497000C949700C4
:100060000C9497000C9497000C9497000C949700B4
:100070000C9497000C9497000C9497000C949700A4
:100080000C9497000C9497000C9497000C94970094
:100090000C9497000C9497000C9497000C94970084
:1000A0000C9497000C9497000C9497000C94970074
:1000B0000C9497000C9497000C9497000C94970064
:1000C0000C9497000C9497000C9497000C94970054
:1000D0000C9497000C9497000C9497000C94970044
:1000E0000C9497000C941F010C94270111241FBE3F
:1000F000CFEFD1E2DEBFCDBF00E00CBF13E0A0E048
:10010000B2E0E8EDFFE000E00BBF02C007900D9207
:10011000AE31B107D9F723E0AEE1B3E001C01D92E3
:10012000A932B207E1F70E9499000C94EA070C94F7
:100130000000CF93DF9300D01F921F92CDB7DEB7A0
:100140008FEF84B987E690E00E94140167E271E0C6
:100150008FE191E00E9494038CE192E09F938F9352
:100160000E94DF0380E090E00E94CD010E94DA024D
:100170000E9458030F900F900F2EF2E2EF2EF2E044
:10018000FF2EF02D02E312E00F2EF9E3CF2EF2E066
:10019000DF2EF02DBB24B394FF92EF920E94DF0379
:1001A000CE0101960E9462020F900F9089819A8180
:1001B0008736910521F48C819D810E9415030E9450
:1001C00041039F938F931F930F930E94DF030E941D
:1001D00041030F900F900F900F90843F9140C0F417
:1001E00080911E03811107C080910002815080938D
:1001F0000002B0921E03809100021F928F93DF9243
:10020000CF920E94DF030F900F900F900F9002C0CB
:1002100010921E038FEF91EE24E081509040204019
:10022000E1F700C00000B8CF9093C5008093C400F0
:1002300088E18093C1008EE08093C2000895E0ECD5
:10024000F0E0908195FFFDCF8093C60008958091E6
:10025000C000882324F08091C60090E0089580912A
:10026000C60090E0089584B1876884B9239881E539
:100270008CBD08950E94330108958EBD0DB407FC16
:1002800007C081E28A95F1F700000DB407FEF9CFAF
:10029000089588E084B980E48CBD08958FEF8EBD09
:1002A0000DB407FEFDCF8EB50895CF93C82F2F98BC
:1002B00083E00E943D018C2F0E943D010E944E016F
:1002C0002F9ACF910895CF93DF93D82FC62F2F98D1
:1002D00082E00E943D018D2F0E943D018C2F0E94E3
:1002E0003D012F9ADF91CF9108952F980E943D01F3
:1002F0002F9A08951F93CF93DF93182FD62FC42FD3
:100300002F9885E00E943D01812F0E943D018D2F95
:100310000E943D018C2F0E943D01DF91CF911F91E2
:1003200008952F9880EC0E943D012F9A0895CF9355
:10033000DF93EC010E9433010E9491016C2F8FE04A
:100340000E94630181E28A95F1F700008EE00E942D
:100350005501807E282F30E02C173D0751F08EE5A7
:1003600092E09F938F930E94DF030F900F9081E0A4
:1003700009C08EE892E09F938F930E94DF030F9055
:100380000F9080E0DF91CF9108952F9880EA0E942E
:100390003D010E944E012F9A08950E9497010895F1
:1003A00080E30E94550180E30E94550180E008959A
:1003B00080E00E94550191E0811190E0892F08951D
:1003C0000F931F93CF938C010E94D801882361F172
:1003D000F801608171817695679576956795769538
:1003E000679581E30E946301F80160816295660F61
:1003F000607E82E30E946301F80162816F7085E391
:100400000E946301F8018281882359F0C0E0F8015D
:10041000638186E30E946301CF5FF8018281C81780
:10042000B0F381E80E947501CF911F910F9108955B
:10043000CF93DF93EC0189818F9388818F9383EA37
:1004400092E09F938F930E94DF0388819981845665
:1004500091090F900F900F900F908730910508F53C
:10046000880F991FFC01E85FFD4F81818F93808188
:100470008F9382EB92E09F938F930E94DF03E8813A
:10048000F981E356FE4F20818B819C8130E8239FC8
:100490008019910911249C838B830F900F900F90EA
:1004A0000F908C818F938B818F9385EB92E09F933C
:1004B0008F930E94DF030F900F900F900F90DF91AA
:1004C000CF9108950F931F93CF93DF938C0161E039
:1004D0008BE20E9463018CE20E945501C82F80FFCD
:1004E00031C081E60E945501D82F82E60E94550155
:1004F000282F30E035952795359527953595279503
:100500003595279535952795C90148E0D49F800DED
:10051000911D1124F8019183808385E60E94550185
:100520008F70F801828386E60E94550190E0F80101
:1005300094838383C8010E9418026FEF6C0F8CE2D2
:100540000E946301C1FF31C081E70E945501D82F8D
:1005500082E70E945501282F30E035952795359583
:100560002795359527953595279535952795C90173
:10057000F8E0DF9F800D911D1124F80191838083A5
:1005800085E70E9455018F70F801828386E70E94FB
:10059000550190E0F80194838383C8010E941802FA
:1005A0006EEF6C0F8CE20E946301DF91CF911F917F
:1005B0000F910895E0E8F0E080818260808380817F
:1005C0008E7F8083A1E8B0E08C9188618C938C91C0
:1005D0008B7F8C938C9182608C938C918E7F8C938B
:1005E000259A80818068808380818F7B80838CE9DD
:1005F0008093870080E48093860084E193E09F935A
:100600008F930E94DF030F900F900895863408F4B3
:1006100086E4893C08F088EC24E1829FC001112423
:10062000909389008093880008959C012C593F4F36
:100630004DE0429FC001439F900D112464E170E0A2
:100640000E946C0386E4860F0E94060308950895B5
:1006500008950E94580308950F931F93CF93C4E009
:1006600000E010E00E944103080F191FC150D1F7AC
:10067000C8019695879596958795CF911F910F9173
:100680000895ECE7F0E0808184608083EAE7F0E0A1
:1006900080818064808380818823E9F320917800C1
:1006A0008091790090E0982F8827820F911D0895FE
:1006B00010BAEAE7F0E080818068808380818760FB
:1006C0008083ECE7F0E080818064808380818068B3
:1006D00080830E944103089597FB072E16F400942F
:1006E00007D077FD09D00E94800307FC05D03EF4B7
:1006F000909581959F4F0895709561957F4F0895CE
:10070000AA1BBB1B51E107C0AA1FBB1FA617B70737
:1007100010F0A61BB70B881F991F5A95A9F7809553
:100720009095BC01CD0108950F931F93CF93DF9354
:10073000009731F46115710519F480E090E03AC03A
:100740008B01EC016EE070E081E090E00E94EE052C
:10075000FC01892B91F380E883830115110571F069
:100760001387028781E8838380911F039091200380
:10077000892B21F4F0932003E0931F032097C9F005
:10078000D187C08783818260838380912103909188
:100790002203892B71F4F0932203E09321038091CB
:1007A000230390912403892B21F4F0932403E093F5
:1007B0002303CF01DF91CF911F910F910895CF9324
:1007C000DF93CDB7DEB7AE014A5F5F4FFA016191AB
:1007D0007191AF0180912103909122030E94F30354
:1007E000DF91CF9108952F923F924F925F926F9237
:1007F0007F928F929F92AF92BF92CF92DF92EF92B1
:10080000FF920F931F93CF93DF93CDB7DEB72C9753
:100810000FB6F894DEBF0FBECDBF7C016B018A011D
:10082000FC0117821682838181FFBDC1CE01019632
:100830004C01F7019381F60193FD859193FF81911E
:100840006F01882309F4ABC1853239F493FD85919A
:1008500093FF81916F01853229F4B70190E00E94E6
:100860005407E7CF512C312C20E02032A0F48B32FA
:1008700069F030F4803259F0833269F420612CC081
:100880008D3239F0803339F4216026C02260246033
:1008900023C0286021C027FD27C030ED380F3A3033
:1008A00078F426FF06C0FAE05F9E300D1124532E27
:1008B00013C08AE0389E300D1124332E20620CC004
:1008C0008E3221F426FD6BC1206406C08C3611F4F3
:1008D000206802C0883641F4F60193FD859193FFAC
:1008E00081916F018111C1CF982F9F7D95549330D5
:1008F00028F40C5F1F4FFFE3F9830DC0833631F0FE
:10090000833771F0833509F05BC022C0F801808124
:1009100089830E5F1F4F44244394512C540115C00A
:100920003801F2E06F0E711CF801A080B18026FF43
:1009300003C0652D70E002C06FEF7FEFC5012C870B
:100940000E9449072C0183012C852F77222E17C086
:100950003801F2E06F0E711CF801A080B18026FF13
:1009600003C0652D70E002C06FEF7FEFC5012C87DB
:100970000E9437072C012C852068222E830123FC3E
:100980001BC0832D90E048165906B0F4B70180E2F1
:1009900090E00E9454073A94F4CFF50127FC85912A
:1009A00027FE81915F01B70190E00E94540731104A
:1009B0003A94F1E04F1A51084114510471F7E5C01F
:1009C000843611F0893639F5F80127FF07C06081B8
:1009D0007181828193810C5F1F4F08C0608171819A
:1009E000072E000C880B990B0E5F1F4F2F76722E6F
:1009F00097FF09C090958095709561957F4F8F4FB7
:100A00009F4F2068722E2AE030E0A4010E948C07DC
:100A1000A82EA81844C0853729F42F7EB22E2AE0CC
:100A200030E025C0F22FF97FBF2E8F36C1F018F4C9
:100A3000883579F0B4C0803719F0883721F0AFC01D
:100A40002F2F2061B22EB4FE0DC08B2D8460B82EE6
:100A500009C024FF0AC09F2F9660B92E06C028E067
:100A600030E005C020E130E002C020E132E0F801D2
:100A7000B7FE07C060817181828193810C5F1F4F37
:100A800006C06081718180E090E00E5F1F4FA4017D
:100A90000E948C07A82EA818FB2DFF777F2E76FECC
:100AA0000BC0372D3E7FA51450F474FE0AC072FCB3
:100AB00008C0372D3E7E05C0BA2C372D03C0BA2C96
:100AC00001C0B52C34FF0DC0FE01EA0DF11D80817F
:100AD000803311F4397E09C032FF06C0B394B39459
:100AE00004C0832F867809F0B39433FD13C030FF20
:100AF00006C05A2CB31418F4530C5B18B32CB3145F
:100B000068F4B70180E290E03C870E945407B394F8
:100B10003C85F5CFB31410F43B1801C0312C34FFE1
:100B200012C0B70180E390E03C870E9454073C85E7
:100B300032FF17C031FD03C088E790E002C088E5AE
:100B400090E0B7010CC0832F867859F031FF02C0C6
:100B50008BE201C080E237FD8DE2B70190E00E9498
:100B60005407A51438F4B70180E390E00E945407BD
:100B70005A94F7CFAA94F401EA0DF11D8081B701D0
:100B800090E00E945407A110F5CF332009F451CE14
:100B9000B70180E290E00E9454073A94F6CFF70143
:100BA0008681978102C08FEF9FEF2C960FB6F89445
:100BB000DEBF0FBECDBFDF91CF911F910F91FF9090
:100BC000EF90DF90CF90BF90AF909F908F907F90ED
:100BD0006F905F904F903F902F9008950F931F93C9
:100BE000CF93DF93869F8001879F100D969F100DF6
:100BF0001124C8010E940A06EC01009729F0A801FF
:100C000060E070E00E944207CE01DF91CF911F911A
:100C10000F910895CF93DF938230910510F482E015
:100C200090E0E0912703F091280320E030E0C0E05D
:100C3000D0E0309711F14081518148175907C0F039
:100C40004817590761F482819381209719F09B839B
:100C50008A832BC0909328038093270326C02115F5
:100C6000310519F04217530718F49A01BE01DF014C
:100C7000EF010280F381E02DDCCF2115310509F170
:100C8000281B390B2430310590F412968D919C91DC
:100C900013976115710521F0FB019383828304C0D2
:100CA0009093280380932703FD01329644C0FD01F1
:100CB000E20FF31F81939193225031092D933C93BE
:100CC0003AC02091250330912603232B41F4209133
:100CD00018023091190230932603209325032091A6
:100CE0001602309117022115310541F42DB73EB798
:100CF00040911A0250911B02241B350BE0912503F1
:100D0000F0912603E217F307A0F42E1B3F0B2817E0
:100D1000390778F0AC014E5F5F4F2417350748F074
:100D20004E0F5F1F509326034093250381939193A9
:100D300002C0E0E0F0E0CF01DF91CF9108950F9382
:100D40001F93CF93DF93009709F48CC0FC01329777
:100D500013821282009127031091280301151105B7
:100D600081F420813181820F931F209125033091DE
:100D700026032817390779F5F0932603E093250316
:100D800071C0D80140E050E0AE17BF0750F4129692
:100D90002D913C911397AD012115310509F1D90130
:100DA000F3CF9D01DA013383228360817181860F45
:100DB000971F8217930769F4EC0128813981260F68
:100DC000371F2E5F3F4F318320838A819B8193831E
:100DD0008283452B29F4F0932803E093270342C034
:100DE0001396FC93EE931297ED01499159919E0150
:100DF000240F351FE217F30771F480819181840F6E
:100E0000951F029611969C938E93828193811396DF
:100E10009C938E931297E0E0F0E0D80112968D91AA
:100E20009C911397009719F0F8018C01F6CF8D91E2
:100E30009C9198012E5F3F4F820F931F20912503B5
:100E4000309126032817390769F4309729F4109256
:100E500028031092270302C01382128210932603E4
:100E600000932503DF91CF911F910F910895FC010D
:100E70000590615070400110D8F7809590958E0FC5
:100E80009F1F0895DC0101C06D9341505040E0F771
:100E90000895FC016150704001900110D8F78095D1
:100EA00090958E0F9F1F08950F931F93CF93DF93FD
:100EB000FB01238121FD03C08FEF9FEF28C022FF9C
:100EC00016C046815781248135814217530744F467
:100ED000A081B1819D012F5F3F4F318320838C938F
:100EE000268137812F5F3F4F3783268310C0EB0168
:100EF000092F182F0084F185E02D1995892BE1F633
:100F00008E819F8101969F838E83812F902FDF9109
:100F1000CF911F910F910895FA01AA27283051F11E
:100F2000203181F1E8946F936E7F6E5F7F4F8F4F1A
:100F30009F4FAF4FB1E03ED0B4E03CD0670F781F79
:100F4000891F9A1FA11D680F791F8A1F911DA11D5E
:100F50006A0F711D811D911DA11D20D009F4689497
:100F60003F912AE0269F11243019305D3193DEF63F
:100F7000CF010895462F4770405D4193B3E00FD0F5
:100F8000C9F7F6CF462F4F70405D4A3318F0495DE0
:100F900031FD4052419302D0A9F7EACFB4E0A695C3
:100FA0009795879577956795BA95C9F700976105E5
:100FB000710508959B01AC010A2E0694579547953B
:100FC00037952795BA95C9F7620F731F841F951F30
:080FD000A01D0895F894FFCF65
:100FD800FA00000001010001BF02C302CF02DC02D7
:100FE800E702F2020503000029032000535441528E
:100FF80054000A0D72656164206D657373616765DD
:10100800090061646320256400596F75206C6F6F57
:10101800736520436C616972652C20796F7527723E
:10102800652073636F7265206973202564004D43E2
:101038005032353135206973204E4F5420696E2067
:101048007468652063686F73656E206D6F646520D2
:1010580061667465722072657365740A0D00476F66
:101068006F6420636F6E66696775726174696F6E0D
:101078000A0D004D657373616765206964202564F6
:1010880009002573006D73673A2025640920004222
:10109800544E006C6566745F736C696465720072A7
:1010A800696768745F736C69646572006A6F7973E5
:1010B8007469636B5F58006A6F79737469636B5FF7
:1010C80059006A6F79737469636B5F6D61676E69E4
:1010D80074756465006A6F79737469636B5F616EB8
:0E10E800676C6500494E495420444F4E450048
:00000001FF
