:100000000C94D5000C94F6000C94F6000C94F600B9
:100010000C94F6000C94F6000C94F6000C94F60088
:100020000C94F6000C94F6000C94F6000C94F60078
:100030000C94F6000C94F6000C94F6000C94F60068
:100040000C94F6000C94F6000C94F6000C94F60058
:100050000C94F6000C94F6000C94F6000C94F60048
:100060000C94F6000C94F6000C94F6000C94F60038
:100070000C94F6000C94F6000C94F6000C94F60028
:100080000C94F6000C94F6000C94F6000C94F60018
:100090000C94F6000C94F6000C94F6000C94760484
:1000A0000C94F6000C94F6000C94F6000C94F600F8
:1000B0000C94F6000C94F6000C94F6000C94F600E8
:1000C0000C94F6000C94F6000C94F6000C94F600D8
:1000D0000C94F6000C94F6000C94F6000C94F600C8
:1000E0000C94F6009204E404E404E404E404E4045C
:1000F000E404E4049204E404E404E404E404E40412
:10010000E404E4049404E404E404E404E404E404FF
:10011000E404E404E404E404E404E404E404E4049F
:10012000E404E4049404E404E404E404E404E404DF
:10013000E404E404E404E404E404E404E404E4047F
:10014000E404E404E004E404E404E404E404E40473
:10015000E404E404BD04E404E404E404E404E40486
:10016000E404E404E404E404E404E404E404E4044F
:10017000E404E404B104E404E404E404E404E40472
:10018000E404E404CF040C9492040C94E0040C9472
:10019000E4040C9494040C94BD040C9423020C9479
:1001A000CF040C94B1040C942B0211241FBECFEF8A
:1001B000D1E2DEBFCDBF00E00CBF13E0A0E0B2E0B3
:1001C000E8EDF5E100E00BBF02C007900D92AC3CFA
:1001D000B107D9F713E0ACECB3E001C01D92AD3D1F
:1001E000B107E1F70E9414010C94EA0A0C94000094
:1001F000E2E0F1E080818FEF8083E0E0F1E0808356
:100200002FEF35EB95E3215030409040E1F700C0EF
:10021000000010822FEF35EB95E3215030409040E5
:10022000E1F700C00000EBCF2F923F924F925F9218
:100230006F927F928F929F92AF92BF92CF92DF92F6
:10024000EF92FF920F931F93CF93DF93CDB7DEB75B
:1002500060970FB6F894DEBF0FBECDBFE1EAF0E0C5
:1002600080818460808380818D7F808380818160B4
:1002700080838FEF84B92E9AE4EAF0E0A080B18009
:100280008081918187E690E00E9418026BE272E023
:1002900083E292E00E94750680E00E94CE020E94F6
:1002A0008A030E94D3030E94FA040E9487059E01DC
:1002B0002B5F3F4F40E050E062E070E084E090E070
:1002C0000E949905312C0F2EFAEF2F2EF02D0F2EB4
:1002D000F4EA8F2E912CF02D0F2EFCE1CF2EF2E0C0
:1002E000DF2EF02D0F2EF9E84F2EF2E05F2EF02DCD
:1002F000D401ED90FC9087010A191B091F930F93FD
:10030000DF92CF920E94C006CE0101960E940603A2
:100310000F900F900F900F908981843601F120F497
:100320008A3009F462C02FC0863639F0873659F515
:100330008B819C810E94C1032EC06B80B8E26B9EB2
:10034000300111247F926F92AEE4B2E0BF93AF937D
:100350000E94C0060F900F900F900F901CC0AAE54E
:10036000B2E0BF93AF930E94C0062E98FFEF21EE3C
:1003700084E0F15020408040E1F700C000002E9A58
:100380000F900F9008C0ADE6B2E0BF93AF930E940C
:10039000C0060F900F900E94EB03843F914080F4C1
:1003A000311003C02A94332433941F922F925F920A
:1003B0004F920E94C0060F900F900F900F9001C0B7
:1003C000312C013416400CF493CF0E94530566275C
:1003D0007727681B790BAE014B5F5F4FC3010E940B
:1003E000AF050E942905570183CF8DE292E09F93CC
:1003F0008F930E94C0060F900F9080E090E060966F
:100400000FB6F894DEBF0FBECDBFDF91CF911F9125
:100410000F91FF90EF90DF90CF90BF90AF909F90A3
:100420008F907F906F905F904F903F902F900895A6
:100430009093C5008093C40088E18093C1008EE052
:100440008093C2000895E0ECF0E0908195FFFDCF2D
:100450008093C60008958091C000882324F0809185
:10046000C60090E008958091C60090E0089584B1A0
:10047000866884B9239881E58CBD2F9A08950E94DF
:10048000370208958EBD0DB407FC09C08FE891E0D6
:100490000197F1F700C000000DB407FEF7CF0895F3
:1004A00088E084B980E48CBD08958FEF8EBD0DB4D3
:1004B00007FEFDCF8EB50895CF93C82F2F9883E008
:1004C0000E9442028C2F0E9442020E9455022F9AE3
:1004D000CF910895CF93DF93D82FC62F2F9882E026
:1004E0000E9442028D2F0E9442028C2F0E944202E3
:1004F0002F9ADF91CF9108952F980E9442022F9A50
:1005000008951F93CF93DF93182FD62FC42F2F98C2
:1005100085E00E944202812F0E9442028D2F0E949C
:1005200042028C2F0E944202DF91CF911F910895C9
:100530002F9880EC0E9442022F9A0895CF93C82FE3
:100540000E9437020E9498026C2F8FE00E946A027C
:1005500084EA8A95F1F78EE00E945C02807EC817DB
:1005600051F08FEA92E09F938F930E94C0060F9004
:100570000F9081E009C08FED92E09F938F930E94CE
:10058000C0060F900F9080E0CF9108952F9880EAD9
:100590000E9442020E9455022F9A08950E949E02D4
:1005A000089580E30E945C0280E30E945C0280E088
:1005B000089580E00E945C0291E0811190E0892F13
:1005C0000895CF93DF93EC010E94D9028823D9F0DC
:1005D000688166956695669581E30E946A026881E6
:1005E00080E2689FB001112482E30E946A0269815F
:1005F0006F7085E30E946A026A8186E30E946A0244
:1006000081E80E947C02DF91CF9108950F931F93A0
:10061000CF93DF93EC0161E08BE20E946A028CE2EF
:100620000E945C02182F80FF20C081E60E945C02BD
:10063000082F82E60E945C02829586958770000FE3
:10064000000F000F080F088385E60E945C028F7080
:10065000898386E60E945C02282F30E03B832A8350
:100660006FEF610F8CE20E946A02DF91CF911F91C0
:100670000F910895CF93DF93EC0188811F928F93A0
:1006800085EF92E09F938F930E94C006E8818CE9EA
:100690008E0F0F900F900F900F90873008F5F0E0BD
:1006A000EE0FFF1FE15CFE4F81818F9380818F935E
:1006B00084E093E09F938F930E94C006E881F0E06E
:1006C000E456FE4F20818A819B8130E8239F801968
:1006D000910911249B838A830F900F900F900F90A4
:1006E00088818A3631F48A819B81880F991F9B8388
:1006F0008A838B818F938A818F9387E093E09F9386
:100700008F930E94C0060F900F900F900F90DF9173
:10071000CF910895E0E8F0E080818260808380815D
:100720008E7F8083A1E8B0E08C9188618C938C915E
:100730008B7F8C938C9182608C938C918E7F8C9329
:10074000259A80818068808380818F7B80838CE97B
:100750008093870080E48093860086E693E00E9481
:10076000D2060895863408F486E4893C08F088ECC3
:1007700024E1829FC0011124909389008093880016
:1007800008959C012E5131094DE0429FC001439FC5
:10079000900D112464E170E00E94470686E4860F04
:1007A0000E94B20308950E94020408951F93CF93FC
:1007B000DF9314E0C0E0D0E00E94EB03C80FD91F24
:1007C0001150D1F7CE019695879596958795DF9133
:1007D000CF911F910895ECE7F0E0808184608083E1
:1007E000EAE7F0E080818064808380818823E9F3F8
:1007F000209178008091790090E0982F8827820FCF
:10080000911D089510BAEAE7F0E080818068808346
:10081000808187608083ECE7F0E080818064808362
:100820008081806880830E94EB0308958CE0809330
:10083000B8008FEF8093BB0084E08093BC000895E4
:100840008091BC0081700895ECEBF0E0808180FD28
:10085000FDCF809115020895ECEBF0E0208120FDA2
:10086000FDCF6093CE03FC0120812093CF0320FDB8
:100870000CC0623050F0DC011196E0EDF3E081E055
:100880009D9191938F5F8613FBCF1092CC0388EFDD
:100890008093150285EA8093BC000895ECEBF0E0AC
:1008A000808180FDFDCF1092CC0388EF80931502EC
:1008B00085EA8093BC000895ECEBF0E0208120FDF8
:1008C000FDCF2091CC0320FF0DC0662359F02FEC03
:1008D00033E0A82FB92FF90181918D938E2F821BC0
:1008E0008617D0F38091CC03817008951F920F92E8
:1008F0000FB60F9211240BB60F922F933F938F9345
:100900009F93AF93BF93EF93FF938091B90090E0D3
:10091000FC013897E135F10508F056C0EE58FF4F5D
:100920000C945B061092CD03E091CD038091CE0331
:10093000E81770F481E08E0F8093CD03F0E0E1536F
:10094000FC4F80818093BB0085E88093BC0043C04E
:100950008091CC0381608093CC0384E98093BC00B8
:100960003AC0E091CD0381E08E0F8093CD0380915A
:10097000BB00F0E0E153FC4F80832091CD0330E0D9
:100980008091CE0390E001972817390724F485EC75
:100990008093BC0020C085E88093BC001CC080917F
:1009A000BB00E091CD03F0E0E153FC4F80838091E8
:1009B000CC0381608093CC0384E98093BC000BC09E
:1009C00085EA8093BC0007C08091B900809315022E
:1009D00084E08093BC00FF91EF91BF91AF919F9114
:1009E0008F913F912F910F900BBE0F900FBE0F90E4
:1009F0001F9018950E94160478948FEF8093010140
:100A000010920701E2E0F1E08081806180838081C3
:100A1000806480838FEE90E00197F1F700C00000C2
:100A2000E2E0F1E080818F7B80838FEE90E00197A0
:100A3000F1F700C00000E2E0F1E080818064808393
:100A400085E793E09F938F930E94C0060F900F90CD
:100A50000895CF93DF9300D0CDB7DEB7882334F469
:100A6000E2E0F1E090819260908305C0E2E0F1E085
:100A700090819D7F90839EE599831A82992787FDB7
:100A8000909599231CF4919581959109880F8B83FA
:100A900063E0CE0101960E942C040F900F900F90FE
:100AA000DF91CF910895E2E0F1E080818F7D808336
:100AB0008081877F80838AE68A95F1F700C08091E4
:100AC0000601E2E0F1E09081986090839AE69A95C1
:100AD000F1F700C020910601E2E0F1E09081906220
:100AE0009083992787FD9095982F8827822B0895CA
:100AF000E2E0F1E080818F7B80838AE68A95F1F7DE
:100B000000C0E2E0F1E080818064808308958EEC93
:100B10000E9429052FEF87EA91E6215080409040FE
:100B2000E1F700C000000E94780580E00E942905DE
:100B30000895F901128213821482158211821082A3
:100B400097838683718760875387428788E893E01D
:100B50009F938F930E94C0060F900F900895CF929D
:100B6000DF92EF92FF920F931F93CF93DF93FB01DE
:100B7000EA01DC01A61BB70B88859985A89FA00117
:100B8000A99F500DB89F500D1124662757FD609501
:100B9000762F0A811B812C813D81040F151F261F92
:100BA000371F013084E118072105310524F000E0EA
:100BB00014E120E030E001159CEE19079FEF2907B2
:100BC000390724F400E01CEE2FEF3FEF0A831B836C
:100BD0002C833D838E819F81A89F6001A99FD00CAB
:100BE000B89FD00C1124EE24D7FCE094FE2CC00E4C
:100BF000D11EE21EF31EB701A601FF2024F44150CE
:100C00005E4F6F4F7F4F032E39E07595679557956F
:100C100047953A95D1F7302DC42F403809F4C1E8F3
:100C20008C2F992787FD90959F93CF93B901A801A9
:100C3000332324F441505E4F6F4F7F4F8A019B0155
:100C40000F2EF9E03595279517950795FA95D1F769
:100C5000F02D1F930F93BF93AF93FF93EF9388E90A
:100C600093E09F938F930E94C0068DB79EB70A961C
:100C70000FB6F8949EBF0FBE8DBF8C2FDF91CF9122
:100C80001F910F91FF90EF90DF90CF90089597FB09
:100C9000072E16F4009407D077FD09D00E94610654
:100CA00007FC05D03EF4909581959F4F089570956F
:100CB00061957F4F0895EE0FFF1F0590F491E02D91
:100CC0001994AA1BBB1B51E107C0AA1FBB1FA61783
:100CD000B70710F0A61BB70B881F991F5A95A9F7E5
:100CE00080959095BC01CD0108950F931F93CF93EC
:100CF000DF93EC018B01009731F46115710519F454
:100D000080E090E038C06EE070E081E090E00E940A
:100D1000FA08FC010097A1F380E88383011511050F
:100D200071F01387028781E883838091D3039091C8
:100D3000D403892B21F4F093D403E093D3032097B9
:100D4000C9F0D187C0878381826083838091D50376
:100D50009091D603892B71F4F093D603E093D503D9
:100D60008091D7039091D803892B21F4F093D80375
:100D7000E093D703CF01DF91CF911F910F91089599
:100D8000CF93DF93CDB7DEB7FE01369661917191B7
:100D9000AF018091D5039091D6030E94FF06DF91A9
:100DA000CF9108950F931F93CF93DF93E091D503D5
:100DB000F091D603238121FF1BC0EC0100E010E07D
:100DC00089916091D5037091D603DB011896ED915E
:100DD000FC911997882331F01995892B89F30FEF2E
:100DE0001FEFEECF8AE01995892B11F4C80102C0DC
:100DF0008FEF9FEFDF91CF911F910F9108952F9269
:100E00003F924F925F926F927F928F929F92AF929A
:100E1000BF92CF92DF92EF92FF920F931F93CF93E7
:100E2000DF93CDB7DEB72C970FB6F894DEBF0FBEB9
:100E3000CDBF7C016B018A01FC0117821682838180
:100E400081FFBDC1CE0101964C01F7019381F601EE
:100E500093FD859193FF81916F01882309F4ABC1C4
:100E6000853239F493FD859193FF81916F0185322D
:100E700029F4B70190E00E945A0AE7CF512C312C97
:100E800020E02032A0F48B3269F030F4803259F047
:100E9000833269F420612CC08D3239F0803339F40B
:100EA000216026C02260246023C0286021C027FD65
:100EB00027C030ED380F3A3078F426FF06C0FAE04C
:100EC0005F9E300D1124532E13C08AE0389E300DE2
:100ED0001124332E20620CC08E3221F426FD6BC10A
:100EE000206406C08C3611F4206802C0883641F4B4
:100EF000F60193FD859193FF81916F018111C1CF1F
:100F0000982F9F7D9554933028F40C5F1F4FFFE37B
:100F1000F9830DC0833631F0833771F0833509F0E2
:100F20005BC022C0F801808189830E5F1F4F44247B
:100F30004394512C540115C03801F2E06F0E711C1E
:100F4000F801A080B18026FF03C0652D70E002C0CB
:100F50006FEF7FEFC5012C870E944F0A2C018301A0
:100F60002C852F77222E17C03801F2E06F0E711CEE
:100F7000F801A080B18026FF03C0652D70E002C09B
:100F80006FEF7FEFC5012C870E943D0A2C012C8555
:100F90002068222E830123FC1BC0832D90E048167D
:100FA0005906B0F4B70180E290E00E945A0A3A94E0
:100FB000F4CFF50127FC859127FE81915F01B701F0
:100FC00090E00E945A0A31103A94F1E04F1A510809
:100FD0004114510471F7E5C0843611F0893639F5B2
:100FE000F80127FF07C060817181828193810C5FC6
:100FF0001F4F08C060817181882777FD8095982FE9
:101000000E5F1F4F2F76B22E97FF09C090958095E7
:10101000709561957F4F8F4F9F4F2068B22E2AE0C9
:1010200030E0A4010E948C0AA82EA81844C085377D
:1010300029F42F7EB22E2AE030E025C0F22FF97F6E
:10104000BF2E8F36C1F018F4883579F0B4C08037E0
:1010500019F0883721F0AFC02F2F2061B22EB4FED7
:101060000DC08B2D8460B82E09C024FF0AC09F2FAD
:101070009660B92E06C028E030E005C020E130E0DF
:1010800002C020E132E0F801B7FE07C06081718143
:10109000828193810C5F1F4F06C06081718180E067
:1010A00090E00E5F1F4FA4010E948C0AA82EA81882
:1010B000FB2DFF77BF2EB6FE0BC02B2D2E7FA51468
:1010C00050F4B4FE0AC0B2FC08C02B2D2E7E05C021
:1010D0007A2C2B2D03C07A2C01C0752C24FF0DC057
:1010E000FE01EA0DF11D8081803311F4297E09C0D3
:1010F00022FF06C07394739404C0822F867809F08F
:10110000739423FD13C020FF06C05A2C731418F4E7
:10111000530C5718732C731468F4B70180E290E0F5
:101120002C870E945A0A73942C85F5CF731410F4FF
:10113000371801C0312C24FF12C0B70180E390E0C2
:101140002C870E945A0A2C8522FF17C021FF03C05A
:1011500088E590E002C088E790E0B7010CC0822FDC
:10116000867859F021FD02C080E201C08BE227FDA4
:101170008DE2B70190E00E945A0AA51438F4B70135
:1011800080E390E00E945A0A5A94F7CFAA94F4019F
:10119000EA0DF11D8081B70190E00E945A0AA1106A
:1011A000F5CF332009F451CEB70180E290E00E94E0
:1011B0005A0A3A94F6CFF7018681978102C08FEFE1
:1011C0009FEF2C960FB6F894DEBF0FBECDBFDF9118
:1011D000CF911F910F91FF90EF90DF90CF90BF9034
:1011E000AF909F908F907F906F905F904F903F90C7
:1011F0002F9008950F931F93CF93DF93869F8001C5
:10120000879F100D969F100D1124C8010E9416098A
:10121000EC01009729F0A80160E070E00E94480A04
:10122000CE01DF91CF911F910F910895CF93DF935E
:101230008230910510F482E090E0E091DB03F091C0
:10124000DC0320E030E0A0E0B0E0309739F14081ED
:10125000518148175907B8F04817590771F482812E
:101260009381109729F013969C938E9312972CC01C
:101270009093DC038093DB0327C02115310531F007
:101280004217530718F0A901DB0101C0EF019A01D1
:10129000BD01DF010280F381E02DD7CF211531059B
:1012A000F9F0281B390B2430310580F48A819B81A9
:1012B0006115710521F0FB019383828304C0909333
:1012C000DC038093DB03FE01329644C0FE01E20F93
:1012D000F31F8193919322503109398328833AC0B7
:1012E0002091D9033091DA03232B41F42091180285
:1012F000309119023093DA032093D903209116021A
:10130000309117022115310541F42DB73EB74091B8
:101310001A0250911B02241B350BE091D903F09166
:10132000DA03E217F307A0F42E1B3F0B2817390747
:1013300078F0AC014E5F5F4F2417350748F04E0F31
:101340005F1F5093DA034093D9038193919302C0B6
:10135000E0E0F0E0CF01DF91CF910895CF93DF93EC
:10136000009709F487C0FC01329713821282C09162
:10137000DB03D091DC03209781F420813181280F99
:10138000391F8091D9039091DA038217930779F579
:10139000F093DA03E093D9036DC0DE0120E030E082
:1013A000AE17BF0750F412964D915C9113979D01B3
:1013B0004115510509F1DA01F3CFB383A2834081CE
:1013C0005181840F951F8A179B0771F48D919C9111
:1013D0001197840F951F02969183808312968D91A9
:1013E0009C911397938382832115310529F4F093FF
:1013F000DC03E093DB033EC0D9011396FC93EE932C
:1014000012974D915D91A40FB51FEA17FB0779F470
:1014100080819181840F951F0296D90111969C932A
:101420008E938281938113969C938E931297E0E022
:10143000F0E08A819B81009719F0FE01EC01F9CF61
:10144000CE01029628813981820F931F2091D90302
:101450003091DA032817390769F4309729F410928C
:10146000DC031092DB0302C013821282D093DA03F2
:10147000C093D903DF91CF910895FC01059061508D
:1014800070400110D8F7809590958E0F9F1F08959A
:10149000DC0101C06D9341505040E0F70895FC011C
:1014A0006150704001900110D8F7809590958E0F93
:1014B0009F1F08950F931F93CF93DF93182F092F2A
:1014C000EB018B8181FD03C08FEF9FEF20C082FF76
:1014D00010C04E815F812C813D81421753077CF4FF
:1014E000E881F9819F012F5F3F4F39832883108363
:1014F00006C0E885F985812F1995892B29F72E815A
:101500003F812F5F3F4F3F832E83812F902FDF91AD
:10151000CF911F910F910895FA01AA27283051F118
:10152000203181F1E8946F936E7F6E5F7F4F8F4F14
:101530009F4FAF4FB1E03ED0B4E03CD0670F781F73
:10154000891F9A1FA11D680F791F8A1F911DA11D58
:101550006A0F711D811D911DA11D20D009F4689491
:101560003F912AE0269F11243019305D3193DEF639
:10157000CF010895462F4770405D4193B3E00FD0EF
:10158000C9F7F6CF462F4F70405D4A3318F0495DDA
:1015900031FD4052419302D0A9F7EACFB4E0A695BD
:1015A0009795879577956795BA95C9F700976105DF
:1015B000710508959B01AC010A2E06945795479535
:1015C00037952795BA95C9F7620F731F841F951F2A
:0815D000A01D0895F894FFCF5F
:1015D800000000010100011103150321032E033946
:1015E8000344035703F80000DD03200043757272BB
:1015F800656E745F74696D65202575090054494DE1
:101608004520544F20474F20544F20574F524B20CE
:10161800464F5220544845204558414D5300536C7D
:10162800696465723A2025640900546F67676C69BC
:101638006E6720736F6C656E6F696409004E6F206A
:10164800726563657074696F6E206F7220494420FB
:10165800756E757365640A0D00596F75206C6F6F30
:10166800736520436C616972652C20796F752772E8
:10167800652073636F72652069733A202564004D95
:10168800435032353135206973204E4F5420696EEE
:10169800207468652063686F73656E206D6F64657C
:1016A8002061667465722072657365740A0D004D59
:1016B80043502077656C6C20636F6E66696775723E
:1016C80065640A0D004D6573736167652069642060
:1016D800256409002573006D73673A202564092085
:1016E8000042544E006C6566745F736C6964657281
:1016F8000072696768745F736C69646572006A6F09
:1017080079737469636B5F58006A6F79737469637E
:101718006B5F59006A6F79737469636B5F6D61679A
:101728006E6974756465006A6F79737469636B5F59
:10173800616E676C650050574D20494E49542044EE
:101748004F4E450D004D6F746F7220496E697420BD
:10175800446F6E652E0A0D000A0D50494420494E0B
:10176800495420444F4E45000A0D20656E636F644E
:10177800657220256409206572726F7220256409DC
:101788002073756D4572726F7220256409206F751C
:0C1798007075742050494420256409003D
:00000001FF
