:100000000C94D5000C94F6000C94F6000C94F600B9
:100010000C94F6000C94F6000C94F6000C94F60088
:100020000C94F6000C94F6000C94F6000C94F60078
:100030000C94F6000C94F6000C94F6000C94F60068
:100040000C94F6000C94F6000C94F6000C94F60058
:100050000C94F6000C94F6000C94F6000C94F60048
:100060000C94F6000C94F6000C94F6000C94F60038
:100070000C94F6000C94F6000C94F6000C94F60028
:100080000C94F6000C94F6000C94F6000C94F60018
:100090000C94F6000C94F6000C94F6000C94CF042B
:1000A0000C94F6000C94F6000C94F6000C94F600F8
:1000B0000C94F6000C94F6000C94F6000C94F600E8
:1000C0000C94F6000C94F6000C94F6000C94F600D8
:1000D0000C94F6000C94F6000C94F6000C94F600C8
:1000E0000C94F600EE04400540054005400540052F
:1000F00040054005EE04400540054005400540052B
:1001000040054005F0044005400540054005400518
:1001100040054005400540054005400540054005B7
:1001200040054005F00440054005400540054005F8
:100130004005400540054005400540054005400597
:10014000400540053C05400540054005400540058B
:10015000400540051905400540054005400540059E
:100160004005400540054005400540054005400567
:10017000400540050D05400540054005400540058A
:10018000400540052B050C940D050C9419050C94A5
:10019000F0040C9440050C943C050C9423020C9440
:1001A0002B050C94EE040C942B0211241FBECFEFF0
:1001B000D1E2DEBFCDBF00E00CBF13E0A0E0B2E0B3
:1001C000ECE9F6E100E00BBF02C007900D92A83CFD
:1001D000B107D9F713E0A8ECB3E001C01D92A93D27
:1001E000B107E1F70E9414010C944C0B0C94000031
:1001F000E2E0F1E080818FEF8083E0E0F1E0808356
:100200002FEF35EB95E3215030409040E1F700C0EF
:10021000000010822FEF35EB95E3215030409040E5
:10022000E1F700C00000EBCF2F923F924F925F9218
:100230006F927F928F929F92AF92BF92CF92DF92F6
:10024000EF92FF920F931F93CF93DF93CDB7DEB75B
:1002500066970FB6F894DEBF0FBECDBFE1EAF0E0BF
:1002600080818460808380818D7F808380818160B4
:1002700080838FEF84B92E9AE4EAF0E0A080B18009
:100280008081918187E690E00E9418026BE272E023
:1002900083E292E00E94D70680E00E94D0020E9492
:1002A000D6030E9450040E9456050E94E3059E0159
:1002B0002B5F3F4F40E050E062E070E084E090E070
:1002C0000E94F505312C0F2EFAEF2F2EF02D0F2E58
:1002D000F4EA8F2E912CF02D0F2EFCE1CF2EF2E0C0
:1002E000DF2EF02D0F2EF9E84F2EF2E05F2EF02DCD
:1002F000D401ED90FC9087010A191B091F930F93FD
:10030000DF92CF920E942207CE0101960E941B032A
:100310000F900F900F900F908981843601F120F497
:100320008A3009F462C02FC0863639F0873659F515
:100330008B819C810E940D042EC06B80B8E26B9E65
:10034000300111247F926F92AEE4B2E0BF93AF937D
:100350000E9422070F900F900F900F901CC0AAE5EB
:10036000B2E0BF93AF930E9422072E98FFEF21EED9
:1003700084E0F15020408040E1F700C000002E9A58
:100380000F900F9008C0ADE6B2E0BF93AF930E940C
:1003900022070F900F900E943904843F914080F40F
:1003A000311003C02A94332433941F922F925F920A
:1003B0004F920E9422070F900F900F900F9001C054
:1003C000312C013416400CF493CF0E94AF05662700
:1003D0007727681B790BAE014B5F5F4FC3010E940B
:1003E0000B060E948505570183CF8DE292E09F9313
:1003F0008F930E9422070F900F9080E090E0669606
:100400000FB6F894DEBF0FBECDBFDF91CF911F9125
:100410000F91FF90EF90DF90CF90BF90AF909F90A3
:100420008F907F906F905F904F903F902F900895A6
:100430009093C5008093C40088E18093C1008EE052
:100440008093C2000895E0ECF0E0908195FFFDCF2D
:100450008093C60008958091C000882324F0809185
:10046000C60090E008958091C60090E0089584B1A0
:10047000876884B9239881E58CBD08950E9437026E
:1004800008958EBD0DB407FC07C081E28A95F1F78F
:1004900000000DB407FEF9CF089588E084B980E428
:1004A0008CBD08958FEF8EBD0DB407FEFDCF8EB5C8
:1004B0000895CF93C82F2F9883E00E9441028C2F7C
:1004C0000E9441020E9452022F9ACF910895CF9329
:1004D000DF93D82FC62F2F9882E00E9441028D2FE4
:1004E0000E9441028C2F0E9441022F9ADF91CF91EE
:1004F00008952F980E9441022F9A08951F93CF9339
:10050000DF93182FD62FC42F2F9885E00E94410229
:10051000812F0E9441028D2F0E9441028C2F0E9448
:100520004102DF91CF911F9108952F9880EC0E9496
:1005300041022F9A0895CF93DF93EC010E94370276
:100540000E9495026C2F8FE00E94670284EA8A95D0
:10055000F1F78EE00E945902807E282F30E02C17A0
:100560003D0751F08FEA92E09F938F930E942207FC
:100570000F900F9081E009C08FED92E09F938F93D1
:100580000E9422070F900F9080E0DF91CF91089595
:100590002F9880EA0E9441020E9452022F9A0895E9
:1005A0000E949B02089580E30E94590280E30E940A
:1005B000590280E0089580E00E94590291E0811183
:1005C00090E0892F08950F931F93CF938C010E9481
:1005D000DB02882361F1F80160817181769567956E
:1005E000769567957695679581E30E946702F80195
:1005F00060816295660F607E82E30E946702F80167
:1006000062816F7085E30E946702F801828188230E
:1006100059F0C0E0F801638186E30E946702CF5F72
:10062000F8018281C817B0F381E80E947902CF9166
:100630001F910F9108950F931F93CF93DF938C0118
:1006400061E08BE20E9467028CE20E945902C82F8F
:1006500080FF2EC081E60E945902D82F82E60E94B8
:100660005902282F30E035952795359527953595F2
:1006700027953595279535952795C90148E0D49F4D
:10068000800D911D1124F8019183808385E60E94DD
:1006900059028F70F801828386E60E94590290E029
:1006A000F801948383836FEF6C0F8CE20E946702E2
:1006B000C1FF2DC081E70E945902D82F82E70E9416
:1006C0005902282F30E03595279535952795359592
:1006D00027953595279535952795F8E0DF9F200DCF
:1006E000311D1124F8013183208385E70E945902CE
:1006F0008F70F801828386E70E94590290E0F8012A
:10070000948383836EEF6C0F8CE20E946702DF910B
:10071000CF911F910F910895CF93DF93EC018981C1
:100720008F9388818F9385EF92E09F938F930E94A0
:10073000220788819981845691090F900F900F901C
:100740000F908730910508F5880F991FFC01E95F2C
:10075000FD4F81818F9380818F9384E093E09F93FD
:100760008F930E942207E881F981E456FE4F208191
:100770008B819C8130E8239F8019910911249C83EF
:100780008B830F900F900F900F908C818F938B81A4
:100790008F9387E093E09F938F930E9422070F909F
:1007A0000F900F900F90DF91CF910895E0E8F0E067
:1007B00080818260808380818E7F8083A1E8B0E029
:1007C0008C9188618C938C918B7F8C938C918260BF
:1007D0008C938C918E7F8C93259A80818068808306
:1007E00080818F7B80838CE98093870080E4809375
:1007F000860086E693E00E9434070895863408F464
:1008000086E4893C08F088EC24E1829FC001112431
:10081000909389008093880008959C012E5131099E
:100820004DE0429FC001439F900D112464E170E0B0
:100830000E94A90686E4860F0E94FE03089508958B
:1008400008950E94500408950F931F93CF93C4E01E
:1008500000E010E00E943904080F191FC150D1F7C1
:10086000C8019695879596958795CF911F910F9181
:100870000895ECE7F0E0808184608083EAE7F0E0AF
:1008800080818064808380818823E9F320917800CF
:100890008091790090E0982F8827820F911D08950C
:1008A00010BAEAE7F0E08081806880838081876009
:1008B0008083ECE7F0E080818064808380818068C1
:1008C00080830E94390408958CE08093B8008FEFF4
:1008D0008093BB0084E08093BC0008958091BC00AD
:1008E00081700895ECEBF0E0808180FDFDCF809178
:1008F00015020895CF93DF93EC01ECEBF0E09081CB
:1009000090FDFDCF6093CA0398819093CB0390FD37
:1009100013C0623088F0FE013196ACECB3E0625057
:10092000262F30E02E5F3F4FCE01820F931F219183
:100930002D93E817F907D9F71092C80388EF809331
:10094000150285EA8093BC00DF91CF910895ECEB0E
:10095000F0E0808180FDFDCF1092C80388EF809386
:10096000150285EA8093BC000895ECEBF0E020814D
:1009700020FDFDCF2091C80320FF0DC0662359F054
:100980002BEC33E0A82FB92FF90181918D938E2F95
:10099000821B8617D0F38091C803817008951F923F
:1009A0000F920FB60F9211240BB60F922F933F9315
:1009B0008F939F93AF93BF93EF93FF93E091B90011
:1009C0008E2F90E0FC013897E135F10508F058C012
:1009D0008827EE58FF4F8F4F0C94BD061092C90325
:1009E000E091C9038091CA03E81770F481E08E0F8B
:1009F0008093C903F0E0E553FC4F80818093BB00F6
:100A000085E88093BC0043C08091C80381608093D7
:100A1000C80384E98093BC003AC0E091C90381E037
:100A20008E0F8093C9038091BB00F0E0E553FC4F2B
:100A300080832091C90330E08091CA0390E0019740
:100A40002817390724F485EC8093BC0020C085E882
:100A50008093BC001CC08091BB00E091C903F0E012
:100A6000E553FC4F80838091C80381608093C80365
:100A700084E98093BC000BC085EA8093BC0007C06A
:100A80008091B9008093150284E08093BC00FF91AF
:100A9000EF91BF91AF919F918F913F912F910F90C7
:100AA0000BBE0F900FBE0F901F9018950E9464040C
:100AB00078948FEF8093010110920701E2E0F1E05A
:100AC0008081806180838081806480838FEE90E06C
:100AD0000197F1F700C00000E2E0F1E080818F7B38
:100AE00080838FEE90E00197F1F700C00000E2E014
:100AF000F1E080818064808385E793E09F938F930A
:100B00000E9422070F900F900895CF93DF9300D09B
:100B1000CDB7DEB7882334F4E2E0F1E09081926053
:100B2000908305C0E2E0F1E090819D7F90839EE597
:100B300099831A82992787FD909599231CF49195A2
:100B400081959109880F8B8363E0CE0101960E9405
:100B50007A040F900F900F90DF91CF910895E2E00B
:100B6000F1E080818F7D80838081877F80838AE62A
:100B70008A95F1F700C080910601E2E0F1E09081F2
:100B8000986090839AE69A95F1F700C0209106014B
:100B9000E2E0F1E0908190629083992787FD909543
:100BA000982F8827822B0895E2E0F1E080818F7BE7
:100BB00080838AE68A95F1F700C0E2E0F1E0808167
:100BC0008064808308958EEC0E9485052FEF87EA6C
:100BD00091E6215080409040E1F700C000000E9463
:100BE000D40580E00E9485050895F90112821382E0
:100BF00014821582118210829783868371876087A1
:100C00005387428787E893E09F938F930E94220740
:100C10000F900F900895CF92DF92EF92FF920F9373
:100C20001F93CF93DF93FB01EA01DC01A61BB70BF7
:100C300088859985A89FA001A99F500DB89F500D48
:100C40001124662757FD6095762F0A811B812C8120
:100C50003D81040F151F261F371F013084E118073F
:100C60002105310524F000E014E120E030E0011519
:100C70009CEE19079FEF2907390724F400E01CEECA
:100C80002FEF3FEF0A831B832C833D838E819F814F
:100C9000A89F6001A99FD00CB89FD00C1124EE240E
:100CA000D7FCE094FE2CC00ED11EE21EF31EB7014D
:100CB000A601FF2024F441505E4F6F4F7F4F032E5B
:100CC00039E075956795579547953A95D1F7302D49
:100CD000C42F403809F4C1E88C2F992787FD9095DF
:100CE0009F93CF93B901A801332324F441505E4F61
:100CF0006F4F7F4F8A019B010F2EF9E035952795A5
:100D000017950795FA95D1F7F02D1F930F93BF9381
:100D1000AF93FF93EF9387E993E09F938F930E94A4
:100D200022078DB79EB70A960FB6F8949EBF0FBEE6
:100D30008DBF8C2FDF91CF911F910F91FF90EF907E
:100D4000DF90CF900895FC011282138214821582E5
:100D5000089597FB072E16F4009407D077FD09D06D
:100D60000E94C30607FC05D03EF4909581959F4FE5
:100D70000895709561957F4F0895EE0FFF1F0590C0
:100D8000F491E02D1994AA1BBB1B51E107C0AA1FC7
:100D9000BB1FA617B70710F0A61BB70B881F991F1C
:100DA0005A95A9F780959095BC01CD0108950F93B0
:100DB0001F93CF93DF93EC018B01009731F4611502
:100DC000710519F480E090E038C06EE070E081E0D9
:100DD00090E00E945C09FC010097A1F380E8838306
:100DE0000115110571F01387028781E883838091D3
:100DF000CF039091D003892B21F4F093D003E0939B
:100E0000CF032097C9F0D187C08783818260838315
:100E10008091D1039091D203892B71F4F093D20386
:100E2000E093D1038091D3039091D403892B21F4D3
:100E3000F093D403E093D303CF01DF91CF911F91BF
:100E40000F910895CF93DF93CDB7DEB7FE013696AD
:100E500061917191AF018091D1039091D2030E9471
:100E60006107DF91CF9108950F931F93CF93DF9385
:100E7000E091D103F091D203238121FF1BC0EC014B
:100E800000E010E089916091D1037091D203DB0101
:100E90001896ED91FC911997882331F01995892BBB
:100EA00089F30FEF1FEFEECF8AE01995892B11F42C
:100EB000C80102C08FEF9FEFDF91CF911F910F917B
:100EC00008952F923F924F925F926F927F928F92EE
:100ED0009F92AF92BF92CF92DF92EF92FF920F93C9
:100EE0001F93CF93DF93CDB7DEB72C970FB6F8944F
:100EF000DEBF0FBECDBF7C016B018A01FC011782F2
:100F00001682838181FFBDC1CE0101964C01F7019C
:100F10009381F60193FD859193FF81916F01882361
:100F200009F4ABC1853239F493FD859193FF81912A
:100F30006F01853229F4B70190E00E94BC0AE7CF27
:100F4000512C312C20E02032A0F48B3269F030F4A7
:100F5000803259F0833269F420612CC08D3239F02F
:100F6000803339F4216026C02260246023C02860C9
:100F700021C027FD27C030ED380F3A3078F426FF26
:100F800006C0FAE05F9E300D1124532E13C08AE094
:100F9000389E300D1124332E20620CC08E3221F485
:100FA00026FD6BC1206406C08C3611F4206802C097
:100FB000883641F4F60193FD859193FF81916F018D
:100FC0008111C1CF982F9F7D9554933028F40C5FE9
:100FD0001F4FFFE3F9830DC0833631F0833771F083
:100FE000833509F05BC022C0F801808189830E5FE0
:100FF0001F4F44244394512C540115C03801F2E092
:101000006F0E711CF801A080B18026FF03C0652D12
:1010100070E002C06FEF7FEFC5012C870E94B10A1C
:101020002C0183012C852F77222E17C03801F2E086
:101030006F0E711CF801A080B18026FF03C0652DE2
:1010400070E002C06FEF7FEFC5012C870E949F0AFE
:101050002C012C852068222E830123FC1BC0832DAC
:1010600090E048165906B0F4B70180E290E00E9483
:10107000BC0A3A94F4CFF50127FC859127FE8191B3
:101080005F01B70190E00E94BC0A31103A94F1E090
:101090004F1A51084114510471F7E5C0843611F01C
:1010A000893639F5F80127FF07C060817181828197
:1010B00093810C5F1F4F08C060817181882777FD85
:1010C0008095982F0E5F1F4F2F76B22E97FF09C085
:1010D00090958095709561957F4F8F4F9F4F2068B9
:1010E000B22E2AE030E0A4010E94EE0AA82EA81831
:1010F00044C0853729F42F7EB22E2AE030E025C087
:10110000F22FF97FBF2E8F36C1F018F4883579F0B1
:10111000B4C0803719F0883721F0AFC02F2F20617D
:10112000B22EB4FE0DC08B2D8460B82E09C024FFF2
:101130000AC09F2F9660B92E06C028E030E005C097
:1011400020E130E002C020E132E0F801B7FE07C044
:1011500060817181828193810C5F1F4F06C0608125
:10116000718180E090E00E5F1F4FA4010E94EE0AA3
:10117000A82EA818FB2DFF77BF2EB6FE0BC02B2D77
:101180002E7FA51450F4B4FE0AC0B2FC08C02B2D6B
:101190002E7E05C07A2C2B2D03C07A2C01C0752C15
:1011A00024FF0DC0FE01EA0DF11D8081803311F492
:1011B000297E09C022FF06C07394739404C0822F55
:1011C000867809F0739423FD13C020FF06C05A2CC3
:1011D000731418F4530C5718732C731468F4B70174
:1011E00080E290E02C870E94BC0A73942C85F5CF96
:1011F000731410F4371801C0312C24FF12C0B7014A
:1012000080E390E02C870E94BC0A2C8522FF17C047
:1012100021FF03C088E590E002C088E790E0B701B5
:101220000CC0822F867859F021FD02C080E201C0F7
:101230008BE227FD8DE2B70190E00E94BC0AA51465
:1012400038F4B70180E390E00E94BC0A5A94F7CFCB
:10125000AA94F401EA0DF11D8081B70190E00E948B
:10126000BC0AA110F5CF332009F451CEB70180E2BA
:1012700090E00E94BC0A3A94F6CFF70186819781EC
:1012800002C08FEF9FEF2C960FB6F894DEBF0FBE13
:10129000CDBFDF91CF911F910F91FF90EF90DF9025
:1012A000CF90BF90AF909F908F907F906F905F9006
:1012B0004F903F902F9008950F931F93CF93DF93FC
:1012C000869F8001879F100D969F100D1124C801E5
:1012D0000E947809EC01009729F0A80160E070E015
:1012E0000E94AA0ACE01DF91CF911F910F9108951C
:1012F000CF93DF938230910510F482E090E0E0918B
:10130000D703F091D80320E030E0A0E0B0E03097C0
:1013100039F14081518148175907B8F048175907EA
:1013200071F482819381109729F013969C938E9388
:1013300012972CC09093D8038093D70327C0211510
:10134000310531F04217530718F0A901DB0101C044
:10135000EF019A01BD01DF010280F381E02DD7CFBB
:1013600021153105F9F0281B390B2430310580F4A3
:101370008A819B816115710521F0FB019383828332
:1013800004C09093D8038093D703FE01329644C0E3
:10139000FE01E20FF31F81939193225031093983AB
:1013A00028833AC02091D5033091D603232B41F4F2
:1013B00020911802309119023093D6032093D5035F
:1013C00020911602309117022115310541F42DB7F5
:1013D0003EB740911A0250911B02241B350BE0913D
:1013E000D503F091D603E217F307A0F42E1B3F0BB1
:1013F0002817390778F0AC014E5F5F4F2417350787
:1014000048F04E0F5F1F5093D6034093D50381934E
:10141000919302C0E0E0F0E0CF01DF91CF91089519
:10142000CF93DF93009709F487C0FC0132971382B2
:101430001282C091D703D091D803209781F42081E4
:101440003181280F391F8091D5039091D6038217DF
:10145000930779F5F093D603E093D5036DC0DE01D1
:1014600020E030E0AE17BF0750F412964D915C912A
:1014700013979D014115510509F1DA01F3CFB383AB
:10148000A28340815181840F951F8A179B0771F4B5
:101490008D919C911197840F951F02969183808363
:1014A00012968D919C911397938382832115310518
:1014B00029F4F093D803E093D7033EC0D9011396E3
:1014C000FC93EE9312974D915D91A40FB51FEA170F
:1014D000FB0779F480819181840F951F0296D901D1
:1014E00011969C938E938281938113969C938E93F5
:1014F0001297E0E0F0E08A819B81009719F0FE01ED
:10150000EC01F9CFCE01029628813981820F931F19
:101510002091D5033091D6032817390769F4309705
:1015200029F41092D8031092D70302C013821282BA
:10153000D093D603C093D503DF91CF910895FC01DA
:101540000590615070400110D8F7809590958E0FEE
:101550009F1F0895DC0101C06D9341505040E0F79A
:101560000895FC016150704001900110D8F78095FA
:1015700090958E0F9F1F08950F931F93CF93DF9326
:10158000182F092FEB018B8181FD03C08FEF9FEF97
:1015900020C082FF10C04E815F812C813D814217A7
:1015A00053077CF4E881F9819F012F5F3F4F398316
:1015B0002883108306C0E885F985812F1995892B2A
:1015C00029F72E813F812F5F3F4F3F832E83812F4D
:1015D000902FDF91CF911F910F910895FA01AA27C3
:1015E000283051F1203181F1E8946F936E7F6E5F66
:1015F0007F4F8F4F9F4FAF4FB1E03ED0B4E03CD014
:10160000670F781F891F9A1FA11D680F791F8A1FF6
:10161000911DA11D6A0F711D811D911DA11D20D05D
:1016200009F468943F912AE0269F11243019305D17
:101630003193DEF6CF010895462F4770405D419308
:10164000B3E00FD0C9F7F6CF462F4F70405D4A3355
:1016500018F0495D31FD4052419302D0A9F7EACF1D
:10166000B4E0A6959795879577956795BA95C9F74C
:1016700000976105710508959B01AC010A2E06943F
:101680005795479537952795BA95C9F7620F731FF8
:0C169000841F951FA01D0895F894FFCF43
:10169C00000000010100011103150321032E033981
:1016AC000344035703F80000D903200043757272FA
:1016BC00656E745F74696D65202575090054494D1C
:1016CC004520544F20474F20544F20574F524B200A
:1016DC00464F5220544845204558414D5300536CB9
:1016EC00696465723A2025640900546F67676C69F8
:1016FC006E6720736F6C656E6F696409004E6F20A6
:10170C00726563657074696F6E206F722049442036
:10171C00756E757365640A0D00596F75206C6F6F6B
:10172C00736520436C616972652C20796F75277223
:10173C00652073636F72652069733A202564004DD0
:10174C00435032353135206973204E4F5420696E29
:10175C00207468652063686F73656E206D6F6465B7
:10176C002061667465722072657365740A0D004D94
:10177C0043502077656C6C20636F6E666967757279
:10178C0065640A0D004D657373616765206964209B
:10179C00256409002573006D73673A2025640920C0
:1017AC000042544E006C6566745F736C69646572BC
:1017BC000072696768745F736C69646572006A6F44
:1017CC0079737469636B5F58006A6F7973746963BA
:1017DC006B5F59006A6F79737469636B5F6D6167D6
:1017EC006E6974756465006A6F79737469636B5F95
:1017FC00616E676C650050574D20494E495420442A
:10180C004F4E450D004D4F544F5220494E495420D8
:10181C00444F4E450A0D000A0D50494420494E498B
:10182C005420444F4E45000A0D656E636F6465721B
:10183C00202564096572726F722025640973756DB9
:10184C004572726F72202564096F75707574205023
:08185C00494420256409000045
:00000001FF
