:100000000C94D5000C94F6000C94F6000C94F600B9
:100010000C94F6000C94F6000C94F6000C94F60088
:100020000C94F6000C94F6000C94F6000C94F60078
:100030000C94F6000C94F6000C94F6000C94F60068
:100040000C94F6000C94F6000C94F6000C94F60058
:100050000C94F6000C94F6000C94F6000C94F60048
:100060000C94F6000C94F6000C94F6000C94F60038
:100070000C94F6000C94F6000C94F6000C94F60028
:100080000C94F6000C94F6000C94F6000C94F60018
:100090000C94F6000C94F6000C94F6000C94710489
:1000A0000C94F6000C94F6000C94F6000C94F600F8
:1000B0000C94F6000C94F6000C94F6000C94F600E8
:1000C0000C94F6000C94F6000C94F6000C94F600D8
:1000D0000C94F6000C94F6000C94F6000C94F600C8
:1000E0000C94F6009004E204E204E204E204E20468
:1000F000E204E2049004E204E204E204E204E20422
:10010000E204E2049204E204E204E204E204E2040F
:10011000E204E204E204E204E204E204E204E204AF
:10012000E204E2049204E204E204E204E204E204EF
:10013000E204E204E204E204E204E204E204E2048F
:10014000E204E204DE04E204E204E204E204E20483
:10015000E204E204BB04E204E204E204E204E20496
:10016000E204E204E204E204E204E204E204E2045F
:10017000E204E204AF04E204E204E204E204E20482
:10018000E204E204CD040C9492040C94BB040C949D
:10019000CD040C94C5010C94AF040C94E2040C94AF
:1001A00090040C94CD010C94DE0411241FBECFEFFB
:1001B000D1E2DEBFCDBF00E00CBF13E0A0E0B2E0B3
:1001C000E4E3F6E100E00BBF02C007900D92A03B14
:1001D000B107D9F723E0A0EBB3E001C01D92A23C28
:1001E000B207E1F70E9414010C94180B0C94000064
:1001F000E2E0F1E080818FEF8083E0E0F1E0808356
:100200002FEF35EB95E3215030409040E1F700C0EF
:10021000000010822FEF35EB95E3215030409040E5
:10022000E1F700C00000EBCFCF93DF9300D01F9227
:100230001F92CDB7DEB78FEF84B987E690E00E94BA
:10024000BA016DEC71E085EC91E00E9492068DE1BF
:1002500092E09F938F930E94DD0680E090E00E94E1
:1002600072020E9478030E94F2030E94F8040E9426
:10027000760540E050E09A0160E070E081E090E0B7
:100280000E9488050F900F9006E413E00F2EF0E314
:10029000AF2EF2E0BF2EF02D0F2EF3E2CF2EF2E0C4
:1002A000DF2EF02D0F2EFCE4EF2EF2E0FF2EF02DCE
:1002B000992493941F930F930E94DD06CE0101961B
:1002C0000E94BD020F900F9089819A818736910517
:1002D00039F088369105E1F08636910599F405C02C
:1002E0008C819D810E94AF0313C08D818F938C817F
:1002F0008F93DF92CF920E94DD060F900F900F90A8
:100300000F9006C0BF92AF920E94DD060F900F9033
:100310000E94DB03843F9140C0F48091B0038111BF
:1003200007C0809100028150809300029092B00338
:10033000809100021F928F93FF92EF920E94DD0640
:100340000F900F900F900F9002C01092B0030E9478
:100350004C0566277727681B790B40E050E088E85A
:1003600093E10E94D0058FE39CE90197F1F700C06B
:100370000000A0CF9093C5008093C40088E18093D3
:10038000C1008EE08093C2000895E0ECF0E090811F
:1003900095FFFDCF8093C60008958091C00088230B
:1003A00024F08091C60090E008958091C60090E00E
:1003B000089584B1876884B9239881E58CBD089538
:1003C0000E94D90108958EBD0DB407FC07C081E2DB
:1003D0008A95F1F700000DB407FEF9CF089588E083
:1003E00084B980E48CBD08958FEF8EBD0DB407FEF7
:1003F000FDCF8EB50895CF93C82F2F9883E00E942C
:10040000E3018C2F0E94E3010E94F4012F9ACF9107
:100410000895CF93DF93D82FC62F2F9882E00E94A4
:10042000E3018D2F0E94E3018C2F0E94E3012F9A9C
:10043000DF91CF9108952F980E94E3012F9A08959C
:100440001F93CF93DF93182FD62FC42F2F9885E0BB
:100450000E94E301812F0E94E3018D2F0E94E3019E
:100460008C2F0E94E301DF91CF911F9108952F9867
:1004700080EC0E94E3012F9A0895CF93DF93EC0163
:100480000E94D9010E9437026C2F8FE00E9409025E
:1004900084EA8A95F1F78EE00E94FB01807E282F86
:1004A00030E02C173D0751F081E792E09F938F9346
:1004B0000E94DD060F900F9081E009C081EA92E072
:1004C0009F938F930E94DD060F900F9080E0DF9145
:1004D000CF9108952F9880EA0E94E3010E94F401D1
:1004E0002F9A08950E943D02089580E30E94FB0127
:1004F00080E30E94FB0180E0089580E00E94FB0100
:1005000091E0811190E0892F08950F931F93CF936D
:100510008C010E947D02882361F1F8016081718164
:1005200076956795769567957695679581E30E94B0
:100530000902F80160816295660F607E82E30E9485
:100540000902F80162816F7085E30E940902F801D7
:100550008281882359F0C0E0F801638186E30E941C
:100560000902CF5FF8018281C817B0F381E80E94C9
:100570001B02CF911F910F9108950F931F93CF935B
:10058000DF938C0161E08BE20E9409028CE20E9401
:10059000FB01C82F80FF2EC081E60E94FB01D82FEF
:1005A00082E60E94FB01282F30E03595279535958E
:1005B0002795359527953595279535952795C90123
:1005C00048E0D49F800D911D1124F8019183808310
:1005D00085E60E94FB018F70F801828386E60E9407
:1005E000FB0190E0F801948383836FEF6C0F8CE242
:1005F0000E940902C1FF2DC081E70E94FB01D82F94
:1006000082E70E94FB01282F30E03595279535952C
:100610002795359527953595279535952795F8E0B4
:10062000DF9F200D311D1124F8013183208385E7E0
:100630000E94FB018F70F801828386E70E94FB0114
:1006400090E0F801948383836EEF6C0F8CE20E943C
:100650000902DF91CF911F910F910895CF93DF93FE
:10066000EC0189818F9388818F9387EB92E09F9330
:100670008F930E94DD0688819981845691090F909D
:100680000F900F900F908730910508F5880F991FF4
:10069000FC01E85FFD4F81818F9380818F9386EC11
:1006A00092E09F938F930E94DD06E881F981E356E3
:1006B000FE4F20818B819C8130E8239F8019910916
:1006C00011249C838B830F900F900F900F908C813F
:1006D0008F938B818F9389EC92E09F938F930E94ED
:1006E000DD060F900F900F900F90DF91CF9108953E
:1006F000E0E8F0E080818260808380818E7F80836B
:10070000A1E8B0E08C9188618C938C918B7F8C9365
:100710008C9182608C938C918E7F8C93259A8081B2
:100720008068808380818F7B80838CE980938700C1
:1007300080E48093860088E293E00E94F1060895A9
:10074000863408F486E4893C08F088EC24E1829F32
:10075000C0011124909389008093880008959C0122
:100760002C593F4F4DE0429FC001439F900D1124F3
:1007700064E170E00E94620686E4860F0E94A00396
:100780000895089508950E94F20308950F931F930A
:10079000CF93C4E000E010E00E94DB03080F191FB4
:1007A000C150D1F7C8019695879596958795CF91B9
:1007B0001F910F910895ECE7F0E0808184608083C1
:1007C000EAE7F0E080818064808380818823E9F318
:1007D000209178008091790090E0982F8827820FEF
:1007E000911D089510BAEAE7F0E080818068808367
:1007F000808187608083ECE7F0E080818064808383
:100800008081806880830E94DB0308958CE0809360
:10081000B8008FEF8093BB0084E08093BC00089504
:100820008091BC0081700895ECEBF0E0808180FD48
:10083000FDCF809116020895CF93DF93EC01ECEB8E
:10084000F0E0908190FDFDCF6093B3039881909389
:10085000B40390FD13C0623088F0FE013196A5EB21
:10086000B3E06250262F30E02E5F3F4FCE01820F63
:10087000931F21912D93E817F907D9F71092B1032F
:1008800088EF8093160285EA8093BC00DF91CF91B8
:100890000895ECEBF0E0808180FDFDCF1092B10374
:1008A00088EF8093160285EA8093BC000895ECEBF4
:1008B000F0E0208120FDFDCF2091B10320FF0DC08D
:1008C000662359F024EB33E0A82FB92FF901819169
:1008D0008D938E2F821B8617D0F38091B103817088
:1008E00008951F920F920FB60F9211240BB60F921C
:1008F0002F933F938F939F93AF93BF93EF93FF9368
:10090000E091B9008E2F90E0FC013897E135F105B8
:1009100008F058C08827EE58FF4F8F4F0C9476068A
:100920001092B203E091B2038091B303E81770F420
:1009300081E08E0F8093B203F0E0EC54FC4F808195
:100940008093BB0085E88093BC0043C08091B103D5
:1009500081608093B10384E98093BC003AC0E09148
:10096000B20381E08E0F8093B2038091BB00F0E070
:10097000EC54FC4F80832091B20330E08091B303AC
:1009800090E001972817390724F485EC8093BC0088
:1009900020C085E88093BC001CC08091BB00E09122
:1009A000B203F0E0EC54FC4F80838091B10381608E
:1009B0008093B10384E98093BC000BC085EA8093E7
:1009C000BC0007C08091B9008093160284E0809338
:1009D000BC00FF91EF91BF91AF919F918F913F919B
:1009E0002F910F900BBE0F900FBE0F901F90189578
:1009F0000E94060478948FEF809301011092070102
:100A0000E2E0F1E080818061808380818064808386
:100A10008FEE90E00197F1F700C0000080818F7B9E
:100A200080838FEE90E00197F1F700C00000808195
:100A30008064808387E393E09F938F930E94DD0619
:100A40000F900F900895CF93DF9300D0CDB7DEB70E
:100A5000882334F4E2E0F1E090819260908305C055
:100A6000E2E0F1E090819D7F90839EE599831A8278
:100A7000082E000C990B99231CF4919581959109EE
:100A80008B8363E0CE0101960E941C040F900F90AF
:100A90000F90DF91CF910895E2E0F1E080818F7DAA
:100AA00080838081877F80838AE68A95F1F700C002
:100AB000A6E0B1E08C919081986090839AE69A9537
:100AC000F1F700C02C91908190629083082E000C69
:100AD000990B982F8827822B0895E2E0F1E080811E
:100AE0008F7B808380818064808308958CE90E945D
:100AF00023052FEF87EA91E6215080409040E1F7EF
:100B000000C000000E946D0580E00E94230508954A
:100B10000F931F93CF93DF93E9018B858F938A8582
:100B20008F9389858F9388858F938F818F938E8103
:100B30008F930DE613E01F930F930E94DD061A8238
:100B40001B821C821D821982188281E090E09F83A3
:100B50008E83198618861B861A8689E493E09F93F4
:100B60008F930E94DD068B858F938A858F9389856D
:100B70008F9388858F938F818F938E818F931F930F
:100B80000F930E94DD068DB79EB742960FB6F8947C
:100B90009EBF0FBE8DBFDF91CF911F910F91089522
:100BA000CF92DF92EF92FF920F931F93CF93DF9339
:100BB0007C018B01EA0127E533E03F932F930E94EC
:100BC000DD068B858F938A858F9389858F938885A2
:100BD0008F938F818F938E818F932BE633E03F939A
:100BE0002F930E94DD06C701801B910B2885398554
:100BF000829F6001839FD00C929FD00C11240D2CFA
:100C0000000CEE08FF084A815B816C817D81C40E77
:100C1000D51EE61EF71ECA82DB82EC82FD822E8183
:100C20003F81829FE001839FD00D929FD00D1124C0
:100C3000CC0DDD1D2DB73EB7265F3F4F0FB6F894A4
:100C40003EBF0FBE2DBFDD2314F4C158DF4FCC0FC4
:100C5000CD2FCC1FDD0BDF93CF93B701A601FF2073
:100C600024F441585F4F6F4F7F4F689416F8759585
:100C70006795579547951694D1F75F934F939F9338
:100C80008F931F930F9382E893E09F938F930E941B
:100C9000DD068DB79EB70A960FB6F8949EBF0FBEBD
:100CA0008DBF8C2F9D2FDF91CF911F910F91FF90C2
:100CB000EF90DF90CF900895FC011282138214828E
:100CC0001582089597FB072E16F4009407D077FD40
:100CD00009D00E947E0607FC05D03EF490958195D0
:100CE0009F4F0895709561957F4F0895EE0FFF1FF8
:100CF000881F8BBF0790F691E02D1994AA1BBB1B90
:100D000051E107C0AA1FBB1FA617B70710F0A61B0B
:100D1000B70B881F991F5A95A9F780959095BC012C
:100D2000CD0108950F931F93CF93DF93009731F474
:100D30006115710519F480E090E03AC08B01EC0177
:100D40006EE070E081E090E00E941C09FC01892BBC
:100D500091F380E883830115110571F013870287F1
:100D600081E883838091B8039091B903892B21F4A2
:100D7000F093B903E093B8032097C9F0D187C087F7
:100D80008381826083838091BA039091BB03892B16
:100D900071F4F093BB03E093BA038091BC0390918C
:100DA000BD03892B21F4F093BD03E093BC03CF0175
:100DB000DF91CF911F910F910895CF93DF93CDB71E
:100DC000DEB7AE014A5F5F4FFA0161917191AF01E9
:100DD0008091BA039091BB030E942107DF91CF91CC
:100DE00008950F931F93CF93DF93E091BA03F0918F
:100DF000BB03238121FF1BC08C01D0E0C0E0F801C0
:100E000081918F016091BA037091BB03DB01189649
:100E1000ED91FC911997882331F01995892B79F37D
:100E2000DFEFCFEFECCF8AE01995892B19F08FEF28
:100E30009FEF02C08D2F9C2FDF91CF911F910F91BB
:100E400008952F923F924F925F926F927F928F926E
:100E50009F92AF92BF92CF92DF92EF92FF920F9349
:100E60001F93CF93DF93CDB7DEB72C970FB6F894CF
:100E7000DEBF0FBECDBF7C016B018A01FC01178272
:100E80001682838181FFBDC1CE0101964C01F7011D
:100E90009381F60193FD859193FF81916F018823E2
:100EA00009F4ABC1853239F493FD859193FF8191AB
:100EB0006F01853229F4B70190E00E94820AE7CFE2
:100EC000512C312C20E02032A0F48B3269F030F428
:100ED000803259F0833269F420612CC08D3239F0B0
:100EE000803339F4216026C02260246023C028604A
:100EF00021C027FD27C030ED380F3A3078F426FFA7
:100F000006C0FAE05F9E300D1124532E13C08AE014
:100F1000389E300D1124332E20620CC08E3221F405
:100F200026FD6BC1206406C08C3611F4206802C017
:100F3000883641F4F60193FD859193FF81916F010D
:100F40008111C1CF982F9F7D9554933028F40C5F69
:100F50001F4FFFE3F9830DC0833631F0833771F003
:100F6000833509F05BC022C0F801808189830E5F60
:100F70001F4F44244394512C540115C03801F2E012
:100F80006F0E711CF801A080B18026FF03C0652D93
:100F900070E002C06FEF7FEFC5012C870E94770AD7
:100FA0002C0183012C852F77222E17C03801F2E007
:100FB0006F0E711CF801A080B18026FF03C0652D63
:100FC00070E002C06FEF7FEFC5012C870E94650AB9
:100FD0002C012C852068222E830123FC1BC0832D2D
:100FE00090E048165906B0F4B70180E290E00E9404
:100FF000820A3A94F4CFF50127FC859127FE81916E
:101000005F01B70190E00E94820A31103A94F1E04A
:101010004F1A51084114510471F7E5C0843611F09C
:10102000893639F5F80127FF07C060817181828117
:1010300093810C5F1F4F08C060817181072E000CE7
:10104000880B990B0E5F1F4F2F76722E97FF09C0EA
:1010500090958095709561957F4F8F4F9F4F206839
:10106000722E2AE030E0A4010E94BA0AA82EA81825
:1010700044C0853729F42F7EB22E2AE030E025C007
:10108000F22FF97FBF2E8F36C1F018F4883579F032
:10109000B4C0803719F0883721F0AFC02F2F2061FE
:1010A000B22EB4FE0DC08B2D8460B82E09C024FF73
:1010B0000AC09F2F9660B92E06C028E030E005C018
:1010C00020E130E002C020E132E0F801B7FE07C0C5
:1010D00060817181828193810C5F1F4F06C06081A6
:1010E000718180E090E00E5F1F4FA4010E94BA0A58
:1010F000A82EA818FB2DFF777F2E76FE0BC0372D6C
:101100003E7FA51450F474FE0AC072FC08C0372D4F
:101110003E7E05C0BA2C372D03C0BA2C01C0B52CB9
:1011200034FF0DC0FE01EA0DF11D8081803311F402
:10113000397E09C032FF06C0B394B39404C0832F34
:10114000867809F0B39433FD13C030FF06C05A2CE3
:10115000B31418F4530C5B18B32CB31468F4B70130
:1011600080E290E03C870E94820AB3943C85F5CFF0
:10117000B31410F43B1801C0312C34FF12C0B70176
:1011800080E390E03C870E94820A3C8532FF17C0D2
:1011900031FD03C088E790E002C088E590E0B70128
:1011A0000CC0832F867859F031FF02C08BE201C05A
:1011B00080E237FD8DE2B70190E00E94820AA5141B
:1011C00038F4B70180E390E00E94820A5A94F7CF86
:1011D000AA94F401EA0DF11D8081B70190E00E940C
:1011E000820AA110F5CF332009F451CEB70180E275
:1011F00090E00E94820A3A94F6CFF70186819781A7
:1012000002C08FEF9FEF2C960FB6F894DEBF0FBE93
:10121000CDBFDF91CF911F910F91FF90EF90DF90A5
:10122000CF90BF90AF909F908F907F906F905F9086
:101230004F903F902F9008950F931F93CF93DF937C
:10124000869F8001879F100D969F100D1124C80165
:101250000E943809EC01009729F0A80160E070E0D5
:101260000E94700ACE01DF91CF911F910F910895D6
:10127000CF93DF938230910510F482E090E0E0910B
:10128000C003F091C10320E030E0C0E0D0E030972F
:1012900011F14081518148175907C0F0481759078B
:1012A00061F482819381209719F09B838A832BC0FC
:1012B0009093C1038093C00326C02115310519F016
:1012C0004217530718F49A01BE01DF01EF010280B3
:1012D000F381E02DDCCF2115310509F1281B390BF5
:1012E0002430310590F412968D919C9113976115DD
:1012F000710521F0FB019383828304C09093C103A5
:101300008093C003FD01329644C0FD01E20FF31F3C
:1013100081939193225031092D933C933AC02091AF
:10132000BE033091BF03232B41F420911902309169
:101330001A023093BF032093BE032091170230910D
:1013400018022115310541F42DB73EB740911B021B
:1013500050911C02241B350BE091BE03F091BF039A
:10136000E217F307A0F42E1B3F0B2817390778F07C
:10137000AC014E5F5F4F2417350748F04E0F5F1FDB
:101380005093BF034093BE038193919302C0E0E06A
:10139000F0E0CF01DF91CF9108950F931F93CF938A
:1013A000DF93009709F48CC0FC01329713821282FC
:1013B0000091C0031091C1030115110581F4208132
:1013C0003181820F931F2091BE033091BF032817F4
:1013D000390779F5F093BF03E093BE0371C0D801DC
:1013E00040E050E0AE17BF0750F412962D913C91AB
:1013F0001397AD012115310509F1D901F3CF9D01F5
:10140000DA013383228360817181860F971F8217EF
:10141000930769F4EC0128813981260F371F2E5F6D
:101420003F4F318320838A819B8193838283452B25
:1014300029F4F093C103E093C00342C01396FC93D8
:10144000EE931297ED01499159919E01240F351F9A
:10145000E217F30771F480819181840F951F029642
:1014600011969C938E938281938113969C938E9375
:101470001297E0E0F0E0D80112968D919C911397BD
:10148000009719F0F8018C01F6CF8D919C9198018D
:101490002E5F3F4F820F931F2091BE033091BF03F9
:1014A0002817390769F4309729F41092C103109274
:1014B000C00302C0138212821093BF030093BE03C5
:1014C000DF91CF911F910F910895FC01059061501C
:1014D00070400110D8F7809590958E0F9F1F08954A
:1014E000DC0101C06D9341505040E0F70895FC01CC
:1014F0006150704001900110D8F7809590958E0F43
:101500009F1F08950F931F93CF93DF93FB012381B8
:1015100021FD03C08FEF9FEF28C022FF16C0468138
:101520005781248135814217530744F4A081B1814A
:101530009D012F5F3F4F318320838C93268137811C
:101540002F5F3F4F3783268310C0EB01092F182FE1
:101550000084F185E02D1995892BE1F68E819F811C
:1015600001969F838E83812F902FDF91CF911F91C2
:101570000F910895FA01AA27283051F1203181F105
:10158000E8946F936E7F6E5F7F4F8F4F9F4FAF4F8B
:10159000B1E03ED0B4E03CD0670F781F891F9A1F9E
:1015A000A11D680F791F8A1F911DA11D6A0F711D52
:1015B000811D911DA11D20D009F468943F912AE05E
:1015C000269F11243019305D3193DEF6CF01089546
:1015D000462F4770405D4193B3E00FD0C9F7F6CF77
:1015E000462F4F70405D4A3318F0495D31FD40523F
:1015F000419302D0A9F7EACFB4E0A69597958795D5
:1016000077956795BA95C9F70097610571050895B3
:101610009B01AC010A2E069457954795379527955F
:10162000BA95C9F7620F731F841F951FA01D0895F7
:04163000F894FFCF5C
:10163400FA00000001010001D302D702E302F00224
:10164400FB0206031903F80000C2032000535441AF
:10165400525400736C69646572203A202564090051
:101664006E6F20726563657074696F6E206F72208F
:10167400494420756E757365640A0D00596F7520B1
:101684006C6F6F736520436C616972652C20796F90
:10169400752772652073636F7265206973202564F2
:1016A400004D435032353135206973204E4F54205C
:1016B400696E207468652063686F73656E206D6F52
:1016C40064652061667465722072657365740A0DC1
:1016D400004D43502077656C6C20636F6E666967BC
:1016E400757265640A0D004D6573736167652069E1
:1016F4006420256409002573006D73673A2025640E
:1017040009200042544E006C6566745F736C696412
:1017140065720072696768745F736C6964657200EE
:101724006A6F79737469636B5F58006A6F79737455
:1017340069636B5F59006A6F79737469636B5F6D7A
:1017440061676E6974756465006A6F79737469633F
:101754006B5F616E676C650050574D20494E49546C
:1017640020444F4E450D004D4F544F5220494E4991
:101774005420444F4E450A0D0050494420494E49D7
:101784005420444F4E4500494E5349444520434F4D
:101794004E54524F4C4C45522009000A0D502049DA
:1017A4002044203A202564203B202564203B20252A
:1017B40064000A0D656E636F646572256409657261
:1017C400726F722025640973756D4572726F722091
:1017D4002564096F757075742050494425640900A7
:00000001FF
