:100000000C9476000C9497000C9497000C94970035
:100010000C9497000C9497000C9497000C94970004
:100020000C9497000C9497000C9497000C949700F4
:100030000C9497000C9497000C9497000C949700E4
:100040000C9497000C9497000C9497000C949700D4
:100050000C9497000C9497000C9497000C949700C4
:100060000C9497000C9497000C9497000C949700B4
:100070000C9497000C9497000C9497000C949700A4
:100080000C9497000C9497000C9497000C94970094
:100090000C9497000C9497000C9497000C94970084
:1000A0000C9497000C9497000C9497000C94970074
:1000B0000C9497000C9497000C9497000C94970064
:1000C0000C9497000C9497000C9497000C94970054
:1000D0000C9497000C9497000C9497000C94970044
:1000E0000C9497000C94CF000C94D70011241FBEE1
:1000F000CFEFD1E2DEBFCDBF00E00CBF13E0A0E048
:10010000B2E0EEE8FEE000E00BBF02C007900D9207
:10011000AA31B107D9F723E0AAE1B3E001C01D92EB
:10012000A432B207E1F70E9499000C9445070C94A1
:100130000000CF93DF93CDB7DEB72B970FB6F894BF
:10014000DEBF0FBECDBF8FEF84B987E690E00E947F
:10015000C40067ED70E08FEC90E00E94EF0284E154
:1001600092E09F938F930E943A0380E090E00E9478
:1001700076010F900F90CE0101960E94C401CE012E
:1001800001960E944C02F7CF9093C5008093C40063
:1001900088E18093C1008EE08093C2000895E0EC76
:1001A000F0E0908195FFFDCF8093C6000895809187
:1001B000C000882324F08091C60090E008958091CB
:1001C000C60090E0089584B1876884B9239881E5DA
:1001D0008CBD08950E94E30008958EBD0DB407FE06
:1001E000FDCF089588E084B980E48CBD08958FEF39
:1001F0008EBD0DB407FEFDCF8EB50895CF93C82FE9
:100200002F9883E00E94ED008C2F0E94ED000E9449
:10021000F7002F9ACF910895CF93DF93D82FC62F51
:100220002F9882E00E94ED008D2F0E94ED008C2F10
:100230000E94ED002F9ADF91CF9108952F980E9490
:10024000ED002F9A08951F93CF93DF93182FD62F89
:10025000C42F2F9885E00E94ED00812F0E94ED00B1
:100260008D2F0E94ED008C2F0E94ED00DF91CF9129
:100270001F9108952F9880EC0E94ED002F9A089509
:10028000CF93DF93EC010E94E3000E943A016C2FB0
:100290008FE00E940C0181E28A95F1F700008EE068
:1002A0000E94FE00807E282F30E02C173D0751F081
:1002B0008CE192E09F938F930E943A030F900F90EE
:1002C00081E009C08CE492E09F938F930E943A03EF
:1002D0000F900F9080E0DF91CF9108952F9880EAE2
:1002E0000E94ED000E94F7002F9A08950E9440019D
:1002F000089580E30E94FE0080E30E94FE0080E0FB
:10030000089580E00E94FE0091E0811190E0892F25
:1003100008950F931F93CF938C010E94810188232E
:1003200079F1F80160817181769567957695679589
:100330007695679581E30E940C01F80160816295D2
:10034000660F607E82E30E940C01F80162816F708B
:1003500085E30E940C01F8018281882371F0C0E0DE
:10036000F801EC0FF11D638186E38C0F0E940C01F4
:10037000CF5FF8018281C81798F381E80E941E01BF
:10038000CF911F910F910895FF920F931F93CF93D9
:10039000DF938C0161E08BE20E940C018CE20E94F1
:1003A000FE00D82F80FF39C081E60E94FE00C82FD2
:1003B00082E60E94FE00282F30E03595279535957E
:1003C0002795359527953595279535952795C90115
:1003D00048E0C49F800D911D1124F8019183808312
:1003E00085E60E94FE008F70F80182838823A9F0C1
:1003F000C0E0FF24FA94FD0E86E68C0F0E94FE00FA
:10040000F801EC0FF11D83836F2D8CE20E940C012B
:10041000CF5FF8018281C81778F3D1FF37C081E739
:100420000E94FE00C82F82E70E94FE00282F30E0C5
:1004300035952795359527953595279535952795A4
:1004400035952795C901F8E0CF9F800D911D1124A6
:10045000F8019183808385E70E94FE008F70F80188
:100460008283882399F0C0E0D25086E78C0F0E94E7
:10047000FE00F801EC0FF11D83836D2F8CE20E94CA
:100480000C01CF5FF8018281C81778F3DF91CF911B
:100490001F910F91FF900895CF93DF93EC01898115
:1004A0008F9388818F9381E692E09F938F930E9430
:1004B0003A0328813981245631090F900F900F900B
:1004C0000F902730310598F4220F331FF901E050C7
:1004D000FE4F81818F9380818F9389E792E09F9374
:1004E0008F930E943A030F900F900F900F908B8183
:1004F000880F990B9F938F938A811F928F938CE71C
:1005000092E09F938F930E943A030F900F900F9069
:100510000F900F900F90DF91CF910895E0E8F0E0F9
:1005200080818260808380818E7F8083A1E8B0E0BB
:100530008C9188618C938C918B7F8C938C91826051
:100540008C938C918E7F8C93259A80818068808398
:1005500080818F7B80838CE98093870080E4809307
:10056000860088EE92E09F938F930E943A030F904B
:100570000F900895CF93DF939AEB980F933850F52F
:1005800024E1829FC0011124E9E8F0E09083C8E8EB
:10059000D0E0888380811F928F9382EF92E09F93B7
:1005A0008F930E943A0388811F928F9381E093E09A
:1005B0009F938F930E943A038FE093E09F938F93D2
:1005C0000E943A038DB79EB70A960FB6F8949EBF65
:1005D0000FBE8DBFDF91CF910895089508950F93B9
:1005E0001F93CF93DF93009731F46115710519F4D0
:1005F00080E090E03AC08B01EC016EE070E081E0B9
:1006000090E00E944905FC01892B91F380E88383E7
:100610000115110571F01387028781E883838091AA
:100620001A0390911B03892B21F4F0931B03E09391
:100630001A032097C9F0D187C087838182608383A2
:1006400080911C0390911D03892B71F4F0931D037D
:10065000E0931C0380911E0390911F03892B21F4CA
:10066000F0931F03E0931E03CF01DF91CF911F9101
:100670000F910895CF93DF93CDB7DEB7AE014A5FF8
:100680005F4FFA0161917191AF0180911C039091CC
:100690001D030E944E03DF91CF9108952F923F9248
:1006A0004F925F926F927F928F929F92AF92BF9282
:1006B000CF92DF92EF92FF920F931F93CF93DF932E
:1006C000CDB7DEB72C970FB6F894DEBF0FBECDBF07
:1006D0007C016B018A01FC0117821682838181FFF4
:1006E000BDC1CE0101964C01F7019381F60193FD46
:1006F000859193FF81916F01882309F4ABC1853205
:1007000039F493FD859193FF81916F01853229F42E
:10071000B70190E00E94AF06E7CF512C312C20E0CA
:100720002032A0F48B3269F030F4803259F08332F9
:1007300069F420612CC08D3239F0803339F42160A6
:1007400026C02260246023C0286021C027FD27C066
:1007500030ED380F3A3078F426FF06C0FAE05F9E9D
:10076000300D1124532E13C08AE0389E300D112411
:10077000332E20620CC08E3221F426FD6BC1206422
:1007800006C08C3611F4206802C0883641F4F601A8
:1007900093FD859193FF81916F018111C1CF982FB6
:1007A0009F7D9554933028F40C5F1F4FFFE3F9832E
:1007B0000DC0833631F0833771F0833509F05BC0AB
:1007C00022C0F801808189830E5F1F4F4424439427
:1007D000512C540115C03801F2E06F0E711CF80164
:1007E000A080B18026FF03C0652D70E002C06FEFCE
:1007F0007FEFC5012C870E94A4062C0183012C8564
:100800002F77222E17C03801F2E06F0E711CF8010D
:10081000A080B18026FF03C0652D70E002C06FEF9D
:100820007FEFC5012C870E9492062C012C85206841
:10083000222E830123FC1BC0832D90E0481659060D
:10084000B0F4B70180E290E00E94AF063A94F4CF92
:10085000F50127FC859127FE81915F01B70190E0AA
:100860000E94AF0631103A94F1E04F1A510841143A
:10087000510471F7E5C0843611F0893639F5F80175
:1008800027FF07C060817181828193810C5F1F4FB8
:1008900008C060817181072E000C880B990B0E5FD8
:1008A0001F4F2F76722E97FF09C0909580957095F7
:1008B00061957F4F8F4F9F4F2068722E2AE030E066
:1008C000A4010E94E706A82EA81844C0853729F481
:1008D0002F7EB22E2AE030E025C0F22FF97FBF2E06
:1008E0008F36C1F018F4883579F0B4C0803719F02C
:1008F000883721F0AFC02F2F2061B22EB4FE0DC07B
:100900008B2D8460B82E09C024FF0AC09F2F9660EB
:10091000B92E06C028E030E005C020E130E002C07A
:1009200020E132E0F801B7FE07C060817181828169
:1009300093810C5F1F4F06C06081718180E090E061
:100940000E5F1F4FA4010E94E706A82EA818FB2DDA
:10095000FF777F2E76FE0BC0372D3E7FA51450F417
:1009600074FE0AC072FC08C0372D3E7E05C0BA2C4A
:10097000372D03C0BA2C01C0B52C34FF0DC0FE01C9
:10098000EA0DF11D8081803311F4397E09C032FFF8
:1009900006C0B394B39404C0832F867809F0B3944F
:1009A00033FD13C030FF06C05A2CB31418F4530C97
:1009B0005B18B32CB31468F4B70180E290E03C8775
:1009C0000E94AF06B3943C85F5CFB31410F43B18E6
:1009D00001C0312C34FF12C0B70180E390E03C87A6
:1009E0000E94AF063C8532FF17C031FD03C088E787
:1009F00090E002C088E590E0B7010CC0832F8678B4
:100A000059F031FF02C08BE201C080E237FD8DE278
:100A1000B70190E00E94AF06A51438F4B70180E357
:100A200090E00E94AF065A94F7CFAA94F401EA0D21
:100A3000F11D8081B70190E00E94AF06A110F5CFB3
:100A4000332009F451CEB70180E290E00E94AF0656
:100A50003A94F6CFF7018681978102C08FEF9FEF1E
:100A60002C960FB6F894DEBF0FBECDBFDF91CF91AD
:100A70001F910F91FF90EF90DF90CF90BF90AF90BC
:100A80009F908F907F906F905F904F903F902F90AE
:100A900008950F931F93CF93DF93869F8001879FC5
:100AA000100D969F100D1124C8010E946505EC01E0
:100AB000009729F0A80160E070E00E949D06CE0139
:100AC000DF91CF911F910F910895CF93DF938230E3
:100AD000910510F482E090E0E0912203F09123036D
:100AE00020E030E0C0E0D0E0309711F1408151814A
:100AF00048175907C0F04817590761F4828193815C
:100B0000209719F09B838A832BC0909323038093B3
:100B1000220326C02115310519F04217530718F496
:100B20009A01BE01DF01EF010280F381E02DDCCFED
:100B30002115310509F1281B390B2430310590F4BA
:100B400012968D919C9113976115710521F0FB010F
:100B50009383828304C09093230380932203FD0137
:100B6000329644C0FD01E20FF31F8193919322500E
:100B700031092D933C933AC02091200330912103F9
:100B8000232B41F420911002309111023093210364
:100B90002093200320910E0230910F022115310580
:100BA00041F42DB73EB74091120250911302241B1D
:100BB000350BE0912003F0912103E217F307A0F435
:100BC0002E1B3F0B2817390778F0AC014E5F5F4FA3
:100BD0002417350748F04E0F5F1F509321034093B1
:100BE00020038193919302C0E0E0F0E0CF01DF9118
:100BF000CF9108950F931F93CF93DF93009709F43C
:100C00008CC0FC0132971382128200912203109152
:100C100023030115110581F420813181820F931F77
:100C200020912003309121032817390779F5F0939B
:100C30002103E093200371C0D80140E050E0AE17DB
:100C4000BF0750F412962D913C911397AD012115D9
:100C5000310509F1D901F3CF9D01DA0133832283F4
:100C600060817181860F971F8217930769F4EC01E9
:100C700028813981260F371F2E5F3F4F3183208314
:100C80008A819B8193838283452B29F4F0932303EC
:100C9000E093220342C01396FC93EE931297ED016A
:100CA000499159919E01240F351FE217F30771F402
:100CB00080819181840F951F029611969C938E934B
:100CC0008281938113969C938E931297E0E0F0E0DB
:100CD000D80112968D919C911397009719F0F80105
:100CE0008C01F6CF8D919C9198012E5F3F4F820F22
:100CF000931F20912003309121032817390769F4AD
:100D0000309729F4109223031092220302C0138219
:100D100012821093210300932003DF91CF911F9142
:100D20000F910895FC010590615070400110D8F7B3
:100D3000809590958E0F9F1F0895DC0101C06D93E3
:100D400041505040E0F70895FC016150704001901F
:100D50000110D8F7809590958E0F9F1F08950F93DF
:100D60001F93CF93DF93FB01238121FD03C08FEFFE
:100D70009FEF28C022FF16C046815781248135810C
:100D80004217530744F4A081B1819D012F5F3F4F6B
:100D9000318320838C93268137812F5F3F4F3783A8
:100DA000268310C0EB01092F182F0084F185E02D58
:100DB0001995892BE1F68E819F8101969F838E8301
:100DC000812F902FDF91CF911F910F910895FA01FC
:100DD000AA27283051F1203181F1E8946F936E7F7A
:100DE0006E5F7F4F8F4F9F4FAF4FB1E03ED0B4E06B
:100DF0003CD0670F781F891F9A1FA11D680F791FAC
:100E00008A1F911DA11D6A0F711D811D911DA11DBC
:100E100020D009F468943F912AE0269F11243019CC
:100E2000305D3193DEF6CF010895462F4770405D67
:100E30004193B3E00FD0C9F7F6CF462F4F70405D16
:100E40004A3318F0495D31FD4052419302D0A9F771
:100E5000EACFB4E0A6959795879577956795BA956B
:100E6000C9F700976105710508959B01AC010A2E31
:100E700006945795479537952795BA95C9F7620F08
:0E0E8000731F841F951FA01D0895F894FFCFC7
:100E8E0093029702A302B002BB02C602D90200006F
:100E9E002403200053544152540A0D004D43503246
:100EAE00353135206973204E4F5420696E20746899
:100EBE00652063686F73656E206D6F646520616673
:100ECE007465722072657365740A0D00476F6F64E6
:100EDE0020636F6E66696775726174696F6E0A0D55
:100EEE00004D65737361676520726563656976652C
:100EFE00643A206964202564002573004C656E6792
:100F0E0074683A20256409206D73673A2025640AB7
:100F1E000D200042544E006C6566745F736C6964FC
:100F2E0065720072696768745F736C6964657200DC
:100F3E006A6F79737469636B5F58006A6F79737443
:100F4E0069636B5F59006A6F79737469636B5F6D68
:100F5E0061676E6974756465006A6F79737469632D
:100F6E006B5F616E676C6500494E495420444F4E6D
:100F7E0045000A0D4F43523141483A2025640A0D6F
:100F8E00004F435231414C3A202025640A0D006433
:0A0F9E00757479204F4B200A0D00F6
:00000001FF
