:100000000C94D5000C94F6000C94F6000C94F600B9
:100010000C94F6000C94F6000C94F6000C94F60088
:100020000C94F6000C94F6000C94F6000C94F60078
:100030000C94F6000C94F6000C94F6000C94F60068
:100040000C94F6000C94F6000C94F6000C94F60058
:100050000C94F6000C94F6000C94F6000C94F60048
:100060000C94F6000C94F6000C94F6000C94F60038
:100070000C94F6000C94F6000C94F6000C94F60028
:100080000C94F6000C94F6000C94F6000C94F60018
:100090000C94F6000C94F6000C94F6000C94E50415
:1000A0000C94F6000C94F6000C94F6000C94F600F8
:1000B0000C94F6000C94F6000C94F6000C94F600E8
:1000C0000C94F6000C94F6000C94F6000C94F600D8
:1000D0000C94F6000C94F6000C94F6000C94F600C8
:1000E0000C94F600040556055605560556055605AA
:1000F000560556050405560556055605560556057A
:100100005605560506055605560556055605560567
:100110005605560556055605560556055605560507
:100120005605560506055605560556055605560547
:1001300056055605560556055605560556055605E7
:1001400056055605520556055605560556055605DB
:10015000560556052F0556055605560556055605EE
:1001600056055605560556055605560556055605B7
:1001700056055605230556055605560556055605DA
:100180005605560541050C9406050C942F050C9454
:1001900041050C9439020C9423050C9456050C94DB
:1001A00004050C9441020C94520511241FBECFEF9C
:1001B000D1E2DEBFCDBF00E00CBF13E0A0E0B2E0B3
:1001C000EAEEF6E100E00BBF02C007900D92AA3CF8
:1001D000B107D9F723E0AAECB3E001C01D92AC3D12
:1001E000B207E1F70E9414010C94730B0C94000009
:1001F000E2E0F1E080818FEF8083E0E0F1E0808356
:100200002FEF35EB95E3215030409040E1F700C0EF
:10021000000010822FEF35EB95E3215030409040E5
:10022000E1F700C00000EBCF2F923F924F925F9218
:100230006F927F928F929F92AF92BF92CF92DF92F6
:10024000EF92FF920F931F93CF93DF93CDB7DEB75B
:1002500067970FB6F894DEBF0FBECDBFE1EAF0E0BE
:1002600080818460808380818D7F808380818160B4
:1002700080838FEF84B92E9A87E690E00E942E0249
:1002800061E472E089E392E00E94ED068DE192E084
:100290009F938F930E94380780E090E00E94E602CF
:1002A0000E94EC030E9466040E946C050E94EF0508
:1002B0009E012F5F3F4F40E050E062E070E084E03D
:1002C00090E00E940106E4EAF0E0A080B180808125
:1002D00091810F900F900F2EF4EA8F2E912CF02D1C
:1002E0000F2EF3E2CF2EF2E0DF2EF02D0F2EFEE5E3
:1002F0002F2EF2E03F2EF02D0F2EFDE86F2EF2E0B4
:100300007F2EF02DD401ED90FC9087010A191B0976
:100310001F930F93DF92CF920E943807CE0143962E
:100320000E9431030F900F900F900F908B899C8942
:100330008436910511F120F40A9709F46CC02FC09E
:100340008636910541F08736910549F58E899F895A
:100350000E9423042CC04E88B8E24B9E2001112439
:100360005F924F92A1E5B2E0BF93AF930E9438072E
:100370000F900F900F900F901AC03F922F920E94F3
:1003800038072E98FFEF21EE84E0F15020408040A6
:10039000E1F700C000002E9A0F900F9008C0A1E76F
:1003A000B2E0BF93AF930E9438070F900F900E9466
:1003B0004F04843F9140C8F48091CA03811108C062
:1003C0008091000281508093000221E02093CA03B3
:1003D000809100021F928F937F926F920E94380744
:1003E0000F900F900F900F9002C01092CA0301342B
:1003F00016400CF487CF0E94C10566277727681B3B
:10040000790BAE014F5F5F4FC2010E9417060E9439
:100410009705570177CF80E392E09F938F930E94D7
:1004200038070F900F9080E090E067960FB6F89431
:10043000DEBF0FBECDBFDF91CF911F910F91FF9017
:10044000EF90DF90CF90BF90AF909F908F907F9074
:100450006F905F904F903F902F9008959093C500BC
:100460008093C40088E18093C1008EE08093C20035
:100470000895E0ECF0E0908195FFFDCF8093C600F9
:1004800008958091C000882324F08091C60090E0F8
:1004900008958091C60090E0089584B1876884B97A
:1004A000239881E58CBD08950E944D0208958EBD6C
:1004B0000DB407FC07C081E28A95F1F700000DB486
:1004C00007FEF9CF089588E084B980E48CBD0895D3
:1004D0008FEF8EBD0DB407FEFDCF8EB50895CF937F
:1004E000C82F2F9883E00E9457028C2F0E9457023A
:1004F0000E9468022F9ACF910895CF93DF93D82F4F
:10050000C62F2F9882E00E9457028D2F0E9457021B
:100510008C2F0E9457022F9ADF91CF9108952F9828
:100520000E9457022F9A08951F93CF93DF93182F9D
:10053000D62FC42F2F9885E00E945702812F0E944A
:1005400057028D2F0E9457028C2F0E945702DF9175
:10055000CF911F9108952F9880EC0E9457022F9AF7
:100560000895CF93DF93EC010E944D020E94AB02ED
:100570006C2F8FE00E947D0284EA8A95F1F78EE06D
:100580000E946F02807E282F30E02C173D0751F02B
:1005900082EB92E09F938F930E9438070F900F9009
:1005A00081E009C082EE92E09F938F930E9438070A
:1005B0000F900F9080E0DF91CF9108952F9880EAFF
:1005C0000E9457020E9468022F9A08950E94B10269
:1005D000089580E30E946F0280E30E946F0280E032
:1005E000089580E00E946F0291E0811190E0892FD0
:1005F00008950F931F93CF938C010E94F1028823DB
:1006000061F1F801608171817695679576956795BE
:100610007695679581E30E947D02F801608162957D
:10062000660F607E82E30E947D02F80162816F7036
:1006300085E30E947D02F8018281882359F0C0E0A1
:10064000F801638186E30E947D02CF5FF801828119
:10065000C817B0F381E80E948F02CF911F910F91CC
:1006600008950F931F93CF93DF938C0161E08BE28A
:100670000E947D028CE20E946F02C82F80FF2EC074
:1006800081E60E946F02D82F82E60E946F02282F17
:1006900030E03595279535952795359527953595EE
:1006A000279535952795C90148E0D49F800D911D68
:1006B0001124F8019183808385E60E946F028F7078
:1006C000F801828386E60E946F0290E0F80194832D
:1006D00083836FEF6C0F8CE20E947D02C1FF2DC0FF
:1006E00081E70E946F02D82F82E70E946F02282FB5
:1006F00030E035952795359527953595279535958E
:10070000279535952795F8E0DF9F200D311D1124A1
:10071000F8013183208385E70E946F028F70F80112
:10072000828386E70E946F0290E0F80194838383BE
:100730006EEF6C0F8CE20E947D02DF91CF911F91D2
:100740000F910895CF93DF93EC0189818F93888176
:100750008F9388EF92E09F938F930E943807888150
:100760009981845691090F900F900F900F908730C8
:10077000910508F5880F991FFC01E85FFD4F818105
:100780008F9380818F9387E093E09F938F930E9454
:100790003807E881F981E356FE4F20818B819C81E7
:1007A00030E8239F8019910911249C838B830F903B
:1007B0000F900F900F908C818F938B818F938AE095
:1007C00093E09F938F930E9438070F900F900F90A4
:1007D0000F90DF91CF910895E0E8F0E08081826092
:1007E000808380818E7F8083A1E8B0E08C918861D6
:1007F0008C938C918B7F8C938C9182608C938C9159
:100800008E7F8C93259A80818068808380818F7B06
:1008100080838CE98093870080E48093860089E65A
:1008200093E00E944C070895863408F486E4893CDE
:1008300008F088EC24E1829FC00111249093890084
:100840008093880008959C012E5131094DE0429F0C
:10085000C001439F900D112464E170E00E94BD0629
:1008600086E4860F0E9414040895089508950E9456
:10087000660408950F931F93CF93C4E000E010E047
:100880000E944F04080F191FC150D1F7C801969557
:10089000879596958795CF911F910F910895ECE7D5
:1008A000F0E0808184608083EAE7F0E0808180640A
:1008B000808380818823E9F32091780080917900FA
:1008C00090E0982F8827820F911D089510BAEAE7CB
:1008D000F0E0808180688083808187608083ECE79E
:1008E000F0E08081806480838081806880830E94C2
:1008F0004F0408958CE08093B8008FEF8093BB0085
:1009000084E08093BC0008958091BC0081700895BC
:10091000ECEBF0E0808180FDFDCF80911602089520
:10092000CF93DF93EC01ECEBF0E0908190FDFDCFF5
:100930006093CD0398819093CE0390FD13C06230F5
:1009400088F0FE013196AFECB3E06250262F30E024
:100950002E5F3F4FCE01820F931F21912D93E817F9
:10096000F907D9F71092CB0388EF8093160285EA36
:100970008093BC00DF91CF910895ECEBF0E0808193
:1009800080FDFDCF1092CB0388EF8093160285EA9D
:100990008093BC000895ECEBF0E0208120FDFDCFBA
:1009A0002091CB0320FF0DC0662359F02EEC33E0DD
:1009B000A82FB92FF90181918D938E2F821B861755
:1009C000D0F38091CB03817008951F920F920FB6E0
:1009D0000F9211240BB60F922F933F938F939F93F7
:1009E000AF93BF93EF93FF93E091B9008E2F90E008
:1009F000FC013897E135F10508F058C08827EE581A
:100A0000FF4F8F4F0C94D1061092CC03E091CC0392
:100A10008091CD03E81770F481E08E0F8093CC03B2
:100A2000F0E0E253FC4F80818093BB0085E8809327
:100A3000BC0043C08091CB0381608093CB0384E9E9
:100A40008093BC003AC0E091CC0381E08E0F80938C
:100A5000CC038091BB00F0E0E253FC4F80832091F7
:100A6000CC0330E08091CD0390E00197281739073F
:100A700024F485EC8093BC0020C085E88093BC0002
:100A80001CC08091BB00E091CC03F0E0E253FC4F2E
:100A900080838091CB0381608093CB0384E9809332
:100AA000BC000BC085EA8093BC0007C08091B900F0
:100AB0008093160284E08093BC00FF91EF91BF9178
:100AC000AF919F918F913F912F910F900BBE0F90FF
:100AD0000FBE0F901F9018950E947A0478948FEFA4
:100AE0008093010110920701E2E0F1E080818061D2
:100AF00080838081806480838FEE90E00197F1F79E
:100B000000C0000080818F7B80838FEE90E0019792
:100B1000F1F700C0000080818064808388E793E063
:100B20009F938F930E9438070F900F900895CF9353
:100B3000DF9300D0CDB7DEB7882334F4E2E0F1E0F4
:100B400090819260908305C0E2E0F1E090819D7F0A
:100B500090839EE599831A82082E000C990B9923A5
:100B60001CF4919581959109880F8B8363E0CE01E8
:100B700001960E9490040F900F900F90DF91CF91FB
:100B80000895E2E0F1E080818F7D80838081877F1E
:100B900080838AE68A95F1F700C0A6E0B1E08C91E7
:100BA0009081986090839AE69A95F1F700C02C9115
:100BB000908190629083082E000C990B982F8827C3
:100BC000822B0895E2E0F1E080818F7B80838AE6CA
:100BD0008A95F1F700C080818064808308958EEC4F
:100BE0000E9497052FEF87EA91E6215080409040C0
:100BF000E1F700C000000E94E20580E00E94970536
:100C00000895F901128213821482158211821082D2
:100C10009783868371876087538742878AE893E04A
:100C20009F938F930E9438070F900F900895CF9253
:100C3000DF92EF92FF92CF939B01DA01FC01E61B5A
:100C4000F70B18968D919C911997E89F6001E99F89
:100C5000D00CF89FD00C11240D2C000CEE08FF08CE
:100C600012964D915D916D917C911597C40ED51E94
:100C7000E61EF71E81E0C81684E1D806E104F104FF
:100C80003CF00F2EC12CF4E1DF2EE12CF12CF02DE5
:100C9000C1149CEED9069FEFE906F90644F40F2E25
:100CA000C12CFCEEDF2EEE24EA94FE2CF02D1296E1
:100CB000CD92DD92ED92FC92159716968D919C91B6
:100CC0001797E89FA001E99F500DF89F500D112440
:100CD000052E000C660B770B4C0D5D1D6E1D7F1DE8
:100CE000DB01CA01772324F481509E4FAF4FBF4FE1
:100CF000072E79E0B595A795979587957A95D1F7C1
:100D0000702DC82F803809F4C1E88C2F0C2E000CF0
:100D1000990B9F93CF93B701A601FF2024F4415074
:100D20005E4F6F4F7F4F032E39E07595679557954E
:100D300047953A95D1F7302D5F934F93FF93EF93FB
:100D40003F932F938AE993E09F938F930E943807F4
:100D50008DB79EB70A960FB6F8949EBF0FBE8DBF93
:100D60008C2FCF91FF90EF90DF90CF900895FC01F2
:100D70001282138214821582089597FB072E16F4AF
:100D8000009407D077FD09D00E94D90607FC05D052
:100D90003EF4909581959F4F0895709561957F4F92
:100DA0000895EE0FFF1F881F8BBF0790F691E02D6F
:100DB0001994AA1BBB1B51E107C0AA1FBB1FA61792
:100DC000B70710F0A61BB70B881F991F5A95A9F7F4
:100DD00080959095BC01CD0108950F931F93CF93FB
:100DE000DF93009731F46115710519F480E090E00C
:100DF0003AC08B01EC016EE070E081E090E00E946F
:100E00007709FC01892B91F380E883830115110593
:100E100071F01387028781E883838091D2039091D8
:100E2000D303892B21F4F093D303E093D2032097CB
:100E3000C9F0D187C0878381826083838091D40386
:100E40009091D503892B71F4F093D503E093D403EB
:100E50008091D6039091D703892B21F4F093D70387
:100E6000E093D603CF01DF91CF911F910F910895A9
:100E7000CF93DF93CDB7DEB7AE014A5F5F4FFA0184
:100E800061917191AF018091D4039091D5030E943B
:100E90007C07DF91CF9108950F931F93CF93DF933A
:100EA000E091D403F091D503238121FF1BC08C0175
:100EB000D0E0C0E0F80181918F016091D40370917E
:100EC000D503DB011896ED91FC911997882331F039
:100ED0001995892B79F3DFEFCFEFECCF8AE01995E5
:100EE000892B19F08FEF9FEF02C08D2F9C2FDF9180
:100EF000CF911F910F9108952F923F924F925F9241
:100F00006F927F928F929F92AF92BF92CF92DF9219
:100F1000EF92FF920F931F93CF93DF93CDB7DEB77E
:100F20002C970FB6F894DEBF0FBECDBF7C016B01CE
:100F30008A01FC0117821682838181FFBDC1CE0127
:100F400001964C01F7019381F60193FD859193FF82
:100F500081916F01882309F4ABC1853239F493FD87
:100F6000859193FF81916F01853229F4B70190E05B
:100F70000E94DD0AE7CF512C312C20E02032A0F472
:100F80008B3269F030F4803259F0833269F4206199
:100F90002CC08D3239F0803339F4216026C02260B4
:100FA000246023C0286021C027FD27C030ED380F02
:100FB0003A3078F426FF06C0FAE05F9E300D112427
:100FC000532E13C08AE0389E300D1124332E206238
:100FD0000CC08E3221F426FD6BC1206406C08C3615
:100FE00011F4206802C0883641F4F60193FD859122
:100FF00093FF81916F018111C1CF982F9F7D9554EF
:10100000933028F40C5F1F4FFFE3F9830DC0833644
:1010100031F0833771F0833509F05BC022C0F801ED
:10102000808189830E5F1F4F44244394512C5401C7
:1010300015C03801F2E06F0E711CF801A080B1807C
:1010400026FF03C0652D70E002C06FEF7FEFC50182
:101050002C870E94D20A2C0183012C852F77222E07
:1010600017C03801F2E06F0E711CF801A080B1804A
:1010700026FF03C0652D70E002C06FEF7FEFC50152
:101080002C870E94C00A2C012C852068222E830107
:1010900023FC1BC0832D90E048165906B0F4B7011D
:1010A00080E290E00E94DD0A3A94F4CFF50127FC3B
:1010B000859127FE81915F01B70190E00E94DD0AD2
:1010C00031103A94F1E04F1A51084114510471F76C
:1010D000E5C0843611F0893639F5F80127FF07C0DD
:1010E00060817181828193810C5F1F4F08C0608194
:1010F0007181072E000C880B990B0E5F1F4F2F7606
:10110000722E97FF09C090958095709561957F4FDD
:101110008F4F9F4F2068722E2AE030E0A4010E947A
:10112000150BA82EA81844C0853729F42F7EB22E9F
:101130002AE030E025C0F22FF97FBF2E8F36C1F0B4
:1011400018F4883579F0B4C0803719F0883721F069
:10115000AFC02F2F2061B22EB4FE0DC08B2D846046
:10116000B82E09C024FF0AC09F2F9660B92E06C072
:1011700028E030E005C020E130E002C020E132E0AC
:10118000F801B7FE07C060817181828193810C5F95
:101190001F4F06C06081718180E090E00E5F1F4F9D
:1011A000A4010E94150BA82EA818FB2DFF777F2EF7
:1011B00076FE0BC0372D3E7FA51450F474FE0AC096
:1011C00072FC08C0372D3E7E05C0BA2C372D03C0F7
:1011D000BA2C01C0B52C34FF0DC0FE01EA0DF11D83
:1011E0008081803311F4397E09C032FF06C0B39488
:1011F000B39404C0832F867809F0B39433FD13C0F1
:1012000030FF06C05A2CB31418F4530C5B18B32CDF
:10121000B31468F4B70180E290E03C870E94DD0AD5
:10122000B3943C85F5CFB31410F43B1801C0312CB6
:1012300034FF12C0B70180E390E03C870E94DD0AD2
:101240003C8532FF17C031FD03C088E790E002C043
:1012500088E590E0B7010CC0832F867859F031FF04
:1012600002C08BE201C080E237FD8DE2B70190E061
:101270000E94DD0AA51438F4B70180E390E00E94D3
:10128000DD0A5A94F7CFAA94F401EA0DF11D80818A
:10129000B70190E00E94DD0AA110F5CF332009F4D8
:1012A00051CEB70180E290E00E94DD0A3A94F6CF79
:1012B000F7018681978102C08FEF9FEF2C960FB6C2
:1012C000F894DEBF0FBECDBFDF91CF911F910F917C
:1012D000FF90EF90DF90CF90BF90AF909F908F9056
:1012E0007F906F905F904F903F902F9008950F9355
:1012F0001F93CF93DF93869F8001879F100D969F4A
:10130000100D1124C8010E949309EC01009729F0E7
:10131000A80160E070E00E94CB0ACE01DF91CF917E
:101320001F910F910895CF93DF938230910510F4B0
:1013300082E090E0E091DA03F091DB0320E030E01E
:10134000C0E0D0E0309711F1408151814817590732
:10135000C0F04817590761F482819381209719F0F2
:101360009B838A832BC09093DB038093DA0326C090
:101370002115310519F04217530718F49A01BE01DF
:10138000DF01EF010280F381E02DDCCF2115310573
:1013900009F1281B390B2430310590F412968D91F8
:1013A0009C9113976115710521F0FB019383828352
:1013B00004C09093DB038093DA03FD01329644C0AE
:1013C000FD01E20FF31F81939193225031092D9378
:1013D0003C933AC02091D8033091D903232B41F498
:1013E0002091190230911A023093D9032093D80327
:1013F00020911702309118022115310541F42DB7C3
:101400003EB740911B0250911C02241B350BE0910A
:10141000D803F091D903E217F307A0F42E1B3F0B7A
:101420002817390778F0AC014E5F5F4F2417350756
:1014300048F04E0F5F1F5093D9034093D803819318
:10144000919302C0E0E0F0E0CF01DF91CF910895E9
:101450000F931F93CF93DF93009709F48CC0FC0187
:101460003297138212820091DA031091DB03011587
:10147000110581F420813181820F931F2091D803BF
:101480003091D9032817390779F5F093D903E09300
:10149000D80371C0D80140E050E0AE17BF0750F448
:1014A00012962D913C911397AD012115310509F14B
:1014B000D901F3CF9D01DA013383228360817181E9
:1014C000860F971F8217930769F4EC0128813981F1
:1014D000260F371F2E5F3F4F318320838A819B81E8
:1014E00093838283452B29F4F093DB03E093DA03A3
:1014F00042C01396FC93EE931297ED0149915991D6
:101500009E01240F351FE217F30771F4808191814A
:10151000840F951F029611969C938E9382819381DE
:1015200013969C938E931297E0E0F0E0D801129608
:101530008D919C911397009719F0F8018C01F6CFCB
:101540008D919C9198012E5F3F4F820F931F2091A8
:10155000D8033091D9032817390769F4309729F453
:101560001092DB031092DA0302C0138212821093EE
:10157000D9030093D803DF91CF911F910F91089564
:10158000FC010590615070400110D8F7809590954E
:101590008E0F9F1F0895DC0101C06D934150504094
:1015A000E0F70895FC016150704001900110D8F7F8
:1015B000809590958E0F9F1F08950F931F93CF9343
:1015C000DF93FB01238121FD03C08FEF9FEF28C034
:1015D00022FF16C046815781248135814217530767
:1015E00044F4A081B1819D012F5F3F4F318320835F
:1015F0008C93268137812F5F3F4F3783268310C01E
:10160000EB01092F182F0084F185E02D1995892B06
:10161000E1F68E819F8101969F838E83812F902F8B
:10162000DF91CF911F910F910895FA01AA272830D9
:1016300051F1203181F1E8946F936E7F6E5F7F4F9F
:101640008F4F9F4FAF4FB1E03ED0B4E03CD0670F1B
:10165000781F891F9A1FA11D680F791F8A1F911D6E
:10166000A11D6A0F711D811D911DA11D20D009F4BE
:1016700068943F912AE0269F11243019305D319300
:10168000DEF6CF010895462F4770405D4193B3E0E9
:101690000FD0C9F7F6CF462F4F70405D4A3318F090
:1016A000495D31FD4052419302D0A9F7EACFB4E041
:1016B000A6959795879577956795BA95C9F70097F9
:1016C0006105710508959B01AC010A2E069457959A
:1016D000479537952795BA95C9F7620F731F841FF1
:0A16E000951FA01D0895F894FFCF98
:1016EA00FA00000001010001140318032403310366
:1016FA003C0347035A03F80000DC0320005354411B
:10170A005254006E65775F74696D6520257509000E
:10171A0054494D4520544F20474F20544F20574F8E
:10172A00524B20464F5220544845204558414D536C
:10173A0000736C69646572203A2025640900746F2D
:10174A0067676C696E6720736F6C656E6F69640991
:10175A00006E6F20726563657074696F6E206F72B8
:10176A0020494420756E757365640A0D00596F75BA
:10177A00206C6F6F736520436C616972652C2079E8
:10178A006F752772652073636F72652069732025F0
:10179A0064004D435032353135206973204E4F5421
:1017AA0020696E207468652063686F73656E206DAA
:1017BA006F64652061667465722072657365740A68
:1017CA000D004D43502077656C6C20636F6E66691F
:1017DA0067757265640A0D004D65737361676520EC
:1017EA00696420256409002573006D73673A202512
:1017FA006409200042544E006C6566745F736C691C
:10180A006465720072696768745F736C6964657293
:10181A00006A6F79737469636B5F58006A6F7973D2
:10182A007469636B5F59006A6F79737469636B5F7C
:10183A006D61676E6974756465006A6F797374693E
:10184A00636B5F616E676C650050574D20494E4966
:10185A005420444F4E450D004D4F544F5220494E8F
:10186A00495420444F4E450A0D000A0D5049442060
:10187A00494E495420444F4E45000A0D656E636F28
:10188A00646572202564096572726F722025640985
:10189A0073756D4572726F72202564096F75707564
:0A18AA007420504944202564090011
:00000001FF
